{
	"contracts/FianansuToken.sol": {
		"FINA": {
			"abi": [
				{
					"inputs": [],
					"stateMutability": "nonpayable",
					"type": "constructor"
				},
				{
					"anonymous": false,
					"inputs": [
						{
							"indexed": true,
							"internalType": "address",
							"name": "owner",
							"type": "address"
						},
						{
							"indexed": true,
							"internalType": "address",
							"name": "spender",
							"type": "address"
						},
						{
							"indexed": false,
							"internalType": "uint256",
							"name": "value",
							"type": "uint256"
						}
					],
					"name": "Approval",
					"type": "event"
				},
				{
					"anonymous": false,
					"inputs": [
						{
							"indexed": false,
							"internalType": "address",
							"name": "account",
							"type": "address"
						},
						{
							"indexed": false,
							"internalType": "uint256",
							"name": "amount",
							"type": "uint256"
						}
					],
					"name": "Burn",
					"type": "event"
				},
				{
					"anonymous": false,
					"inputs": [
						{
							"indexed": false,
							"internalType": "address",
							"name": "account",
							"type": "address"
						},
						{
							"indexed": false,
							"internalType": "uint256",
							"name": "amount",
							"type": "uint256"
						}
					],
					"name": "Mint",
					"type": "event"
				},
				{
					"anonymous": false,
					"inputs": [
						{
							"indexed": true,
							"internalType": "address",
							"name": "from",
							"type": "address"
						},
						{
							"indexed": true,
							"internalType": "address",
							"name": "to",
							"type": "address"
						},
						{
							"indexed": false,
							"internalType": "uint256",
							"name": "value",
							"type": "uint256"
						}
					],
					"name": "Transfer",
					"type": "event"
				},
				{
					"inputs": [],
					"name": "DOMAIN_SEPARATOR",
					"outputs": [
						{
							"internalType": "bytes32",
							"name": "",
							"type": "bytes32"
						}
					],
					"stateMutability": "view",
					"type": "function"
				},
				{
					"inputs": [
						{
							"internalType": "address",
							"name": "",
							"type": "address"
						},
						{
							"internalType": "address",
							"name": "",
							"type": "address"
						}
					],
					"name": "allowance",
					"outputs": [
						{
							"internalType": "uint256",
							"name": "",
							"type": "uint256"
						}
					],
					"stateMutability": "view",
					"type": "function"
				},
				{
					"inputs": [
						{
							"internalType": "address",
							"name": "spender",
							"type": "address"
						},
						{
							"internalType": "uint256",
							"name": "amount",
							"type": "uint256"
						}
					],
					"name": "approve",
					"outputs": [
						{
							"internalType": "bool",
							"name": "",
							"type": "bool"
						}
					],
					"stateMutability": "nonpayable",
					"type": "function"
				},
				{
					"inputs": [
						{
							"internalType": "address",
							"name": "",
							"type": "address"
						}
					],
					"name": "balanceOf",
					"outputs": [
						{
							"internalType": "uint256",
							"name": "",
							"type": "uint256"
						}
					],
					"stateMutability": "view",
					"type": "function"
				},
				{
					"inputs": [
						{
							"internalType": "address",
							"name": "account",
							"type": "address"
						},
						{
							"internalType": "uint256",
							"name": "_amount",
							"type": "uint256"
						}
					],
					"name": "burnFINA",
					"outputs": [],
					"stateMutability": "nonpayable",
					"type": "function"
				},
				{
					"inputs": [],
					"name": "decimals",
					"outputs": [
						{
							"internalType": "uint8",
							"name": "",
							"type": "uint8"
						}
					],
					"stateMutability": "view",
					"type": "function"
				},
				{
					"inputs": [
						{
							"internalType": "address",
							"name": "account",
							"type": "address"
						},
						{
							"internalType": "uint256",
							"name": "_amount",
							"type": "uint256"
						}
					],
					"name": "mintFINA",
					"outputs": [],
					"stateMutability": "nonpayable",
					"type": "function"
				},
				{
					"inputs": [],
					"name": "name",
					"outputs": [
						{
							"internalType": "string",
							"name": "",
							"type": "string"
						}
					],
					"stateMutability": "view",
					"type": "function"
				},
				{
					"inputs": [
						{
							"internalType": "address",
							"name": "owner",
							"type": "address"
						},
						{
							"internalType": "address",
							"name": "spender",
							"type": "address"
						},
						{
							"internalType": "uint256",
							"name": "nonce",
							"type": "uint256"
						},
						{
							"internalType": "uint256",
							"name": "deadline",
							"type": "uint256"
						},
						{
							"internalType": "bool",
							"name": "allowed",
							"type": "bool"
						},
						{
							"internalType": "uint8",
							"name": "v",
							"type": "uint8"
						},
						{
							"internalType": "bytes32",
							"name": "r",
							"type": "bytes32"
						},
						{
							"internalType": "bytes32",
							"name": "s",
							"type": "bytes32"
						}
					],
					"name": "permit",
					"outputs": [],
					"stateMutability": "nonpayable",
					"type": "function"
				},
				{
					"inputs": [],
					"name": "symbol",
					"outputs": [
						{
							"internalType": "string",
							"name": "",
							"type": "string"
						}
					],
					"stateMutability": "view",
					"type": "function"
				},
				{
					"inputs": [],
					"name": "totalSupply",
					"outputs": [
						{
							"internalType": "uint256",
							"name": "",
							"type": "uint256"
						}
					],
					"stateMutability": "view",
					"type": "function"
				},
				{
					"inputs": [
						{
							"internalType": "address",
							"name": "recipient",
							"type": "address"
						},
						{
							"internalType": "uint256",
							"name": "amount",
							"type": "uint256"
						}
					],
					"name": "transfer",
					"outputs": [
						{
							"internalType": "bool",
							"name": "",
							"type": "bool"
						}
					],
					"stateMutability": "nonpayable",
					"type": "function"
				},
				{
					"inputs": [
						{
							"internalType": "address",
							"name": "sender",
							"type": "address"
						},
						{
							"internalType": "address",
							"name": "recipient",
							"type": "address"
						},
						{
							"internalType": "uint256",
							"name": "amount",
							"type": "uint256"
						}
					],
					"name": "transferFrom",
					"outputs": [
						{
							"internalType": "bool",
							"name": "",
							"type": "bool"
						}
					],
					"stateMutability": "nonpayable",
					"type": "function"
				}
			],
			"devdoc": {
				"kind": "dev",
				"methods": {
					"permit(address,address,uint256,uint256,bool,uint8,bytes32,bytes32)": {
						"details": "Implementation of the ERC20 Permit extension allowing approvals to be made via signatures, as defined in https://eips.ethereum.org/EIPS/eip-2612[EIP-2612]. Adds the {permit} method, which can be used to change an account's ERC20 allowance (see {IERC20-allowance}) by presenting a message signed by the account. By not relying on `{IERC20-approve}`, the token holder account doesn't need to send a transaction, and thus is not required to hold Ether at all. _Available since v3.4._"
					}
				},
				"version": 1
			},
			"evm": {
				"assembly": "    /* \"contracts/FianansuToken.sol\":95:680  contract FINA is ERC20{... */\n  mstore(0x40, 0x80)\n    /* \"contracts/FianansuToken.sol\":274:315  constructor() ERC20(\"Fianansu\", \"FINA\"){} */\n  callvalue\n  dup1\n  iszero\n  tag_1\n  jumpi\n  0x00\n  dup1\n  revert\ntag_1:\n  pop\n    /* \"contracts/ERC20.sol\":439:962  constructor(string memory name_, string memory symbol_){... */\n  mload(0x40)\n  dup1\n  0x40\n  add\n  0x40\n  mstore\n  dup1\n  0x08\n  dup2\n  mstore\n  0x20\n  add\n  0x4669616e616e7375000000000000000000000000000000000000000000000000\n  dup2\n  mstore\n  pop\n  mload(0x40)\n  dup1\n  0x40\n  add\n  0x40\n  mstore\n  dup1\n  0x04\n  dup2\n  mstore\n  0x20\n  add\n  0x46494e4100000000000000000000000000000000000000000000000000000000\n  dup2\n  mstore\n  pop\n    /* \"contracts/ERC20.sol\":512:517  name_ */\n  dup2\n    /* \"contracts/ERC20.sol\":504:509  _name */\n  0x04\n    /* \"contracts/ERC20.sol\":504:517  _name = name_ */\n  swap1\n  dup1\n  mload\n  swap1\n  0x20\n  add\n  swap1\n  tag_5\n  swap3\n  swap2\n  swap1\n  tag_6\n  jump\t// in\ntag_5:\n  pop\n    /* \"contracts/ERC20.sol\":537:544  symbol_ */\n  dup1\n    /* \"contracts/ERC20.sol\":527:534  _symbol */\n  0x05\n    /* \"contracts/ERC20.sol\":527:544  _symbol = symbol_ */\n  swap1\n  dup1\n  mload\n  swap1\n  0x20\n  add\n  swap1\n  tag_7\n  swap3\n  swap2\n  swap1\n  tag_6\n  jump\t// in\ntag_7:\n  pop\n    /* \"contracts/ERC20.sol\":554:570  uint256 chainId_ */\n  0x00\n    /* \"contracts/ERC20.sol\":573:577  3141 */\n  0x0c45\n    /* \"contracts/ERC20.sol\":554:577  uint256 chainId_ = 3141 */\n  swap1\n  pop\n    /* \"contracts/ERC20.sol\":727:822  keccak256(\"EIP712Domain(string name,string version,uint256 chainId,address verifyingContract)\") */\n  0x8b73c3c69bb8fe3d512ecc4cf759cc79239f7b179b0ffacaa9a75d522b39400f\n    /* \"contracts/ERC20.sol\":852:858  name() */\n  tag_8\n    /* \"contracts/ERC20.sol\":852:856  name */\n  shl(0x20, tag_9)\n    /* \"contracts/ERC20.sol\":852:858  name() */\n  0x20\n  shr\n  jump\t// in\ntag_8:\n    /* \"contracts/ERC20.sol\":836:860  keccak256(bytes(name())) */\n  dup1\n  mload\n  swap1\n  0x20\n  add\n  keccak256\n    /* \"contracts/ERC20.sol\":884:894  bytes(\"1\") */\n  mload(0x40)\n  dup1\n  0x40\n  add\n  0x40\n  mstore\n  dup1\n  0x01\n  dup2\n  mstore\n  0x20\n  add\n  0x3100000000000000000000000000000000000000000000000000000000000000\n  dup2\n  mstore\n  pop\n    /* \"contracts/ERC20.sol\":874:895  keccak256(bytes(\"1\")) */\n  dup1\n  mload\n  swap1\n  0x20\n  add\n  keccak256\n    /* \"contracts/ERC20.sol\":909:917  chainId_ */\n  dup4\n    /* \"contracts/ERC20.sol\":939:943  this */\n  address\n    /* \"contracts/ERC20.sol\":703:954  abi.encode(... */\n  add(0x20, mload(0x40))\n  tag_10\n  swap6\n  swap5\n  swap4\n  swap3\n  swap2\n  swap1\n  tag_11\n  jump\t// in\ntag_10:\n  mload(0x40)\n  0x20\n  dup2\n  dup4\n  sub\n  sub\n  dup2\n  mstore\n  swap1\n  0x40\n  mstore\n    /* \"contracts/ERC20.sol\":693:955  keccak256(abi.encode(... */\n  dup1\n  mload\n  swap1\n  0x20\n  add\n  keccak256\n    /* \"contracts/ERC20.sol\":674:690  DOMAIN_SEPARATOR */\n  0x06\n    /* \"contracts/ERC20.sol\":674:955  DOMAIN_SEPARATOR = keccak256(abi.encode(... */\n  dup2\n  swap1\n  sstore\n  pop\n    /* \"contracts/ERC20.sol\":439:962  constructor(string memory name_, string memory symbol_){... */\n  pop\n  pop\n  pop\n    /* \"contracts/FianansuToken.sol\":95:680  contract FINA is ERC20{... */\n  jump(tag_13)\n    /* \"contracts/ERC20.sol\":968:1057  function name() public view virtual returns (string memory) {... */\ntag_9:\n    /* \"contracts/ERC20.sol\":1013:1026  string memory */\n  0x60\n    /* \"contracts/ERC20.sol\":1045:1050  _name */\n  0x04\n    /* \"contracts/ERC20.sol\":1038:1050  return _name */\n  dup1\n  sload\n  tag_15\n  swap1\n  tag_16\n  jump\t// in\ntag_15:\n  dup1\n  0x1f\n  add\n  0x20\n  dup1\n  swap2\n  div\n  mul\n  0x20\n  add\n  mload(0x40)\n  swap1\n  dup2\n  add\n  0x40\n  mstore\n  dup1\n  swap3\n  swap2\n  swap1\n  dup2\n  dup2\n  mstore\n  0x20\n  add\n  dup3\n  dup1\n  sload\n  tag_17\n  swap1\n  tag_16\n  jump\t// in\ntag_17:\n  dup1\n  iszero\n  tag_18\n  jumpi\n  dup1\n  0x1f\n  lt\n  tag_19\n  jumpi\n  0x0100\n  dup1\n  dup4\n  sload\n  div\n  mul\n  dup4\n  mstore\n  swap2\n  0x20\n  add\n  swap2\n  jump(tag_18)\ntag_19:\n  dup3\n  add\n  swap2\n  swap1\n  0x00\n  mstore\n  keccak256(0x00, 0x20)\n  swap1\ntag_20:\n  dup2\n  sload\n  dup2\n  mstore\n  swap1\n  0x01\n  add\n  swap1\n  0x20\n  add\n  dup1\n  dup4\n  gt\n  tag_20\n  jumpi\n  dup3\n  swap1\n  sub\n  0x1f\n  and\n  dup3\n  add\n  swap2\ntag_18:\n  pop\n  pop\n  pop\n  pop\n  pop\n  swap1\n  pop\n    /* \"contracts/ERC20.sol\":968:1057  function name() public view virtual returns (string memory) {... */\n  swap1\n  jump\t// out\n    /* \"contracts/FianansuToken.sol\":95:680  contract FINA is ERC20{... */\ntag_6:\n  dup3\n  dup1\n  sload\n  tag_21\n  swap1\n  tag_16\n  jump\t// in\ntag_21:\n  swap1\n  0x00\n  mstore\n  keccak256(0x00, 0x20)\n  swap1\n  0x1f\n  add\n  0x20\n  swap1\n  div\n  dup2\n  add\n  swap3\n  dup3\n  tag_23\n  jumpi\n  0x00\n  dup6\n  sstore\n  jump(tag_22)\ntag_23:\n  dup3\n  0x1f\n  lt\n  tag_24\n  jumpi\n  dup1\n  mload\n  not(0xff)\n  and\n  dup4\n  dup1\n  add\n  or\n  dup6\n  sstore\n  jump(tag_22)\ntag_24:\n  dup3\n  dup1\n  add\n  0x01\n  add\n  dup6\n  sstore\n  dup3\n  iszero\n  tag_22\n  jumpi\n  swap2\n  dup3\n  add\ntag_25:\n  dup3\n  dup2\n  gt\n  iszero\n  tag_26\n  jumpi\n  dup3\n  mload\n  dup3\n  sstore\n  swap2\n  0x20\n  add\n  swap2\n  swap1\n  0x01\n  add\n  swap1\n  jump(tag_25)\ntag_26:\ntag_22:\n  pop\n  swap1\n  pop\n  tag_27\n  swap2\n  swap1\n  tag_28\n  jump\t// in\ntag_27:\n  pop\n  swap1\n  jump\t// out\ntag_28:\ntag_29:\n  dup1\n  dup3\n  gt\n  iszero\n  tag_30\n  jumpi\n  0x00\n  dup2\n  0x00\n  swap1\n  sstore\n  pop\n  0x01\n  add\n  jump(tag_29)\ntag_30:\n  pop\n  swap1\n  jump\t// out\n    /* \"#utility.yul\":7:125   */\ntag_32:\n    /* \"#utility.yul\":94:118   */\n  tag_34\n    /* \"#utility.yul\":112:117   */\n  dup2\n    /* \"#utility.yul\":94:118   */\n  tag_35\n  jump\t// in\ntag_34:\n    /* \"#utility.yul\":89:92   */\n  dup3\n    /* \"#utility.yul\":82:119   */\n  mstore\n    /* \"#utility.yul\":72:125   */\n  pop\n  pop\n  jump\t// out\n    /* \"#utility.yul\":131:249   */\ntag_36:\n    /* \"#utility.yul\":218:242   */\n  tag_38\n    /* \"#utility.yul\":236:241   */\n  dup2\n    /* \"#utility.yul\":218:242   */\n  tag_39\n  jump\t// in\ntag_38:\n    /* \"#utility.yul\":213:216   */\n  dup3\n    /* \"#utility.yul\":206:243   */\n  mstore\n    /* \"#utility.yul\":196:249   */\n  pop\n  pop\n  jump\t// out\n    /* \"#utility.yul\":255:373   */\ntag_40:\n    /* \"#utility.yul\":342:366   */\n  tag_42\n    /* \"#utility.yul\":360:365   */\n  dup2\n    /* \"#utility.yul\":342:366   */\n  tag_43\n  jump\t// in\ntag_42:\n    /* \"#utility.yul\":337:340   */\n  dup3\n    /* \"#utility.yul\":330:367   */\n  mstore\n    /* \"#utility.yul\":320:373   */\n  pop\n  pop\n  jump\t// out\n    /* \"#utility.yul\":379:1043   */\ntag_11:\n  0x00\n    /* \"#utility.yul\":622:625   */\n  0xa0\n    /* \"#utility.yul\":611:620   */\n  dup3\n    /* \"#utility.yul\":607:626   */\n  add\n    /* \"#utility.yul\":599:626   */\n  swap1\n  pop\n    /* \"#utility.yul\":636:707   */\n  tag_45\n    /* \"#utility.yul\":704:705   */\n  0x00\n    /* \"#utility.yul\":693:702   */\n  dup4\n    /* \"#utility.yul\":689:706   */\n  add\n    /* \"#utility.yul\":680:686   */\n  dup9\n    /* \"#utility.yul\":636:707   */\n  tag_36\n  jump\t// in\ntag_45:\n    /* \"#utility.yul\":717:789   */\n  tag_46\n    /* \"#utility.yul\":785:787   */\n  0x20\n    /* \"#utility.yul\":774:783   */\n  dup4\n    /* \"#utility.yul\":770:788   */\n  add\n    /* \"#utility.yul\":761:767   */\n  dup8\n    /* \"#utility.yul\":717:789   */\n  tag_36\n  jump\t// in\ntag_46:\n    /* \"#utility.yul\":799:871   */\n  tag_47\n    /* \"#utility.yul\":867:869   */\n  0x40\n    /* \"#utility.yul\":856:865   */\n  dup4\n    /* \"#utility.yul\":852:870   */\n  add\n    /* \"#utility.yul\":843:849   */\n  dup7\n    /* \"#utility.yul\":799:871   */\n  tag_36\n  jump\t// in\ntag_47:\n    /* \"#utility.yul\":881:953   */\n  tag_48\n    /* \"#utility.yul\":949:951   */\n  0x60\n    /* \"#utility.yul\":938:947   */\n  dup4\n    /* \"#utility.yul\":934:952   */\n  add\n    /* \"#utility.yul\":925:931   */\n  dup6\n    /* \"#utility.yul\":881:953   */\n  tag_40\n  jump\t// in\ntag_48:\n    /* \"#utility.yul\":963:1036   */\n  tag_49\n    /* \"#utility.yul\":1031:1034   */\n  0x80\n    /* \"#utility.yul\":1020:1029   */\n  dup4\n    /* \"#utility.yul\":1016:1035   */\n  add\n    /* \"#utility.yul\":1007:1013   */\n  dup5\n    /* \"#utility.yul\":963:1036   */\n  tag_32\n  jump\t// in\ntag_49:\n    /* \"#utility.yul\":589:1043   */\n  swap7\n  swap6\n  pop\n  pop\n  pop\n  pop\n  pop\n  pop\n  jump\t// out\n    /* \"#utility.yul\":1049:1145   */\ntag_35:\n  0x00\n    /* \"#utility.yul\":1115:1139   */\n  tag_51\n    /* \"#utility.yul\":1133:1138   */\n  dup3\n    /* \"#utility.yul\":1115:1139   */\n  tag_52\n  jump\t// in\ntag_51:\n    /* \"#utility.yul\":1104:1139   */\n  swap1\n  pop\n    /* \"#utility.yul\":1094:1145   */\n  swap2\n  swap1\n  pop\n  jump\t// out\n    /* \"#utility.yul\":1151:1228   */\ntag_39:\n  0x00\n    /* \"#utility.yul\":1217:1222   */\n  dup2\n    /* \"#utility.yul\":1206:1222   */\n  swap1\n  pop\n    /* \"#utility.yul\":1196:1228   */\n  swap2\n  swap1\n  pop\n  jump\t// out\n    /* \"#utility.yul\":1234:1360   */\ntag_52:\n  0x00\n    /* \"#utility.yul\":1311:1353   */\n  0xffffffffffffffffffffffffffffffffffffffff\n    /* \"#utility.yul\":1304:1309   */\n  dup3\n    /* \"#utility.yul\":1300:1354   */\n  and\n    /* \"#utility.yul\":1289:1354   */\n  swap1\n  pop\n    /* \"#utility.yul\":1279:1360   */\n  swap2\n  swap1\n  pop\n  jump\t// out\n    /* \"#utility.yul\":1366:1443   */\ntag_43:\n  0x00\n    /* \"#utility.yul\":1432:1437   */\n  dup2\n    /* \"#utility.yul\":1421:1437   */\n  swap1\n  pop\n    /* \"#utility.yul\":1411:1443   */\n  swap2\n  swap1\n  pop\n  jump\t// out\n    /* \"#utility.yul\":1449:1769   */\ntag_16:\n  0x00\n    /* \"#utility.yul\":1530:1531   */\n  0x02\n    /* \"#utility.yul\":1524:1528   */\n  dup3\n    /* \"#utility.yul\":1520:1532   */\n  div\n    /* \"#utility.yul\":1510:1532   */\n  swap1\n  pop\n    /* \"#utility.yul\":1577:1578   */\n  0x01\n    /* \"#utility.yul\":1571:1575   */\n  dup3\n    /* \"#utility.yul\":1567:1579   */\n  and\n    /* \"#utility.yul\":1598:1616   */\n  dup1\n    /* \"#utility.yul\":1588:1590   */\n  tag_57\n  jumpi\n    /* \"#utility.yul\":1654:1658   */\n  0x7f\n    /* \"#utility.yul\":1646:1652   */\n  dup3\n    /* \"#utility.yul\":1642:1659   */\n  and\n    /* \"#utility.yul\":1632:1659   */\n  swap2\n  pop\n    /* \"#utility.yul\":1588:1590   */\ntag_57:\n    /* \"#utility.yul\":1716:1718   */\n  0x20\n    /* \"#utility.yul\":1708:1714   */\n  dup3\n    /* \"#utility.yul\":1705:1719   */\n  lt\n    /* \"#utility.yul\":1685:1703   */\n  dup2\n    /* \"#utility.yul\":1682:1720   */\n  eq\n    /* \"#utility.yul\":1679:1681   */\n  iszero\n  tag_58\n  jumpi\n    /* \"#utility.yul\":1735:1753   */\n  tag_59\n  tag_60\n  jump\t// in\ntag_59:\n    /* \"#utility.yul\":1679:1681   */\ntag_58:\n    /* \"#utility.yul\":1500:1769   */\n  pop\n  swap2\n  swap1\n  pop\n  jump\t// out\n    /* \"#utility.yul\":1775:1955   */\ntag_60:\n    /* \"#utility.yul\":1823:1900   */\n  0x4e487b7100000000000000000000000000000000000000000000000000000000\n    /* \"#utility.yul\":1820:1821   */\n  0x00\n    /* \"#utility.yul\":1813:1901   */\n  mstore\n    /* \"#utility.yul\":1920:1924   */\n  0x22\n    /* \"#utility.yul\":1917:1918   */\n  0x04\n    /* \"#utility.yul\":1910:1925   */\n  mstore\n    /* \"#utility.yul\":1944:1948   */\n  0x24\n    /* \"#utility.yul\":1941:1942   */\n  0x00\n    /* \"#utility.yul\":1934:1949   */\n  revert\n    /* \"contracts/FianansuToken.sol\":95:680  contract FINA is ERC20{... */\ntag_13:\n  dataSize(sub_0)\n  dup1\n  dataOffset(sub_0)\n  0x00\n  codecopy\n  0x00\n  return\nstop\n\nsub_0: assembly {\n        /* \"contracts/FianansuToken.sol\":95:680  contract FINA is ERC20{... */\n      mstore(0x40, 0x80)\n      callvalue\n      dup1\n      iszero\n      tag_1\n      jumpi\n      0x00\n      dup1\n      revert\n    tag_1:\n      pop\n      jumpi(tag_2, lt(calldatasize, 0x04))\n      shr(0xe0, calldataload(0x00))\n      dup1\n      0x70a08231\n      gt\n      tag_16\n      jumpi\n      dup1\n      0xa9059cbb\n      gt\n      tag_17\n      jumpi\n      dup1\n      0xa9059cbb\n      eq\n      tag_12\n      jumpi\n      dup1\n      0xac69417e\n      eq\n      tag_13\n      jumpi\n      dup1\n      0xb190928b\n      eq\n      tag_14\n      jumpi\n      dup1\n      0xdd62ed3e\n      eq\n      tag_15\n      jumpi\n      jump(tag_2)\n    tag_17:\n      dup1\n      0x70a08231\n      eq\n      tag_9\n      jumpi\n      dup1\n      0x8fcbaf0c\n      eq\n      tag_10\n      jumpi\n      dup1\n      0x95d89b41\n      eq\n      tag_11\n      jumpi\n      jump(tag_2)\n    tag_16:\n      dup1\n      0x06fdde03\n      eq\n      tag_3\n      jumpi\n      dup1\n      0x095ea7b3\n      eq\n      tag_4\n      jumpi\n      dup1\n      0x18160ddd\n      eq\n      tag_5\n      jumpi\n      dup1\n      0x23b872dd\n      eq\n      tag_6\n      jumpi\n      dup1\n      0x313ce567\n      eq\n      tag_7\n      jumpi\n      dup1\n      0x3644e515\n      eq\n      tag_8\n      jumpi\n    tag_2:\n      0x00\n      dup1\n      revert\n        /* \"contracts/ERC20.sol\":968:1057  function name() public view virtual returns (string memory) {... */\n    tag_3:\n      tag_18\n      tag_19\n      jump\t// in\n    tag_18:\n      mload(0x40)\n      tag_20\n      swap2\n      swap1\n      tag_21\n      jump\t// in\n    tag_20:\n      mload(0x40)\n      dup1\n      swap2\n      sub\n      swap1\n      return\n        /* \"contracts/ERC20.sol\":1503:1711  function approve(address spender, uint amount) override external returns (bool){... */\n    tag_4:\n      tag_22\n      0x04\n      dup1\n      calldatasize\n      sub\n      dup2\n      add\n      swap1\n      tag_23\n      swap2\n      swap1\n      tag_24\n      jump\t// in\n    tag_23:\n      tag_25\n      jump\t// in\n    tag_22:\n      mload(0x40)\n      tag_26\n      swap2\n      swap1\n      tag_27\n      jump\t// in\n    tag_26:\n      mload(0x40)\n      dup1\n      swap2\n      sub\n      swap1\n      return\n        /* \"contracts/ERC20.sol\":295:330  uint256 public override totalSupply */\n    tag_5:\n      tag_28\n      tag_29\n      jump\t// in\n    tag_28:\n      mload(0x40)\n      tag_30\n      swap2\n      swap1\n      tag_31\n      jump\t// in\n    tag_30:\n      mload(0x40)\n      dup1\n      swap2\n      sub\n      swap1\n      return\n        /* \"contracts/ERC20.sol\":3390:3731  function transferFrom(... */\n    tag_6:\n      tag_32\n      0x04\n      dup1\n      calldatasize\n      sub\n      dup2\n      add\n      swap1\n      tag_33\n      swap2\n      swap1\n      tag_34\n      jump\t// in\n    tag_33:\n      tag_35\n      jump\t// in\n    tag_32:\n      mload(0x40)\n      tag_36\n      swap2\n      swap1\n      tag_27\n      jump\t// in\n    tag_36:\n      mload(0x40)\n      dup1\n      swap2\n      sub\n      swap1\n      return\n        /* \"contracts/ERC20.sol\":1162:1244  function decimals() public view virtual returns (uint8) {... */\n    tag_7:\n      tag_37\n      tag_38\n      jump\t// in\n    tag_37:\n      mload(0x40)\n      tag_39\n      swap2\n      swap1\n      tag_40\n      jump\t// in\n    tag_39:\n      mload(0x40)\n      dup1\n      swap2\n      sub\n      swap1\n      return\n        /* \"contracts/ERC20.sol\":392:432  bytes32 public override DOMAIN_SEPARATOR */\n    tag_8:\n      tag_41\n      tag_42\n      jump\t// in\n    tag_41:\n      mload(0x40)\n      tag_43\n      swap2\n      swap1\n      tag_44\n      jump\t// in\n    tag_43:\n      mload(0x40)\n      dup1\n      swap2\n      sub\n      swap1\n      return\n        /* \"contracts/ERC20.sol\":112:163  mapping (address => uint) public override balanceOf */\n    tag_9:\n      tag_45\n      0x04\n      dup1\n      calldatasize\n      sub\n      dup2\n      add\n      swap1\n      tag_46\n      swap2\n      swap1\n      tag_47\n      jump\t// in\n    tag_46:\n      tag_48\n      jump\t// in\n    tag_45:\n      mload(0x40)\n      tag_49\n      swap2\n      swap1\n      tag_31\n      jump\t// in\n    tag_49:\n      mload(0x40)\n      dup1\n      swap2\n      sub\n      swap1\n      return\n        /* \"contracts/ERC20.sol\":1717:3384  function permit(... */\n    tag_10:\n      tag_50\n      0x04\n      dup1\n      calldatasize\n      sub\n      dup2\n      add\n      swap1\n      tag_51\n      swap2\n      swap1\n      tag_52\n      jump\t// in\n    tag_51:\n      tag_53\n      jump\t// in\n    tag_50:\n      stop\n        /* \"contracts/ERC20.sol\":1063:1156  function symbol() public view virtual returns (string memory) {... */\n    tag_11:\n      tag_54\n      tag_55\n      jump\t// in\n    tag_54:\n      mload(0x40)\n      tag_56\n      swap2\n      swap1\n      tag_21\n      jump\t// in\n    tag_56:\n      mload(0x40)\n      dup1\n      swap2\n      sub\n      swap1\n      return\n        /* \"contracts/ERC20.sol\":1250:1497  function transfer(address recipient, uint amount) override external returns (bool) {... */\n    tag_12:\n      tag_57\n      0x04\n      dup1\n      calldatasize\n      sub\n      dup2\n      add\n      swap1\n      tag_58\n      swap2\n      swap1\n      tag_24\n      jump\t// in\n    tag_58:\n      tag_59\n      jump\t// in\n    tag_57:\n      mload(0x40)\n      tag_60\n      swap2\n      swap1\n      tag_27\n      jump\t// in\n    tag_60:\n      mload(0x40)\n      dup1\n      swap2\n      sub\n      swap1\n      return\n        /* \"contracts/FianansuToken.sol\":507:678  function burnFINA(address account, uint256 _amount) external {... */\n    tag_13:\n      tag_61\n      0x04\n      dup1\n      calldatasize\n      sub\n      dup2\n      add\n      swap1\n      tag_62\n      swap2\n      swap1\n      tag_24\n      jump\t// in\n    tag_62:\n      tag_63\n      jump\t// in\n    tag_61:\n      stop\n        /* \"contracts/FianansuToken.sol\":321:501  function mintFINA(address account, uint256 _amount) external {... */\n    tag_14:\n      tag_64\n      0x04\n      dup1\n      calldatasize\n      sub\n      dup2\n      add\n      swap1\n      tag_65\n      swap2\n      swap1\n      tag_24\n      jump\t// in\n    tag_65:\n      tag_66\n      jump\t// in\n    tag_64:\n      stop\n        /* \"contracts/ERC20.sol\":169:238  mapping (address => mapping(address=>uint)) public override allowance */\n    tag_15:\n      tag_67\n      0x04\n      dup1\n      calldatasize\n      sub\n      dup2\n      add\n      swap1\n      tag_68\n      swap2\n      swap1\n      tag_69\n      jump\t// in\n    tag_68:\n      tag_70\n      jump\t// in\n    tag_67:\n      mload(0x40)\n      tag_71\n      swap2\n      swap1\n      tag_31\n      jump\t// in\n    tag_71:\n      mload(0x40)\n      dup1\n      swap2\n      sub\n      swap1\n      return\n        /* \"contracts/ERC20.sol\":968:1057  function name() public view virtual returns (string memory) {... */\n    tag_19:\n        /* \"contracts/ERC20.sol\":1013:1026  string memory */\n      0x60\n        /* \"contracts/ERC20.sol\":1045:1050  _name */\n      0x04\n        /* \"contracts/ERC20.sol\":1038:1050  return _name */\n      dup1\n      sload\n      tag_73\n      swap1\n      tag_74\n      jump\t// in\n    tag_73:\n      dup1\n      0x1f\n      add\n      0x20\n      dup1\n      swap2\n      div\n      mul\n      0x20\n      add\n      mload(0x40)\n      swap1\n      dup2\n      add\n      0x40\n      mstore\n      dup1\n      swap3\n      swap2\n      swap1\n      dup2\n      dup2\n      mstore\n      0x20\n      add\n      dup3\n      dup1\n      sload\n      tag_75\n      swap1\n      tag_74\n      jump\t// in\n    tag_75:\n      dup1\n      iszero\n      tag_76\n      jumpi\n      dup1\n      0x1f\n      lt\n      tag_77\n      jumpi\n      0x0100\n      dup1\n      dup4\n      sload\n      div\n      mul\n      dup4\n      mstore\n      swap2\n      0x20\n      add\n      swap2\n      jump(tag_76)\n    tag_77:\n      dup3\n      add\n      swap2\n      swap1\n      0x00\n      mstore\n      keccak256(0x00, 0x20)\n      swap1\n    tag_78:\n      dup2\n      sload\n      dup2\n      mstore\n      swap1\n      0x01\n      add\n      swap1\n      0x20\n      add\n      dup1\n      dup4\n      gt\n      tag_78\n      jumpi\n      dup3\n      swap1\n      sub\n      0x1f\n      and\n      dup3\n      add\n      swap2\n    tag_76:\n      pop\n      pop\n      pop\n      pop\n      pop\n      swap1\n      pop\n        /* \"contracts/ERC20.sol\":968:1057  function name() public view virtual returns (string memory) {... */\n      swap1\n      jump\t// out\n        /* \"contracts/ERC20.sol\":1503:1711  function approve(address spender, uint amount) override external returns (bool){... */\n    tag_25:\n        /* \"contracts/ERC20.sol\":1577:1581  bool */\n      0x00\n        /* \"contracts/ERC20.sol\":1625:1631  amount */\n      dup2\n        /* \"contracts/ERC20.sol\":1592:1601  allowance */\n      0x01\n        /* \"contracts/ERC20.sol\":1592:1613  allowance[msg.sender] */\n      0x00\n        /* \"contracts/ERC20.sol\":1602:1612  msg.sender */\n      caller\n        /* \"contracts/ERC20.sol\":1592:1613  allowance[msg.sender] */\n      0xffffffffffffffffffffffffffffffffffffffff\n      and\n      0xffffffffffffffffffffffffffffffffffffffff\n      and\n      dup2\n      mstore\n      0x20\n      add\n      swap1\n      dup2\n      mstore\n      0x20\n      add\n      0x00\n      keccak256\n        /* \"contracts/ERC20.sol\":1592:1622  allowance[msg.sender][spender] */\n      0x00\n        /* \"contracts/ERC20.sol\":1614:1621  spender */\n      dup6\n        /* \"contracts/ERC20.sol\":1592:1622  allowance[msg.sender][spender] */\n      0xffffffffffffffffffffffffffffffffffffffff\n      and\n      0xffffffffffffffffffffffffffffffffffffffff\n      and\n      dup2\n      mstore\n      0x20\n      add\n      swap1\n      dup2\n      mstore\n      0x20\n      add\n      0x00\n      keccak256\n        /* \"contracts/ERC20.sol\":1592:1631  allowance[msg.sender][spender] = amount */\n      dup2\n      swap1\n      sstore\n      pop\n        /* \"contracts/ERC20.sol\":1667:1674  spender */\n      dup3\n        /* \"contracts/ERC20.sol\":1646:1683  Approval(msg.sender, spender, amount) */\n      0xffffffffffffffffffffffffffffffffffffffff\n      and\n        /* \"contracts/ERC20.sol\":1655:1665  msg.sender */\n      caller\n        /* \"contracts/ERC20.sol\":1646:1683  Approval(msg.sender, spender, amount) */\n      0xffffffffffffffffffffffffffffffffffffffff\n      and\n      0x8c5be1e5ebec7d5bd14f71427d1e84f3dd0314c0f7b2291e5b200ac8c7c3b925\n        /* \"contracts/ERC20.sol\":1676:1682  amount */\n      dup5\n        /* \"contracts/ERC20.sol\":1646:1683  Approval(msg.sender, spender, amount) */\n      mload(0x40)\n      tag_80\n      swap2\n      swap1\n      tag_31\n      jump\t// in\n    tag_80:\n      mload(0x40)\n      dup1\n      swap2\n      sub\n      swap1\n      log3\n        /* \"contracts/ERC20.sol\":1700:1704  true */\n      0x01\n        /* \"contracts/ERC20.sol\":1693:1704  return true */\n      swap1\n      pop\n        /* \"contracts/ERC20.sol\":1503:1711  function approve(address spender, uint amount) override external returns (bool){... */\n      swap3\n      swap2\n      pop\n      pop\n      jump\t// out\n        /* \"contracts/ERC20.sol\":295:330  uint256 public override totalSupply */\n    tag_29:\n      sload(0x03)\n      dup2\n      jump\t// out\n        /* \"contracts/ERC20.sol\":3390:3731  function transferFrom(... */\n    tag_35:\n        /* \"contracts/ERC20.sol\":3521:3525  bool */\n      0x00\n        /* \"contracts/ERC20.sol\":3569:3575  amount */\n      dup2\n        /* \"contracts/ERC20.sol\":3536:3545  allowance */\n      0x01\n        /* \"contracts/ERC20.sol\":3536:3553  allowance[sender] */\n      0x00\n        /* \"contracts/ERC20.sol\":3546:3552  sender */\n      dup7\n        /* \"contracts/ERC20.sol\":3536:3553  allowance[sender] */\n      0xffffffffffffffffffffffffffffffffffffffff\n      and\n      0xffffffffffffffffffffffffffffffffffffffff\n      and\n      dup2\n      mstore\n      0x20\n      add\n      swap1\n      dup2\n      mstore\n      0x20\n      add\n      0x00\n      keccak256\n        /* \"contracts/ERC20.sol\":3536:3565  allowance[sender][msg.sender] */\n      0x00\n        /* \"contracts/ERC20.sol\":3554:3564  msg.sender */\n      caller\n        /* \"contracts/ERC20.sol\":3536:3565  allowance[sender][msg.sender] */\n      0xffffffffffffffffffffffffffffffffffffffff\n      and\n      0xffffffffffffffffffffffffffffffffffffffff\n      and\n      dup2\n      mstore\n      0x20\n      add\n      swap1\n      dup2\n      mstore\n      0x20\n      add\n      0x00\n      keccak256\n      0x00\n        /* \"contracts/ERC20.sol\":3536:3575  allowance[sender][msg.sender] -= amount */\n      dup3\n      dup3\n      sload\n      tag_82\n      swap2\n      swap1\n      tag_83\n      jump\t// in\n    tag_82:\n      swap3\n      pop\n      pop\n      dup2\n      swap1\n      sstore\n      pop\n        /* \"contracts/ERC20.sol\":3606:3612  amount */\n      dup2\n        /* \"contracts/ERC20.sol\":3585:3594  balanceOf */\n      0x00\n        /* \"contracts/ERC20.sol\":3585:3602  balanceOf[sender] */\n      dup1\n        /* \"contracts/ERC20.sol\":3595:3601  sender */\n      dup7\n        /* \"contracts/ERC20.sol\":3585:3602  balanceOf[sender] */\n      0xffffffffffffffffffffffffffffffffffffffff\n      and\n      0xffffffffffffffffffffffffffffffffffffffff\n      and\n      dup2\n      mstore\n      0x20\n      add\n      swap1\n      dup2\n      mstore\n      0x20\n      add\n      0x00\n      keccak256\n      0x00\n        /* \"contracts/ERC20.sol\":3585:3612  balanceOf[sender] -= amount */\n      dup3\n      dup3\n      sload\n      tag_84\n      swap2\n      swap1\n      tag_83\n      jump\t// in\n    tag_84:\n      swap3\n      pop\n      pop\n      dup2\n      swap1\n      sstore\n      pop\n        /* \"contracts/ERC20.sol\":3646:3652  amount */\n      dup2\n        /* \"contracts/ERC20.sol\":3622:3631  balanceOf */\n      0x00\n        /* \"contracts/ERC20.sol\":3622:3642  balanceOf[recipient] */\n      dup1\n        /* \"contracts/ERC20.sol\":3632:3641  recipient */\n      dup6\n        /* \"contracts/ERC20.sol\":3622:3642  balanceOf[recipient] */\n      0xffffffffffffffffffffffffffffffffffffffff\n      and\n      0xffffffffffffffffffffffffffffffffffffffff\n      and\n      dup2\n      mstore\n      0x20\n      add\n      swap1\n      dup2\n      mstore\n      0x20\n      add\n      0x00\n      keccak256\n      0x00\n        /* \"contracts/ERC20.sol\":3622:3652  balanceOf[recipient] += amount */\n      dup3\n      dup3\n      sload\n      tag_85\n      swap2\n      swap1\n      tag_86\n      jump\t// in\n    tag_85:\n      swap3\n      pop\n      pop\n      dup2\n      swap1\n      sstore\n      pop\n        /* \"contracts/ERC20.sol\":3685:3694  recipient */\n      dup3\n        /* \"contracts/ERC20.sol\":3668:3703  Transfer(sender, recipient, amount) */\n      0xffffffffffffffffffffffffffffffffffffffff\n      and\n        /* \"contracts/ERC20.sol\":3677:3683  sender */\n      dup5\n        /* \"contracts/ERC20.sol\":3668:3703  Transfer(sender, recipient, amount) */\n      0xffffffffffffffffffffffffffffffffffffffff\n      and\n      0xddf252ad1be2c89b69c2b068fc378daa952ba7f163c4a11628f55a4df523b3ef\n        /* \"contracts/ERC20.sol\":3696:3702  amount */\n      dup5\n        /* \"contracts/ERC20.sol\":3668:3703  Transfer(sender, recipient, amount) */\n      mload(0x40)\n      tag_87\n      swap2\n      swap1\n      tag_31\n      jump\t// in\n    tag_87:\n      mload(0x40)\n      dup1\n      swap2\n      sub\n      swap1\n      log3\n        /* \"contracts/ERC20.sol\":3720:3724  true */\n      0x01\n        /* \"contracts/ERC20.sol\":3713:3724  return true */\n      swap1\n      pop\n        /* \"contracts/ERC20.sol\":3390:3731  function transferFrom(... */\n      swap4\n      swap3\n      pop\n      pop\n      pop\n      jump\t// out\n        /* \"contracts/ERC20.sol\":1162:1244  function decimals() public view virtual returns (uint8) {... */\n    tag_38:\n        /* \"contracts/ERC20.sol\":1211:1216  uint8 */\n      0x00\n        /* \"contracts/ERC20.sol\":1235:1237  18 */\n      0x12\n        /* \"contracts/ERC20.sol\":1228:1237  return 18 */\n      swap1\n      pop\n        /* \"contracts/ERC20.sol\":1162:1244  function decimals() public view virtual returns (uint8) {... */\n      swap1\n      jump\t// out\n        /* \"contracts/ERC20.sol\":392:432  bytes32 public override DOMAIN_SEPARATOR */\n    tag_42:\n      sload(0x06)\n      dup2\n      jump\t// out\n        /* \"contracts/ERC20.sol\":112:163  mapping (address => uint) public override balanceOf */\n    tag_48:\n      mstore(0x20, 0x00)\n      dup1\n      0x00\n      mstore\n      keccak256(0x00, 0x40)\n      0x00\n      swap2\n      pop\n      swap1\n      pop\n      sload\n      dup2\n      jump\t// out\n        /* \"contracts/ERC20.sol\":1717:3384  function permit(... */\n    tag_53:\n        /* \"contracts/ERC20.sol\":2082:2100  bytes32 permitHash */\n      0x00\n        /* \"contracts/ERC20.sol\":2166:2172  0x1901 */\n      0x1901\n        /* \"contracts/ERC20.sol\":2191:2207  DOMAIN_SEPARATOR */\n      sload(0x06)\n        /* \"contracts/ERC20.sol\":2267:2359  keccak256(\"Permit(address owner,address spender,uint256 nonce,uint256 expiry,bool allowed)\") */\n      0x5988c4908d6065961d28fc0e17ec63f7a7c9b49cdcf49cc7ead7bbb6aa67016e\n        /* \"contracts/ERC20.sol\":2381:2386  owner */\n      dup12\n        /* \"contracts/ERC20.sol\":2408:2415  spender */\n      dup12\n        /* \"contracts/ERC20.sol\":2437:2442  nonce */\n      dup12\n        /* \"contracts/ERC20.sol\":2464:2472  deadline */\n      dup12\n        /* \"contracts/ERC20.sol\":2494:2501  allowed */\n      dup12\n        /* \"contracts/ERC20.sol\":2235:2523  abi.encode(... */\n      add(0x20, mload(0x40))\n      tag_90\n      swap7\n      swap6\n      swap5\n      swap4\n      swap3\n      swap2\n      swap1\n      tag_91\n      jump\t// in\n    tag_90:\n      mload(0x40)\n      0x20\n      dup2\n      dup4\n      sub\n      sub\n      dup2\n      mstore\n      swap1\n      0x40\n      mstore\n        /* \"contracts/ERC20.sol\":2225:2524  keccak256(abi.encode(... */\n      dup1\n      mload\n      swap1\n      0x20\n      add\n      keccak256\n        /* \"contracts/ERC20.sol\":2125:2534  abi.encodePacked(... */\n      add(0x20, mload(0x40))\n      tag_92\n      swap4\n      swap3\n      swap2\n      swap1\n      tag_93\n      jump\t// in\n    tag_92:\n      mload(0x40)\n      0x20\n      dup2\n      dup4\n      sub\n      sub\n      dup2\n      mstore\n      swap1\n      0x40\n      mstore\n        /* \"contracts/ERC20.sol\":2115:2535  keccak256(abi.encodePacked(... */\n      dup1\n      mload\n      swap1\n      0x20\n      add\n      keccak256\n        /* \"contracts/ERC20.sol\":2082:2535  bytes32 permitHash =... */\n      swap1\n      pop\n        /* \"contracts/ERC20.sol\":2637:2638  0 */\n      0x00\n        /* \"contracts/ERC20.sol\":2620:2639  owner != address(0) */\n      0xffffffffffffffffffffffffffffffffffffffff\n      and\n        /* \"contracts/ERC20.sol\":2620:2625  owner */\n      dup10\n        /* \"contracts/ERC20.sol\":2620:2639  owner != address(0) */\n      0xffffffffffffffffffffffffffffffffffffffff\n      and\n      eq\n      iszero\n        /* \"contracts/ERC20.sol\":2612:2675  require(owner != address(0), \"address cannot be token address\") */\n      tag_94\n      jumpi\n      mload(0x40)\n      0x08c379a000000000000000000000000000000000000000000000000000000000\n      dup2\n      mstore\n      0x04\n      add\n      tag_95\n      swap1\n      tag_96\n      jump\t// in\n    tag_95:\n      mload(0x40)\n      dup1\n      swap2\n      sub\n      swap1\n      revert\n    tag_94:\n        /* \"contracts/ERC20.sol\":2751:2781  ecrecover(permitHash, v, r, s) */\n      0x01\n        /* \"contracts/ERC20.sol\":2761:2771  permitHash */\n      dup2\n        /* \"contracts/ERC20.sol\":2773:2774  v */\n      dup6\n        /* \"contracts/ERC20.sol\":2776:2777  r */\n      dup6\n        /* \"contracts/ERC20.sol\":2779:2780  s */\n      dup6\n        /* \"contracts/ERC20.sol\":2751:2781  ecrecover(permitHash, v, r, s) */\n      mload(0x40)\n      0x00\n      dup2\n      mstore\n      0x20\n      add\n      0x40\n      mstore\n      mload(0x40)\n      tag_97\n      swap5\n      swap4\n      swap3\n      swap2\n      swap1\n      tag_98\n      jump\t// in\n    tag_97:\n      0x20\n      mload(0x40)\n      0x20\n      dup2\n      sub\n      swap1\n      dup1\n      dup5\n      sub\n      swap1\n      dup6\n      gas\n      staticcall\n      iszero\n      dup1\n      iszero\n      tag_100\n      jumpi\n      returndatasize\n      0x00\n      dup1\n      returndatacopy\n      revert(0x00, returndatasize)\n    tag_100:\n      pop\n      pop\n      pop\n      mload(sub(mload(0x40), 0x20))\n        /* \"contracts/ERC20.sol\":2742:2781  owner == ecrecover(permitHash, v, r, s) */\n      0xffffffffffffffffffffffffffffffffffffffff\n      and\n        /* \"contracts/ERC20.sol\":2742:2747  owner */\n      dup10\n        /* \"contracts/ERC20.sol\":2742:2781  owner == ecrecover(permitHash, v, r, s) */\n      0xffffffffffffffffffffffffffffffffffffffff\n      and\n      eq\n        /* \"contracts/ERC20.sol\":2734:2805  require(owner == ecrecover(permitHash, v, r, s), \"invalid permit hash\") */\n      tag_101\n      jumpi\n      mload(0x40)\n      0x08c379a000000000000000000000000000000000000000000000000000000000\n      dup2\n      mstore\n      0x04\n      add\n      tag_102\n      swap1\n      tag_103\n      jump\t// in\n    tag_102:\n      mload(0x40)\n      dup1\n      swap2\n      sub\n      swap1\n      revert\n    tag_101:\n        /* \"contracts/ERC20.sol\":2888:2889  0 */\n      0x00\n        /* \"contracts/ERC20.sol\":2876:2884  deadline */\n      dup7\n        /* \"contracts/ERC20.sol\":2876:2889  deadline == 0 */\n      eq\n        /* \"contracts/ERC20.sol\":2876:2920  deadline == 0 || block.timestamp <= deadline */\n      dup1\n      tag_104\n      jumpi\n      pop\n        /* \"contracts/ERC20.sol\":2912:2920  deadline */\n      dup6\n        /* \"contracts/ERC20.sol\":2893:2908  block.timestamp */\n      timestamp\n        /* \"contracts/ERC20.sol\":2893:2920  block.timestamp <= deadline */\n      gt\n      iszero\n        /* \"contracts/ERC20.sol\":2876:2920  deadline == 0 || block.timestamp <= deadline */\n    tag_104:\n        /* \"contracts/ERC20.sol\":2868:2949  require(deadline == 0 || block.timestamp <= deadline, \"permit timestamp expired\") */\n      tag_105\n      jumpi\n      mload(0x40)\n      0x08c379a000000000000000000000000000000000000000000000000000000000\n      dup2\n      mstore\n      0x04\n      add\n      tag_106\n      swap1\n      tag_107\n      jump\t// in\n    tag_106:\n      mload(0x40)\n      dup1\n      swap2\n      sub\n      swap1\n      revert\n    tag_105:\n        /* \"contracts/ERC20.sol\":3047:3053  nonces */\n      0x02\n        /* \"contracts/ERC20.sol\":3047:3060  nonces[owner] */\n      0x00\n        /* \"contracts/ERC20.sol\":3054:3059  owner */\n      dup11\n        /* \"contracts/ERC20.sol\":3047:3060  nonces[owner] */\n      0xffffffffffffffffffffffffffffffffffffffff\n      and\n      0xffffffffffffffffffffffffffffffffffffffff\n      and\n      dup2\n      mstore\n      0x20\n      add\n      swap1\n      dup2\n      mstore\n      0x20\n      add\n      0x00\n      keccak256\n      0x00\n        /* \"contracts/ERC20.sol\":3047:3062  nonces[owner]++ */\n      dup2\n      sload\n      dup1\n      swap3\n      swap2\n      swap1\n      tag_108\n      swap1\n      tag_109\n      jump\t// in\n    tag_108:\n      swap2\n      swap1\n      pop\n      sstore\n        /* \"contracts/ERC20.sol\":3038:3043  nonce */\n      dup8\n        /* \"contracts/ERC20.sol\":3038:3062  nonce == nonces[owner]++ */\n      eq\n        /* \"contracts/ERC20.sol\":3030:3080  require(nonce == nonces[owner]++, \"invalid nonce\") */\n      tag_110\n      jumpi\n      mload(0x40)\n      0x08c379a000000000000000000000000000000000000000000000000000000000\n      dup2\n      mstore\n      0x04\n      add\n      tag_111\n      swap1\n      tag_112\n      jump\t// in\n    tag_111:\n      mload(0x40)\n      dup1\n      swap2\n      sub\n      swap1\n      revert\n    tag_110:\n        /* \"contracts/ERC20.sol\":3165:3182  uint maxAllowance */\n      0x00\n        /* \"contracts/ERC20.sol\":3185:3199  type(uint).max */\n      0xffffffffffffffffffffffffffffffffffffffffffffffffffffffffffffffff\n        /* \"contracts/ERC20.sol\":3165:3199  uint maxAllowance = type(uint).max */\n      swap1\n      pop\n        /* \"contracts/ERC20.sol\":3311:3323  maxAllowance */\n      dup1\n        /* \"contracts/ERC20.sol\":3283:3292  allowance */\n      0x01\n        /* \"contracts/ERC20.sol\":3283:3299  allowance[owner] */\n      0x00\n        /* \"contracts/ERC20.sol\":3293:3298  owner */\n      dup13\n        /* \"contracts/ERC20.sol\":3283:3299  allowance[owner] */\n      0xffffffffffffffffffffffffffffffffffffffff\n      and\n      0xffffffffffffffffffffffffffffffffffffffff\n      and\n      dup2\n      mstore\n      0x20\n      add\n      swap1\n      dup2\n      mstore\n      0x20\n      add\n      0x00\n      keccak256\n        /* \"contracts/ERC20.sol\":3283:3308  allowance[owner][spender] */\n      0x00\n        /* \"contracts/ERC20.sol\":3300:3307  spender */\n      dup12\n        /* \"contracts/ERC20.sol\":3283:3308  allowance[owner][spender] */\n      0xffffffffffffffffffffffffffffffffffffffff\n      and\n      0xffffffffffffffffffffffffffffffffffffffff\n      and\n      dup2\n      mstore\n      0x20\n      add\n      swap1\n      dup2\n      mstore\n      0x20\n      add\n      0x00\n      keccak256\n        /* \"contracts/ERC20.sol\":3283:3323  allowance[owner][spender] = maxAllowance */\n      dup2\n      swap1\n      sstore\n      pop\n        /* \"contracts/ERC20.sol\":3355:3362  spender */\n      dup9\n        /* \"contracts/ERC20.sol\":3339:3377  Approval(owner, spender, maxAllowance) */\n      0xffffffffffffffffffffffffffffffffffffffff\n      and\n        /* \"contracts/ERC20.sol\":3348:3353  owner */\n      dup11\n        /* \"contracts/ERC20.sol\":3339:3377  Approval(owner, spender, maxAllowance) */\n      0xffffffffffffffffffffffffffffffffffffffff\n      and\n      0x8c5be1e5ebec7d5bd14f71427d1e84f3dd0314c0f7b2291e5b200ac8c7c3b925\n        /* \"contracts/ERC20.sol\":3364:3376  maxAllowance */\n      dup4\n        /* \"contracts/ERC20.sol\":3339:3377  Approval(owner, spender, maxAllowance) */\n      mload(0x40)\n      tag_113\n      swap2\n      swap1\n      tag_31\n      jump\t// in\n    tag_113:\n      mload(0x40)\n      dup1\n      swap2\n      sub\n      swap1\n      log3\n        /* \"contracts/ERC20.sol\":1717:3384  function permit(... */\n      pop\n      pop\n      pop\n      pop\n      pop\n      pop\n      pop\n      pop\n      pop\n      pop\n      jump\t// out\n        /* \"contracts/ERC20.sol\":1063:1156  function symbol() public view virtual returns (string memory) {... */\n    tag_55:\n        /* \"contracts/ERC20.sol\":1110:1123  string memory */\n      0x60\n        /* \"contracts/ERC20.sol\":1142:1149  _symbol */\n      0x05\n        /* \"contracts/ERC20.sol\":1135:1149  return _symbol */\n      dup1\n      sload\n      tag_115\n      swap1\n      tag_74\n      jump\t// in\n    tag_115:\n      dup1\n      0x1f\n      add\n      0x20\n      dup1\n      swap2\n      div\n      mul\n      0x20\n      add\n      mload(0x40)\n      swap1\n      dup2\n      add\n      0x40\n      mstore\n      dup1\n      swap3\n      swap2\n      swap1\n      dup2\n      dup2\n      mstore\n      0x20\n      add\n      dup3\n      dup1\n      sload\n      tag_116\n      swap1\n      tag_74\n      jump\t// in\n    tag_116:\n      dup1\n      iszero\n      tag_117\n      jumpi\n      dup1\n      0x1f\n      lt\n      tag_118\n      jumpi\n      0x0100\n      dup1\n      dup4\n      sload\n      div\n      mul\n      dup4\n      mstore\n      swap2\n      0x20\n      add\n      swap2\n      jump(tag_117)\n    tag_118:\n      dup3\n      add\n      swap2\n      swap1\n      0x00\n      mstore\n      keccak256(0x00, 0x20)\n      swap1\n    tag_119:\n      dup2\n      sload\n      dup2\n      mstore\n      swap1\n      0x01\n      add\n      swap1\n      0x20\n      add\n      dup1\n      dup4\n      gt\n      tag_119\n      jumpi\n      dup3\n      swap1\n      sub\n      0x1f\n      and\n      dup3\n      add\n      swap2\n    tag_117:\n      pop\n      pop\n      pop\n      pop\n      pop\n      swap1\n      pop\n        /* \"contracts/ERC20.sol\":1063:1156  function symbol() public view virtual returns (string memory) {... */\n      swap1\n      jump\t// out\n        /* \"contracts/ERC20.sol\":1250:1497  function transfer(address recipient, uint amount) override external returns (bool) {... */\n    tag_59:\n        /* \"contracts/ERC20.sol\":1327:1331  bool */\n      0x00\n        /* \"contracts/ERC20.sol\":1368:1374  amount */\n      dup2\n        /* \"contracts/ERC20.sol\":1343:1352  balanceOf */\n      0x00\n        /* \"contracts/ERC20.sol\":1343:1364  balanceOf[msg.sender] */\n      dup1\n        /* \"contracts/ERC20.sol\":1353:1363  msg.sender */\n      caller\n        /* \"contracts/ERC20.sol\":1343:1364  balanceOf[msg.sender] */\n      0xffffffffffffffffffffffffffffffffffffffff\n      and\n      0xffffffffffffffffffffffffffffffffffffffff\n      and\n      dup2\n      mstore\n      0x20\n      add\n      swap1\n      dup2\n      mstore\n      0x20\n      add\n      0x00\n      keccak256\n      0x00\n        /* \"contracts/ERC20.sol\":1343:1374  balanceOf[msg.sender] -= amount */\n      dup3\n      dup3\n      sload\n      tag_121\n      swap2\n      swap1\n      tag_83\n      jump\t// in\n    tag_121:\n      swap3\n      pop\n      pop\n      dup2\n      swap1\n      sstore\n      pop\n        /* \"contracts/ERC20.sol\":1408:1414  amount */\n      dup2\n        /* \"contracts/ERC20.sol\":1384:1393  balanceOf */\n      0x00\n        /* \"contracts/ERC20.sol\":1384:1404  balanceOf[recipient] */\n      dup1\n        /* \"contracts/ERC20.sol\":1394:1403  recipient */\n      dup6\n        /* \"contracts/ERC20.sol\":1384:1404  balanceOf[recipient] */\n      0xffffffffffffffffffffffffffffffffffffffff\n      and\n      0xffffffffffffffffffffffffffffffffffffffff\n      and\n      dup2\n      mstore\n      0x20\n      add\n      swap1\n      dup2\n      mstore\n      0x20\n      add\n      0x00\n      keccak256\n      0x00\n        /* \"contracts/ERC20.sol\":1384:1414  balanceOf[recipient] += amount */\n      dup3\n      dup3\n      sload\n      tag_122\n      swap2\n      swap1\n      tag_86\n      jump\t// in\n    tag_122:\n      swap3\n      pop\n      pop\n      dup2\n      swap1\n      sstore\n      pop\n        /* \"contracts/ERC20.sol\":1451:1460  recipient */\n      dup3\n        /* \"contracts/ERC20.sol\":1430:1469  Transfer(msg.sender, recipient, amount) */\n      0xffffffffffffffffffffffffffffffffffffffff\n      and\n        /* \"contracts/ERC20.sol\":1439:1449  msg.sender */\n      caller\n        /* \"contracts/ERC20.sol\":1430:1469  Transfer(msg.sender, recipient, amount) */\n      0xffffffffffffffffffffffffffffffffffffffff\n      and\n      0xddf252ad1be2c89b69c2b068fc378daa952ba7f163c4a11628f55a4df523b3ef\n        /* \"contracts/ERC20.sol\":1462:1468  amount */\n      dup5\n        /* \"contracts/ERC20.sol\":1430:1469  Transfer(msg.sender, recipient, amount) */\n      mload(0x40)\n      tag_123\n      swap2\n      swap1\n      tag_31\n      jump\t// in\n    tag_123:\n      mload(0x40)\n      dup1\n      swap2\n      sub\n      swap1\n      log3\n        /* \"contracts/ERC20.sol\":1486:1490  true */\n      0x01\n        /* \"contracts/ERC20.sol\":1479:1490  return true */\n      swap1\n      pop\n        /* \"contracts/ERC20.sol\":1250:1497  function transfer(address recipient, uint amount) override external returns (bool) {... */\n      swap3\n      swap2\n      pop\n      pop\n      jump\t// out\n        /* \"contracts/FianansuToken.sol\":507:678  function burnFINA(address account, uint256 _amount) external {... */\n    tag_63:\n        /* \"contracts/FianansuToken.sol\":578:600  burn(account, _amount) */\n      tag_125\n        /* \"contracts/FianansuToken.sol\":583:590  account */\n      dup3\n        /* \"contracts/FianansuToken.sol\":592:599  _amount */\n      dup3\n        /* \"contracts/FianansuToken.sol\":578:582  burn */\n      tag_126\n        /* \"contracts/FianansuToken.sol\":578:600  burn(account, _amount) */\n      jump\t// in\n    tag_125:\n        /* \"contracts/FianansuToken.sol\":626:633  _amount */\n      dup1\n        /* \"contracts/FianansuToken.sol\":611:622  totalSupply */\n      0x03\n      0x00\n        /* \"contracts/FianansuToken.sol\":611:633  totalSupply -= _amount */\n      dup3\n      dup3\n      sload\n      tag_127\n      swap2\n      swap1\n      tag_83\n      jump\t// in\n    tag_127:\n      swap3\n      pop\n      pop\n      dup2\n      swap1\n      sstore\n      pop\n        /* \"contracts/FianansuToken.sol\":649:671  Burn(account, _amount) */\n      0xcc16f5dbb4873280815c1ee09dbd06736cffcc184412cf7a71a0fdb75d397ca5\n        /* \"contracts/FianansuToken.sol\":654:661  account */\n      dup3\n        /* \"contracts/FianansuToken.sol\":663:670  _amount */\n      dup3\n        /* \"contracts/FianansuToken.sol\":649:671  Burn(account, _amount) */\n      mload(0x40)\n      tag_128\n      swap3\n      swap2\n      swap1\n      tag_129\n      jump\t// in\n    tag_128:\n      mload(0x40)\n      dup1\n      swap2\n      sub\n      swap1\n      log1\n        /* \"contracts/FianansuToken.sol\":507:678  function burnFINA(address account, uint256 _amount) external {... */\n      pop\n      pop\n      jump\t// out\n        /* \"contracts/FianansuToken.sol\":321:501  function mintFINA(address account, uint256 _amount) external {... */\n    tag_66:\n        /* \"contracts/FianansuToken.sol\":401:423  mint(account, _amount) */\n      tag_131\n        /* \"contracts/FianansuToken.sol\":406:413  account */\n      dup3\n        /* \"contracts/FianansuToken.sol\":415:422  _amount */\n      dup3\n        /* \"contracts/FianansuToken.sol\":401:405  mint */\n      tag_132\n        /* \"contracts/FianansuToken.sol\":401:423  mint(account, _amount) */\n      jump\t// in\n    tag_131:\n        /* \"contracts/FianansuToken.sol\":449:456  _amount */\n      dup1\n        /* \"contracts/FianansuToken.sol\":434:445  totalSupply */\n      0x03\n      0x00\n        /* \"contracts/FianansuToken.sol\":434:456  totalSupply += _amount */\n      dup3\n      dup3\n      sload\n      tag_133\n      swap2\n      swap1\n      tag_86\n      jump\t// in\n    tag_133:\n      swap3\n      pop\n      pop\n      dup2\n      swap1\n      sstore\n      pop\n        /* \"contracts/FianansuToken.sol\":472:494  Mint(account, _amount) */\n      0x0f6798a560793a54c3bcfe86a93cde1e73087d944c0ea20544137d4121396885\n        /* \"contracts/FianansuToken.sol\":477:484  account */\n      dup3\n        /* \"contracts/FianansuToken.sol\":486:493  _amount */\n      dup3\n        /* \"contracts/FianansuToken.sol\":472:494  Mint(account, _amount) */\n      mload(0x40)\n      tag_134\n      swap3\n      swap2\n      swap1\n      tag_129\n      jump\t// in\n    tag_134:\n      mload(0x40)\n      dup1\n      swap2\n      sub\n      swap1\n      log1\n        /* \"contracts/FianansuToken.sol\":321:501  function mintFINA(address account, uint256 _amount) external {... */\n      pop\n      pop\n      jump\t// out\n        /* \"contracts/ERC20.sol\":169:238  mapping (address => mapping(address=>uint)) public override allowance */\n    tag_70:\n      mstore(0x20, 0x01)\n      dup2\n      0x00\n      mstore\n      mstore(0x20, keccak256(0x00, 0x40))\n      dup1\n      0x00\n      mstore\n      keccak256(0x00, 0x40)\n      0x00\n      swap2\n      pop\n      swap2\n      pop\n      pop\n      sload\n      dup2\n      jump\t// out\n        /* \"contracts/ERC20.sol\":3933:4123  function burn(address account, uint amount) internal virtual {... */\n    tag_126:\n        /* \"contracts/ERC20.sol\":4026:4032  amount */\n      dup1\n        /* \"contracts/ERC20.sol\":4004:4013  balanceOf */\n      0x00\n        /* \"contracts/ERC20.sol\":4004:4022  balanceOf[account] */\n      dup1\n        /* \"contracts/ERC20.sol\":4014:4021  account */\n      dup5\n        /* \"contracts/ERC20.sol\":4004:4022  balanceOf[account] */\n      0xffffffffffffffffffffffffffffffffffffffff\n      and\n      0xffffffffffffffffffffffffffffffffffffffff\n      and\n      dup2\n      mstore\n      0x20\n      add\n      swap1\n      dup2\n      mstore\n      0x20\n      add\n      0x00\n      keccak256\n      0x00\n        /* \"contracts/ERC20.sol\":4004:4032  balanceOf[account] -= amount */\n      dup3\n      dup3\n      sload\n      tag_136\n      swap2\n      swap1\n      tag_83\n      jump\t// in\n    tag_136:\n      swap3\n      pop\n      pop\n      dup2\n      swap1\n      sstore\n      pop\n        /* \"contracts/ERC20.sol\":4057:4063  amount */\n      dup1\n        /* \"contracts/ERC20.sol\":4042:4053  totalSupply */\n      0x03\n      0x00\n        /* \"contracts/ERC20.sol\":4042:4063  totalSupply -= amount */\n      dup3\n      dup3\n      sload\n      tag_137\n      swap2\n      swap1\n      tag_83\n      jump\t// in\n    tag_137:\n      swap3\n      pop\n      pop\n      dup2\n      swap1\n      sstore\n      pop\n        /* \"contracts/ERC20.sol\":4105:4106  0 */\n      0x00\n        /* \"contracts/ERC20.sol\":4079:4116  Transfer(account, address(0), amount) */\n      0xffffffffffffffffffffffffffffffffffffffff\n      and\n        /* \"contracts/ERC20.sol\":4088:4095  account */\n      dup3\n        /* \"contracts/ERC20.sol\":4079:4116  Transfer(account, address(0), amount) */\n      0xffffffffffffffffffffffffffffffffffffffff\n      and\n      0xddf252ad1be2c89b69c2b068fc378daa952ba7f163c4a11628f55a4df523b3ef\n        /* \"contracts/ERC20.sol\":4109:4115  amount */\n      dup4\n        /* \"contracts/ERC20.sol\":4079:4116  Transfer(account, address(0), amount) */\n      mload(0x40)\n      tag_138\n      swap2\n      swap1\n      tag_31\n      jump\t// in\n    tag_138:\n      mload(0x40)\n      dup1\n      swap2\n      sub\n      swap1\n      log3\n        /* \"contracts/ERC20.sol\":3933:4123  function burn(address account, uint amount) internal virtual {... */\n      pop\n      pop\n      jump\t// out\n        /* \"contracts/ERC20.sol\":3737:3927  function mint(address account, uint amount) internal virtual {... */\n    tag_132:\n        /* \"contracts/ERC20.sol\":3830:3836  amount */\n      dup1\n        /* \"contracts/ERC20.sol\":3808:3817  balanceOf */\n      0x00\n        /* \"contracts/ERC20.sol\":3808:3826  balanceOf[account] */\n      dup1\n        /* \"contracts/ERC20.sol\":3818:3825  account */\n      dup5\n        /* \"contracts/ERC20.sol\":3808:3826  balanceOf[account] */\n      0xffffffffffffffffffffffffffffffffffffffff\n      and\n      0xffffffffffffffffffffffffffffffffffffffff\n      and\n      dup2\n      mstore\n      0x20\n      add\n      swap1\n      dup2\n      mstore\n      0x20\n      add\n      0x00\n      keccak256\n      0x00\n        /* \"contracts/ERC20.sol\":3808:3836  balanceOf[account] += amount */\n      dup3\n      dup3\n      sload\n      tag_140\n      swap2\n      swap1\n      tag_86\n      jump\t// in\n    tag_140:\n      swap3\n      pop\n      pop\n      dup2\n      swap1\n      sstore\n      pop\n        /* \"contracts/ERC20.sol\":3861:3867  amount */\n      dup1\n        /* \"contracts/ERC20.sol\":3846:3857  totalSupply */\n      0x03\n      0x00\n        /* \"contracts/ERC20.sol\":3846:3867  totalSupply += amount */\n      dup3\n      dup3\n      sload\n      tag_141\n      swap2\n      swap1\n      tag_86\n      jump\t// in\n    tag_141:\n      swap3\n      pop\n      pop\n      dup2\n      swap1\n      sstore\n      pop\n        /* \"contracts/ERC20.sol\":3904:3911  account */\n      dup2\n        /* \"contracts/ERC20.sol\":3883:3920  Transfer(address(0), account, amount) */\n      0xffffffffffffffffffffffffffffffffffffffff\n      and\n        /* \"contracts/ERC20.sol\":3900:3901  0 */\n      0x00\n        /* \"contracts/ERC20.sol\":3883:3920  Transfer(address(0), account, amount) */\n      0xffffffffffffffffffffffffffffffffffffffff\n      and\n      0xddf252ad1be2c89b69c2b068fc378daa952ba7f163c4a11628f55a4df523b3ef\n        /* \"contracts/ERC20.sol\":3913:3919  amount */\n      dup4\n        /* \"contracts/ERC20.sol\":3883:3920  Transfer(address(0), account, amount) */\n      mload(0x40)\n      tag_142\n      swap2\n      swap1\n      tag_31\n      jump\t// in\n    tag_142:\n      mload(0x40)\n      dup1\n      swap2\n      sub\n      swap1\n      log3\n        /* \"contracts/ERC20.sol\":3737:3927  function mint(address account, uint amount) internal virtual {... */\n      pop\n      pop\n      jump\t// out\n        /* \"#utility.yul\":7:146   */\n    tag_144:\n      0x00\n        /* \"#utility.yul\":91:97   */\n      dup2\n        /* \"#utility.yul\":78:98   */\n      calldataload\n        /* \"#utility.yul\":69:98   */\n      swap1\n      pop\n        /* \"#utility.yul\":107:140   */\n      tag_146\n        /* \"#utility.yul\":134:139   */\n      dup2\n        /* \"#utility.yul\":107:140   */\n      tag_147\n      jump\t// in\n    tag_146:\n        /* \"#utility.yul\":59:146   */\n      swap3\n      swap2\n      pop\n      pop\n      jump\t// out\n        /* \"#utility.yul\":152:285   */\n    tag_148:\n      0x00\n        /* \"#utility.yul\":233:239   */\n      dup2\n        /* \"#utility.yul\":220:240   */\n      calldataload\n        /* \"#utility.yul\":211:240   */\n      swap1\n      pop\n        /* \"#utility.yul\":249:279   */\n      tag_150\n        /* \"#utility.yul\":273:278   */\n      dup2\n        /* \"#utility.yul\":249:279   */\n      tag_151\n      jump\t// in\n    tag_150:\n        /* \"#utility.yul\":201:285   */\n      swap3\n      swap2\n      pop\n      pop\n      jump\t// out\n        /* \"#utility.yul\":291:430   */\n    tag_152:\n      0x00\n        /* \"#utility.yul\":375:381   */\n      dup2\n        /* \"#utility.yul\":362:382   */\n      calldataload\n        /* \"#utility.yul\":353:382   */\n      swap1\n      pop\n        /* \"#utility.yul\":391:424   */\n      tag_154\n        /* \"#utility.yul\":418:423   */\n      dup2\n        /* \"#utility.yul\":391:424   */\n      tag_155\n      jump\t// in\n    tag_154:\n        /* \"#utility.yul\":343:430   */\n      swap3\n      swap2\n      pop\n      pop\n      jump\t// out\n        /* \"#utility.yul\":436:575   */\n    tag_156:\n      0x00\n        /* \"#utility.yul\":520:526   */\n      dup2\n        /* \"#utility.yul\":507:527   */\n      calldataload\n        /* \"#utility.yul\":498:527   */\n      swap1\n      pop\n        /* \"#utility.yul\":536:569   */\n      tag_158\n        /* \"#utility.yul\":563:568   */\n      dup2\n        /* \"#utility.yul\":536:569   */\n      tag_159\n      jump\t// in\n    tag_158:\n        /* \"#utility.yul\":488:575   */\n      swap3\n      swap2\n      pop\n      pop\n      jump\t// out\n        /* \"#utility.yul\":581:716   */\n    tag_160:\n      0x00\n        /* \"#utility.yul\":663:669   */\n      dup2\n        /* \"#utility.yul\":650:670   */\n      calldataload\n        /* \"#utility.yul\":641:670   */\n      swap1\n      pop\n        /* \"#utility.yul\":679:710   */\n      tag_162\n        /* \"#utility.yul\":704:709   */\n      dup2\n        /* \"#utility.yul\":679:710   */\n      tag_163\n      jump\t// in\n    tag_162:\n        /* \"#utility.yul\":631:716   */\n      swap3\n      swap2\n      pop\n      pop\n      jump\t// out\n        /* \"#utility.yul\":722:984   */\n    tag_47:\n      0x00\n        /* \"#utility.yul\":830:832   */\n      0x20\n        /* \"#utility.yul\":818:827   */\n      dup3\n        /* \"#utility.yul\":809:816   */\n      dup5\n        /* \"#utility.yul\":805:828   */\n      sub\n        /* \"#utility.yul\":801:833   */\n      slt\n        /* \"#utility.yul\":798:800   */\n      iszero\n      tag_165\n      jumpi\n        /* \"#utility.yul\":846:847   */\n      0x00\n        /* \"#utility.yul\":843:844   */\n      dup1\n        /* \"#utility.yul\":836:848   */\n      revert\n        /* \"#utility.yul\":798:800   */\n    tag_165:\n        /* \"#utility.yul\":889:890   */\n      0x00\n        /* \"#utility.yul\":914:967   */\n      tag_166\n        /* \"#utility.yul\":959:966   */\n      dup5\n        /* \"#utility.yul\":950:956   */\n      dup3\n        /* \"#utility.yul\":939:948   */\n      dup6\n        /* \"#utility.yul\":935:957   */\n      add\n        /* \"#utility.yul\":914:967   */\n      tag_144\n      jump\t// in\n    tag_166:\n        /* \"#utility.yul\":904:967   */\n      swap2\n      pop\n        /* \"#utility.yul\":860:977   */\n      pop\n        /* \"#utility.yul\":788:984   */\n      swap3\n      swap2\n      pop\n      pop\n      jump\t// out\n        /* \"#utility.yul\":990:1397   */\n    tag_69:\n      0x00\n      dup1\n        /* \"#utility.yul\":1115:1117   */\n      0x40\n        /* \"#utility.yul\":1103:1112   */\n      dup4\n        /* \"#utility.yul\":1094:1101   */\n      dup6\n        /* \"#utility.yul\":1090:1113   */\n      sub\n        /* \"#utility.yul\":1086:1118   */\n      slt\n        /* \"#utility.yul\":1083:1085   */\n      iszero\n      tag_168\n      jumpi\n        /* \"#utility.yul\":1131:1132   */\n      0x00\n        /* \"#utility.yul\":1128:1129   */\n      dup1\n        /* \"#utility.yul\":1121:1133   */\n      revert\n        /* \"#utility.yul\":1083:1085   */\n    tag_168:\n        /* \"#utility.yul\":1174:1175   */\n      0x00\n        /* \"#utility.yul\":1199:1252   */\n      tag_169\n        /* \"#utility.yul\":1244:1251   */\n      dup6\n        /* \"#utility.yul\":1235:1241   */\n      dup3\n        /* \"#utility.yul\":1224:1233   */\n      dup7\n        /* \"#utility.yul\":1220:1242   */\n      add\n        /* \"#utility.yul\":1199:1252   */\n      tag_144\n      jump\t// in\n    tag_169:\n        /* \"#utility.yul\":1189:1252   */\n      swap3\n      pop\n        /* \"#utility.yul\":1145:1262   */\n      pop\n        /* \"#utility.yul\":1301:1303   */\n      0x20\n        /* \"#utility.yul\":1327:1380   */\n      tag_170\n        /* \"#utility.yul\":1372:1379   */\n      dup6\n        /* \"#utility.yul\":1363:1369   */\n      dup3\n        /* \"#utility.yul\":1352:1361   */\n      dup7\n        /* \"#utility.yul\":1348:1370   */\n      add\n        /* \"#utility.yul\":1327:1380   */\n      tag_144\n      jump\t// in\n    tag_170:\n        /* \"#utility.yul\":1317:1380   */\n      swap2\n      pop\n        /* \"#utility.yul\":1272:1390   */\n      pop\n        /* \"#utility.yul\":1073:1397   */\n      swap3\n      pop\n      swap3\n      swap1\n      pop\n      jump\t// out\n        /* \"#utility.yul\":1403:1955   */\n    tag_34:\n      0x00\n      dup1\n      0x00\n        /* \"#utility.yul\":1545:1547   */\n      0x60\n        /* \"#utility.yul\":1533:1542   */\n      dup5\n        /* \"#utility.yul\":1524:1531   */\n      dup7\n        /* \"#utility.yul\":1520:1543   */\n      sub\n        /* \"#utility.yul\":1516:1548   */\n      slt\n        /* \"#utility.yul\":1513:1515   */\n      iszero\n      tag_172\n      jumpi\n        /* \"#utility.yul\":1561:1562   */\n      0x00\n        /* \"#utility.yul\":1558:1559   */\n      dup1\n        /* \"#utility.yul\":1551:1563   */\n      revert\n        /* \"#utility.yul\":1513:1515   */\n    tag_172:\n        /* \"#utility.yul\":1604:1605   */\n      0x00\n        /* \"#utility.yul\":1629:1682   */\n      tag_173\n        /* \"#utility.yul\":1674:1681   */\n      dup7\n        /* \"#utility.yul\":1665:1671   */\n      dup3\n        /* \"#utility.yul\":1654:1663   */\n      dup8\n        /* \"#utility.yul\":1650:1672   */\n      add\n        /* \"#utility.yul\":1629:1682   */\n      tag_144\n      jump\t// in\n    tag_173:\n        /* \"#utility.yul\":1619:1682   */\n      swap4\n      pop\n        /* \"#utility.yul\":1575:1692   */\n      pop\n        /* \"#utility.yul\":1731:1733   */\n      0x20\n        /* \"#utility.yul\":1757:1810   */\n      tag_174\n        /* \"#utility.yul\":1802:1809   */\n      dup7\n        /* \"#utility.yul\":1793:1799   */\n      dup3\n        /* \"#utility.yul\":1782:1791   */\n      dup8\n        /* \"#utility.yul\":1778:1800   */\n      add\n        /* \"#utility.yul\":1757:1810   */\n      tag_144\n      jump\t// in\n    tag_174:\n        /* \"#utility.yul\":1747:1810   */\n      swap3\n      pop\n        /* \"#utility.yul\":1702:1820   */\n      pop\n        /* \"#utility.yul\":1859:1861   */\n      0x40\n        /* \"#utility.yul\":1885:1938   */\n      tag_175\n        /* \"#utility.yul\":1930:1937   */\n      dup7\n        /* \"#utility.yul\":1921:1927   */\n      dup3\n        /* \"#utility.yul\":1910:1919   */\n      dup8\n        /* \"#utility.yul\":1906:1928   */\n      add\n        /* \"#utility.yul\":1885:1938   */\n      tag_156\n      jump\t// in\n    tag_175:\n        /* \"#utility.yul\":1875:1938   */\n      swap2\n      pop\n        /* \"#utility.yul\":1830:1948   */\n      pop\n        /* \"#utility.yul\":1503:1955   */\n      swap3\n      pop\n      swap3\n      pop\n      swap3\n      jump\t// out\n        /* \"#utility.yul\":1961:3233   */\n    tag_52:\n      0x00\n      dup1\n      0x00\n      dup1\n      0x00\n      dup1\n      0x00\n      dup1\n        /* \"#utility.yul\":2183:2186   */\n      0x0100\n        /* \"#utility.yul\":2171:2180   */\n      dup10\n        /* \"#utility.yul\":2162:2169   */\n      dup12\n        /* \"#utility.yul\":2158:2181   */\n      sub\n        /* \"#utility.yul\":2154:2187   */\n      slt\n        /* \"#utility.yul\":2151:2153   */\n      iszero\n      tag_177\n      jumpi\n        /* \"#utility.yul\":2200:2201   */\n      0x00\n        /* \"#utility.yul\":2197:2198   */\n      dup1\n        /* \"#utility.yul\":2190:2202   */\n      revert\n        /* \"#utility.yul\":2151:2153   */\n    tag_177:\n        /* \"#utility.yul\":2243:2244   */\n      0x00\n        /* \"#utility.yul\":2268:2321   */\n      tag_178\n        /* \"#utility.yul\":2313:2320   */\n      dup12\n        /* \"#utility.yul\":2304:2310   */\n      dup3\n        /* \"#utility.yul\":2293:2302   */\n      dup13\n        /* \"#utility.yul\":2289:2311   */\n      add\n        /* \"#utility.yul\":2268:2321   */\n      tag_144\n      jump\t// in\n    tag_178:\n        /* \"#utility.yul\":2258:2321   */\n      swap9\n      pop\n        /* \"#utility.yul\":2214:2331   */\n      pop\n        /* \"#utility.yul\":2370:2372   */\n      0x20\n        /* \"#utility.yul\":2396:2449   */\n      tag_179\n        /* \"#utility.yul\":2441:2448   */\n      dup12\n        /* \"#utility.yul\":2432:2438   */\n      dup3\n        /* \"#utility.yul\":2421:2430   */\n      dup13\n        /* \"#utility.yul\":2417:2439   */\n      add\n        /* \"#utility.yul\":2396:2449   */\n      tag_144\n      jump\t// in\n    tag_179:\n        /* \"#utility.yul\":2386:2449   */\n      swap8\n      pop\n        /* \"#utility.yul\":2341:2459   */\n      pop\n        /* \"#utility.yul\":2498:2500   */\n      0x40\n        /* \"#utility.yul\":2524:2577   */\n      tag_180\n        /* \"#utility.yul\":2569:2576   */\n      dup12\n        /* \"#utility.yul\":2560:2566   */\n      dup3\n        /* \"#utility.yul\":2549:2558   */\n      dup13\n        /* \"#utility.yul\":2545:2567   */\n      add\n        /* \"#utility.yul\":2524:2577   */\n      tag_156\n      jump\t// in\n    tag_180:\n        /* \"#utility.yul\":2514:2577   */\n      swap7\n      pop\n        /* \"#utility.yul\":2469:2587   */\n      pop\n        /* \"#utility.yul\":2626:2628   */\n      0x60\n        /* \"#utility.yul\":2652:2705   */\n      tag_181\n        /* \"#utility.yul\":2697:2704   */\n      dup12\n        /* \"#utility.yul\":2688:2694   */\n      dup3\n        /* \"#utility.yul\":2677:2686   */\n      dup13\n        /* \"#utility.yul\":2673:2695   */\n      add\n        /* \"#utility.yul\":2652:2705   */\n      tag_156\n      jump\t// in\n    tag_181:\n        /* \"#utility.yul\":2642:2705   */\n      swap6\n      pop\n        /* \"#utility.yul\":2597:2715   */\n      pop\n        /* \"#utility.yul\":2754:2757   */\n      0x80\n        /* \"#utility.yul\":2781:2831   */\n      tag_182\n        /* \"#utility.yul\":2823:2830   */\n      dup12\n        /* \"#utility.yul\":2814:2820   */\n      dup3\n        /* \"#utility.yul\":2803:2812   */\n      dup13\n        /* \"#utility.yul\":2799:2821   */\n      add\n        /* \"#utility.yul\":2781:2831   */\n      tag_148\n      jump\t// in\n    tag_182:\n        /* \"#utility.yul\":2771:2831   */\n      swap5\n      pop\n        /* \"#utility.yul\":2725:2841   */\n      pop\n        /* \"#utility.yul\":2880:2883   */\n      0xa0\n        /* \"#utility.yul\":2907:2958   */\n      tag_183\n        /* \"#utility.yul\":2950:2957   */\n      dup12\n        /* \"#utility.yul\":2941:2947   */\n      dup3\n        /* \"#utility.yul\":2930:2939   */\n      dup13\n        /* \"#utility.yul\":2926:2948   */\n      add\n        /* \"#utility.yul\":2907:2958   */\n      tag_160\n      jump\t// in\n    tag_183:\n        /* \"#utility.yul\":2897:2958   */\n      swap4\n      pop\n        /* \"#utility.yul\":2851:2968   */\n      pop\n        /* \"#utility.yul\":3007:3010   */\n      0xc0\n        /* \"#utility.yul\":3034:3087   */\n      tag_184\n        /* \"#utility.yul\":3079:3086   */\n      dup12\n        /* \"#utility.yul\":3070:3076   */\n      dup3\n        /* \"#utility.yul\":3059:3068   */\n      dup13\n        /* \"#utility.yul\":3055:3077   */\n      add\n        /* \"#utility.yul\":3034:3087   */\n      tag_152\n      jump\t// in\n    tag_184:\n        /* \"#utility.yul\":3024:3087   */\n      swap3\n      pop\n        /* \"#utility.yul\":2978:3097   */\n      pop\n        /* \"#utility.yul\":3136:3139   */\n      0xe0\n        /* \"#utility.yul\":3163:3216   */\n      tag_185\n        /* \"#utility.yul\":3208:3215   */\n      dup12\n        /* \"#utility.yul\":3199:3205   */\n      dup3\n        /* \"#utility.yul\":3188:3197   */\n      dup13\n        /* \"#utility.yul\":3184:3206   */\n      add\n        /* \"#utility.yul\":3163:3216   */\n      tag_152\n      jump\t// in\n    tag_185:\n        /* \"#utility.yul\":3153:3216   */\n      swap2\n      pop\n        /* \"#utility.yul\":3107:3226   */\n      pop\n        /* \"#utility.yul\":2141:3233   */\n      swap3\n      swap6\n      swap9\n      pop\n      swap3\n      swap6\n      swap9\n      swap1\n      swap4\n      swap7\n      pop\n      jump\t// out\n        /* \"#utility.yul\":3239:3646   */\n    tag_24:\n      0x00\n      dup1\n        /* \"#utility.yul\":3364:3366   */\n      0x40\n        /* \"#utility.yul\":3352:3361   */\n      dup4\n        /* \"#utility.yul\":3343:3350   */\n      dup6\n        /* \"#utility.yul\":3339:3362   */\n      sub\n        /* \"#utility.yul\":3335:3367   */\n      slt\n        /* \"#utility.yul\":3332:3334   */\n      iszero\n      tag_187\n      jumpi\n        /* \"#utility.yul\":3380:3381   */\n      0x00\n        /* \"#utility.yul\":3377:3378   */\n      dup1\n        /* \"#utility.yul\":3370:3382   */\n      revert\n        /* \"#utility.yul\":3332:3334   */\n    tag_187:\n        /* \"#utility.yul\":3423:3424   */\n      0x00\n        /* \"#utility.yul\":3448:3501   */\n      tag_188\n        /* \"#utility.yul\":3493:3500   */\n      dup6\n        /* \"#utility.yul\":3484:3490   */\n      dup3\n        /* \"#utility.yul\":3473:3482   */\n      dup7\n        /* \"#utility.yul\":3469:3491   */\n      add\n        /* \"#utility.yul\":3448:3501   */\n      tag_144\n      jump\t// in\n    tag_188:\n        /* \"#utility.yul\":3438:3501   */\n      swap3\n      pop\n        /* \"#utility.yul\":3394:3511   */\n      pop\n        /* \"#utility.yul\":3550:3552   */\n      0x20\n        /* \"#utility.yul\":3576:3629   */\n      tag_189\n        /* \"#utility.yul\":3621:3628   */\n      dup6\n        /* \"#utility.yul\":3612:3618   */\n      dup3\n        /* \"#utility.yul\":3601:3610   */\n      dup7\n        /* \"#utility.yul\":3597:3619   */\n      add\n        /* \"#utility.yul\":3576:3629   */\n      tag_156\n      jump\t// in\n    tag_189:\n        /* \"#utility.yul\":3566:3629   */\n      swap2\n      pop\n        /* \"#utility.yul\":3521:3639   */\n      pop\n        /* \"#utility.yul\":3322:3646   */\n      swap3\n      pop\n      swap3\n      swap1\n      pop\n      jump\t// out\n        /* \"#utility.yul\":3652:3770   */\n    tag_190:\n        /* \"#utility.yul\":3739:3763   */\n      tag_192\n        /* \"#utility.yul\":3757:3762   */\n      dup2\n        /* \"#utility.yul\":3739:3763   */\n      tag_193\n      jump\t// in\n    tag_192:\n        /* \"#utility.yul\":3734:3737   */\n      dup3\n        /* \"#utility.yul\":3727:3764   */\n      mstore\n        /* \"#utility.yul\":3717:3770   */\n      pop\n      pop\n      jump\t// out\n        /* \"#utility.yul\":3776:3885   */\n    tag_194:\n        /* \"#utility.yul\":3857:3878   */\n      tag_196\n        /* \"#utility.yul\":3872:3877   */\n      dup2\n        /* \"#utility.yul\":3857:3878   */\n      tag_197\n      jump\t// in\n    tag_196:\n        /* \"#utility.yul\":3852:3855   */\n      dup3\n        /* \"#utility.yul\":3845:3879   */\n      mstore\n        /* \"#utility.yul\":3835:3885   */\n      pop\n      pop\n      jump\t// out\n        /* \"#utility.yul\":3891:4009   */\n    tag_198:\n        /* \"#utility.yul\":3978:4002   */\n      tag_200\n        /* \"#utility.yul\":3996:4001   */\n      dup2\n        /* \"#utility.yul\":3978:4002   */\n      tag_201\n      jump\t// in\n    tag_200:\n        /* \"#utility.yul\":3973:3976   */\n      dup3\n        /* \"#utility.yul\":3966:4003   */\n      mstore\n        /* \"#utility.yul\":3956:4009   */\n      pop\n      pop\n      jump\t// out\n        /* \"#utility.yul\":4015:4172   */\n    tag_202:\n        /* \"#utility.yul\":4120:4165   */\n      tag_204\n        /* \"#utility.yul\":4140:4164   */\n      tag_205\n        /* \"#utility.yul\":4158:4163   */\n      dup3\n        /* \"#utility.yul\":4140:4164   */\n      tag_201\n      jump\t// in\n    tag_205:\n        /* \"#utility.yul\":4120:4165   */\n      tag_206\n      jump\t// in\n    tag_204:\n        /* \"#utility.yul\":4115:4118   */\n      dup3\n        /* \"#utility.yul\":4108:4166   */\n      mstore\n        /* \"#utility.yul\":4098:4172   */\n      pop\n      pop\n      jump\t// out\n        /* \"#utility.yul\":4178:4542   */\n    tag_207:\n      0x00\n        /* \"#utility.yul\":4294:4333   */\n      tag_209\n        /* \"#utility.yul\":4327:4332   */\n      dup3\n        /* \"#utility.yul\":4294:4333   */\n      tag_210\n      jump\t// in\n    tag_209:\n        /* \"#utility.yul\":4349:4420   */\n      tag_211\n        /* \"#utility.yul\":4413:4419   */\n      dup2\n        /* \"#utility.yul\":4408:4411   */\n      dup6\n        /* \"#utility.yul\":4349:4420   */\n      tag_212\n      jump\t// in\n    tag_211:\n        /* \"#utility.yul\":4342:4420   */\n      swap4\n      pop\n        /* \"#utility.yul\":4429:4481   */\n      tag_213\n        /* \"#utility.yul\":4474:4480   */\n      dup2\n        /* \"#utility.yul\":4469:4472   */\n      dup6\n        /* \"#utility.yul\":4462:4466   */\n      0x20\n        /* \"#utility.yul\":4455:4460   */\n      dup7\n        /* \"#utility.yul\":4451:4467   */\n      add\n        /* \"#utility.yul\":4429:4481   */\n      tag_214\n      jump\t// in\n    tag_213:\n        /* \"#utility.yul\":4506:4535   */\n      tag_215\n        /* \"#utility.yul\":4528:4534   */\n      dup2\n        /* \"#utility.yul\":4506:4535   */\n      tag_216\n      jump\t// in\n    tag_215:\n        /* \"#utility.yul\":4501:4504   */\n      dup5\n        /* \"#utility.yul\":4497:4536   */\n      add\n        /* \"#utility.yul\":4490:4536   */\n      swap2\n      pop\n        /* \"#utility.yul\":4270:4542   */\n      pop\n      swap3\n      swap2\n      pop\n      pop\n      jump\t// out\n        /* \"#utility.yul\":4548:4870   */\n    tag_217:\n      0x00\n        /* \"#utility.yul\":4711:4778   */\n      tag_219\n        /* \"#utility.yul\":4775:4777   */\n      0x18\n        /* \"#utility.yul\":4770:4773   */\n      dup4\n        /* \"#utility.yul\":4711:4778   */\n      tag_212\n      jump\t// in\n    tag_219:\n        /* \"#utility.yul\":4704:4778   */\n      swap2\n      pop\n        /* \"#utility.yul\":4808:4834   */\n      0x7065726d69742074696d657374616d7020657870697265640000000000000000\n        /* \"#utility.yul\":4804:4805   */\n      0x00\n        /* \"#utility.yul\":4799:4802   */\n      dup4\n        /* \"#utility.yul\":4795:4806   */\n      add\n        /* \"#utility.yul\":4788:4835   */\n      mstore\n        /* \"#utility.yul\":4861:4863   */\n      0x20\n        /* \"#utility.yul\":4856:4859   */\n      dup3\n        /* \"#utility.yul\":4852:4864   */\n      add\n        /* \"#utility.yul\":4845:4864   */\n      swap1\n      pop\n        /* \"#utility.yul\":4694:4870   */\n      swap2\n      swap1\n      pop\n      jump\t// out\n        /* \"#utility.yul\":4876:5187   */\n    tag_220:\n      0x00\n        /* \"#utility.yul\":5039:5106   */\n      tag_222\n        /* \"#utility.yul\":5103:5105   */\n      0x0d\n        /* \"#utility.yul\":5098:5101   */\n      dup4\n        /* \"#utility.yul\":5039:5106   */\n      tag_212\n      jump\t// in\n    tag_222:\n        /* \"#utility.yul\":5032:5106   */\n      swap2\n      pop\n        /* \"#utility.yul\":5136:5151   */\n      0x696e76616c6964206e6f6e636500000000000000000000000000000000000000\n        /* \"#utility.yul\":5132:5133   */\n      0x00\n        /* \"#utility.yul\":5127:5130   */\n      dup4\n        /* \"#utility.yul\":5123:5134   */\n      add\n        /* \"#utility.yul\":5116:5152   */\n      mstore\n        /* \"#utility.yul\":5178:5180   */\n      0x20\n        /* \"#utility.yul\":5173:5176   */\n      dup3\n        /* \"#utility.yul\":5169:5181   */\n      add\n        /* \"#utility.yul\":5162:5181   */\n      swap1\n      pop\n        /* \"#utility.yul\":5022:5187   */\n      swap2\n      swap1\n      pop\n      jump\t// out\n        /* \"#utility.yul\":5193:5510   */\n    tag_223:\n      0x00\n        /* \"#utility.yul\":5356:5423   */\n      tag_225\n        /* \"#utility.yul\":5420:5422   */\n      0x13\n        /* \"#utility.yul\":5415:5418   */\n      dup4\n        /* \"#utility.yul\":5356:5423   */\n      tag_212\n      jump\t// in\n    tag_225:\n        /* \"#utility.yul\":5349:5423   */\n      swap2\n      pop\n        /* \"#utility.yul\":5453:5474   */\n      0x696e76616c6964207065726d6974206861736800000000000000000000000000\n        /* \"#utility.yul\":5449:5450   */\n      0x00\n        /* \"#utility.yul\":5444:5447   */\n      dup4\n        /* \"#utility.yul\":5440:5451   */\n      add\n        /* \"#utility.yul\":5433:5475   */\n      mstore\n        /* \"#utility.yul\":5501:5503   */\n      0x20\n        /* \"#utility.yul\":5496:5499   */\n      dup3\n        /* \"#utility.yul\":5492:5504   */\n      add\n        /* \"#utility.yul\":5485:5504   */\n      swap1\n      pop\n        /* \"#utility.yul\":5339:5510   */\n      swap2\n      swap1\n      pop\n      jump\t// out\n        /* \"#utility.yul\":5516:5845   */\n    tag_226:\n      0x00\n        /* \"#utility.yul\":5679:5746   */\n      tag_228\n        /* \"#utility.yul\":5743:5745   */\n      0x1f\n        /* \"#utility.yul\":5738:5741   */\n      dup4\n        /* \"#utility.yul\":5679:5746   */\n      tag_212\n      jump\t// in\n    tag_228:\n        /* \"#utility.yul\":5672:5746   */\n      swap2\n      pop\n        /* \"#utility.yul\":5776:5809   */\n      0x616464726573732063616e6e6f7420626520746f6b656e206164647265737300\n        /* \"#utility.yul\":5772:5773   */\n      0x00\n        /* \"#utility.yul\":5767:5770   */\n      dup4\n        /* \"#utility.yul\":5763:5774   */\n      add\n        /* \"#utility.yul\":5756:5810   */\n      mstore\n        /* \"#utility.yul\":5836:5838   */\n      0x20\n        /* \"#utility.yul\":5831:5834   */\n      dup3\n        /* \"#utility.yul\":5827:5839   */\n      add\n        /* \"#utility.yul\":5820:5839   */\n      swap1\n      pop\n        /* \"#utility.yul\":5662:5845   */\n      swap2\n      swap1\n      pop\n      jump\t// out\n        /* \"#utility.yul\":5851:6004   */\n    tag_229:\n        /* \"#utility.yul\":5954:5997   */\n      tag_231\n        /* \"#utility.yul\":5973:5996   */\n      tag_232\n        /* \"#utility.yul\":5990:5995   */\n      dup3\n        /* \"#utility.yul\":5973:5996   */\n      tag_233\n      jump\t// in\n    tag_232:\n        /* \"#utility.yul\":5954:5997   */\n      tag_234\n      jump\t// in\n    tag_231:\n        /* \"#utility.yul\":5949:5952   */\n      dup3\n        /* \"#utility.yul\":5942:5998   */\n      mstore\n        /* \"#utility.yul\":5932:6004   */\n      pop\n      pop\n      jump\t// out\n        /* \"#utility.yul\":6010:6128   */\n    tag_235:\n        /* \"#utility.yul\":6097:6121   */\n      tag_237\n        /* \"#utility.yul\":6115:6120   */\n      dup2\n        /* \"#utility.yul\":6097:6121   */\n      tag_238\n      jump\t// in\n    tag_237:\n        /* \"#utility.yul\":6092:6095   */\n      dup3\n        /* \"#utility.yul\":6085:6122   */\n      mstore\n        /* \"#utility.yul\":6075:6128   */\n      pop\n      pop\n      jump\t// out\n        /* \"#utility.yul\":6134:6246   */\n    tag_239:\n        /* \"#utility.yul\":6217:6239   */\n      tag_241\n        /* \"#utility.yul\":6233:6238   */\n      dup2\n        /* \"#utility.yul\":6217:6239   */\n      tag_242\n      jump\t// in\n    tag_241:\n        /* \"#utility.yul\":6212:6215   */\n      dup3\n        /* \"#utility.yul\":6205:6240   */\n      mstore\n        /* \"#utility.yul\":6195:6246   */\n      pop\n      pop\n      jump\t// out\n        /* \"#utility.yul\":6252:6785   */\n    tag_93:\n      0x00\n        /* \"#utility.yul\":6433:6506   */\n      tag_244\n        /* \"#utility.yul\":6502:6505   */\n      dup3\n        /* \"#utility.yul\":6493:6499   */\n      dup7\n        /* \"#utility.yul\":6433:6506   */\n      tag_229\n      jump\t// in\n    tag_244:\n        /* \"#utility.yul\":6531:6532   */\n      0x02\n        /* \"#utility.yul\":6526:6529   */\n      dup3\n        /* \"#utility.yul\":6522:6533   */\n      add\n        /* \"#utility.yul\":6515:6533   */\n      swap2\n      pop\n        /* \"#utility.yul\":6543:6618   */\n      tag_245\n        /* \"#utility.yul\":6614:6617   */\n      dup3\n        /* \"#utility.yul\":6605:6611   */\n      dup6\n        /* \"#utility.yul\":6543:6618   */\n      tag_202\n      jump\t// in\n    tag_245:\n        /* \"#utility.yul\":6643:6645   */\n      0x20\n        /* \"#utility.yul\":6638:6641   */\n      dup3\n        /* \"#utility.yul\":6634:6646   */\n      add\n        /* \"#utility.yul\":6627:6646   */\n      swap2\n      pop\n        /* \"#utility.yul\":6656:6731   */\n      tag_246\n        /* \"#utility.yul\":6727:6730   */\n      dup3\n        /* \"#utility.yul\":6718:6724   */\n      dup5\n        /* \"#utility.yul\":6656:6731   */\n      tag_202\n      jump\t// in\n    tag_246:\n        /* \"#utility.yul\":6756:6758   */\n      0x20\n        /* \"#utility.yul\":6751:6754   */\n      dup3\n        /* \"#utility.yul\":6747:6759   */\n      add\n        /* \"#utility.yul\":6740:6759   */\n      swap2\n      pop\n        /* \"#utility.yul\":6776:6779   */\n      dup2\n        /* \"#utility.yul\":6769:6779   */\n      swap1\n      pop\n        /* \"#utility.yul\":6422:6785   */\n      swap5\n      swap4\n      pop\n      pop\n      pop\n      pop\n      jump\t// out\n        /* \"#utility.yul\":6791:7123   */\n    tag_129:\n      0x00\n        /* \"#utility.yul\":6950:6952   */\n      0x40\n        /* \"#utility.yul\":6939:6948   */\n      dup3\n        /* \"#utility.yul\":6935:6953   */\n      add\n        /* \"#utility.yul\":6927:6953   */\n      swap1\n      pop\n        /* \"#utility.yul\":6963:7034   */\n      tag_248\n        /* \"#utility.yul\":7031:7032   */\n      0x00\n        /* \"#utility.yul\":7020:7029   */\n      dup4\n        /* \"#utility.yul\":7016:7033   */\n      add\n        /* \"#utility.yul\":7007:7013   */\n      dup6\n        /* \"#utility.yul\":6963:7034   */\n      tag_190\n      jump\t// in\n    tag_248:\n        /* \"#utility.yul\":7044:7116   */\n      tag_249\n        /* \"#utility.yul\":7112:7114   */\n      0x20\n        /* \"#utility.yul\":7101:7110   */\n      dup4\n        /* \"#utility.yul\":7097:7115   */\n      add\n        /* \"#utility.yul\":7088:7094   */\n      dup5\n        /* \"#utility.yul\":7044:7116   */\n      tag_235\n      jump\t// in\n    tag_249:\n        /* \"#utility.yul\":6917:7123   */\n      swap4\n      swap3\n      pop\n      pop\n      pop\n      jump\t// out\n        /* \"#utility.yul\":7129:7339   */\n    tag_27:\n      0x00\n        /* \"#utility.yul\":7254:7256   */\n      0x20\n        /* \"#utility.yul\":7243:7252   */\n      dup3\n        /* \"#utility.yul\":7239:7257   */\n      add\n        /* \"#utility.yul\":7231:7257   */\n      swap1\n      pop\n        /* \"#utility.yul\":7267:7332   */\n      tag_251\n        /* \"#utility.yul\":7329:7330   */\n      0x00\n        /* \"#utility.yul\":7318:7327   */\n      dup4\n        /* \"#utility.yul\":7314:7331   */\n      add\n        /* \"#utility.yul\":7305:7311   */\n      dup5\n        /* \"#utility.yul\":7267:7332   */\n      tag_194\n      jump\t// in\n    tag_251:\n        /* \"#utility.yul\":7221:7339   */\n      swap3\n      swap2\n      pop\n      pop\n      jump\t// out\n        /* \"#utility.yul\":7345:7567   */\n    tag_44:\n      0x00\n        /* \"#utility.yul\":7476:7478   */\n      0x20\n        /* \"#utility.yul\":7465:7474   */\n      dup3\n        /* \"#utility.yul\":7461:7479   */\n      add\n        /* \"#utility.yul\":7453:7479   */\n      swap1\n      pop\n        /* \"#utility.yul\":7489:7560   */\n      tag_253\n        /* \"#utility.yul\":7557:7558   */\n      0x00\n        /* \"#utility.yul\":7546:7555   */\n      dup4\n        /* \"#utility.yul\":7542:7559   */\n      add\n        /* \"#utility.yul\":7533:7539   */\n      dup5\n        /* \"#utility.yul\":7489:7560   */\n      tag_198\n      jump\t// in\n    tag_253:\n        /* \"#utility.yul\":7443:7567   */\n      swap3\n      swap2\n      pop\n      pop\n      jump\t// out\n        /* \"#utility.yul\":7573:8336   */\n    tag_91:\n      0x00\n        /* \"#utility.yul\":7838:7841   */\n      0xc0\n        /* \"#utility.yul\":7827:7836   */\n      dup3\n        /* \"#utility.yul\":7823:7842   */\n      add\n        /* \"#utility.yul\":7815:7842   */\n      swap1\n      pop\n        /* \"#utility.yul\":7852:7923   */\n      tag_255\n        /* \"#utility.yul\":7920:7921   */\n      0x00\n        /* \"#utility.yul\":7909:7918   */\n      dup4\n        /* \"#utility.yul\":7905:7922   */\n      add\n        /* \"#utility.yul\":7896:7902   */\n      dup10\n        /* \"#utility.yul\":7852:7923   */\n      tag_198\n      jump\t// in\n    tag_255:\n        /* \"#utility.yul\":7933:8005   */\n      tag_256\n        /* \"#utility.yul\":8001:8003   */\n      0x20\n        /* \"#utility.yul\":7990:7999   */\n      dup4\n        /* \"#utility.yul\":7986:8004   */\n      add\n        /* \"#utility.yul\":7977:7983   */\n      dup9\n        /* \"#utility.yul\":7933:8005   */\n      tag_190\n      jump\t// in\n    tag_256:\n        /* \"#utility.yul\":8015:8087   */\n      tag_257\n        /* \"#utility.yul\":8083:8085   */\n      0x40\n        /* \"#utility.yul\":8072:8081   */\n      dup4\n        /* \"#utility.yul\":8068:8086   */\n      add\n        /* \"#utility.yul\":8059:8065   */\n      dup8\n        /* \"#utility.yul\":8015:8087   */\n      tag_190\n      jump\t// in\n    tag_257:\n        /* \"#utility.yul\":8097:8169   */\n      tag_258\n        /* \"#utility.yul\":8165:8167   */\n      0x60\n        /* \"#utility.yul\":8154:8163   */\n      dup4\n        /* \"#utility.yul\":8150:8168   */\n      add\n        /* \"#utility.yul\":8141:8147   */\n      dup7\n        /* \"#utility.yul\":8097:8169   */\n      tag_235\n      jump\t// in\n    tag_258:\n        /* \"#utility.yul\":8179:8252   */\n      tag_259\n        /* \"#utility.yul\":8247:8250   */\n      0x80\n        /* \"#utility.yul\":8236:8245   */\n      dup4\n        /* \"#utility.yul\":8232:8251   */\n      add\n        /* \"#utility.yul\":8223:8229   */\n      dup6\n        /* \"#utility.yul\":8179:8252   */\n      tag_235\n      jump\t// in\n    tag_259:\n        /* \"#utility.yul\":8262:8329   */\n      tag_260\n        /* \"#utility.yul\":8324:8327   */\n      0xa0\n        /* \"#utility.yul\":8313:8322   */\n      dup4\n        /* \"#utility.yul\":8309:8328   */\n      add\n        /* \"#utility.yul\":8300:8306   */\n      dup5\n        /* \"#utility.yul\":8262:8329   */\n      tag_194\n      jump\t// in\n    tag_260:\n        /* \"#utility.yul\":7805:8336   */\n      swap8\n      swap7\n      pop\n      pop\n      pop\n      pop\n      pop\n      pop\n      pop\n      jump\t// out\n        /* \"#utility.yul\":8342:8887   */\n    tag_98:\n      0x00\n        /* \"#utility.yul\":8553:8556   */\n      0x80\n        /* \"#utility.yul\":8542:8551   */\n      dup3\n        /* \"#utility.yul\":8538:8557   */\n      add\n        /* \"#utility.yul\":8530:8557   */\n      swap1\n      pop\n        /* \"#utility.yul\":8567:8638   */\n      tag_262\n        /* \"#utility.yul\":8635:8636   */\n      0x00\n        /* \"#utility.yul\":8624:8633   */\n      dup4\n        /* \"#utility.yul\":8620:8637   */\n      add\n        /* \"#utility.yul\":8611:8617   */\n      dup8\n        /* \"#utility.yul\":8567:8638   */\n      tag_198\n      jump\t// in\n    tag_262:\n        /* \"#utility.yul\":8648:8716   */\n      tag_263\n        /* \"#utility.yul\":8712:8714   */\n      0x20\n        /* \"#utility.yul\":8701:8710   */\n      dup4\n        /* \"#utility.yul\":8697:8715   */\n      add\n        /* \"#utility.yul\":8688:8694   */\n      dup7\n        /* \"#utility.yul\":8648:8716   */\n      tag_239\n      jump\t// in\n    tag_263:\n        /* \"#utility.yul\":8726:8798   */\n      tag_264\n        /* \"#utility.yul\":8794:8796   */\n      0x40\n        /* \"#utility.yul\":8783:8792   */\n      dup4\n        /* \"#utility.yul\":8779:8797   */\n      add\n        /* \"#utility.yul\":8770:8776   */\n      dup6\n        /* \"#utility.yul\":8726:8798   */\n      tag_198\n      jump\t// in\n    tag_264:\n        /* \"#utility.yul\":8808:8880   */\n      tag_265\n        /* \"#utility.yul\":8876:8878   */\n      0x60\n        /* \"#utility.yul\":8865:8874   */\n      dup4\n        /* \"#utility.yul\":8861:8879   */\n      add\n        /* \"#utility.yul\":8852:8858   */\n      dup5\n        /* \"#utility.yul\":8808:8880   */\n      tag_198\n      jump\t// in\n    tag_265:\n        /* \"#utility.yul\":8520:8887   */\n      swap6\n      swap5\n      pop\n      pop\n      pop\n      pop\n      pop\n      jump\t// out\n        /* \"#utility.yul\":8893:9206   */\n    tag_21:\n      0x00\n        /* \"#utility.yul\":9044:9046   */\n      0x20\n        /* \"#utility.yul\":9033:9042   */\n      dup3\n        /* \"#utility.yul\":9029:9047   */\n      add\n        /* \"#utility.yul\":9021:9047   */\n      swap1\n      pop\n        /* \"#utility.yul\":9093:9102   */\n      dup2\n        /* \"#utility.yul\":9087:9091   */\n      dup2\n        /* \"#utility.yul\":9083:9103   */\n      sub\n        /* \"#utility.yul\":9079:9080   */\n      0x00\n        /* \"#utility.yul\":9068:9077   */\n      dup4\n        /* \"#utility.yul\":9064:9081   */\n      add\n        /* \"#utility.yul\":9057:9104   */\n      mstore\n        /* \"#utility.yul\":9121:9199   */\n      tag_267\n        /* \"#utility.yul\":9194:9198   */\n      dup2\n        /* \"#utility.yul\":9185:9191   */\n      dup5\n        /* \"#utility.yul\":9121:9199   */\n      tag_207\n      jump\t// in\n    tag_267:\n        /* \"#utility.yul\":9113:9199   */\n      swap1\n      pop\n        /* \"#utility.yul\":9011:9206   */\n      swap3\n      swap2\n      pop\n      pop\n      jump\t// out\n        /* \"#utility.yul\":9212:9631   */\n    tag_107:\n      0x00\n        /* \"#utility.yul\":9416:9418   */\n      0x20\n        /* \"#utility.yul\":9405:9414   */\n      dup3\n        /* \"#utility.yul\":9401:9419   */\n      add\n        /* \"#utility.yul\":9393:9419   */\n      swap1\n      pop\n        /* \"#utility.yul\":9465:9474   */\n      dup2\n        /* \"#utility.yul\":9459:9463   */\n      dup2\n        /* \"#utility.yul\":9455:9475   */\n      sub\n        /* \"#utility.yul\":9451:9452   */\n      0x00\n        /* \"#utility.yul\":9440:9449   */\n      dup4\n        /* \"#utility.yul\":9436:9453   */\n      add\n        /* \"#utility.yul\":9429:9476   */\n      mstore\n        /* \"#utility.yul\":9493:9624   */\n      tag_269\n        /* \"#utility.yul\":9619:9623   */\n      dup2\n        /* \"#utility.yul\":9493:9624   */\n      tag_217\n      jump\t// in\n    tag_269:\n        /* \"#utility.yul\":9485:9624   */\n      swap1\n      pop\n        /* \"#utility.yul\":9383:9631   */\n      swap2\n      swap1\n      pop\n      jump\t// out\n        /* \"#utility.yul\":9637:10056   */\n    tag_112:\n      0x00\n        /* \"#utility.yul\":9841:9843   */\n      0x20\n        /* \"#utility.yul\":9830:9839   */\n      dup3\n        /* \"#utility.yul\":9826:9844   */\n      add\n        /* \"#utility.yul\":9818:9844   */\n      swap1\n      pop\n        /* \"#utility.yul\":9890:9899   */\n      dup2\n        /* \"#utility.yul\":9884:9888   */\n      dup2\n        /* \"#utility.yul\":9880:9900   */\n      sub\n        /* \"#utility.yul\":9876:9877   */\n      0x00\n        /* \"#utility.yul\":9865:9874   */\n      dup4\n        /* \"#utility.yul\":9861:9878   */\n      add\n        /* \"#utility.yul\":9854:9901   */\n      mstore\n        /* \"#utility.yul\":9918:10049   */\n      tag_271\n        /* \"#utility.yul\":10044:10048   */\n      dup2\n        /* \"#utility.yul\":9918:10049   */\n      tag_220\n      jump\t// in\n    tag_271:\n        /* \"#utility.yul\":9910:10049   */\n      swap1\n      pop\n        /* \"#utility.yul\":9808:10056   */\n      swap2\n      swap1\n      pop\n      jump\t// out\n        /* \"#utility.yul\":10062:10481   */\n    tag_103:\n      0x00\n        /* \"#utility.yul\":10266:10268   */\n      0x20\n        /* \"#utility.yul\":10255:10264   */\n      dup3\n        /* \"#utility.yul\":10251:10269   */\n      add\n        /* \"#utility.yul\":10243:10269   */\n      swap1\n      pop\n        /* \"#utility.yul\":10315:10324   */\n      dup2\n        /* \"#utility.yul\":10309:10313   */\n      dup2\n        /* \"#utility.yul\":10305:10325   */\n      sub\n        /* \"#utility.yul\":10301:10302   */\n      0x00\n        /* \"#utility.yul\":10290:10299   */\n      dup4\n        /* \"#utility.yul\":10286:10303   */\n      add\n        /* \"#utility.yul\":10279:10326   */\n      mstore\n        /* \"#utility.yul\":10343:10474   */\n      tag_273\n        /* \"#utility.yul\":10469:10473   */\n      dup2\n        /* \"#utility.yul\":10343:10474   */\n      tag_223\n      jump\t// in\n    tag_273:\n        /* \"#utility.yul\":10335:10474   */\n      swap1\n      pop\n        /* \"#utility.yul\":10233:10481   */\n      swap2\n      swap1\n      pop\n      jump\t// out\n        /* \"#utility.yul\":10487:10906   */\n    tag_96:\n      0x00\n        /* \"#utility.yul\":10691:10693   */\n      0x20\n        /* \"#utility.yul\":10680:10689   */\n      dup3\n        /* \"#utility.yul\":10676:10694   */\n      add\n        /* \"#utility.yul\":10668:10694   */\n      swap1\n      pop\n        /* \"#utility.yul\":10740:10749   */\n      dup2\n        /* \"#utility.yul\":10734:10738   */\n      dup2\n        /* \"#utility.yul\":10730:10750   */\n      sub\n        /* \"#utility.yul\":10726:10727   */\n      0x00\n        /* \"#utility.yul\":10715:10724   */\n      dup4\n        /* \"#utility.yul\":10711:10728   */\n      add\n        /* \"#utility.yul\":10704:10751   */\n      mstore\n        /* \"#utility.yul\":10768:10899   */\n      tag_275\n        /* \"#utility.yul\":10894:10898   */\n      dup2\n        /* \"#utility.yul\":10768:10899   */\n      tag_226\n      jump\t// in\n    tag_275:\n        /* \"#utility.yul\":10760:10899   */\n      swap1\n      pop\n        /* \"#utility.yul\":10658:10906   */\n      swap2\n      swap1\n      pop\n      jump\t// out\n        /* \"#utility.yul\":10912:11134   */\n    tag_31:\n      0x00\n        /* \"#utility.yul\":11043:11045   */\n      0x20\n        /* \"#utility.yul\":11032:11041   */\n      dup3\n        /* \"#utility.yul\":11028:11046   */\n      add\n        /* \"#utility.yul\":11020:11046   */\n      swap1\n      pop\n        /* \"#utility.yul\":11056:11127   */\n      tag_277\n        /* \"#utility.yul\":11124:11125   */\n      0x00\n        /* \"#utility.yul\":11113:11122   */\n      dup4\n        /* \"#utility.yul\":11109:11126   */\n      add\n        /* \"#utility.yul\":11100:11106   */\n      dup5\n        /* \"#utility.yul\":11056:11127   */\n      tag_235\n      jump\t// in\n    tag_277:\n        /* \"#utility.yul\":11010:11134   */\n      swap3\n      swap2\n      pop\n      pop\n      jump\t// out\n        /* \"#utility.yul\":11140:11354   */\n    tag_40:\n      0x00\n        /* \"#utility.yul\":11267:11269   */\n      0x20\n        /* \"#utility.yul\":11256:11265   */\n      dup3\n        /* \"#utility.yul\":11252:11270   */\n      add\n        /* \"#utility.yul\":11244:11270   */\n      swap1\n      pop\n        /* \"#utility.yul\":11280:11347   */\n      tag_279\n        /* \"#utility.yul\":11344:11345   */\n      0x00\n        /* \"#utility.yul\":11333:11342   */\n      dup4\n        /* \"#utility.yul\":11329:11346   */\n      add\n        /* \"#utility.yul\":11320:11326   */\n      dup5\n        /* \"#utility.yul\":11280:11347   */\n      tag_239\n      jump\t// in\n    tag_279:\n        /* \"#utility.yul\":11234:11354   */\n      swap3\n      swap2\n      pop\n      pop\n      jump\t// out\n        /* \"#utility.yul\":11360:11459   */\n    tag_210:\n      0x00\n        /* \"#utility.yul\":11446:11451   */\n      dup2\n        /* \"#utility.yul\":11440:11452   */\n      mload\n        /* \"#utility.yul\":11430:11452   */\n      swap1\n      pop\n        /* \"#utility.yul\":11419:11459   */\n      swap2\n      swap1\n      pop\n      jump\t// out\n        /* \"#utility.yul\":11465:11634   */\n    tag_212:\n      0x00\n        /* \"#utility.yul\":11583:11589   */\n      dup3\n        /* \"#utility.yul\":11578:11581   */\n      dup3\n        /* \"#utility.yul\":11571:11590   */\n      mstore\n        /* \"#utility.yul\":11623:11627   */\n      0x20\n        /* \"#utility.yul\":11618:11621   */\n      dup3\n        /* \"#utility.yul\":11614:11628   */\n      add\n        /* \"#utility.yul\":11599:11628   */\n      swap1\n      pop\n        /* \"#utility.yul\":11561:11634   */\n      swap3\n      swap2\n      pop\n      pop\n      jump\t// out\n        /* \"#utility.yul\":11640:11945   */\n    tag_86:\n      0x00\n        /* \"#utility.yul\":11699:11719   */\n      tag_283\n        /* \"#utility.yul\":11717:11718   */\n      dup3\n        /* \"#utility.yul\":11699:11719   */\n      tag_238\n      jump\t// in\n    tag_283:\n        /* \"#utility.yul\":11694:11719   */\n      swap2\n      pop\n        /* \"#utility.yul\":11733:11753   */\n      tag_284\n        /* \"#utility.yul\":11751:11752   */\n      dup4\n        /* \"#utility.yul\":11733:11753   */\n      tag_238\n      jump\t// in\n    tag_284:\n        /* \"#utility.yul\":11728:11753   */\n      swap3\n      pop\n        /* \"#utility.yul\":11887:11888   */\n      dup3\n        /* \"#utility.yul\":11819:11885   */\n      0xffffffffffffffffffffffffffffffffffffffffffffffffffffffffffffffff\n        /* \"#utility.yul\":11815:11889   */\n      sub\n        /* \"#utility.yul\":11812:11813   */\n      dup3\n        /* \"#utility.yul\":11809:11890   */\n      gt\n        /* \"#utility.yul\":11806:11808   */\n      iszero\n      tag_285\n      jumpi\n        /* \"#utility.yul\":11893:11911   */\n      tag_286\n      tag_287\n      jump\t// in\n    tag_286:\n        /* \"#utility.yul\":11806:11808   */\n    tag_285:\n        /* \"#utility.yul\":11937:11938   */\n      dup3\n        /* \"#utility.yul\":11934:11935   */\n      dup3\n        /* \"#utility.yul\":11930:11939   */\n      add\n        /* \"#utility.yul\":11923:11939   */\n      swap1\n      pop\n        /* \"#utility.yul\":11684:11945   */\n      swap3\n      swap2\n      pop\n      pop\n      jump\t// out\n        /* \"#utility.yul\":11951:12142   */\n    tag_83:\n      0x00\n        /* \"#utility.yul\":12011:12031   */\n      tag_289\n        /* \"#utility.yul\":12029:12030   */\n      dup3\n        /* \"#utility.yul\":12011:12031   */\n      tag_238\n      jump\t// in\n    tag_289:\n        /* \"#utility.yul\":12006:12031   */\n      swap2\n      pop\n        /* \"#utility.yul\":12045:12065   */\n      tag_290\n        /* \"#utility.yul\":12063:12064   */\n      dup4\n        /* \"#utility.yul\":12045:12065   */\n      tag_238\n      jump\t// in\n    tag_290:\n        /* \"#utility.yul\":12040:12065   */\n      swap3\n      pop\n        /* \"#utility.yul\":12084:12085   */\n      dup3\n        /* \"#utility.yul\":12081:12082   */\n      dup3\n        /* \"#utility.yul\":12078:12086   */\n      lt\n        /* \"#utility.yul\":12075:12077   */\n      iszero\n      tag_291\n      jumpi\n        /* \"#utility.yul\":12089:12107   */\n      tag_292\n      tag_287\n      jump\t// in\n    tag_292:\n        /* \"#utility.yul\":12075:12077   */\n    tag_291:\n        /* \"#utility.yul\":12134:12135   */\n      dup3\n        /* \"#utility.yul\":12131:12132   */\n      dup3\n        /* \"#utility.yul\":12127:12136   */\n      sub\n        /* \"#utility.yul\":12119:12136   */\n      swap1\n      pop\n        /* \"#utility.yul\":11996:12142   */\n      swap3\n      swap2\n      pop\n      pop\n      jump\t// out\n        /* \"#utility.yul\":12148:12244   */\n    tag_193:\n      0x00\n        /* \"#utility.yul\":12214:12238   */\n      tag_294\n        /* \"#utility.yul\":12232:12237   */\n      dup3\n        /* \"#utility.yul\":12214:12238   */\n      tag_295\n      jump\t// in\n    tag_294:\n        /* \"#utility.yul\":12203:12238   */\n      swap1\n      pop\n        /* \"#utility.yul\":12193:12244   */\n      swap2\n      swap1\n      pop\n      jump\t// out\n        /* \"#utility.yul\":12250:12340   */\n    tag_197:\n      0x00\n        /* \"#utility.yul\":12327:12332   */\n      dup2\n        /* \"#utility.yul\":12320:12333   */\n      iszero\n        /* \"#utility.yul\":12313:12334   */\n      iszero\n        /* \"#utility.yul\":12302:12334   */\n      swap1\n      pop\n        /* \"#utility.yul\":12292:12340   */\n      swap2\n      swap1\n      pop\n      jump\t// out\n        /* \"#utility.yul\":12346:12423   */\n    tag_201:\n      0x00\n        /* \"#utility.yul\":12412:12417   */\n      dup2\n        /* \"#utility.yul\":12401:12417   */\n      swap1\n      pop\n        /* \"#utility.yul\":12391:12423   */\n      swap2\n      swap1\n      pop\n      jump\t// out\n        /* \"#utility.yul\":12429:12518   */\n    tag_233:\n      0x00\n        /* \"#utility.yul\":12505:12511   */\n      0xffff\n        /* \"#utility.yul\":12498:12503   */\n      dup3\n        /* \"#utility.yul\":12494:12512   */\n      and\n        /* \"#utility.yul\":12483:12512   */\n      swap1\n      pop\n        /* \"#utility.yul\":12473:12518   */\n      swap2\n      swap1\n      pop\n      jump\t// out\n        /* \"#utility.yul\":12524:12650   */\n    tag_295:\n      0x00\n        /* \"#utility.yul\":12601:12643   */\n      0xffffffffffffffffffffffffffffffffffffffff\n        /* \"#utility.yul\":12594:12599   */\n      dup3\n        /* \"#utility.yul\":12590:12644   */\n      and\n        /* \"#utility.yul\":12579:12644   */\n      swap1\n      pop\n        /* \"#utility.yul\":12569:12650   */\n      swap2\n      swap1\n      pop\n      jump\t// out\n        /* \"#utility.yul\":12656:12733   */\n    tag_238:\n      0x00\n        /* \"#utility.yul\":12722:12727   */\n      dup2\n        /* \"#utility.yul\":12711:12727   */\n      swap1\n      pop\n        /* \"#utility.yul\":12701:12733   */\n      swap2\n      swap1\n      pop\n      jump\t// out\n        /* \"#utility.yul\":12739:12825   */\n    tag_242:\n      0x00\n        /* \"#utility.yul\":12814:12818   */\n      0xff\n        /* \"#utility.yul\":12807:12812   */\n      dup3\n        /* \"#utility.yul\":12803:12819   */\n      and\n        /* \"#utility.yul\":12792:12819   */\n      swap1\n      pop\n        /* \"#utility.yul\":12782:12825   */\n      swap2\n      swap1\n      pop\n      jump\t// out\n        /* \"#utility.yul\":12831:13138   */\n    tag_214:\n        /* \"#utility.yul\":12899:12900   */\n      0x00\n        /* \"#utility.yul\":12909:13022   */\n    tag_303:\n        /* \"#utility.yul\":12923:12929   */\n      dup4\n        /* \"#utility.yul\":12920:12921   */\n      dup2\n        /* \"#utility.yul\":12917:12930   */\n      lt\n        /* \"#utility.yul\":12909:13022   */\n      iszero\n      tag_305\n      jumpi\n        /* \"#utility.yul\":13008:13009   */\n      dup1\n        /* \"#utility.yul\":13003:13006   */\n      dup3\n        /* \"#utility.yul\":12999:13010   */\n      add\n        /* \"#utility.yul\":12993:13011   */\n      mload\n        /* \"#utility.yul\":12989:12990   */\n      dup2\n        /* \"#utility.yul\":12984:12987   */\n      dup5\n        /* \"#utility.yul\":12980:12991   */\n      add\n        /* \"#utility.yul\":12973:13012   */\n      mstore\n        /* \"#utility.yul\":12945:12947   */\n      0x20\n        /* \"#utility.yul\":12942:12943   */\n      dup2\n        /* \"#utility.yul\":12938:12948   */\n      add\n        /* \"#utility.yul\":12933:12948   */\n      swap1\n      pop\n        /* \"#utility.yul\":12909:13022   */\n      jump(tag_303)\n    tag_305:\n        /* \"#utility.yul\":13040:13046   */\n      dup4\n        /* \"#utility.yul\":13037:13038   */\n      dup2\n        /* \"#utility.yul\":13034:13047   */\n      gt\n        /* \"#utility.yul\":13031:13033   */\n      iszero\n      tag_306\n      jumpi\n        /* \"#utility.yul\":13120:13121   */\n      0x00\n        /* \"#utility.yul\":13111:13117   */\n      dup5\n        /* \"#utility.yul\":13106:13109   */\n      dup5\n        /* \"#utility.yul\":13102:13118   */\n      add\n        /* \"#utility.yul\":13095:13122   */\n      mstore\n        /* \"#utility.yul\":13031:13033   */\n    tag_306:\n        /* \"#utility.yul\":12880:13138   */\n      pop\n      pop\n      pop\n      pop\n      jump\t// out\n        /* \"#utility.yul\":13144:13464   */\n    tag_74:\n      0x00\n        /* \"#utility.yul\":13225:13226   */\n      0x02\n        /* \"#utility.yul\":13219:13223   */\n      dup3\n        /* \"#utility.yul\":13215:13227   */\n      div\n        /* \"#utility.yul\":13205:13227   */\n      swap1\n      pop\n        /* \"#utility.yul\":13272:13273   */\n      0x01\n        /* \"#utility.yul\":13266:13270   */\n      dup3\n        /* \"#utility.yul\":13262:13274   */\n      and\n        /* \"#utility.yul\":13293:13311   */\n      dup1\n        /* \"#utility.yul\":13283:13285   */\n      tag_308\n      jumpi\n        /* \"#utility.yul\":13349:13353   */\n      0x7f\n        /* \"#utility.yul\":13341:13347   */\n      dup3\n        /* \"#utility.yul\":13337:13354   */\n      and\n        /* \"#utility.yul\":13327:13354   */\n      swap2\n      pop\n        /* \"#utility.yul\":13283:13285   */\n    tag_308:\n        /* \"#utility.yul\":13411:13413   */\n      0x20\n        /* \"#utility.yul\":13403:13409   */\n      dup3\n        /* \"#utility.yul\":13400:13414   */\n      lt\n        /* \"#utility.yul\":13380:13398   */\n      dup2\n        /* \"#utility.yul\":13377:13415   */\n      eq\n        /* \"#utility.yul\":13374:13376   */\n      iszero\n      tag_309\n      jumpi\n        /* \"#utility.yul\":13430:13448   */\n      tag_310\n      tag_311\n      jump\t// in\n    tag_310:\n        /* \"#utility.yul\":13374:13376   */\n    tag_309:\n        /* \"#utility.yul\":13195:13464   */\n      pop\n      swap2\n      swap1\n      pop\n      jump\t// out\n        /* \"#utility.yul\":13470:13703   */\n    tag_109:\n      0x00\n        /* \"#utility.yul\":13532:13556   */\n      tag_313\n        /* \"#utility.yul\":13550:13555   */\n      dup3\n        /* \"#utility.yul\":13532:13556   */\n      tag_238\n      jump\t// in\n    tag_313:\n        /* \"#utility.yul\":13523:13556   */\n      swap2\n      pop\n        /* \"#utility.yul\":13578:13644   */\n      0xffffffffffffffffffffffffffffffffffffffffffffffffffffffffffffffff\n        /* \"#utility.yul\":13571:13576   */\n      dup3\n        /* \"#utility.yul\":13568:13645   */\n      eq\n        /* \"#utility.yul\":13565:13567   */\n      iszero\n      tag_314\n      jumpi\n        /* \"#utility.yul\":13648:13666   */\n      tag_315\n      tag_287\n      jump\t// in\n    tag_315:\n        /* \"#utility.yul\":13565:13567   */\n    tag_314:\n        /* \"#utility.yul\":13695:13696   */\n      0x01\n        /* \"#utility.yul\":13688:13693   */\n      dup3\n        /* \"#utility.yul\":13684:13697   */\n      add\n        /* \"#utility.yul\":13677:13697   */\n      swap1\n      pop\n        /* \"#utility.yul\":13513:13703   */\n      swap2\n      swap1\n      pop\n      jump\t// out\n        /* \"#utility.yul\":13709:13788   */\n    tag_206:\n      0x00\n        /* \"#utility.yul\":13777:13782   */\n      dup2\n        /* \"#utility.yul\":13766:13782   */\n      swap1\n      pop\n        /* \"#utility.yul\":13756:13788   */\n      swap2\n      swap1\n      pop\n      jump\t// out\n        /* \"#utility.yul\":13794:13888   */\n    tag_234:\n      0x00\n        /* \"#utility.yul\":13861:13882   */\n      tag_318\n        /* \"#utility.yul\":13876:13881   */\n      dup3\n        /* \"#utility.yul\":13861:13882   */\n      tag_319\n      jump\t// in\n    tag_318:\n        /* \"#utility.yul\":13850:13882   */\n      swap1\n      pop\n        /* \"#utility.yul\":13840:13888   */\n      swap2\n      swap1\n      pop\n      jump\t// out\n        /* \"#utility.yul\":13894:14074   */\n    tag_287:\n        /* \"#utility.yul\":13942:14019   */\n      0x4e487b7100000000000000000000000000000000000000000000000000000000\n        /* \"#utility.yul\":13939:13940   */\n      0x00\n        /* \"#utility.yul\":13932:14020   */\n      mstore\n        /* \"#utility.yul\":14039:14043   */\n      0x11\n        /* \"#utility.yul\":14036:14037   */\n      0x04\n        /* \"#utility.yul\":14029:14044   */\n      mstore\n        /* \"#utility.yul\":14063:14067   */\n      0x24\n        /* \"#utility.yul\":14060:14061   */\n      0x00\n        /* \"#utility.yul\":14053:14068   */\n      revert\n        /* \"#utility.yul\":14080:14260   */\n    tag_311:\n        /* \"#utility.yul\":14128:14205   */\n      0x4e487b7100000000000000000000000000000000000000000000000000000000\n        /* \"#utility.yul\":14125:14126   */\n      0x00\n        /* \"#utility.yul\":14118:14206   */\n      mstore\n        /* \"#utility.yul\":14225:14229   */\n      0x22\n        /* \"#utility.yul\":14222:14223   */\n      0x04\n        /* \"#utility.yul\":14215:14230   */\n      mstore\n        /* \"#utility.yul\":14249:14253   */\n      0x24\n        /* \"#utility.yul\":14246:14247   */\n      0x00\n        /* \"#utility.yul\":14239:14254   */\n      revert\n        /* \"#utility.yul\":14266:14368   */\n    tag_216:\n      0x00\n        /* \"#utility.yul\":14358:14360   */\n      0x1f\n        /* \"#utility.yul\":14354:14361   */\n      not\n        /* \"#utility.yul\":14349:14351   */\n      0x1f\n        /* \"#utility.yul\":14342:14347   */\n      dup4\n        /* \"#utility.yul\":14338:14352   */\n      add\n        /* \"#utility.yul\":14334:14362   */\n      and\n        /* \"#utility.yul\":14324:14362   */\n      swap1\n      pop\n        /* \"#utility.yul\":14314:14368   */\n      swap2\n      swap1\n      pop\n      jump\t// out\n        /* \"#utility.yul\":14374:14470   */\n    tag_319:\n      0x00\n        /* \"#utility.yul\":14457:14462   */\n      dup2\n        /* \"#utility.yul\":14452:14455   */\n      0xf0\n        /* \"#utility.yul\":14448:14463   */\n      shl\n        /* \"#utility.yul\":14427:14463   */\n      swap1\n      pop\n        /* \"#utility.yul\":14417:14470   */\n      swap2\n      swap1\n      pop\n      jump\t// out\n        /* \"#utility.yul\":14476:14598   */\n    tag_147:\n        /* \"#utility.yul\":14549:14573   */\n      tag_325\n        /* \"#utility.yul\":14567:14572   */\n      dup2\n        /* \"#utility.yul\":14549:14573   */\n      tag_193\n      jump\t// in\n    tag_325:\n        /* \"#utility.yul\":14542:14547   */\n      dup2\n        /* \"#utility.yul\":14539:14574   */\n      eq\n        /* \"#utility.yul\":14529:14531   */\n      tag_326\n      jumpi\n        /* \"#utility.yul\":14588:14589   */\n      0x00\n        /* \"#utility.yul\":14585:14586   */\n      dup1\n        /* \"#utility.yul\":14578:14590   */\n      revert\n        /* \"#utility.yul\":14529:14531   */\n    tag_326:\n        /* \"#utility.yul\":14519:14598   */\n      pop\n      jump\t// out\n        /* \"#utility.yul\":14604:14720   */\n    tag_151:\n        /* \"#utility.yul\":14674:14695   */\n      tag_328\n        /* \"#utility.yul\":14689:14694   */\n      dup2\n        /* \"#utility.yul\":14674:14695   */\n      tag_197\n      jump\t// in\n    tag_328:\n        /* \"#utility.yul\":14667:14672   */\n      dup2\n        /* \"#utility.yul\":14664:14696   */\n      eq\n        /* \"#utility.yul\":14654:14656   */\n      tag_329\n      jumpi\n        /* \"#utility.yul\":14710:14711   */\n      0x00\n        /* \"#utility.yul\":14707:14708   */\n      dup1\n        /* \"#utility.yul\":14700:14712   */\n      revert\n        /* \"#utility.yul\":14654:14656   */\n    tag_329:\n        /* \"#utility.yul\":14644:14720   */\n      pop\n      jump\t// out\n        /* \"#utility.yul\":14726:14848   */\n    tag_155:\n        /* \"#utility.yul\":14799:14823   */\n      tag_331\n        /* \"#utility.yul\":14817:14822   */\n      dup2\n        /* \"#utility.yul\":14799:14823   */\n      tag_201\n      jump\t// in\n    tag_331:\n        /* \"#utility.yul\":14792:14797   */\n      dup2\n        /* \"#utility.yul\":14789:14824   */\n      eq\n        /* \"#utility.yul\":14779:14781   */\n      tag_332\n      jumpi\n        /* \"#utility.yul\":14838:14839   */\n      0x00\n        /* \"#utility.yul\":14835:14836   */\n      dup1\n        /* \"#utility.yul\":14828:14840   */\n      revert\n        /* \"#utility.yul\":14779:14781   */\n    tag_332:\n        /* \"#utility.yul\":14769:14848   */\n      pop\n      jump\t// out\n        /* \"#utility.yul\":14854:14976   */\n    tag_159:\n        /* \"#utility.yul\":14927:14951   */\n      tag_334\n        /* \"#utility.yul\":14945:14950   */\n      dup2\n        /* \"#utility.yul\":14927:14951   */\n      tag_238\n      jump\t// in\n    tag_334:\n        /* \"#utility.yul\":14920:14925   */\n      dup2\n        /* \"#utility.yul\":14917:14952   */\n      eq\n        /* \"#utility.yul\":14907:14909   */\n      tag_335\n      jumpi\n        /* \"#utility.yul\":14966:14967   */\n      0x00\n        /* \"#utility.yul\":14963:14964   */\n      dup1\n        /* \"#utility.yul\":14956:14968   */\n      revert\n        /* \"#utility.yul\":14907:14909   */\n    tag_335:\n        /* \"#utility.yul\":14897:14976   */\n      pop\n      jump\t// out\n        /* \"#utility.yul\":14982:15100   */\n    tag_163:\n        /* \"#utility.yul\":15053:15075   */\n      tag_337\n        /* \"#utility.yul\":15069:15074   */\n      dup2\n        /* \"#utility.yul\":15053:15075   */\n      tag_242\n      jump\t// in\n    tag_337:\n        /* \"#utility.yul\":15046:15051   */\n      dup2\n        /* \"#utility.yul\":15043:15076   */\n      eq\n        /* \"#utility.yul\":15033:15035   */\n      tag_338\n      jumpi\n        /* \"#utility.yul\":15090:15091   */\n      0x00\n        /* \"#utility.yul\":15087:15088   */\n      dup1\n        /* \"#utility.yul\":15080:15092   */\n      revert\n        /* \"#utility.yul\":15033:15035   */\n    tag_338:\n        /* \"#utility.yul\":15023:15100   */\n      pop\n      jump\t// out\n\n    auxdata: 0xa2646970667358221220ada17c693ce42f62bf4fe39a30aa71af1ae6fcfad9792c4d1328a12c37994f3264736f6c63430008000033\n}\n",
				"bytecode": {
					"linkReferences": {},
					"object": "60806040523480156200001157600080fd5b506040518060400160405280600881526020017f4669616e616e73750000000000000000000000000000000000000000000000008152506040518060400160405280600481526020017f46494e410000000000000000000000000000000000000000000000000000000081525081600490805190602001906200009692919062000203565b508060059080519060200190620000af92919062000203565b506000610c4590507f8b73c3c69bb8fe3d512ecc4cf759cc79239f7b179b0ffacaa9a75d522b39400f620000e86200016960201b60201c565b805190602001206040518060400160405280600181526020017f310000000000000000000000000000000000000000000000000000000000000081525080519060200120833060405160200162000144959493929190620002e6565b60405160208183030381529060405280519060200120600681905550505050620003f0565b6060600480546200017a906200038b565b80601f0160208091040260200160405190810160405280929190818152602001828054620001a8906200038b565b8015620001f95780601f10620001cd57610100808354040283529160200191620001f9565b820191906000526020600020905b815481529060010190602001808311620001db57829003601f168201915b5050505050905090565b82805462000211906200038b565b90600052602060002090601f01602090048101928262000235576000855562000281565b82601f106200025057805160ff191683800117855562000281565b8280016001018555821562000281579182015b828111156200028057825182559160200191906001019062000263565b5b50905062000290919062000294565b5090565b5b80821115620002af57600081600090555060010162000295565b5090565b620002be8162000343565b82525050565b620002cf8162000357565b82525050565b620002e08162000381565b82525050565b600060a082019050620002fd6000830188620002c4565b6200030c6020830187620002c4565b6200031b6040830186620002c4565b6200032a6060830185620002d5565b620003396080830184620002b3565b9695505050505050565b6000620003508262000361565b9050919050565b6000819050919050565b600073ffffffffffffffffffffffffffffffffffffffff82169050919050565b6000819050919050565b60006002820490506001821680620003a457607f821691505b60208210811415620003bb57620003ba620003c1565b5b50919050565b7f4e487b7100000000000000000000000000000000000000000000000000000000600052602260045260246000fd5b6116d280620004006000396000f3fe608060405234801561001057600080fd5b50600436106100cf5760003560e01c806370a082311161008c578063a9059cbb11610066578063a9059cbb14610216578063ac69417e14610246578063b190928b14610262578063dd62ed3e1461027e576100cf565b806370a08231146101ac5780638fcbaf0c146101dc57806395d89b41146101f8576100cf565b806306fdde03146100d4578063095ea7b3146100f257806318160ddd1461012257806323b872dd14610140578063313ce567146101705780633644e5151461018e575b600080fd5b6100dc6102ae565b6040516100e991906112f8565b60405180910390f35b61010c60048036038101906101079190610fc8565b610340565b604051610119919061121c565b60405180910390f35b61012a610432565b604051610137919061139a565b60405180910390f35b61015a60048036038101906101559190610ec7565b610438565b604051610167919061121c565b60405180910390f35b6101786105e7565b60405161018591906113b5565b60405180910390f35b6101966105f0565b6040516101a39190611237565b60405180910390f35b6101c660048036038101906101c19190610e62565b6105f6565b6040516101d3919061139a565b60405180910390f35b6101f660048036038101906101f19190610f16565b61060e565b005b6102006109b7565b60405161020d91906112f8565b60405180910390f35b610230600480360381019061022b9190610fc8565b610a49565b60405161023d919061121c565b60405180910390f35b610260600480360381019061025b9190610fc8565b610b64565b005b61027c60048036038101906102779190610fc8565b610bc4565b005b61029860048036038101906102939190610e8b565b610c24565b6040516102a5919061139a565b60405180910390f35b6060600480546102bd90611516565b80601f01602080910402602001604051908101604052809291908181526020018280546102e990611516565b80156103365780601f1061030b57610100808354040283529160200191610336565b820191906000526020600020905b81548152906001019060200180831161031957829003601f168201915b5050505050905090565b600081600160003373ffffffffffffffffffffffffffffffffffffffff1673ffffffffffffffffffffffffffffffffffffffff16815260200190815260200160002060008573ffffffffffffffffffffffffffffffffffffffff1673ffffffffffffffffffffffffffffffffffffffff168152602001908152602001600020819055508273ffffffffffffffffffffffffffffffffffffffff163373ffffffffffffffffffffffffffffffffffffffff167f8c5be1e5ebec7d5bd14f71427d1e84f3dd0314c0f7b2291e5b200ac8c7c3b92584604051610420919061139a565b60405180910390a36001905092915050565b60035481565b600081600160008673ffffffffffffffffffffffffffffffffffffffff1673ffffffffffffffffffffffffffffffffffffffff16815260200190815260200160002060003373ffffffffffffffffffffffffffffffffffffffff1673ffffffffffffffffffffffffffffffffffffffff16815260200190815260200160002060008282546104c69190611442565b92505081905550816000808673ffffffffffffffffffffffffffffffffffffffff1673ffffffffffffffffffffffffffffffffffffffff168152602001908152602001600020600082825461051b9190611442565b92505081905550816000808573ffffffffffffffffffffffffffffffffffffffff1673ffffffffffffffffffffffffffffffffffffffff168152602001908152602001600020600082825461057091906113ec565b925050819055508273ffffffffffffffffffffffffffffffffffffffff168473ffffffffffffffffffffffffffffffffffffffff167fddf252ad1be2c89b69c2b068fc378daa952ba7f163c4a11628f55a4df523b3ef846040516105d4919061139a565b60405180910390a3600190509392505050565b60006012905090565b60065481565b60006020528060005260406000206000915090505481565b60006119016006547f5988c4908d6065961d28fc0e17ec63f7a7c9b49cdcf49cc7ead7bbb6aa67016e8b8b8b8b8b60405160200161065196959493929190611252565b60405160208183030381529060405280519060200120604051602001610679939291906111b6565b604051602081830303815290604052805190602001209050600073ffffffffffffffffffffffffffffffffffffffff168973ffffffffffffffffffffffffffffffffffffffff161415610701576040517f08c379a00000000000000000000000000000000000000000000000000000000081526004016106f89061137a565b60405180910390fd5b6001818585856040516000815260200160405260405161072494939291906112b3565b6020604051602081039080840390855afa158015610746573d6000803e3d6000fd5b5050506020604051035173ffffffffffffffffffffffffffffffffffffffff168973ffffffffffffffffffffffffffffffffffffffff16146107bd576040517f08c379a00000000000000000000000000000000000000000000000000000000081526004016107b49061135a565b60405180910390fd5b60008614806107cc5750854211155b61080b576040517f08c379a00000000000000000000000000000000000000000000000000000000081526004016108029061131a565b60405180910390fd5b600260008a73ffffffffffffffffffffffffffffffffffffffff1673ffffffffffffffffffffffffffffffffffffffff168152602001908152602001600020600081548092919061085b90611548565b9190505587146108a0576040517f08c379a00000000000000000000000000000000000000000000000000000000081526004016108979061133a565b60405180910390fd5b60007fffffffffffffffffffffffffffffffffffffffffffffffffffffffffffffffff905080600160008c73ffffffffffffffffffffffffffffffffffffffff1673ffffffffffffffffffffffffffffffffffffffff16815260200190815260200160002060008b73ffffffffffffffffffffffffffffffffffffffff1673ffffffffffffffffffffffffffffffffffffffff168152602001908152602001600020819055508873ffffffffffffffffffffffffffffffffffffffff168a73ffffffffffffffffffffffffffffffffffffffff167f8c5be1e5ebec7d5bd14f71427d1e84f3dd0314c0f7b2291e5b200ac8c7c3b925836040516109a3919061139a565b60405180910390a350505050505050505050565b6060600580546109c690611516565b80601f01602080910402602001604051908101604052809291908181526020018280546109f290611516565b8015610a3f5780601f10610a1457610100808354040283529160200191610a3f565b820191906000526020600020905b815481529060010190602001808311610a2257829003601f168201915b5050505050905090565b6000816000803373ffffffffffffffffffffffffffffffffffffffff1673ffffffffffffffffffffffffffffffffffffffff1681526020019081526020016000206000828254610a999190611442565b92505081905550816000808573ffffffffffffffffffffffffffffffffffffffff1673ffffffffffffffffffffffffffffffffffffffff1681526020019081526020016000206000828254610aee91906113ec565b925050819055508273ffffffffffffffffffffffffffffffffffffffff163373ffffffffffffffffffffffffffffffffffffffff167fddf252ad1be2c89b69c2b068fc378daa952ba7f163c4a11628f55a4df523b3ef84604051610b52919061139a565b60405180910390a36001905092915050565b610b6e8282610c49565b8060036000828254610b809190611442565b925050819055507fcc16f5dbb4873280815c1ee09dbd06736cffcc184412cf7a71a0fdb75d397ca58282604051610bb89291906111f3565b60405180910390a15050565b610bce8282610d21565b8060036000828254610be091906113ec565b925050819055507f0f6798a560793a54c3bcfe86a93cde1e73087d944c0ea20544137d41213968858282604051610c189291906111f3565b60405180910390a15050565b6001602052816000526040600020602052806000526040600020600091509150505481565b806000808473ffffffffffffffffffffffffffffffffffffffff1673ffffffffffffffffffffffffffffffffffffffff1681526020019081526020016000206000828254610c979190611442565b925050819055508060036000828254610cb09190611442565b92505081905550600073ffffffffffffffffffffffffffffffffffffffff168273ffffffffffffffffffffffffffffffffffffffff167fddf252ad1be2c89b69c2b068fc378daa952ba7f163c4a11628f55a4df523b3ef83604051610d15919061139a565b60405180910390a35050565b806000808473ffffffffffffffffffffffffffffffffffffffff1673ffffffffffffffffffffffffffffffffffffffff1681526020019081526020016000206000828254610d6f91906113ec565b925050819055508060036000828254610d8891906113ec565b925050819055508173ffffffffffffffffffffffffffffffffffffffff16600073ffffffffffffffffffffffffffffffffffffffff167fddf252ad1be2c89b69c2b068fc378daa952ba7f163c4a11628f55a4df523b3ef83604051610ded919061139a565b60405180910390a35050565b600081359050610e0881611629565b92915050565b600081359050610e1d81611640565b92915050565b600081359050610e3281611657565b92915050565b600081359050610e478161166e565b92915050565b600081359050610e5c81611685565b92915050565b600060208284031215610e7457600080fd5b6000610e8284828501610df9565b91505092915050565b60008060408385031215610e9e57600080fd5b6000610eac85828601610df9565b9250506020610ebd85828601610df9565b9150509250929050565b600080600060608486031215610edc57600080fd5b6000610eea86828701610df9565b9350506020610efb86828701610df9565b9250506040610f0c86828701610e38565b9150509250925092565b600080600080600080600080610100898b031215610f3357600080fd5b6000610f418b828c01610df9565b9850506020610f528b828c01610df9565b9750506040610f638b828c01610e38565b9650506060610f748b828c01610e38565b9550506080610f858b828c01610e0e565b94505060a0610f968b828c01610e4d565b93505060c0610fa78b828c01610e23565b92505060e0610fb88b828c01610e23565b9150509295985092959890939650565b60008060408385031215610fdb57600080fd5b6000610fe985828601610df9565b9250506020610ffa85828601610e38565b9150509250929050565b61100d81611476565b82525050565b61101c81611488565b82525050565b61102b81611494565b82525050565b61104261103d82611494565b611591565b82525050565b6000611053826113d0565b61105d81856113db565b935061106d8185602086016114e3565b6110768161160b565b840191505092915050565b600061108e6018836113db565b91507f7065726d69742074696d657374616d70206578706972656400000000000000006000830152602082019050919050565b60006110ce600d836113db565b91507f696e76616c6964206e6f6e6365000000000000000000000000000000000000006000830152602082019050919050565b600061110e6013836113db565b91507f696e76616c6964207065726d69742068617368000000000000000000000000006000830152602082019050919050565b600061114e601f836113db565b91507f616464726573732063616e6e6f7420626520746f6b656e2061646472657373006000830152602082019050919050565b61119261118d8261149e565b61159b565b82525050565b6111a1816114cc565b82525050565b6111b0816114d6565b82525050565b60006111c28286611181565b6002820191506111d28285611031565b6020820191506111e28284611031565b602082019150819050949350505050565b60006040820190506112086000830185611004565b6112156020830184611198565b9392505050565b60006020820190506112316000830184611013565b92915050565b600060208201905061124c6000830184611022565b92915050565b600060c0820190506112676000830189611022565b6112746020830188611004565b6112816040830187611004565b61128e6060830186611198565b61129b6080830185611198565b6112a860a0830184611013565b979650505050505050565b60006080820190506112c86000830187611022565b6112d560208301866111a7565b6112e26040830185611022565b6112ef6060830184611022565b95945050505050565b600060208201905081810360008301526113128184611048565b905092915050565b6000602082019050818103600083015261133381611081565b9050919050565b60006020820190508181036000830152611353816110c1565b9050919050565b6000602082019050818103600083015261137381611101565b9050919050565b6000602082019050818103600083015261139381611141565b9050919050565b60006020820190506113af6000830184611198565b92915050565b60006020820190506113ca60008301846111a7565b92915050565b600081519050919050565b600082825260208201905092915050565b60006113f7826114cc565b9150611402836114cc565b9250827fffffffffffffffffffffffffffffffffffffffffffffffffffffffffffffffff03821115611437576114366115ad565b5b828201905092915050565b600061144d826114cc565b9150611458836114cc565b92508282101561146b5761146a6115ad565b5b828203905092915050565b6000611481826114ac565b9050919050565b60008115159050919050565b6000819050919050565b600061ffff82169050919050565b600073ffffffffffffffffffffffffffffffffffffffff82169050919050565b6000819050919050565b600060ff82169050919050565b60005b838110156115015780820151818401526020810190506114e6565b83811115611510576000848401525b50505050565b6000600282049050600182168061152e57607f821691505b60208210811415611542576115416115dc565b5b50919050565b6000611553826114cc565b91507fffffffffffffffffffffffffffffffffffffffffffffffffffffffffffffffff821415611586576115856115ad565b5b600182019050919050565b6000819050919050565b60006115a68261161c565b9050919050565b7f4e487b7100000000000000000000000000000000000000000000000000000000600052601160045260246000fd5b7f4e487b7100000000000000000000000000000000000000000000000000000000600052602260045260246000fd5b6000601f19601f8301169050919050565b60008160f01b9050919050565b61163281611476565b811461163d57600080fd5b50565b61164981611488565b811461165457600080fd5b50565b61166081611494565b811461166b57600080fd5b50565b611677816114cc565b811461168257600080fd5b50565b61168e816114d6565b811461169957600080fd5b5056fea2646970667358221220ada17c693ce42f62bf4fe39a30aa71af1ae6fcfad9792c4d1328a12c37994f3264736f6c63430008000033",
					"opcodes": "PUSH1 0x80 PUSH1 0x40 MSTORE CALLVALUE DUP1 ISZERO PUSH3 0x11 JUMPI PUSH1 0x0 DUP1 REVERT JUMPDEST POP PUSH1 0x40 MLOAD DUP1 PUSH1 0x40 ADD PUSH1 0x40 MSTORE DUP1 PUSH1 0x8 DUP2 MSTORE PUSH1 0x20 ADD PUSH32 0x4669616E616E7375000000000000000000000000000000000000000000000000 DUP2 MSTORE POP PUSH1 0x40 MLOAD DUP1 PUSH1 0x40 ADD PUSH1 0x40 MSTORE DUP1 PUSH1 0x4 DUP2 MSTORE PUSH1 0x20 ADD PUSH32 0x46494E4100000000000000000000000000000000000000000000000000000000 DUP2 MSTORE POP DUP2 PUSH1 0x4 SWAP1 DUP1 MLOAD SWAP1 PUSH1 0x20 ADD SWAP1 PUSH3 0x96 SWAP3 SWAP2 SWAP1 PUSH3 0x203 JUMP JUMPDEST POP DUP1 PUSH1 0x5 SWAP1 DUP1 MLOAD SWAP1 PUSH1 0x20 ADD SWAP1 PUSH3 0xAF SWAP3 SWAP2 SWAP1 PUSH3 0x203 JUMP JUMPDEST POP PUSH1 0x0 PUSH2 0xC45 SWAP1 POP PUSH32 0x8B73C3C69BB8FE3D512ECC4CF759CC79239F7B179B0FFACAA9A75D522B39400F PUSH3 0xE8 PUSH3 0x169 PUSH1 0x20 SHL PUSH1 0x20 SHR JUMP JUMPDEST DUP1 MLOAD SWAP1 PUSH1 0x20 ADD KECCAK256 PUSH1 0x40 MLOAD DUP1 PUSH1 0x40 ADD PUSH1 0x40 MSTORE DUP1 PUSH1 0x1 DUP2 MSTORE PUSH1 0x20 ADD PUSH32 0x3100000000000000000000000000000000000000000000000000000000000000 DUP2 MSTORE POP DUP1 MLOAD SWAP1 PUSH1 0x20 ADD KECCAK256 DUP4 ADDRESS PUSH1 0x40 MLOAD PUSH1 0x20 ADD PUSH3 0x144 SWAP6 SWAP5 SWAP4 SWAP3 SWAP2 SWAP1 PUSH3 0x2E6 JUMP JUMPDEST PUSH1 0x40 MLOAD PUSH1 0x20 DUP2 DUP4 SUB SUB DUP2 MSTORE SWAP1 PUSH1 0x40 MSTORE DUP1 MLOAD SWAP1 PUSH1 0x20 ADD KECCAK256 PUSH1 0x6 DUP2 SWAP1 SSTORE POP POP POP POP PUSH3 0x3F0 JUMP JUMPDEST PUSH1 0x60 PUSH1 0x4 DUP1 SLOAD PUSH3 0x17A SWAP1 PUSH3 0x38B JUMP JUMPDEST DUP1 PUSH1 0x1F ADD PUSH1 0x20 DUP1 SWAP2 DIV MUL PUSH1 0x20 ADD PUSH1 0x40 MLOAD SWAP1 DUP2 ADD PUSH1 0x40 MSTORE DUP1 SWAP3 SWAP2 SWAP1 DUP2 DUP2 MSTORE PUSH1 0x20 ADD DUP3 DUP1 SLOAD PUSH3 0x1A8 SWAP1 PUSH3 0x38B JUMP JUMPDEST DUP1 ISZERO PUSH3 0x1F9 JUMPI DUP1 PUSH1 0x1F LT PUSH3 0x1CD JUMPI PUSH2 0x100 DUP1 DUP4 SLOAD DIV MUL DUP4 MSTORE SWAP2 PUSH1 0x20 ADD SWAP2 PUSH3 0x1F9 JUMP JUMPDEST DUP3 ADD SWAP2 SWAP1 PUSH1 0x0 MSTORE PUSH1 0x20 PUSH1 0x0 KECCAK256 SWAP1 JUMPDEST DUP2 SLOAD DUP2 MSTORE SWAP1 PUSH1 0x1 ADD SWAP1 PUSH1 0x20 ADD DUP1 DUP4 GT PUSH3 0x1DB JUMPI DUP3 SWAP1 SUB PUSH1 0x1F AND DUP3 ADD SWAP2 JUMPDEST POP POP POP POP POP SWAP1 POP SWAP1 JUMP JUMPDEST DUP3 DUP1 SLOAD PUSH3 0x211 SWAP1 PUSH3 0x38B JUMP JUMPDEST SWAP1 PUSH1 0x0 MSTORE PUSH1 0x20 PUSH1 0x0 KECCAK256 SWAP1 PUSH1 0x1F ADD PUSH1 0x20 SWAP1 DIV DUP2 ADD SWAP3 DUP3 PUSH3 0x235 JUMPI PUSH1 0x0 DUP6 SSTORE PUSH3 0x281 JUMP JUMPDEST DUP3 PUSH1 0x1F LT PUSH3 0x250 JUMPI DUP1 MLOAD PUSH1 0xFF NOT AND DUP4 DUP1 ADD OR DUP6 SSTORE PUSH3 0x281 JUMP JUMPDEST DUP3 DUP1 ADD PUSH1 0x1 ADD DUP6 SSTORE DUP3 ISZERO PUSH3 0x281 JUMPI SWAP2 DUP3 ADD JUMPDEST DUP3 DUP2 GT ISZERO PUSH3 0x280 JUMPI DUP3 MLOAD DUP3 SSTORE SWAP2 PUSH1 0x20 ADD SWAP2 SWAP1 PUSH1 0x1 ADD SWAP1 PUSH3 0x263 JUMP JUMPDEST JUMPDEST POP SWAP1 POP PUSH3 0x290 SWAP2 SWAP1 PUSH3 0x294 JUMP JUMPDEST POP SWAP1 JUMP JUMPDEST JUMPDEST DUP1 DUP3 GT ISZERO PUSH3 0x2AF JUMPI PUSH1 0x0 DUP2 PUSH1 0x0 SWAP1 SSTORE POP PUSH1 0x1 ADD PUSH3 0x295 JUMP JUMPDEST POP SWAP1 JUMP JUMPDEST PUSH3 0x2BE DUP2 PUSH3 0x343 JUMP JUMPDEST DUP3 MSTORE POP POP JUMP JUMPDEST PUSH3 0x2CF DUP2 PUSH3 0x357 JUMP JUMPDEST DUP3 MSTORE POP POP JUMP JUMPDEST PUSH3 0x2E0 DUP2 PUSH3 0x381 JUMP JUMPDEST DUP3 MSTORE POP POP JUMP JUMPDEST PUSH1 0x0 PUSH1 0xA0 DUP3 ADD SWAP1 POP PUSH3 0x2FD PUSH1 0x0 DUP4 ADD DUP9 PUSH3 0x2C4 JUMP JUMPDEST PUSH3 0x30C PUSH1 0x20 DUP4 ADD DUP8 PUSH3 0x2C4 JUMP JUMPDEST PUSH3 0x31B PUSH1 0x40 DUP4 ADD DUP7 PUSH3 0x2C4 JUMP JUMPDEST PUSH3 0x32A PUSH1 0x60 DUP4 ADD DUP6 PUSH3 0x2D5 JUMP JUMPDEST PUSH3 0x339 PUSH1 0x80 DUP4 ADD DUP5 PUSH3 0x2B3 JUMP JUMPDEST SWAP7 SWAP6 POP POP POP POP POP POP JUMP JUMPDEST PUSH1 0x0 PUSH3 0x350 DUP3 PUSH3 0x361 JUMP JUMPDEST SWAP1 POP SWAP2 SWAP1 POP JUMP JUMPDEST PUSH1 0x0 DUP2 SWAP1 POP SWAP2 SWAP1 POP JUMP JUMPDEST PUSH1 0x0 PUSH20 0xFFFFFFFFFFFFFFFFFFFFFFFFFFFFFFFFFFFFFFFF DUP3 AND SWAP1 POP SWAP2 SWAP1 POP JUMP JUMPDEST PUSH1 0x0 DUP2 SWAP1 POP SWAP2 SWAP1 POP JUMP JUMPDEST PUSH1 0x0 PUSH1 0x2 DUP3 DIV SWAP1 POP PUSH1 0x1 DUP3 AND DUP1 PUSH3 0x3A4 JUMPI PUSH1 0x7F DUP3 AND SWAP2 POP JUMPDEST PUSH1 0x20 DUP3 LT DUP2 EQ ISZERO PUSH3 0x3BB JUMPI PUSH3 0x3BA PUSH3 0x3C1 JUMP JUMPDEST JUMPDEST POP SWAP2 SWAP1 POP JUMP JUMPDEST PUSH32 0x4E487B7100000000000000000000000000000000000000000000000000000000 PUSH1 0x0 MSTORE PUSH1 0x22 PUSH1 0x4 MSTORE PUSH1 0x24 PUSH1 0x0 REVERT JUMPDEST PUSH2 0x16D2 DUP1 PUSH3 0x400 PUSH1 0x0 CODECOPY PUSH1 0x0 RETURN INVALID PUSH1 0x80 PUSH1 0x40 MSTORE CALLVALUE DUP1 ISZERO PUSH2 0x10 JUMPI PUSH1 0x0 DUP1 REVERT JUMPDEST POP PUSH1 0x4 CALLDATASIZE LT PUSH2 0xCF JUMPI PUSH1 0x0 CALLDATALOAD PUSH1 0xE0 SHR DUP1 PUSH4 0x70A08231 GT PUSH2 0x8C JUMPI DUP1 PUSH4 0xA9059CBB GT PUSH2 0x66 JUMPI DUP1 PUSH4 0xA9059CBB EQ PUSH2 0x216 JUMPI DUP1 PUSH4 0xAC69417E EQ PUSH2 0x246 JUMPI DUP1 PUSH4 0xB190928B EQ PUSH2 0x262 JUMPI DUP1 PUSH4 0xDD62ED3E EQ PUSH2 0x27E JUMPI PUSH2 0xCF JUMP JUMPDEST DUP1 PUSH4 0x70A08231 EQ PUSH2 0x1AC JUMPI DUP1 PUSH4 0x8FCBAF0C EQ PUSH2 0x1DC JUMPI DUP1 PUSH4 0x95D89B41 EQ PUSH2 0x1F8 JUMPI PUSH2 0xCF JUMP JUMPDEST DUP1 PUSH4 0x6FDDE03 EQ PUSH2 0xD4 JUMPI DUP1 PUSH4 0x95EA7B3 EQ PUSH2 0xF2 JUMPI DUP1 PUSH4 0x18160DDD EQ PUSH2 0x122 JUMPI DUP1 PUSH4 0x23B872DD EQ PUSH2 0x140 JUMPI DUP1 PUSH4 0x313CE567 EQ PUSH2 0x170 JUMPI DUP1 PUSH4 0x3644E515 EQ PUSH2 0x18E JUMPI JUMPDEST PUSH1 0x0 DUP1 REVERT JUMPDEST PUSH2 0xDC PUSH2 0x2AE JUMP JUMPDEST PUSH1 0x40 MLOAD PUSH2 0xE9 SWAP2 SWAP1 PUSH2 0x12F8 JUMP JUMPDEST PUSH1 0x40 MLOAD DUP1 SWAP2 SUB SWAP1 RETURN JUMPDEST PUSH2 0x10C PUSH1 0x4 DUP1 CALLDATASIZE SUB DUP2 ADD SWAP1 PUSH2 0x107 SWAP2 SWAP1 PUSH2 0xFC8 JUMP JUMPDEST PUSH2 0x340 JUMP JUMPDEST PUSH1 0x40 MLOAD PUSH2 0x119 SWAP2 SWAP1 PUSH2 0x121C JUMP JUMPDEST PUSH1 0x40 MLOAD DUP1 SWAP2 SUB SWAP1 RETURN JUMPDEST PUSH2 0x12A PUSH2 0x432 JUMP JUMPDEST PUSH1 0x40 MLOAD PUSH2 0x137 SWAP2 SWAP1 PUSH2 0x139A JUMP JUMPDEST PUSH1 0x40 MLOAD DUP1 SWAP2 SUB SWAP1 RETURN JUMPDEST PUSH2 0x15A PUSH1 0x4 DUP1 CALLDATASIZE SUB DUP2 ADD SWAP1 PUSH2 0x155 SWAP2 SWAP1 PUSH2 0xEC7 JUMP JUMPDEST PUSH2 0x438 JUMP JUMPDEST PUSH1 0x40 MLOAD PUSH2 0x167 SWAP2 SWAP1 PUSH2 0x121C JUMP JUMPDEST PUSH1 0x40 MLOAD DUP1 SWAP2 SUB SWAP1 RETURN JUMPDEST PUSH2 0x178 PUSH2 0x5E7 JUMP JUMPDEST PUSH1 0x40 MLOAD PUSH2 0x185 SWAP2 SWAP1 PUSH2 0x13B5 JUMP JUMPDEST PUSH1 0x40 MLOAD DUP1 SWAP2 SUB SWAP1 RETURN JUMPDEST PUSH2 0x196 PUSH2 0x5F0 JUMP JUMPDEST PUSH1 0x40 MLOAD PUSH2 0x1A3 SWAP2 SWAP1 PUSH2 0x1237 JUMP JUMPDEST PUSH1 0x40 MLOAD DUP1 SWAP2 SUB SWAP1 RETURN JUMPDEST PUSH2 0x1C6 PUSH1 0x4 DUP1 CALLDATASIZE SUB DUP2 ADD SWAP1 PUSH2 0x1C1 SWAP2 SWAP1 PUSH2 0xE62 JUMP JUMPDEST PUSH2 0x5F6 JUMP JUMPDEST PUSH1 0x40 MLOAD PUSH2 0x1D3 SWAP2 SWAP1 PUSH2 0x139A JUMP JUMPDEST PUSH1 0x40 MLOAD DUP1 SWAP2 SUB SWAP1 RETURN JUMPDEST PUSH2 0x1F6 PUSH1 0x4 DUP1 CALLDATASIZE SUB DUP2 ADD SWAP1 PUSH2 0x1F1 SWAP2 SWAP1 PUSH2 0xF16 JUMP JUMPDEST PUSH2 0x60E JUMP JUMPDEST STOP JUMPDEST PUSH2 0x200 PUSH2 0x9B7 JUMP JUMPDEST PUSH1 0x40 MLOAD PUSH2 0x20D SWAP2 SWAP1 PUSH2 0x12F8 JUMP JUMPDEST PUSH1 0x40 MLOAD DUP1 SWAP2 SUB SWAP1 RETURN JUMPDEST PUSH2 0x230 PUSH1 0x4 DUP1 CALLDATASIZE SUB DUP2 ADD SWAP1 PUSH2 0x22B SWAP2 SWAP1 PUSH2 0xFC8 JUMP JUMPDEST PUSH2 0xA49 JUMP JUMPDEST PUSH1 0x40 MLOAD PUSH2 0x23D SWAP2 SWAP1 PUSH2 0x121C JUMP JUMPDEST PUSH1 0x40 MLOAD DUP1 SWAP2 SUB SWAP1 RETURN JUMPDEST PUSH2 0x260 PUSH1 0x4 DUP1 CALLDATASIZE SUB DUP2 ADD SWAP1 PUSH2 0x25B SWAP2 SWAP1 PUSH2 0xFC8 JUMP JUMPDEST PUSH2 0xB64 JUMP JUMPDEST STOP JUMPDEST PUSH2 0x27C PUSH1 0x4 DUP1 CALLDATASIZE SUB DUP2 ADD SWAP1 PUSH2 0x277 SWAP2 SWAP1 PUSH2 0xFC8 JUMP JUMPDEST PUSH2 0xBC4 JUMP JUMPDEST STOP JUMPDEST PUSH2 0x298 PUSH1 0x4 DUP1 CALLDATASIZE SUB DUP2 ADD SWAP1 PUSH2 0x293 SWAP2 SWAP1 PUSH2 0xE8B JUMP JUMPDEST PUSH2 0xC24 JUMP JUMPDEST PUSH1 0x40 MLOAD PUSH2 0x2A5 SWAP2 SWAP1 PUSH2 0x139A JUMP JUMPDEST PUSH1 0x40 MLOAD DUP1 SWAP2 SUB SWAP1 RETURN JUMPDEST PUSH1 0x60 PUSH1 0x4 DUP1 SLOAD PUSH2 0x2BD SWAP1 PUSH2 0x1516 JUMP JUMPDEST DUP1 PUSH1 0x1F ADD PUSH1 0x20 DUP1 SWAP2 DIV MUL PUSH1 0x20 ADD PUSH1 0x40 MLOAD SWAP1 DUP2 ADD PUSH1 0x40 MSTORE DUP1 SWAP3 SWAP2 SWAP1 DUP2 DUP2 MSTORE PUSH1 0x20 ADD DUP3 DUP1 SLOAD PUSH2 0x2E9 SWAP1 PUSH2 0x1516 JUMP JUMPDEST DUP1 ISZERO PUSH2 0x336 JUMPI DUP1 PUSH1 0x1F LT PUSH2 0x30B JUMPI PUSH2 0x100 DUP1 DUP4 SLOAD DIV MUL DUP4 MSTORE SWAP2 PUSH1 0x20 ADD SWAP2 PUSH2 0x336 JUMP JUMPDEST DUP3 ADD SWAP2 SWAP1 PUSH1 0x0 MSTORE PUSH1 0x20 PUSH1 0x0 KECCAK256 SWAP1 JUMPDEST DUP2 SLOAD DUP2 MSTORE SWAP1 PUSH1 0x1 ADD SWAP1 PUSH1 0x20 ADD DUP1 DUP4 GT PUSH2 0x319 JUMPI DUP3 SWAP1 SUB PUSH1 0x1F AND DUP3 ADD SWAP2 JUMPDEST POP POP POP POP POP SWAP1 POP SWAP1 JUMP JUMPDEST PUSH1 0x0 DUP2 PUSH1 0x1 PUSH1 0x0 CALLER PUSH20 0xFFFFFFFFFFFFFFFFFFFFFFFFFFFFFFFFFFFFFFFF AND PUSH20 0xFFFFFFFFFFFFFFFFFFFFFFFFFFFFFFFFFFFFFFFF AND DUP2 MSTORE PUSH1 0x20 ADD SWAP1 DUP2 MSTORE PUSH1 0x20 ADD PUSH1 0x0 KECCAK256 PUSH1 0x0 DUP6 PUSH20 0xFFFFFFFFFFFFFFFFFFFFFFFFFFFFFFFFFFFFFFFF AND PUSH20 0xFFFFFFFFFFFFFFFFFFFFFFFFFFFFFFFFFFFFFFFF AND DUP2 MSTORE PUSH1 0x20 ADD SWAP1 DUP2 MSTORE PUSH1 0x20 ADD PUSH1 0x0 KECCAK256 DUP2 SWAP1 SSTORE POP DUP3 PUSH20 0xFFFFFFFFFFFFFFFFFFFFFFFFFFFFFFFFFFFFFFFF AND CALLER PUSH20 0xFFFFFFFFFFFFFFFFFFFFFFFFFFFFFFFFFFFFFFFF AND PUSH32 0x8C5BE1E5EBEC7D5BD14F71427D1E84F3DD0314C0F7B2291E5B200AC8C7C3B925 DUP5 PUSH1 0x40 MLOAD PUSH2 0x420 SWAP2 SWAP1 PUSH2 0x139A JUMP JUMPDEST PUSH1 0x40 MLOAD DUP1 SWAP2 SUB SWAP1 LOG3 PUSH1 0x1 SWAP1 POP SWAP3 SWAP2 POP POP JUMP JUMPDEST PUSH1 0x3 SLOAD DUP2 JUMP JUMPDEST PUSH1 0x0 DUP2 PUSH1 0x1 PUSH1 0x0 DUP7 PUSH20 0xFFFFFFFFFFFFFFFFFFFFFFFFFFFFFFFFFFFFFFFF AND PUSH20 0xFFFFFFFFFFFFFFFFFFFFFFFFFFFFFFFFFFFFFFFF AND DUP2 MSTORE PUSH1 0x20 ADD SWAP1 DUP2 MSTORE PUSH1 0x20 ADD PUSH1 0x0 KECCAK256 PUSH1 0x0 CALLER PUSH20 0xFFFFFFFFFFFFFFFFFFFFFFFFFFFFFFFFFFFFFFFF AND PUSH20 0xFFFFFFFFFFFFFFFFFFFFFFFFFFFFFFFFFFFFFFFF AND DUP2 MSTORE PUSH1 0x20 ADD SWAP1 DUP2 MSTORE PUSH1 0x20 ADD PUSH1 0x0 KECCAK256 PUSH1 0x0 DUP3 DUP3 SLOAD PUSH2 0x4C6 SWAP2 SWAP1 PUSH2 0x1442 JUMP JUMPDEST SWAP3 POP POP DUP2 SWAP1 SSTORE POP DUP2 PUSH1 0x0 DUP1 DUP7 PUSH20 0xFFFFFFFFFFFFFFFFFFFFFFFFFFFFFFFFFFFFFFFF AND PUSH20 0xFFFFFFFFFFFFFFFFFFFFFFFFFFFFFFFFFFFFFFFF AND DUP2 MSTORE PUSH1 0x20 ADD SWAP1 DUP2 MSTORE PUSH1 0x20 ADD PUSH1 0x0 KECCAK256 PUSH1 0x0 DUP3 DUP3 SLOAD PUSH2 0x51B SWAP2 SWAP1 PUSH2 0x1442 JUMP JUMPDEST SWAP3 POP POP DUP2 SWAP1 SSTORE POP DUP2 PUSH1 0x0 DUP1 DUP6 PUSH20 0xFFFFFFFFFFFFFFFFFFFFFFFFFFFFFFFFFFFFFFFF AND PUSH20 0xFFFFFFFFFFFFFFFFFFFFFFFFFFFFFFFFFFFFFFFF AND DUP2 MSTORE PUSH1 0x20 ADD SWAP1 DUP2 MSTORE PUSH1 0x20 ADD PUSH1 0x0 KECCAK256 PUSH1 0x0 DUP3 DUP3 SLOAD PUSH2 0x570 SWAP2 SWAP1 PUSH2 0x13EC JUMP JUMPDEST SWAP3 POP POP DUP2 SWAP1 SSTORE POP DUP3 PUSH20 0xFFFFFFFFFFFFFFFFFFFFFFFFFFFFFFFFFFFFFFFF AND DUP5 PUSH20 0xFFFFFFFFFFFFFFFFFFFFFFFFFFFFFFFFFFFFFFFF AND PUSH32 0xDDF252AD1BE2C89B69C2B068FC378DAA952BA7F163C4A11628F55A4DF523B3EF DUP5 PUSH1 0x40 MLOAD PUSH2 0x5D4 SWAP2 SWAP1 PUSH2 0x139A JUMP JUMPDEST PUSH1 0x40 MLOAD DUP1 SWAP2 SUB SWAP1 LOG3 PUSH1 0x1 SWAP1 POP SWAP4 SWAP3 POP POP POP JUMP JUMPDEST PUSH1 0x0 PUSH1 0x12 SWAP1 POP SWAP1 JUMP JUMPDEST PUSH1 0x6 SLOAD DUP2 JUMP JUMPDEST PUSH1 0x0 PUSH1 0x20 MSTORE DUP1 PUSH1 0x0 MSTORE PUSH1 0x40 PUSH1 0x0 KECCAK256 PUSH1 0x0 SWAP2 POP SWAP1 POP SLOAD DUP2 JUMP JUMPDEST PUSH1 0x0 PUSH2 0x1901 PUSH1 0x6 SLOAD PUSH32 0x5988C4908D6065961D28FC0E17EC63F7A7C9B49CDCF49CC7EAD7BBB6AA67016E DUP12 DUP12 DUP12 DUP12 DUP12 PUSH1 0x40 MLOAD PUSH1 0x20 ADD PUSH2 0x651 SWAP7 SWAP6 SWAP5 SWAP4 SWAP3 SWAP2 SWAP1 PUSH2 0x1252 JUMP JUMPDEST PUSH1 0x40 MLOAD PUSH1 0x20 DUP2 DUP4 SUB SUB DUP2 MSTORE SWAP1 PUSH1 0x40 MSTORE DUP1 MLOAD SWAP1 PUSH1 0x20 ADD KECCAK256 PUSH1 0x40 MLOAD PUSH1 0x20 ADD PUSH2 0x679 SWAP4 SWAP3 SWAP2 SWAP1 PUSH2 0x11B6 JUMP JUMPDEST PUSH1 0x40 MLOAD PUSH1 0x20 DUP2 DUP4 SUB SUB DUP2 MSTORE SWAP1 PUSH1 0x40 MSTORE DUP1 MLOAD SWAP1 PUSH1 0x20 ADD KECCAK256 SWAP1 POP PUSH1 0x0 PUSH20 0xFFFFFFFFFFFFFFFFFFFFFFFFFFFFFFFFFFFFFFFF AND DUP10 PUSH20 0xFFFFFFFFFFFFFFFFFFFFFFFFFFFFFFFFFFFFFFFF AND EQ ISZERO PUSH2 0x701 JUMPI PUSH1 0x40 MLOAD PUSH32 0x8C379A000000000000000000000000000000000000000000000000000000000 DUP2 MSTORE PUSH1 0x4 ADD PUSH2 0x6F8 SWAP1 PUSH2 0x137A JUMP JUMPDEST PUSH1 0x40 MLOAD DUP1 SWAP2 SUB SWAP1 REVERT JUMPDEST PUSH1 0x1 DUP2 DUP6 DUP6 DUP6 PUSH1 0x40 MLOAD PUSH1 0x0 DUP2 MSTORE PUSH1 0x20 ADD PUSH1 0x40 MSTORE PUSH1 0x40 MLOAD PUSH2 0x724 SWAP5 SWAP4 SWAP3 SWAP2 SWAP1 PUSH2 0x12B3 JUMP JUMPDEST PUSH1 0x20 PUSH1 0x40 MLOAD PUSH1 0x20 DUP2 SUB SWAP1 DUP1 DUP5 SUB SWAP1 DUP6 GAS STATICCALL ISZERO DUP1 ISZERO PUSH2 0x746 JUMPI RETURNDATASIZE PUSH1 0x0 DUP1 RETURNDATACOPY RETURNDATASIZE PUSH1 0x0 REVERT JUMPDEST POP POP POP PUSH1 0x20 PUSH1 0x40 MLOAD SUB MLOAD PUSH20 0xFFFFFFFFFFFFFFFFFFFFFFFFFFFFFFFFFFFFFFFF AND DUP10 PUSH20 0xFFFFFFFFFFFFFFFFFFFFFFFFFFFFFFFFFFFFFFFF AND EQ PUSH2 0x7BD JUMPI PUSH1 0x40 MLOAD PUSH32 0x8C379A000000000000000000000000000000000000000000000000000000000 DUP2 MSTORE PUSH1 0x4 ADD PUSH2 0x7B4 SWAP1 PUSH2 0x135A JUMP JUMPDEST PUSH1 0x40 MLOAD DUP1 SWAP2 SUB SWAP1 REVERT JUMPDEST PUSH1 0x0 DUP7 EQ DUP1 PUSH2 0x7CC JUMPI POP DUP6 TIMESTAMP GT ISZERO JUMPDEST PUSH2 0x80B JUMPI PUSH1 0x40 MLOAD PUSH32 0x8C379A000000000000000000000000000000000000000000000000000000000 DUP2 MSTORE PUSH1 0x4 ADD PUSH2 0x802 SWAP1 PUSH2 0x131A JUMP JUMPDEST PUSH1 0x40 MLOAD DUP1 SWAP2 SUB SWAP1 REVERT JUMPDEST PUSH1 0x2 PUSH1 0x0 DUP11 PUSH20 0xFFFFFFFFFFFFFFFFFFFFFFFFFFFFFFFFFFFFFFFF AND PUSH20 0xFFFFFFFFFFFFFFFFFFFFFFFFFFFFFFFFFFFFFFFF AND DUP2 MSTORE PUSH1 0x20 ADD SWAP1 DUP2 MSTORE PUSH1 0x20 ADD PUSH1 0x0 KECCAK256 PUSH1 0x0 DUP2 SLOAD DUP1 SWAP3 SWAP2 SWAP1 PUSH2 0x85B SWAP1 PUSH2 0x1548 JUMP JUMPDEST SWAP2 SWAP1 POP SSTORE DUP8 EQ PUSH2 0x8A0 JUMPI PUSH1 0x40 MLOAD PUSH32 0x8C379A000000000000000000000000000000000000000000000000000000000 DUP2 MSTORE PUSH1 0x4 ADD PUSH2 0x897 SWAP1 PUSH2 0x133A JUMP JUMPDEST PUSH1 0x40 MLOAD DUP1 SWAP2 SUB SWAP1 REVERT JUMPDEST PUSH1 0x0 PUSH32 0xFFFFFFFFFFFFFFFFFFFFFFFFFFFFFFFFFFFFFFFFFFFFFFFFFFFFFFFFFFFFFFFF SWAP1 POP DUP1 PUSH1 0x1 PUSH1 0x0 DUP13 PUSH20 0xFFFFFFFFFFFFFFFFFFFFFFFFFFFFFFFFFFFFFFFF AND PUSH20 0xFFFFFFFFFFFFFFFFFFFFFFFFFFFFFFFFFFFFFFFF AND DUP2 MSTORE PUSH1 0x20 ADD SWAP1 DUP2 MSTORE PUSH1 0x20 ADD PUSH1 0x0 KECCAK256 PUSH1 0x0 DUP12 PUSH20 0xFFFFFFFFFFFFFFFFFFFFFFFFFFFFFFFFFFFFFFFF AND PUSH20 0xFFFFFFFFFFFFFFFFFFFFFFFFFFFFFFFFFFFFFFFF AND DUP2 MSTORE PUSH1 0x20 ADD SWAP1 DUP2 MSTORE PUSH1 0x20 ADD PUSH1 0x0 KECCAK256 DUP2 SWAP1 SSTORE POP DUP9 PUSH20 0xFFFFFFFFFFFFFFFFFFFFFFFFFFFFFFFFFFFFFFFF AND DUP11 PUSH20 0xFFFFFFFFFFFFFFFFFFFFFFFFFFFFFFFFFFFFFFFF AND PUSH32 0x8C5BE1E5EBEC7D5BD14F71427D1E84F3DD0314C0F7B2291E5B200AC8C7C3B925 DUP4 PUSH1 0x40 MLOAD PUSH2 0x9A3 SWAP2 SWAP1 PUSH2 0x139A JUMP JUMPDEST PUSH1 0x40 MLOAD DUP1 SWAP2 SUB SWAP1 LOG3 POP POP POP POP POP POP POP POP POP POP JUMP JUMPDEST PUSH1 0x60 PUSH1 0x5 DUP1 SLOAD PUSH2 0x9C6 SWAP1 PUSH2 0x1516 JUMP JUMPDEST DUP1 PUSH1 0x1F ADD PUSH1 0x20 DUP1 SWAP2 DIV MUL PUSH1 0x20 ADD PUSH1 0x40 MLOAD SWAP1 DUP2 ADD PUSH1 0x40 MSTORE DUP1 SWAP3 SWAP2 SWAP1 DUP2 DUP2 MSTORE PUSH1 0x20 ADD DUP3 DUP1 SLOAD PUSH2 0x9F2 SWAP1 PUSH2 0x1516 JUMP JUMPDEST DUP1 ISZERO PUSH2 0xA3F JUMPI DUP1 PUSH1 0x1F LT PUSH2 0xA14 JUMPI PUSH2 0x100 DUP1 DUP4 SLOAD DIV MUL DUP4 MSTORE SWAP2 PUSH1 0x20 ADD SWAP2 PUSH2 0xA3F JUMP JUMPDEST DUP3 ADD SWAP2 SWAP1 PUSH1 0x0 MSTORE PUSH1 0x20 PUSH1 0x0 KECCAK256 SWAP1 JUMPDEST DUP2 SLOAD DUP2 MSTORE SWAP1 PUSH1 0x1 ADD SWAP1 PUSH1 0x20 ADD DUP1 DUP4 GT PUSH2 0xA22 JUMPI DUP3 SWAP1 SUB PUSH1 0x1F AND DUP3 ADD SWAP2 JUMPDEST POP POP POP POP POP SWAP1 POP SWAP1 JUMP JUMPDEST PUSH1 0x0 DUP2 PUSH1 0x0 DUP1 CALLER PUSH20 0xFFFFFFFFFFFFFFFFFFFFFFFFFFFFFFFFFFFFFFFF AND PUSH20 0xFFFFFFFFFFFFFFFFFFFFFFFFFFFFFFFFFFFFFFFF AND DUP2 MSTORE PUSH1 0x20 ADD SWAP1 DUP2 MSTORE PUSH1 0x20 ADD PUSH1 0x0 KECCAK256 PUSH1 0x0 DUP3 DUP3 SLOAD PUSH2 0xA99 SWAP2 SWAP1 PUSH2 0x1442 JUMP JUMPDEST SWAP3 POP POP DUP2 SWAP1 SSTORE POP DUP2 PUSH1 0x0 DUP1 DUP6 PUSH20 0xFFFFFFFFFFFFFFFFFFFFFFFFFFFFFFFFFFFFFFFF AND PUSH20 0xFFFFFFFFFFFFFFFFFFFFFFFFFFFFFFFFFFFFFFFF AND DUP2 MSTORE PUSH1 0x20 ADD SWAP1 DUP2 MSTORE PUSH1 0x20 ADD PUSH1 0x0 KECCAK256 PUSH1 0x0 DUP3 DUP3 SLOAD PUSH2 0xAEE SWAP2 SWAP1 PUSH2 0x13EC JUMP JUMPDEST SWAP3 POP POP DUP2 SWAP1 SSTORE POP DUP3 PUSH20 0xFFFFFFFFFFFFFFFFFFFFFFFFFFFFFFFFFFFFFFFF AND CALLER PUSH20 0xFFFFFFFFFFFFFFFFFFFFFFFFFFFFFFFFFFFFFFFF AND PUSH32 0xDDF252AD1BE2C89B69C2B068FC378DAA952BA7F163C4A11628F55A4DF523B3EF DUP5 PUSH1 0x40 MLOAD PUSH2 0xB52 SWAP2 SWAP1 PUSH2 0x139A JUMP JUMPDEST PUSH1 0x40 MLOAD DUP1 SWAP2 SUB SWAP1 LOG3 PUSH1 0x1 SWAP1 POP SWAP3 SWAP2 POP POP JUMP JUMPDEST PUSH2 0xB6E DUP3 DUP3 PUSH2 0xC49 JUMP JUMPDEST DUP1 PUSH1 0x3 PUSH1 0x0 DUP3 DUP3 SLOAD PUSH2 0xB80 SWAP2 SWAP1 PUSH2 0x1442 JUMP JUMPDEST SWAP3 POP POP DUP2 SWAP1 SSTORE POP PUSH32 0xCC16F5DBB4873280815C1EE09DBD06736CFFCC184412CF7A71A0FDB75D397CA5 DUP3 DUP3 PUSH1 0x40 MLOAD PUSH2 0xBB8 SWAP3 SWAP2 SWAP1 PUSH2 0x11F3 JUMP JUMPDEST PUSH1 0x40 MLOAD DUP1 SWAP2 SUB SWAP1 LOG1 POP POP JUMP JUMPDEST PUSH2 0xBCE DUP3 DUP3 PUSH2 0xD21 JUMP JUMPDEST DUP1 PUSH1 0x3 PUSH1 0x0 DUP3 DUP3 SLOAD PUSH2 0xBE0 SWAP2 SWAP1 PUSH2 0x13EC JUMP JUMPDEST SWAP3 POP POP DUP2 SWAP1 SSTORE POP PUSH32 0xF6798A560793A54C3BCFE86A93CDE1E73087D944C0EA20544137D4121396885 DUP3 DUP3 PUSH1 0x40 MLOAD PUSH2 0xC18 SWAP3 SWAP2 SWAP1 PUSH2 0x11F3 JUMP JUMPDEST PUSH1 0x40 MLOAD DUP1 SWAP2 SUB SWAP1 LOG1 POP POP JUMP JUMPDEST PUSH1 0x1 PUSH1 0x20 MSTORE DUP2 PUSH1 0x0 MSTORE PUSH1 0x40 PUSH1 0x0 KECCAK256 PUSH1 0x20 MSTORE DUP1 PUSH1 0x0 MSTORE PUSH1 0x40 PUSH1 0x0 KECCAK256 PUSH1 0x0 SWAP2 POP SWAP2 POP POP SLOAD DUP2 JUMP JUMPDEST DUP1 PUSH1 0x0 DUP1 DUP5 PUSH20 0xFFFFFFFFFFFFFFFFFFFFFFFFFFFFFFFFFFFFFFFF AND PUSH20 0xFFFFFFFFFFFFFFFFFFFFFFFFFFFFFFFFFFFFFFFF AND DUP2 MSTORE PUSH1 0x20 ADD SWAP1 DUP2 MSTORE PUSH1 0x20 ADD PUSH1 0x0 KECCAK256 PUSH1 0x0 DUP3 DUP3 SLOAD PUSH2 0xC97 SWAP2 SWAP1 PUSH2 0x1442 JUMP JUMPDEST SWAP3 POP POP DUP2 SWAP1 SSTORE POP DUP1 PUSH1 0x3 PUSH1 0x0 DUP3 DUP3 SLOAD PUSH2 0xCB0 SWAP2 SWAP1 PUSH2 0x1442 JUMP JUMPDEST SWAP3 POP POP DUP2 SWAP1 SSTORE POP PUSH1 0x0 PUSH20 0xFFFFFFFFFFFFFFFFFFFFFFFFFFFFFFFFFFFFFFFF AND DUP3 PUSH20 0xFFFFFFFFFFFFFFFFFFFFFFFFFFFFFFFFFFFFFFFF AND PUSH32 0xDDF252AD1BE2C89B69C2B068FC378DAA952BA7F163C4A11628F55A4DF523B3EF DUP4 PUSH1 0x40 MLOAD PUSH2 0xD15 SWAP2 SWAP1 PUSH2 0x139A JUMP JUMPDEST PUSH1 0x40 MLOAD DUP1 SWAP2 SUB SWAP1 LOG3 POP POP JUMP JUMPDEST DUP1 PUSH1 0x0 DUP1 DUP5 PUSH20 0xFFFFFFFFFFFFFFFFFFFFFFFFFFFFFFFFFFFFFFFF AND PUSH20 0xFFFFFFFFFFFFFFFFFFFFFFFFFFFFFFFFFFFFFFFF AND DUP2 MSTORE PUSH1 0x20 ADD SWAP1 DUP2 MSTORE PUSH1 0x20 ADD PUSH1 0x0 KECCAK256 PUSH1 0x0 DUP3 DUP3 SLOAD PUSH2 0xD6F SWAP2 SWAP1 PUSH2 0x13EC JUMP JUMPDEST SWAP3 POP POP DUP2 SWAP1 SSTORE POP DUP1 PUSH1 0x3 PUSH1 0x0 DUP3 DUP3 SLOAD PUSH2 0xD88 SWAP2 SWAP1 PUSH2 0x13EC JUMP JUMPDEST SWAP3 POP POP DUP2 SWAP1 SSTORE POP DUP2 PUSH20 0xFFFFFFFFFFFFFFFFFFFFFFFFFFFFFFFFFFFFFFFF AND PUSH1 0x0 PUSH20 0xFFFFFFFFFFFFFFFFFFFFFFFFFFFFFFFFFFFFFFFF AND PUSH32 0xDDF252AD1BE2C89B69C2B068FC378DAA952BA7F163C4A11628F55A4DF523B3EF DUP4 PUSH1 0x40 MLOAD PUSH2 0xDED SWAP2 SWAP1 PUSH2 0x139A JUMP JUMPDEST PUSH1 0x40 MLOAD DUP1 SWAP2 SUB SWAP1 LOG3 POP POP JUMP JUMPDEST PUSH1 0x0 DUP2 CALLDATALOAD SWAP1 POP PUSH2 0xE08 DUP2 PUSH2 0x1629 JUMP JUMPDEST SWAP3 SWAP2 POP POP JUMP JUMPDEST PUSH1 0x0 DUP2 CALLDATALOAD SWAP1 POP PUSH2 0xE1D DUP2 PUSH2 0x1640 JUMP JUMPDEST SWAP3 SWAP2 POP POP JUMP JUMPDEST PUSH1 0x0 DUP2 CALLDATALOAD SWAP1 POP PUSH2 0xE32 DUP2 PUSH2 0x1657 JUMP JUMPDEST SWAP3 SWAP2 POP POP JUMP JUMPDEST PUSH1 0x0 DUP2 CALLDATALOAD SWAP1 POP PUSH2 0xE47 DUP2 PUSH2 0x166E JUMP JUMPDEST SWAP3 SWAP2 POP POP JUMP JUMPDEST PUSH1 0x0 DUP2 CALLDATALOAD SWAP1 POP PUSH2 0xE5C DUP2 PUSH2 0x1685 JUMP JUMPDEST SWAP3 SWAP2 POP POP JUMP JUMPDEST PUSH1 0x0 PUSH1 0x20 DUP3 DUP5 SUB SLT ISZERO PUSH2 0xE74 JUMPI PUSH1 0x0 DUP1 REVERT JUMPDEST PUSH1 0x0 PUSH2 0xE82 DUP5 DUP3 DUP6 ADD PUSH2 0xDF9 JUMP JUMPDEST SWAP2 POP POP SWAP3 SWAP2 POP POP JUMP JUMPDEST PUSH1 0x0 DUP1 PUSH1 0x40 DUP4 DUP6 SUB SLT ISZERO PUSH2 0xE9E JUMPI PUSH1 0x0 DUP1 REVERT JUMPDEST PUSH1 0x0 PUSH2 0xEAC DUP6 DUP3 DUP7 ADD PUSH2 0xDF9 JUMP JUMPDEST SWAP3 POP POP PUSH1 0x20 PUSH2 0xEBD DUP6 DUP3 DUP7 ADD PUSH2 0xDF9 JUMP JUMPDEST SWAP2 POP POP SWAP3 POP SWAP3 SWAP1 POP JUMP JUMPDEST PUSH1 0x0 DUP1 PUSH1 0x0 PUSH1 0x60 DUP5 DUP7 SUB SLT ISZERO PUSH2 0xEDC JUMPI PUSH1 0x0 DUP1 REVERT JUMPDEST PUSH1 0x0 PUSH2 0xEEA DUP7 DUP3 DUP8 ADD PUSH2 0xDF9 JUMP JUMPDEST SWAP4 POP POP PUSH1 0x20 PUSH2 0xEFB DUP7 DUP3 DUP8 ADD PUSH2 0xDF9 JUMP JUMPDEST SWAP3 POP POP PUSH1 0x40 PUSH2 0xF0C DUP7 DUP3 DUP8 ADD PUSH2 0xE38 JUMP JUMPDEST SWAP2 POP POP SWAP3 POP SWAP3 POP SWAP3 JUMP JUMPDEST PUSH1 0x0 DUP1 PUSH1 0x0 DUP1 PUSH1 0x0 DUP1 PUSH1 0x0 DUP1 PUSH2 0x100 DUP10 DUP12 SUB SLT ISZERO PUSH2 0xF33 JUMPI PUSH1 0x0 DUP1 REVERT JUMPDEST PUSH1 0x0 PUSH2 0xF41 DUP12 DUP3 DUP13 ADD PUSH2 0xDF9 JUMP JUMPDEST SWAP9 POP POP PUSH1 0x20 PUSH2 0xF52 DUP12 DUP3 DUP13 ADD PUSH2 0xDF9 JUMP JUMPDEST SWAP8 POP POP PUSH1 0x40 PUSH2 0xF63 DUP12 DUP3 DUP13 ADD PUSH2 0xE38 JUMP JUMPDEST SWAP7 POP POP PUSH1 0x60 PUSH2 0xF74 DUP12 DUP3 DUP13 ADD PUSH2 0xE38 JUMP JUMPDEST SWAP6 POP POP PUSH1 0x80 PUSH2 0xF85 DUP12 DUP3 DUP13 ADD PUSH2 0xE0E JUMP JUMPDEST SWAP5 POP POP PUSH1 0xA0 PUSH2 0xF96 DUP12 DUP3 DUP13 ADD PUSH2 0xE4D JUMP JUMPDEST SWAP4 POP POP PUSH1 0xC0 PUSH2 0xFA7 DUP12 DUP3 DUP13 ADD PUSH2 0xE23 JUMP JUMPDEST SWAP3 POP POP PUSH1 0xE0 PUSH2 0xFB8 DUP12 DUP3 DUP13 ADD PUSH2 0xE23 JUMP JUMPDEST SWAP2 POP POP SWAP3 SWAP6 SWAP9 POP SWAP3 SWAP6 SWAP9 SWAP1 SWAP4 SWAP7 POP JUMP JUMPDEST PUSH1 0x0 DUP1 PUSH1 0x40 DUP4 DUP6 SUB SLT ISZERO PUSH2 0xFDB JUMPI PUSH1 0x0 DUP1 REVERT JUMPDEST PUSH1 0x0 PUSH2 0xFE9 DUP6 DUP3 DUP7 ADD PUSH2 0xDF9 JUMP JUMPDEST SWAP3 POP POP PUSH1 0x20 PUSH2 0xFFA DUP6 DUP3 DUP7 ADD PUSH2 0xE38 JUMP JUMPDEST SWAP2 POP POP SWAP3 POP SWAP3 SWAP1 POP JUMP JUMPDEST PUSH2 0x100D DUP2 PUSH2 0x1476 JUMP JUMPDEST DUP3 MSTORE POP POP JUMP JUMPDEST PUSH2 0x101C DUP2 PUSH2 0x1488 JUMP JUMPDEST DUP3 MSTORE POP POP JUMP JUMPDEST PUSH2 0x102B DUP2 PUSH2 0x1494 JUMP JUMPDEST DUP3 MSTORE POP POP JUMP JUMPDEST PUSH2 0x1042 PUSH2 0x103D DUP3 PUSH2 0x1494 JUMP JUMPDEST PUSH2 0x1591 JUMP JUMPDEST DUP3 MSTORE POP POP JUMP JUMPDEST PUSH1 0x0 PUSH2 0x1053 DUP3 PUSH2 0x13D0 JUMP JUMPDEST PUSH2 0x105D DUP2 DUP6 PUSH2 0x13DB JUMP JUMPDEST SWAP4 POP PUSH2 0x106D DUP2 DUP6 PUSH1 0x20 DUP7 ADD PUSH2 0x14E3 JUMP JUMPDEST PUSH2 0x1076 DUP2 PUSH2 0x160B JUMP JUMPDEST DUP5 ADD SWAP2 POP POP SWAP3 SWAP2 POP POP JUMP JUMPDEST PUSH1 0x0 PUSH2 0x108E PUSH1 0x18 DUP4 PUSH2 0x13DB JUMP JUMPDEST SWAP2 POP PUSH32 0x7065726D69742074696D657374616D7020657870697265640000000000000000 PUSH1 0x0 DUP4 ADD MSTORE PUSH1 0x20 DUP3 ADD SWAP1 POP SWAP2 SWAP1 POP JUMP JUMPDEST PUSH1 0x0 PUSH2 0x10CE PUSH1 0xD DUP4 PUSH2 0x13DB JUMP JUMPDEST SWAP2 POP PUSH32 0x696E76616C6964206E6F6E636500000000000000000000000000000000000000 PUSH1 0x0 DUP4 ADD MSTORE PUSH1 0x20 DUP3 ADD SWAP1 POP SWAP2 SWAP1 POP JUMP JUMPDEST PUSH1 0x0 PUSH2 0x110E PUSH1 0x13 DUP4 PUSH2 0x13DB JUMP JUMPDEST SWAP2 POP PUSH32 0x696E76616C6964207065726D6974206861736800000000000000000000000000 PUSH1 0x0 DUP4 ADD MSTORE PUSH1 0x20 DUP3 ADD SWAP1 POP SWAP2 SWAP1 POP JUMP JUMPDEST PUSH1 0x0 PUSH2 0x114E PUSH1 0x1F DUP4 PUSH2 0x13DB JUMP JUMPDEST SWAP2 POP PUSH32 0x616464726573732063616E6E6F7420626520746F6B656E206164647265737300 PUSH1 0x0 DUP4 ADD MSTORE PUSH1 0x20 DUP3 ADD SWAP1 POP SWAP2 SWAP1 POP JUMP JUMPDEST PUSH2 0x1192 PUSH2 0x118D DUP3 PUSH2 0x149E JUMP JUMPDEST PUSH2 0x159B JUMP JUMPDEST DUP3 MSTORE POP POP JUMP JUMPDEST PUSH2 0x11A1 DUP2 PUSH2 0x14CC JUMP JUMPDEST DUP3 MSTORE POP POP JUMP JUMPDEST PUSH2 0x11B0 DUP2 PUSH2 0x14D6 JUMP JUMPDEST DUP3 MSTORE POP POP JUMP JUMPDEST PUSH1 0x0 PUSH2 0x11C2 DUP3 DUP7 PUSH2 0x1181 JUMP JUMPDEST PUSH1 0x2 DUP3 ADD SWAP2 POP PUSH2 0x11D2 DUP3 DUP6 PUSH2 0x1031 JUMP JUMPDEST PUSH1 0x20 DUP3 ADD SWAP2 POP PUSH2 0x11E2 DUP3 DUP5 PUSH2 0x1031 JUMP JUMPDEST PUSH1 0x20 DUP3 ADD SWAP2 POP DUP2 SWAP1 POP SWAP5 SWAP4 POP POP POP POP JUMP JUMPDEST PUSH1 0x0 PUSH1 0x40 DUP3 ADD SWAP1 POP PUSH2 0x1208 PUSH1 0x0 DUP4 ADD DUP6 PUSH2 0x1004 JUMP JUMPDEST PUSH2 0x1215 PUSH1 0x20 DUP4 ADD DUP5 PUSH2 0x1198 JUMP JUMPDEST SWAP4 SWAP3 POP POP POP JUMP JUMPDEST PUSH1 0x0 PUSH1 0x20 DUP3 ADD SWAP1 POP PUSH2 0x1231 PUSH1 0x0 DUP4 ADD DUP5 PUSH2 0x1013 JUMP JUMPDEST SWAP3 SWAP2 POP POP JUMP JUMPDEST PUSH1 0x0 PUSH1 0x20 DUP3 ADD SWAP1 POP PUSH2 0x124C PUSH1 0x0 DUP4 ADD DUP5 PUSH2 0x1022 JUMP JUMPDEST SWAP3 SWAP2 POP POP JUMP JUMPDEST PUSH1 0x0 PUSH1 0xC0 DUP3 ADD SWAP1 POP PUSH2 0x1267 PUSH1 0x0 DUP4 ADD DUP10 PUSH2 0x1022 JUMP JUMPDEST PUSH2 0x1274 PUSH1 0x20 DUP4 ADD DUP9 PUSH2 0x1004 JUMP JUMPDEST PUSH2 0x1281 PUSH1 0x40 DUP4 ADD DUP8 PUSH2 0x1004 JUMP JUMPDEST PUSH2 0x128E PUSH1 0x60 DUP4 ADD DUP7 PUSH2 0x1198 JUMP JUMPDEST PUSH2 0x129B PUSH1 0x80 DUP4 ADD DUP6 PUSH2 0x1198 JUMP JUMPDEST PUSH2 0x12A8 PUSH1 0xA0 DUP4 ADD DUP5 PUSH2 0x1013 JUMP JUMPDEST SWAP8 SWAP7 POP POP POP POP POP POP POP JUMP JUMPDEST PUSH1 0x0 PUSH1 0x80 DUP3 ADD SWAP1 POP PUSH2 0x12C8 PUSH1 0x0 DUP4 ADD DUP8 PUSH2 0x1022 JUMP JUMPDEST PUSH2 0x12D5 PUSH1 0x20 DUP4 ADD DUP7 PUSH2 0x11A7 JUMP JUMPDEST PUSH2 0x12E2 PUSH1 0x40 DUP4 ADD DUP6 PUSH2 0x1022 JUMP JUMPDEST PUSH2 0x12EF PUSH1 0x60 DUP4 ADD DUP5 PUSH2 0x1022 JUMP JUMPDEST SWAP6 SWAP5 POP POP POP POP POP JUMP JUMPDEST PUSH1 0x0 PUSH1 0x20 DUP3 ADD SWAP1 POP DUP2 DUP2 SUB PUSH1 0x0 DUP4 ADD MSTORE PUSH2 0x1312 DUP2 DUP5 PUSH2 0x1048 JUMP JUMPDEST SWAP1 POP SWAP3 SWAP2 POP POP JUMP JUMPDEST PUSH1 0x0 PUSH1 0x20 DUP3 ADD SWAP1 POP DUP2 DUP2 SUB PUSH1 0x0 DUP4 ADD MSTORE PUSH2 0x1333 DUP2 PUSH2 0x1081 JUMP JUMPDEST SWAP1 POP SWAP2 SWAP1 POP JUMP JUMPDEST PUSH1 0x0 PUSH1 0x20 DUP3 ADD SWAP1 POP DUP2 DUP2 SUB PUSH1 0x0 DUP4 ADD MSTORE PUSH2 0x1353 DUP2 PUSH2 0x10C1 JUMP JUMPDEST SWAP1 POP SWAP2 SWAP1 POP JUMP JUMPDEST PUSH1 0x0 PUSH1 0x20 DUP3 ADD SWAP1 POP DUP2 DUP2 SUB PUSH1 0x0 DUP4 ADD MSTORE PUSH2 0x1373 DUP2 PUSH2 0x1101 JUMP JUMPDEST SWAP1 POP SWAP2 SWAP1 POP JUMP JUMPDEST PUSH1 0x0 PUSH1 0x20 DUP3 ADD SWAP1 POP DUP2 DUP2 SUB PUSH1 0x0 DUP4 ADD MSTORE PUSH2 0x1393 DUP2 PUSH2 0x1141 JUMP JUMPDEST SWAP1 POP SWAP2 SWAP1 POP JUMP JUMPDEST PUSH1 0x0 PUSH1 0x20 DUP3 ADD SWAP1 POP PUSH2 0x13AF PUSH1 0x0 DUP4 ADD DUP5 PUSH2 0x1198 JUMP JUMPDEST SWAP3 SWAP2 POP POP JUMP JUMPDEST PUSH1 0x0 PUSH1 0x20 DUP3 ADD SWAP1 POP PUSH2 0x13CA PUSH1 0x0 DUP4 ADD DUP5 PUSH2 0x11A7 JUMP JUMPDEST SWAP3 SWAP2 POP POP JUMP JUMPDEST PUSH1 0x0 DUP2 MLOAD SWAP1 POP SWAP2 SWAP1 POP JUMP JUMPDEST PUSH1 0x0 DUP3 DUP3 MSTORE PUSH1 0x20 DUP3 ADD SWAP1 POP SWAP3 SWAP2 POP POP JUMP JUMPDEST PUSH1 0x0 PUSH2 0x13F7 DUP3 PUSH2 0x14CC JUMP JUMPDEST SWAP2 POP PUSH2 0x1402 DUP4 PUSH2 0x14CC JUMP JUMPDEST SWAP3 POP DUP3 PUSH32 0xFFFFFFFFFFFFFFFFFFFFFFFFFFFFFFFFFFFFFFFFFFFFFFFFFFFFFFFFFFFFFFFF SUB DUP3 GT ISZERO PUSH2 0x1437 JUMPI PUSH2 0x1436 PUSH2 0x15AD JUMP JUMPDEST JUMPDEST DUP3 DUP3 ADD SWAP1 POP SWAP3 SWAP2 POP POP JUMP JUMPDEST PUSH1 0x0 PUSH2 0x144D DUP3 PUSH2 0x14CC JUMP JUMPDEST SWAP2 POP PUSH2 0x1458 DUP4 PUSH2 0x14CC JUMP JUMPDEST SWAP3 POP DUP3 DUP3 LT ISZERO PUSH2 0x146B JUMPI PUSH2 0x146A PUSH2 0x15AD JUMP JUMPDEST JUMPDEST DUP3 DUP3 SUB SWAP1 POP SWAP3 SWAP2 POP POP JUMP JUMPDEST PUSH1 0x0 PUSH2 0x1481 DUP3 PUSH2 0x14AC JUMP JUMPDEST SWAP1 POP SWAP2 SWAP1 POP JUMP JUMPDEST PUSH1 0x0 DUP2 ISZERO ISZERO SWAP1 POP SWAP2 SWAP1 POP JUMP JUMPDEST PUSH1 0x0 DUP2 SWAP1 POP SWAP2 SWAP1 POP JUMP JUMPDEST PUSH1 0x0 PUSH2 0xFFFF DUP3 AND SWAP1 POP SWAP2 SWAP1 POP JUMP JUMPDEST PUSH1 0x0 PUSH20 0xFFFFFFFFFFFFFFFFFFFFFFFFFFFFFFFFFFFFFFFF DUP3 AND SWAP1 POP SWAP2 SWAP1 POP JUMP JUMPDEST PUSH1 0x0 DUP2 SWAP1 POP SWAP2 SWAP1 POP JUMP JUMPDEST PUSH1 0x0 PUSH1 0xFF DUP3 AND SWAP1 POP SWAP2 SWAP1 POP JUMP JUMPDEST PUSH1 0x0 JUMPDEST DUP4 DUP2 LT ISZERO PUSH2 0x1501 JUMPI DUP1 DUP3 ADD MLOAD DUP2 DUP5 ADD MSTORE PUSH1 0x20 DUP2 ADD SWAP1 POP PUSH2 0x14E6 JUMP JUMPDEST DUP4 DUP2 GT ISZERO PUSH2 0x1510 JUMPI PUSH1 0x0 DUP5 DUP5 ADD MSTORE JUMPDEST POP POP POP POP JUMP JUMPDEST PUSH1 0x0 PUSH1 0x2 DUP3 DIV SWAP1 POP PUSH1 0x1 DUP3 AND DUP1 PUSH2 0x152E JUMPI PUSH1 0x7F DUP3 AND SWAP2 POP JUMPDEST PUSH1 0x20 DUP3 LT DUP2 EQ ISZERO PUSH2 0x1542 JUMPI PUSH2 0x1541 PUSH2 0x15DC JUMP JUMPDEST JUMPDEST POP SWAP2 SWAP1 POP JUMP JUMPDEST PUSH1 0x0 PUSH2 0x1553 DUP3 PUSH2 0x14CC JUMP JUMPDEST SWAP2 POP PUSH32 0xFFFFFFFFFFFFFFFFFFFFFFFFFFFFFFFFFFFFFFFFFFFFFFFFFFFFFFFFFFFFFFFF DUP3 EQ ISZERO PUSH2 0x1586 JUMPI PUSH2 0x1585 PUSH2 0x15AD JUMP JUMPDEST JUMPDEST PUSH1 0x1 DUP3 ADD SWAP1 POP SWAP2 SWAP1 POP JUMP JUMPDEST PUSH1 0x0 DUP2 SWAP1 POP SWAP2 SWAP1 POP JUMP JUMPDEST PUSH1 0x0 PUSH2 0x15A6 DUP3 PUSH2 0x161C JUMP JUMPDEST SWAP1 POP SWAP2 SWAP1 POP JUMP JUMPDEST PUSH32 0x4E487B7100000000000000000000000000000000000000000000000000000000 PUSH1 0x0 MSTORE PUSH1 0x11 PUSH1 0x4 MSTORE PUSH1 0x24 PUSH1 0x0 REVERT JUMPDEST PUSH32 0x4E487B7100000000000000000000000000000000000000000000000000000000 PUSH1 0x0 MSTORE PUSH1 0x22 PUSH1 0x4 MSTORE PUSH1 0x24 PUSH1 0x0 REVERT JUMPDEST PUSH1 0x0 PUSH1 0x1F NOT PUSH1 0x1F DUP4 ADD AND SWAP1 POP SWAP2 SWAP1 POP JUMP JUMPDEST PUSH1 0x0 DUP2 PUSH1 0xF0 SHL SWAP1 POP SWAP2 SWAP1 POP JUMP JUMPDEST PUSH2 0x1632 DUP2 PUSH2 0x1476 JUMP JUMPDEST DUP2 EQ PUSH2 0x163D JUMPI PUSH1 0x0 DUP1 REVERT JUMPDEST POP JUMP JUMPDEST PUSH2 0x1649 DUP2 PUSH2 0x1488 JUMP JUMPDEST DUP2 EQ PUSH2 0x1654 JUMPI PUSH1 0x0 DUP1 REVERT JUMPDEST POP JUMP JUMPDEST PUSH2 0x1660 DUP2 PUSH2 0x1494 JUMP JUMPDEST DUP2 EQ PUSH2 0x166B JUMPI PUSH1 0x0 DUP1 REVERT JUMPDEST POP JUMP JUMPDEST PUSH2 0x1677 DUP2 PUSH2 0x14CC JUMP JUMPDEST DUP2 EQ PUSH2 0x1682 JUMPI PUSH1 0x0 DUP1 REVERT JUMPDEST POP JUMP JUMPDEST PUSH2 0x168E DUP2 PUSH2 0x14D6 JUMP JUMPDEST DUP2 EQ PUSH2 0x1699 JUMPI PUSH1 0x0 DUP1 REVERT JUMPDEST POP JUMP INVALID LOG2 PUSH5 0x6970667358 0x22 SLT KECCAK256 0xAD LOG1 PUSH29 0x693CE42F62BF4FE39A30AA71AF1AE6FCFAD9792C4D1328A12C37994F32 PUSH5 0x736F6C6343 STOP ADDMOD STOP STOP CALLER "
				},
				"gasEstimates": {
					"creation": {
						"codeDepositCost": "1168400",
						"executionCost": "infinite",
						"totalCost": "infinite"
					},
					"external": {
						"DOMAIN_SEPARATOR()": "1240",
						"allowance(address,address)": "infinite",
						"approve(address,uint256)": "infinite",
						"balanceOf(address)": "1537",
						"burnFINA(address,uint256)": "infinite",
						"decimals()": "432",
						"mintFINA(address,uint256)": "infinite",
						"name()": "infinite",
						"permit(address,address,uint256,uint256,bool,uint8,bytes32,bytes32)": "infinite",
						"symbol()": "infinite",
						"totalSupply()": "1174",
						"transfer(address,uint256)": "infinite",
						"transferFrom(address,address,uint256)": "infinite"
					}
				},
				"methodIdentifiers": {
					"DOMAIN_SEPARATOR()": "3644e515",
					"allowance(address,address)": "dd62ed3e",
					"approve(address,uint256)": "095ea7b3",
					"balanceOf(address)": "70a08231",
					"burnFINA(address,uint256)": "ac69417e",
					"decimals()": "313ce567",
					"mintFINA(address,uint256)": "b190928b",
					"name()": "06fdde03",
					"permit(address,address,uint256,uint256,bool,uint8,bytes32,bytes32)": "8fcbaf0c",
					"symbol()": "95d89b41",
					"totalSupply()": "18160ddd",
					"transfer(address,uint256)": "a9059cbb",
					"transferFrom(address,address,uint256)": "23b872dd"
				}
			},
			"storageLayout": {
				"storage": [
					{
						"astId": 9,
						"contract": "contracts/FianansuToken.sol:FINA",
						"label": "balanceOf",
						"offset": 0,
						"slot": "0",
						"type": "t_mapping(t_address,t_uint256)"
					},
					{
						"astId": 16,
						"contract": "contracts/FianansuToken.sol:FINA",
						"label": "allowance",
						"offset": 0,
						"slot": "1",
						"type": "t_mapping(t_address,t_mapping(t_address,t_uint256))"
					},
					{
						"astId": 20,
						"contract": "contracts/FianansuToken.sol:FINA",
						"label": "nonces",
						"offset": 0,
						"slot": "2",
						"type": "t_mapping(t_address,t_uint256)"
					},
					{
						"astId": 23,
						"contract": "contracts/FianansuToken.sol:FINA",
						"label": "totalSupply",
						"offset": 0,
						"slot": "3",
						"type": "t_uint256"
					},
					{
						"astId": 25,
						"contract": "contracts/FianansuToken.sol:FINA",
						"label": "_name",
						"offset": 0,
						"slot": "4",
						"type": "t_string_storage"
					},
					{
						"astId": 27,
						"contract": "contracts/FianansuToken.sol:FINA",
						"label": "_symbol",
						"offset": 0,
						"slot": "5",
						"type": "t_string_storage"
					},
					{
						"astId": 30,
						"contract": "contracts/FianansuToken.sol:FINA",
						"label": "DOMAIN_SEPARATOR",
						"offset": 0,
						"slot": "6",
						"type": "t_bytes32"
					},
					{
						"astId": 383,
						"contract": "contracts/FianansuToken.sol:FINA",
						"label": "owner",
						"offset": 0,
						"slot": "7",
						"type": "t_address"
					},
					{
						"astId": 386,
						"contract": "contracts/FianansuToken.sol:FINA",
						"label": "token",
						"offset": 0,
						"slot": "8",
						"type": "t_contract(ERC20)375"
					}
				],
				"types": {
					"t_address": {
						"encoding": "inplace",
						"label": "address",
						"numberOfBytes": "20"
					},
					"t_bytes32": {
						"encoding": "inplace",
						"label": "bytes32",
						"numberOfBytes": "32"
					},
					"t_contract(ERC20)375": {
						"encoding": "inplace",
						"label": "contract ERC20",
						"numberOfBytes": "20"
					},
					"t_mapping(t_address,t_mapping(t_address,t_uint256))": {
						"encoding": "mapping",
						"key": "t_address",
						"label": "mapping(address => mapping(address => uint256))",
						"numberOfBytes": "32",
						"value": "t_mapping(t_address,t_uint256)"
					},
					"t_mapping(t_address,t_uint256)": {
						"encoding": "mapping",
						"key": "t_address",
						"label": "mapping(address => uint256)",
						"numberOfBytes": "32",
						"value": "t_uint256"
					},
					"t_string_storage": {
						"encoding": "bytes",
						"label": "string",
						"numberOfBytes": "32"
					},
					"t_uint256": {
						"encoding": "inplace",
						"label": "uint256",
						"numberOfBytes": "32"
					}
				}
			},
			"userdoc": {
				"events": {
					"Approval(address,address,uint256)": {
						"notice": "Emitted when the allowance of a `spender` for an `owner` is set by a call to {approve}. `value` is the new allowance."
					},
					"Transfer(address,address,uint256)": {
						"notice": "Emitted when `value` tokens are moved from one account (`from`) to another (`to`). Note that `value` may be zero."
					}
				},
				"kind": "user",
				"methods": {
					"DOMAIN_SEPARATOR()": {
						"notice": "Generates a token hash based on EIP712 standard that is passed to the permit function. Returns a btytes32 value indicating whether the operation succeeded. "
					},
					"approve(address,uint256)": {
						"notice": "Sets `amount` as the allowance of `spender` over the caller's tokens. Returns a boolean value indicating whether the operation succeeded. Emits an {Approval} event."
					},
					"transfer(address,uint256)": {
						"notice": "Moves `amount` tokens from the caller's account to `recipient`. Returns a boolean value indicating whether the operation succeeded. Emits a {Transfer} event."
					},
					"transferFrom(address,address,uint256)": {
						"notice": "Moves `amount` tokens from `sender` to `recipient` using the allowance mechanism. `amount` is then deducted from the caller's allowance. Returns a boolean value indicating whether the operation succeeded. Emits a {Transfer} event."
					}
				},
				"version": 1
			}
		}
	}
}