{
	"contracts/ERC20.sol": {
		"ERC20": {
			"abi": [
				{
					"inputs": [
						{
							"internalType": "string",
							"name": "name_",
							"type": "string"
						},
						{
							"internalType": "string",
							"name": "symbol_",
							"type": "string"
						}
					],
					"stateMutability": "nonpayable",
					"type": "constructor"
				},
				{
					"anonymous": false,
					"inputs": [
						{
							"indexed": true,
							"internalType": "address",
							"name": "owner",
							"type": "address"
						},
						{
							"indexed": true,
							"internalType": "address",
							"name": "spender",
							"type": "address"
						},
						{
							"indexed": false,
							"internalType": "uint256",
							"name": "value",
							"type": "uint256"
						}
					],
					"name": "Approval",
					"type": "event"
				},
				{
					"anonymous": false,
					"inputs": [
						{
							"indexed": true,
							"internalType": "address",
							"name": "from",
							"type": "address"
						},
						{
							"indexed": true,
							"internalType": "address",
							"name": "to",
							"type": "address"
						},
						{
							"indexed": false,
							"internalType": "uint256",
							"name": "value",
							"type": "uint256"
						}
					],
					"name": "Transfer",
					"type": "event"
				},
				{
					"inputs": [],
					"name": "DOMAIN_SEPARATOR",
					"outputs": [
						{
							"internalType": "bytes32",
							"name": "",
							"type": "bytes32"
						}
					],
					"stateMutability": "view",
					"type": "function"
				},
				{
					"inputs": [
						{
							"internalType": "address",
							"name": "",
							"type": "address"
						},
						{
							"internalType": "address",
							"name": "",
							"type": "address"
						}
					],
					"name": "allowance",
					"outputs": [
						{
							"internalType": "uint256",
							"name": "",
							"type": "uint256"
						}
					],
					"stateMutability": "view",
					"type": "function"
				},
				{
					"inputs": [
						{
							"internalType": "address",
							"name": "spender",
							"type": "address"
						},
						{
							"internalType": "uint256",
							"name": "amount",
							"type": "uint256"
						}
					],
					"name": "approve",
					"outputs": [
						{
							"internalType": "bool",
							"name": "",
							"type": "bool"
						}
					],
					"stateMutability": "nonpayable",
					"type": "function"
				},
				{
					"inputs": [
						{
							"internalType": "address",
							"name": "",
							"type": "address"
						}
					],
					"name": "balanceOf",
					"outputs": [
						{
							"internalType": "uint256",
							"name": "",
							"type": "uint256"
						}
					],
					"stateMutability": "view",
					"type": "function"
				},
				{
					"inputs": [],
					"name": "decimals",
					"outputs": [
						{
							"internalType": "uint8",
							"name": "",
							"type": "uint8"
						}
					],
					"stateMutability": "view",
					"type": "function"
				},
				{
					"inputs": [],
					"name": "name",
					"outputs": [
						{
							"internalType": "string",
							"name": "",
							"type": "string"
						}
					],
					"stateMutability": "view",
					"type": "function"
				},
				{
					"inputs": [
						{
							"internalType": "address",
							"name": "owner",
							"type": "address"
						},
						{
							"internalType": "address",
							"name": "spender",
							"type": "address"
						},
						{
							"internalType": "uint256",
							"name": "nonce",
							"type": "uint256"
						},
						{
							"internalType": "uint256",
							"name": "deadline",
							"type": "uint256"
						},
						{
							"internalType": "bool",
							"name": "allowed",
							"type": "bool"
						},
						{
							"internalType": "uint8",
							"name": "v",
							"type": "uint8"
						},
						{
							"internalType": "bytes32",
							"name": "r",
							"type": "bytes32"
						},
						{
							"internalType": "bytes32",
							"name": "s",
							"type": "bytes32"
						}
					],
					"name": "permit",
					"outputs": [],
					"stateMutability": "nonpayable",
					"type": "function"
				},
				{
					"inputs": [],
					"name": "symbol",
					"outputs": [
						{
							"internalType": "string",
							"name": "",
							"type": "string"
						}
					],
					"stateMutability": "view",
					"type": "function"
				},
				{
					"inputs": [],
					"name": "totalSupply",
					"outputs": [
						{
							"internalType": "uint256",
							"name": "",
							"type": "uint256"
						}
					],
					"stateMutability": "view",
					"type": "function"
				},
				{
					"inputs": [
						{
							"internalType": "address",
							"name": "recipient",
							"type": "address"
						},
						{
							"internalType": "uint256",
							"name": "amount",
							"type": "uint256"
						}
					],
					"name": "transfer",
					"outputs": [
						{
							"internalType": "bool",
							"name": "",
							"type": "bool"
						}
					],
					"stateMutability": "nonpayable",
					"type": "function"
				},
				{
					"inputs": [
						{
							"internalType": "address",
							"name": "sender",
							"type": "address"
						},
						{
							"internalType": "address",
							"name": "recipient",
							"type": "address"
						},
						{
							"internalType": "uint256",
							"name": "amount",
							"type": "uint256"
						}
					],
					"name": "transferFrom",
					"outputs": [
						{
							"internalType": "bool",
							"name": "",
							"type": "bool"
						}
					],
					"stateMutability": "nonpayable",
					"type": "function"
				}
			],
			"devdoc": {
				"kind": "dev",
				"methods": {
					"permit(address,address,uint256,uint256,bool,uint8,bytes32,bytes32)": {
						"details": "Implementation of the ERC20 Permit extension allowing approvals to be made via signatures, as defined in https://eips.ethereum.org/EIPS/eip-2612[EIP-2612]. Adds the {permit} method, which can be used to change an account's ERC20 allowance (see {IERC20-allowance}) by presenting a message signed by the account. By not relying on `{IERC20-approve}`, the token holder account doesn't need to send a transaction, and thus is not required to hold Ether at all. _Available since v3.4._"
					}
				},
				"stateVariables": {
					"allowance": {
						"details": "Returns the remaining number of tokens that `spender` will be allowed to spend on behalf of `owner` through {transferFrom}. This is zero by default. This value changes when {approve} or {transferFrom} are called."
					},
					"balanceOf": {
						"details": "Returns the amount of tokens owned by `account`."
					}
				},
				"version": 1
			},
			"evm": {
				"assembly": "    /* \"contracts/ERC20.sol\":81:4125  contract ERC20 is IERC20 {... */\n  mstore(0x40, 0x80)\n    /* \"contracts/ERC20.sol\":439:962  constructor(string memory name_, string memory symbol_){... */\n  callvalue\n  dup1\n  iszero\n  tag_1\n  jumpi\n  0x00\n  dup1\n  revert\ntag_1:\n  pop\n  mload(0x40)\n  sub(codesize, bytecodeSize)\n  dup1\n  bytecodeSize\n  dup4\n  codecopy\n  dup2\n  dup2\n  add\n  0x40\n  mstore\n  dup2\n  add\n  swap1\n  tag_2\n  swap2\n  swap1\n  tag_3\n  jump\t// in\ntag_2:\n    /* \"contracts/ERC20.sol\":512:517  name_ */\n  dup2\n    /* \"contracts/ERC20.sol\":504:509  _name */\n  0x04\n    /* \"contracts/ERC20.sol\":504:517  _name = name_ */\n  swap1\n  dup1\n  mload\n  swap1\n  0x20\n  add\n  swap1\n  tag_6\n  swap3\n  swap2\n  swap1\n  tag_7\n  jump\t// in\ntag_6:\n  pop\n    /* \"contracts/ERC20.sol\":537:544  symbol_ */\n  dup1\n    /* \"contracts/ERC20.sol\":527:534  _symbol */\n  0x05\n    /* \"contracts/ERC20.sol\":527:544  _symbol = symbol_ */\n  swap1\n  dup1\n  mload\n  swap1\n  0x20\n  add\n  swap1\n  tag_8\n  swap3\n  swap2\n  swap1\n  tag_7\n  jump\t// in\ntag_8:\n  pop\n    /* \"contracts/ERC20.sol\":554:570  uint256 chainId_ */\n  0x00\n    /* \"contracts/ERC20.sol\":573:577  3141 */\n  0x0c45\n    /* \"contracts/ERC20.sol\":554:577  uint256 chainId_ = 3141 */\n  swap1\n  pop\n    /* \"contracts/ERC20.sol\":727:822  keccak256(\"EIP712Domain(string name,string version,uint256 chainId,address verifyingContract)\") */\n  0x8b73c3c69bb8fe3d512ecc4cf759cc79239f7b179b0ffacaa9a75d522b39400f\n    /* \"contracts/ERC20.sol\":852:858  name() */\n  tag_9\n    /* \"contracts/ERC20.sol\":852:856  name */\n  shl(0x20, tag_10)\n    /* \"contracts/ERC20.sol\":852:858  name() */\n  0x20\n  shr\n  jump\t// in\ntag_9:\n    /* \"contracts/ERC20.sol\":836:860  keccak256(bytes(name())) */\n  dup1\n  mload\n  swap1\n  0x20\n  add\n  keccak256\n    /* \"contracts/ERC20.sol\":884:894  bytes(\"1\") */\n  mload(0x40)\n  dup1\n  0x40\n  add\n  0x40\n  mstore\n  dup1\n  0x01\n  dup2\n  mstore\n  0x20\n  add\n  0x3100000000000000000000000000000000000000000000000000000000000000\n  dup2\n  mstore\n  pop\n    /* \"contracts/ERC20.sol\":874:895  keccak256(bytes(\"1\")) */\n  dup1\n  mload\n  swap1\n  0x20\n  add\n  keccak256\n    /* \"contracts/ERC20.sol\":909:917  chainId_ */\n  dup4\n    /* \"contracts/ERC20.sol\":939:943  this */\n  address\n    /* \"contracts/ERC20.sol\":703:954  abi.encode(... */\n  add(0x20, mload(0x40))\n  tag_11\n  swap6\n  swap5\n  swap4\n  swap3\n  swap2\n  swap1\n  tag_12\n  jump\t// in\ntag_11:\n  mload(0x40)\n  0x20\n  dup2\n  dup4\n  sub\n  sub\n  dup2\n  mstore\n  swap1\n  0x40\n  mstore\n    /* \"contracts/ERC20.sol\":693:955  keccak256(abi.encode(... */\n  dup1\n  mload\n  swap1\n  0x20\n  add\n  keccak256\n    /* \"contracts/ERC20.sol\":674:690  DOMAIN_SEPARATOR */\n  0x06\n    /* \"contracts/ERC20.sol\":674:955  DOMAIN_SEPARATOR = keccak256(abi.encode(... */\n  dup2\n  swap1\n  sstore\n  pop\n    /* \"contracts/ERC20.sol\":439:962  constructor(string memory name_, string memory symbol_){... */\n  pop\n  pop\n  pop\n    /* \"contracts/ERC20.sol\":81:4125  contract ERC20 is IERC20 {... */\n  jump(tag_13)\n    /* \"contracts/ERC20.sol\":968:1057  function name() public view virtual returns (string memory) {... */\ntag_10:\n    /* \"contracts/ERC20.sol\":1013:1026  string memory */\n  0x60\n    /* \"contracts/ERC20.sol\":1045:1050  _name */\n  0x04\n    /* \"contracts/ERC20.sol\":1038:1050  return _name */\n  dup1\n  sload\n  tag_15\n  swap1\n  tag_16\n  jump\t// in\ntag_15:\n  dup1\n  0x1f\n  add\n  0x20\n  dup1\n  swap2\n  div\n  mul\n  0x20\n  add\n  mload(0x40)\n  swap1\n  dup2\n  add\n  0x40\n  mstore\n  dup1\n  swap3\n  swap2\n  swap1\n  dup2\n  dup2\n  mstore\n  0x20\n  add\n  dup3\n  dup1\n  sload\n  tag_17\n  swap1\n  tag_16\n  jump\t// in\ntag_17:\n  dup1\n  iszero\n  tag_18\n  jumpi\n  dup1\n  0x1f\n  lt\n  tag_19\n  jumpi\n  0x0100\n  dup1\n  dup4\n  sload\n  div\n  mul\n  dup4\n  mstore\n  swap2\n  0x20\n  add\n  swap2\n  jump(tag_18)\ntag_19:\n  dup3\n  add\n  swap2\n  swap1\n  0x00\n  mstore\n  keccak256(0x00, 0x20)\n  swap1\ntag_20:\n  dup2\n  sload\n  dup2\n  mstore\n  swap1\n  0x01\n  add\n  swap1\n  0x20\n  add\n  dup1\n  dup4\n  gt\n  tag_20\n  jumpi\n  dup3\n  swap1\n  sub\n  0x1f\n  and\n  dup3\n  add\n  swap2\ntag_18:\n  pop\n  pop\n  pop\n  pop\n  pop\n  swap1\n  pop\n    /* \"contracts/ERC20.sol\":968:1057  function name() public view virtual returns (string memory) {... */\n  swap1\n  jump\t// out\n    /* \"contracts/ERC20.sol\":81:4125  contract ERC20 is IERC20 {... */\ntag_7:\n  dup3\n  dup1\n  sload\n  tag_21\n  swap1\n  tag_16\n  jump\t// in\ntag_21:\n  swap1\n  0x00\n  mstore\n  keccak256(0x00, 0x20)\n  swap1\n  0x1f\n  add\n  0x20\n  swap1\n  div\n  dup2\n  add\n  swap3\n  dup3\n  tag_23\n  jumpi\n  0x00\n  dup6\n  sstore\n  jump(tag_22)\ntag_23:\n  dup3\n  0x1f\n  lt\n  tag_24\n  jumpi\n  dup1\n  mload\n  not(0xff)\n  and\n  dup4\n  dup1\n  add\n  or\n  dup6\n  sstore\n  jump(tag_22)\ntag_24:\n  dup3\n  dup1\n  add\n  0x01\n  add\n  dup6\n  sstore\n  dup3\n  iszero\n  tag_22\n  jumpi\n  swap2\n  dup3\n  add\ntag_25:\n  dup3\n  dup2\n  gt\n  iszero\n  tag_26\n  jumpi\n  dup3\n  mload\n  dup3\n  sstore\n  swap2\n  0x20\n  add\n  swap2\n  swap1\n  0x01\n  add\n  swap1\n  jump(tag_25)\ntag_26:\ntag_22:\n  pop\n  swap1\n  pop\n  tag_27\n  swap2\n  swap1\n  tag_28\n  jump\t// in\ntag_27:\n  pop\n  swap1\n  jump\t// out\ntag_28:\ntag_29:\n  dup1\n  dup3\n  gt\n  iszero\n  tag_30\n  jumpi\n  0x00\n  dup2\n  0x00\n  swap1\n  sstore\n  pop\n  0x01\n  add\n  jump(tag_29)\ntag_30:\n  pop\n  swap1\n  jump\t// out\n    /* \"#utility.yul\":7:360   */\ntag_32:\n  0x00\n    /* \"#utility.yul\":121:186   */\n  tag_34\n    /* \"#utility.yul\":136:185   */\n  tag_35\n    /* \"#utility.yul\":178:184   */\n  dup5\n    /* \"#utility.yul\":136:185   */\n  tag_36\n  jump\t// in\ntag_35:\n    /* \"#utility.yul\":121:186   */\n  tag_37\n  jump\t// in\ntag_34:\n    /* \"#utility.yul\":112:186   */\n  swap1\n  pop\n    /* \"#utility.yul\":209:215   */\n  dup3\n    /* \"#utility.yul\":202:207   */\n  dup2\n    /* \"#utility.yul\":195:216   */\n  mstore\n    /* \"#utility.yul\":247:251   */\n  0x20\n    /* \"#utility.yul\":240:245   */\n  dup2\n    /* \"#utility.yul\":236:252   */\n  add\n    /* \"#utility.yul\":285:288   */\n  dup5\n    /* \"#utility.yul\":276:282   */\n  dup5\n    /* \"#utility.yul\":271:274   */\n  dup5\n    /* \"#utility.yul\":267:283   */\n  add\n    /* \"#utility.yul\":264:289   */\n  gt\n    /* \"#utility.yul\":261:263   */\n  iszero\n  tag_38\n  jumpi\n    /* \"#utility.yul\":302:303   */\n  0x00\n    /* \"#utility.yul\":299:300   */\n  dup1\n    /* \"#utility.yul\":292:304   */\n  revert\n    /* \"#utility.yul\":261:263   */\ntag_38:\n    /* \"#utility.yul\":315:354   */\n  tag_39\n    /* \"#utility.yul\":347:353   */\n  dup5\n    /* \"#utility.yul\":342:345   */\n  dup3\n    /* \"#utility.yul\":337:340   */\n  dup6\n    /* \"#utility.yul\":315:354   */\n  tag_40\n  jump\t// in\ntag_39:\n    /* \"#utility.yul\":102:360   */\n  pop\n  swap4\n  swap3\n  pop\n  pop\n  pop\n  jump\t// out\n    /* \"#utility.yul\":380:668   */\ntag_41:\n  0x00\n    /* \"#utility.yul\":496:499   */\n  dup3\n    /* \"#utility.yul\":489:493   */\n  0x1f\n    /* \"#utility.yul\":481:487   */\n  dup4\n    /* \"#utility.yul\":477:494   */\n  add\n    /* \"#utility.yul\":473:500   */\n  slt\n    /* \"#utility.yul\":463:465   */\n  tag_43\n  jumpi\n    /* \"#utility.yul\":514:515   */\n  0x00\n    /* \"#utility.yul\":511:512   */\n  dup1\n    /* \"#utility.yul\":504:516   */\n  revert\n    /* \"#utility.yul\":463:465   */\ntag_43:\n    /* \"#utility.yul\":547:553   */\n  dup2\n    /* \"#utility.yul\":541:554   */\n  mload\n    /* \"#utility.yul\":572:662   */\n  tag_44\n    /* \"#utility.yul\":658:661   */\n  dup5\n    /* \"#utility.yul\":650:656   */\n  dup3\n    /* \"#utility.yul\":643:647   */\n  0x20\n    /* \"#utility.yul\":635:641   */\n  dup7\n    /* \"#utility.yul\":631:648   */\n  add\n    /* \"#utility.yul\":572:662   */\n  tag_32\n  jump\t// in\ntag_44:\n    /* \"#utility.yul\":563:662   */\n  swap2\n  pop\n    /* \"#utility.yul\":453:668   */\n  pop\n  swap3\n  swap2\n  pop\n  pop\n  jump\t// out\n    /* \"#utility.yul\":674:1326   */\ntag_3:\n  0x00\n  dup1\n    /* \"#utility.yul\":830:832   */\n  0x40\n    /* \"#utility.yul\":818:827   */\n  dup4\n    /* \"#utility.yul\":809:816   */\n  dup6\n    /* \"#utility.yul\":805:828   */\n  sub\n    /* \"#utility.yul\":801:833   */\n  slt\n    /* \"#utility.yul\":798:800   */\n  iszero\n  tag_46\n  jumpi\n    /* \"#utility.yul\":846:847   */\n  0x00\n    /* \"#utility.yul\":843:844   */\n  dup1\n    /* \"#utility.yul\":836:848   */\n  revert\n    /* \"#utility.yul\":798:800   */\ntag_46:\n    /* \"#utility.yul\":910:911   */\n  0x00\n    /* \"#utility.yul\":899:908   */\n  dup4\n    /* \"#utility.yul\":895:912   */\n  add\n    /* \"#utility.yul\":889:913   */\n  mload\n    /* \"#utility.yul\":940:958   */\n  0xffffffffffffffff\n    /* \"#utility.yul\":932:938   */\n  dup2\n    /* \"#utility.yul\":929:959   */\n  gt\n    /* \"#utility.yul\":926:928   */\n  iszero\n  tag_47\n  jumpi\n    /* \"#utility.yul\":972:973   */\n  0x00\n    /* \"#utility.yul\":969:970   */\n  dup1\n    /* \"#utility.yul\":962:974   */\n  revert\n    /* \"#utility.yul\":926:928   */\ntag_47:\n    /* \"#utility.yul\":1000:1074   */\n  tag_48\n    /* \"#utility.yul\":1066:1073   */\n  dup6\n    /* \"#utility.yul\":1057:1063   */\n  dup3\n    /* \"#utility.yul\":1046:1055   */\n  dup7\n    /* \"#utility.yul\":1042:1064   */\n  add\n    /* \"#utility.yul\":1000:1074   */\n  tag_41\n  jump\t// in\ntag_48:\n    /* \"#utility.yul\":990:1074   */\n  swap3\n  pop\n    /* \"#utility.yul\":860:1084   */\n  pop\n    /* \"#utility.yul\":1144:1146   */\n  0x20\n    /* \"#utility.yul\":1133:1142   */\n  dup4\n    /* \"#utility.yul\":1129:1147   */\n  add\n    /* \"#utility.yul\":1123:1148   */\n  mload\n    /* \"#utility.yul\":1175:1193   */\n  0xffffffffffffffff\n    /* \"#utility.yul\":1167:1173   */\n  dup2\n    /* \"#utility.yul\":1164:1194   */\n  gt\n    /* \"#utility.yul\":1161:1163   */\n  iszero\n  tag_49\n  jumpi\n    /* \"#utility.yul\":1207:1208   */\n  0x00\n    /* \"#utility.yul\":1204:1205   */\n  dup1\n    /* \"#utility.yul\":1197:1209   */\n  revert\n    /* \"#utility.yul\":1161:1163   */\ntag_49:\n    /* \"#utility.yul\":1235:1309   */\n  tag_50\n    /* \"#utility.yul\":1301:1308   */\n  dup6\n    /* \"#utility.yul\":1292:1298   */\n  dup3\n    /* \"#utility.yul\":1281:1290   */\n  dup7\n    /* \"#utility.yul\":1277:1299   */\n  add\n    /* \"#utility.yul\":1235:1309   */\n  tag_41\n  jump\t// in\ntag_50:\n    /* \"#utility.yul\":1225:1309   */\n  swap2\n  pop\n    /* \"#utility.yul\":1094:1319   */\n  pop\n    /* \"#utility.yul\":788:1326   */\n  swap3\n  pop\n  swap3\n  swap1\n  pop\n  jump\t// out\n    /* \"#utility.yul\":1332:1450   */\ntag_51:\n    /* \"#utility.yul\":1419:1443   */\n  tag_53\n    /* \"#utility.yul\":1437:1442   */\n  dup2\n    /* \"#utility.yul\":1419:1443   */\n  tag_54\n  jump\t// in\ntag_53:\n    /* \"#utility.yul\":1414:1417   */\n  dup3\n    /* \"#utility.yul\":1407:1444   */\n  mstore\n    /* \"#utility.yul\":1397:1450   */\n  pop\n  pop\n  jump\t// out\n    /* \"#utility.yul\":1456:1574   */\ntag_55:\n    /* \"#utility.yul\":1543:1567   */\n  tag_57\n    /* \"#utility.yul\":1561:1566   */\n  dup2\n    /* \"#utility.yul\":1543:1567   */\n  tag_58\n  jump\t// in\ntag_57:\n    /* \"#utility.yul\":1538:1541   */\n  dup3\n    /* \"#utility.yul\":1531:1568   */\n  mstore\n    /* \"#utility.yul\":1521:1574   */\n  pop\n  pop\n  jump\t// out\n    /* \"#utility.yul\":1580:1698   */\ntag_59:\n    /* \"#utility.yul\":1667:1691   */\n  tag_61\n    /* \"#utility.yul\":1685:1690   */\n  dup2\n    /* \"#utility.yul\":1667:1691   */\n  tag_62\n  jump\t// in\ntag_61:\n    /* \"#utility.yul\":1662:1665   */\n  dup3\n    /* \"#utility.yul\":1655:1692   */\n  mstore\n    /* \"#utility.yul\":1645:1698   */\n  pop\n  pop\n  jump\t// out\n    /* \"#utility.yul\":1704:2368   */\ntag_12:\n  0x00\n    /* \"#utility.yul\":1947:1950   */\n  0xa0\n    /* \"#utility.yul\":1936:1945   */\n  dup3\n    /* \"#utility.yul\":1932:1951   */\n  add\n    /* \"#utility.yul\":1924:1951   */\n  swap1\n  pop\n    /* \"#utility.yul\":1961:2032   */\n  tag_64\n    /* \"#utility.yul\":2029:2030   */\n  0x00\n    /* \"#utility.yul\":2018:2027   */\n  dup4\n    /* \"#utility.yul\":2014:2031   */\n  add\n    /* \"#utility.yul\":2005:2011   */\n  dup9\n    /* \"#utility.yul\":1961:2032   */\n  tag_55\n  jump\t// in\ntag_64:\n    /* \"#utility.yul\":2042:2114   */\n  tag_65\n    /* \"#utility.yul\":2110:2112   */\n  0x20\n    /* \"#utility.yul\":2099:2108   */\n  dup4\n    /* \"#utility.yul\":2095:2113   */\n  add\n    /* \"#utility.yul\":2086:2092   */\n  dup8\n    /* \"#utility.yul\":2042:2114   */\n  tag_55\n  jump\t// in\ntag_65:\n    /* \"#utility.yul\":2124:2196   */\n  tag_66\n    /* \"#utility.yul\":2192:2194   */\n  0x40\n    /* \"#utility.yul\":2181:2190   */\n  dup4\n    /* \"#utility.yul\":2177:2195   */\n  add\n    /* \"#utility.yul\":2168:2174   */\n  dup7\n    /* \"#utility.yul\":2124:2196   */\n  tag_55\n  jump\t// in\ntag_66:\n    /* \"#utility.yul\":2206:2278   */\n  tag_67\n    /* \"#utility.yul\":2274:2276   */\n  0x60\n    /* \"#utility.yul\":2263:2272   */\n  dup4\n    /* \"#utility.yul\":2259:2277   */\n  add\n    /* \"#utility.yul\":2250:2256   */\n  dup6\n    /* \"#utility.yul\":2206:2278   */\n  tag_59\n  jump\t// in\ntag_67:\n    /* \"#utility.yul\":2288:2361   */\n  tag_68\n    /* \"#utility.yul\":2356:2359   */\n  0x80\n    /* \"#utility.yul\":2345:2354   */\n  dup4\n    /* \"#utility.yul\":2341:2360   */\n  add\n    /* \"#utility.yul\":2332:2338   */\n  dup5\n    /* \"#utility.yul\":2288:2361   */\n  tag_51\n  jump\t// in\ntag_68:\n    /* \"#utility.yul\":1914:2368   */\n  swap7\n  swap6\n  pop\n  pop\n  pop\n  pop\n  pop\n  pop\n  jump\t// out\n    /* \"#utility.yul\":2374:2657   */\ntag_37:\n  0x00\n    /* \"#utility.yul\":2440:2442   */\n  0x40\n    /* \"#utility.yul\":2434:2443   */\n  mload\n    /* \"#utility.yul\":2424:2443   */\n  swap1\n  pop\n    /* \"#utility.yul\":2482:2486   */\n  dup2\n    /* \"#utility.yul\":2474:2480   */\n  dup2\n    /* \"#utility.yul\":2470:2487   */\n  add\n    /* \"#utility.yul\":2589:2595   */\n  dup2\n    /* \"#utility.yul\":2577:2587   */\n  dup2\n    /* \"#utility.yul\":2574:2596   */\n  lt\n    /* \"#utility.yul\":2553:2571   */\n  0xffffffffffffffff\n    /* \"#utility.yul\":2541:2551   */\n  dup3\n    /* \"#utility.yul\":2538:2572   */\n  gt\n    /* \"#utility.yul\":2535:2597   */\n  or\n    /* \"#utility.yul\":2532:2534   */\n  iszero\n  tag_70\n  jumpi\n    /* \"#utility.yul\":2600:2618   */\n  tag_71\n  tag_72\n  jump\t// in\ntag_71:\n    /* \"#utility.yul\":2532:2534   */\ntag_70:\n    /* \"#utility.yul\":2640:2650   */\n  dup1\n    /* \"#utility.yul\":2636:2638   */\n  0x40\n    /* \"#utility.yul\":2629:2651   */\n  mstore\n    /* \"#utility.yul\":2414:2657   */\n  pop\n  swap2\n  swap1\n  pop\n  jump\t// out\n    /* \"#utility.yul\":2663:2995   */\ntag_36:\n  0x00\n    /* \"#utility.yul\":2815:2833   */\n  0xffffffffffffffff\n    /* \"#utility.yul\":2807:2813   */\n  dup3\n    /* \"#utility.yul\":2804:2834   */\n  gt\n    /* \"#utility.yul\":2801:2803   */\n  iszero\n  tag_74\n  jumpi\n    /* \"#utility.yul\":2837:2855   */\n  tag_75\n  tag_72\n  jump\t// in\ntag_75:\n    /* \"#utility.yul\":2801:2803   */\ntag_74:\n    /* \"#utility.yul\":2922:2926   */\n  0x1f\n    /* \"#utility.yul\":2918:2927   */\n  not\n    /* \"#utility.yul\":2911:2915   */\n  0x1f\n    /* \"#utility.yul\":2903:2909   */\n  dup4\n    /* \"#utility.yul\":2899:2916   */\n  add\n    /* \"#utility.yul\":2895:2928   */\n  and\n    /* \"#utility.yul\":2887:2928   */\n  swap1\n  pop\n    /* \"#utility.yul\":2983:2987   */\n  0x20\n    /* \"#utility.yul\":2977:2981   */\n  dup2\n    /* \"#utility.yul\":2973:2988   */\n  add\n    /* \"#utility.yul\":2965:2988   */\n  swap1\n  pop\n    /* \"#utility.yul\":2730:2995   */\n  swap2\n  swap1\n  pop\n  jump\t// out\n    /* \"#utility.yul\":3001:3097   */\ntag_54:\n  0x00\n    /* \"#utility.yul\":3067:3091   */\n  tag_77\n    /* \"#utility.yul\":3085:3090   */\n  dup3\n    /* \"#utility.yul\":3067:3091   */\n  tag_78\n  jump\t// in\ntag_77:\n    /* \"#utility.yul\":3056:3091   */\n  swap1\n  pop\n    /* \"#utility.yul\":3046:3097   */\n  swap2\n  swap1\n  pop\n  jump\t// out\n    /* \"#utility.yul\":3103:3180   */\ntag_58:\n  0x00\n    /* \"#utility.yul\":3169:3174   */\n  dup2\n    /* \"#utility.yul\":3158:3174   */\n  swap1\n  pop\n    /* \"#utility.yul\":3148:3180   */\n  swap2\n  swap1\n  pop\n  jump\t// out\n    /* \"#utility.yul\":3186:3312   */\ntag_78:\n  0x00\n    /* \"#utility.yul\":3263:3305   */\n  0xffffffffffffffffffffffffffffffffffffffff\n    /* \"#utility.yul\":3256:3261   */\n  dup3\n    /* \"#utility.yul\":3252:3306   */\n  and\n    /* \"#utility.yul\":3241:3306   */\n  swap1\n  pop\n    /* \"#utility.yul\":3231:3312   */\n  swap2\n  swap1\n  pop\n  jump\t// out\n    /* \"#utility.yul\":3318:3395   */\ntag_62:\n  0x00\n    /* \"#utility.yul\":3384:3389   */\n  dup2\n    /* \"#utility.yul\":3373:3389   */\n  swap1\n  pop\n    /* \"#utility.yul\":3363:3395   */\n  swap2\n  swap1\n  pop\n  jump\t// out\n    /* \"#utility.yul\":3401:3708   */\ntag_40:\n    /* \"#utility.yul\":3469:3470   */\n  0x00\n    /* \"#utility.yul\":3479:3592   */\ntag_83:\n    /* \"#utility.yul\":3493:3499   */\n  dup4\n    /* \"#utility.yul\":3490:3491   */\n  dup2\n    /* \"#utility.yul\":3487:3500   */\n  lt\n    /* \"#utility.yul\":3479:3592   */\n  iszero\n  tag_85\n  jumpi\n    /* \"#utility.yul\":3578:3579   */\n  dup1\n    /* \"#utility.yul\":3573:3576   */\n  dup3\n    /* \"#utility.yul\":3569:3580   */\n  add\n    /* \"#utility.yul\":3563:3581   */\n  mload\n    /* \"#utility.yul\":3559:3560   */\n  dup2\n    /* \"#utility.yul\":3554:3557   */\n  dup5\n    /* \"#utility.yul\":3550:3561   */\n  add\n    /* \"#utility.yul\":3543:3582   */\n  mstore\n    /* \"#utility.yul\":3515:3517   */\n  0x20\n    /* \"#utility.yul\":3512:3513   */\n  dup2\n    /* \"#utility.yul\":3508:3518   */\n  add\n    /* \"#utility.yul\":3503:3518   */\n  swap1\n  pop\n    /* \"#utility.yul\":3479:3592   */\n  jump(tag_83)\ntag_85:\n    /* \"#utility.yul\":3610:3616   */\n  dup4\n    /* \"#utility.yul\":3607:3608   */\n  dup2\n    /* \"#utility.yul\":3604:3617   */\n  gt\n    /* \"#utility.yul\":3601:3603   */\n  iszero\n  tag_86\n  jumpi\n    /* \"#utility.yul\":3690:3691   */\n  0x00\n    /* \"#utility.yul\":3681:3687   */\n  dup5\n    /* \"#utility.yul\":3676:3679   */\n  dup5\n    /* \"#utility.yul\":3672:3688   */\n  add\n    /* \"#utility.yul\":3665:3692   */\n  mstore\n    /* \"#utility.yul\":3601:3603   */\ntag_86:\n    /* \"#utility.yul\":3450:3708   */\n  pop\n  pop\n  pop\n  pop\n  jump\t// out\n    /* \"#utility.yul\":3714:4034   */\ntag_16:\n  0x00\n    /* \"#utility.yul\":3795:3796   */\n  0x02\n    /* \"#utility.yul\":3789:3793   */\n  dup3\n    /* \"#utility.yul\":3785:3797   */\n  div\n    /* \"#utility.yul\":3775:3797   */\n  swap1\n  pop\n    /* \"#utility.yul\":3842:3843   */\n  0x01\n    /* \"#utility.yul\":3836:3840   */\n  dup3\n    /* \"#utility.yul\":3832:3844   */\n  and\n    /* \"#utility.yul\":3863:3881   */\n  dup1\n    /* \"#utility.yul\":3853:3855   */\n  tag_88\n  jumpi\n    /* \"#utility.yul\":3919:3923   */\n  0x7f\n    /* \"#utility.yul\":3911:3917   */\n  dup3\n    /* \"#utility.yul\":3907:3924   */\n  and\n    /* \"#utility.yul\":3897:3924   */\n  swap2\n  pop\n    /* \"#utility.yul\":3853:3855   */\ntag_88:\n    /* \"#utility.yul\":3981:3983   */\n  0x20\n    /* \"#utility.yul\":3973:3979   */\n  dup3\n    /* \"#utility.yul\":3970:3984   */\n  lt\n    /* \"#utility.yul\":3950:3968   */\n  dup2\n    /* \"#utility.yul\":3947:3985   */\n  eq\n    /* \"#utility.yul\":3944:3946   */\n  iszero\n  tag_89\n  jumpi\n    /* \"#utility.yul\":4000:4018   */\n  tag_90\n  tag_91\n  jump\t// in\ntag_90:\n    /* \"#utility.yul\":3944:3946   */\ntag_89:\n    /* \"#utility.yul\":3765:4034   */\n  pop\n  swap2\n  swap1\n  pop\n  jump\t// out\n    /* \"#utility.yul\":4040:4220   */\ntag_91:\n    /* \"#utility.yul\":4088:4165   */\n  0x4e487b7100000000000000000000000000000000000000000000000000000000\n    /* \"#utility.yul\":4085:4086   */\n  0x00\n    /* \"#utility.yul\":4078:4166   */\n  mstore\n    /* \"#utility.yul\":4185:4189   */\n  0x22\n    /* \"#utility.yul\":4182:4183   */\n  0x04\n    /* \"#utility.yul\":4175:4190   */\n  mstore\n    /* \"#utility.yul\":4209:4213   */\n  0x24\n    /* \"#utility.yul\":4206:4207   */\n  0x00\n    /* \"#utility.yul\":4199:4214   */\n  revert\n    /* \"#utility.yul\":4226:4406   */\ntag_72:\n    /* \"#utility.yul\":4274:4351   */\n  0x4e487b7100000000000000000000000000000000000000000000000000000000\n    /* \"#utility.yul\":4271:4272   */\n  0x00\n    /* \"#utility.yul\":4264:4352   */\n  mstore\n    /* \"#utility.yul\":4371:4375   */\n  0x41\n    /* \"#utility.yul\":4368:4369   */\n  0x04\n    /* \"#utility.yul\":4361:4376   */\n  mstore\n    /* \"#utility.yul\":4395:4399   */\n  0x24\n    /* \"#utility.yul\":4392:4393   */\n  0x00\n    /* \"#utility.yul\":4385:4400   */\n  revert\n    /* \"contracts/ERC20.sol\":81:4125  contract ERC20 is IERC20 {... */\ntag_13:\n  dataSize(sub_0)\n  dup1\n  dataOffset(sub_0)\n  0x00\n  codecopy\n  0x00\n  return\nstop\n\nsub_0: assembly {\n        /* \"contracts/ERC20.sol\":81:4125  contract ERC20 is IERC20 {... */\n      mstore(0x40, 0x80)\n      callvalue\n      dup1\n      iszero\n      tag_1\n      jumpi\n      0x00\n      dup1\n      revert\n    tag_1:\n      pop\n      jumpi(tag_2, lt(calldatasize, 0x04))\n      shr(0xe0, calldataload(0x00))\n      dup1\n      0x3644e515\n      gt\n      tag_14\n      jumpi\n      dup1\n      0x3644e515\n      eq\n      tag_8\n      jumpi\n      dup1\n      0x70a08231\n      eq\n      tag_9\n      jumpi\n      dup1\n      0x8fcbaf0c\n      eq\n      tag_10\n      jumpi\n      dup1\n      0x95d89b41\n      eq\n      tag_11\n      jumpi\n      dup1\n      0xa9059cbb\n      eq\n      tag_12\n      jumpi\n      dup1\n      0xdd62ed3e\n      eq\n      tag_13\n      jumpi\n      jump(tag_2)\n    tag_14:\n      dup1\n      0x06fdde03\n      eq\n      tag_3\n      jumpi\n      dup1\n      0x095ea7b3\n      eq\n      tag_4\n      jumpi\n      dup1\n      0x18160ddd\n      eq\n      tag_5\n      jumpi\n      dup1\n      0x23b872dd\n      eq\n      tag_6\n      jumpi\n      dup1\n      0x313ce567\n      eq\n      tag_7\n      jumpi\n    tag_2:\n      0x00\n      dup1\n      revert\n        /* \"contracts/ERC20.sol\":968:1057  function name() public view virtual returns (string memory) {... */\n    tag_3:\n      tag_15\n      tag_16\n      jump\t// in\n    tag_15:\n      mload(0x40)\n      tag_17\n      swap2\n      swap1\n      tag_18\n      jump\t// in\n    tag_17:\n      mload(0x40)\n      dup1\n      swap2\n      sub\n      swap1\n      return\n        /* \"contracts/ERC20.sol\":1503:1711  function approve(address spender, uint amount) override external returns (bool){... */\n    tag_4:\n      tag_19\n      0x04\n      dup1\n      calldatasize\n      sub\n      dup2\n      add\n      swap1\n      tag_20\n      swap2\n      swap1\n      tag_21\n      jump\t// in\n    tag_20:\n      tag_22\n      jump\t// in\n    tag_19:\n      mload(0x40)\n      tag_23\n      swap2\n      swap1\n      tag_24\n      jump\t// in\n    tag_23:\n      mload(0x40)\n      dup1\n      swap2\n      sub\n      swap1\n      return\n        /* \"contracts/ERC20.sol\":295:330  uint256 public override totalSupply */\n    tag_5:\n      tag_25\n      tag_26\n      jump\t// in\n    tag_25:\n      mload(0x40)\n      tag_27\n      swap2\n      swap1\n      tag_28\n      jump\t// in\n    tag_27:\n      mload(0x40)\n      dup1\n      swap2\n      sub\n      swap1\n      return\n        /* \"contracts/ERC20.sol\":3390:3731  function transferFrom(... */\n    tag_6:\n      tag_29\n      0x04\n      dup1\n      calldatasize\n      sub\n      dup2\n      add\n      swap1\n      tag_30\n      swap2\n      swap1\n      tag_31\n      jump\t// in\n    tag_30:\n      tag_32\n      jump\t// in\n    tag_29:\n      mload(0x40)\n      tag_33\n      swap2\n      swap1\n      tag_24\n      jump\t// in\n    tag_33:\n      mload(0x40)\n      dup1\n      swap2\n      sub\n      swap1\n      return\n        /* \"contracts/ERC20.sol\":1162:1244  function decimals() public view virtual returns (uint8) {... */\n    tag_7:\n      tag_34\n      tag_35\n      jump\t// in\n    tag_34:\n      mload(0x40)\n      tag_36\n      swap2\n      swap1\n      tag_37\n      jump\t// in\n    tag_36:\n      mload(0x40)\n      dup1\n      swap2\n      sub\n      swap1\n      return\n        /* \"contracts/ERC20.sol\":392:432  bytes32 public override DOMAIN_SEPARATOR */\n    tag_8:\n      tag_38\n      tag_39\n      jump\t// in\n    tag_38:\n      mload(0x40)\n      tag_40\n      swap2\n      swap1\n      tag_41\n      jump\t// in\n    tag_40:\n      mload(0x40)\n      dup1\n      swap2\n      sub\n      swap1\n      return\n        /* \"contracts/ERC20.sol\":112:163  mapping (address => uint) public override balanceOf */\n    tag_9:\n      tag_42\n      0x04\n      dup1\n      calldatasize\n      sub\n      dup2\n      add\n      swap1\n      tag_43\n      swap2\n      swap1\n      tag_44\n      jump\t// in\n    tag_43:\n      tag_45\n      jump\t// in\n    tag_42:\n      mload(0x40)\n      tag_46\n      swap2\n      swap1\n      tag_28\n      jump\t// in\n    tag_46:\n      mload(0x40)\n      dup1\n      swap2\n      sub\n      swap1\n      return\n        /* \"contracts/ERC20.sol\":1717:3384  function permit(... */\n    tag_10:\n      tag_47\n      0x04\n      dup1\n      calldatasize\n      sub\n      dup2\n      add\n      swap1\n      tag_48\n      swap2\n      swap1\n      tag_49\n      jump\t// in\n    tag_48:\n      tag_50\n      jump\t// in\n    tag_47:\n      stop\n        /* \"contracts/ERC20.sol\":1063:1156  function symbol() public view virtual returns (string memory) {... */\n    tag_11:\n      tag_51\n      tag_52\n      jump\t// in\n    tag_51:\n      mload(0x40)\n      tag_53\n      swap2\n      swap1\n      tag_18\n      jump\t// in\n    tag_53:\n      mload(0x40)\n      dup1\n      swap2\n      sub\n      swap1\n      return\n        /* \"contracts/ERC20.sol\":1250:1497  function transfer(address recipient, uint amount) override external returns (bool) {... */\n    tag_12:\n      tag_54\n      0x04\n      dup1\n      calldatasize\n      sub\n      dup2\n      add\n      swap1\n      tag_55\n      swap2\n      swap1\n      tag_21\n      jump\t// in\n    tag_55:\n      tag_56\n      jump\t// in\n    tag_54:\n      mload(0x40)\n      tag_57\n      swap2\n      swap1\n      tag_24\n      jump\t// in\n    tag_57:\n      mload(0x40)\n      dup1\n      swap2\n      sub\n      swap1\n      return\n        /* \"contracts/ERC20.sol\":169:238  mapping (address => mapping(address=>uint)) public override allowance */\n    tag_13:\n      tag_58\n      0x04\n      dup1\n      calldatasize\n      sub\n      dup2\n      add\n      swap1\n      tag_59\n      swap2\n      swap1\n      tag_60\n      jump\t// in\n    tag_59:\n      tag_61\n      jump\t// in\n    tag_58:\n      mload(0x40)\n      tag_62\n      swap2\n      swap1\n      tag_28\n      jump\t// in\n    tag_62:\n      mload(0x40)\n      dup1\n      swap2\n      sub\n      swap1\n      return\n        /* \"contracts/ERC20.sol\":968:1057  function name() public view virtual returns (string memory) {... */\n    tag_16:\n        /* \"contracts/ERC20.sol\":1013:1026  string memory */\n      0x60\n        /* \"contracts/ERC20.sol\":1045:1050  _name */\n      0x04\n        /* \"contracts/ERC20.sol\":1038:1050  return _name */\n      dup1\n      sload\n      tag_64\n      swap1\n      tag_65\n      jump\t// in\n    tag_64:\n      dup1\n      0x1f\n      add\n      0x20\n      dup1\n      swap2\n      div\n      mul\n      0x20\n      add\n      mload(0x40)\n      swap1\n      dup2\n      add\n      0x40\n      mstore\n      dup1\n      swap3\n      swap2\n      swap1\n      dup2\n      dup2\n      mstore\n      0x20\n      add\n      dup3\n      dup1\n      sload\n      tag_66\n      swap1\n      tag_65\n      jump\t// in\n    tag_66:\n      dup1\n      iszero\n      tag_67\n      jumpi\n      dup1\n      0x1f\n      lt\n      tag_68\n      jumpi\n      0x0100\n      dup1\n      dup4\n      sload\n      div\n      mul\n      dup4\n      mstore\n      swap2\n      0x20\n      add\n      swap2\n      jump(tag_67)\n    tag_68:\n      dup3\n      add\n      swap2\n      swap1\n      0x00\n      mstore\n      keccak256(0x00, 0x20)\n      swap1\n    tag_69:\n      dup2\n      sload\n      dup2\n      mstore\n      swap1\n      0x01\n      add\n      swap1\n      0x20\n      add\n      dup1\n      dup4\n      gt\n      tag_69\n      jumpi\n      dup3\n      swap1\n      sub\n      0x1f\n      and\n      dup3\n      add\n      swap2\n    tag_67:\n      pop\n      pop\n      pop\n      pop\n      pop\n      swap1\n      pop\n        /* \"contracts/ERC20.sol\":968:1057  function name() public view virtual returns (string memory) {... */\n      swap1\n      jump\t// out\n        /* \"contracts/ERC20.sol\":1503:1711  function approve(address spender, uint amount) override external returns (bool){... */\n    tag_22:\n        /* \"contracts/ERC20.sol\":1577:1581  bool */\n      0x00\n        /* \"contracts/ERC20.sol\":1625:1631  amount */\n      dup2\n        /* \"contracts/ERC20.sol\":1592:1601  allowance */\n      0x01\n        /* \"contracts/ERC20.sol\":1592:1613  allowance[msg.sender] */\n      0x00\n        /* \"contracts/ERC20.sol\":1602:1612  msg.sender */\n      caller\n        /* \"contracts/ERC20.sol\":1592:1613  allowance[msg.sender] */\n      0xffffffffffffffffffffffffffffffffffffffff\n      and\n      0xffffffffffffffffffffffffffffffffffffffff\n      and\n      dup2\n      mstore\n      0x20\n      add\n      swap1\n      dup2\n      mstore\n      0x20\n      add\n      0x00\n      keccak256\n        /* \"contracts/ERC20.sol\":1592:1622  allowance[msg.sender][spender] */\n      0x00\n        /* \"contracts/ERC20.sol\":1614:1621  spender */\n      dup6\n        /* \"contracts/ERC20.sol\":1592:1622  allowance[msg.sender][spender] */\n      0xffffffffffffffffffffffffffffffffffffffff\n      and\n      0xffffffffffffffffffffffffffffffffffffffff\n      and\n      dup2\n      mstore\n      0x20\n      add\n      swap1\n      dup2\n      mstore\n      0x20\n      add\n      0x00\n      keccak256\n        /* \"contracts/ERC20.sol\":1592:1631  allowance[msg.sender][spender] = amount */\n      dup2\n      swap1\n      sstore\n      pop\n        /* \"contracts/ERC20.sol\":1667:1674  spender */\n      dup3\n        /* \"contracts/ERC20.sol\":1646:1683  Approval(msg.sender, spender, amount) */\n      0xffffffffffffffffffffffffffffffffffffffff\n      and\n        /* \"contracts/ERC20.sol\":1655:1665  msg.sender */\n      caller\n        /* \"contracts/ERC20.sol\":1646:1683  Approval(msg.sender, spender, amount) */\n      0xffffffffffffffffffffffffffffffffffffffff\n      and\n      0x8c5be1e5ebec7d5bd14f71427d1e84f3dd0314c0f7b2291e5b200ac8c7c3b925\n        /* \"contracts/ERC20.sol\":1676:1682  amount */\n      dup5\n        /* \"contracts/ERC20.sol\":1646:1683  Approval(msg.sender, spender, amount) */\n      mload(0x40)\n      tag_71\n      swap2\n      swap1\n      tag_28\n      jump\t// in\n    tag_71:\n      mload(0x40)\n      dup1\n      swap2\n      sub\n      swap1\n      log3\n        /* \"contracts/ERC20.sol\":1700:1704  true */\n      0x01\n        /* \"contracts/ERC20.sol\":1693:1704  return true */\n      swap1\n      pop\n        /* \"contracts/ERC20.sol\":1503:1711  function approve(address spender, uint amount) override external returns (bool){... */\n      swap3\n      swap2\n      pop\n      pop\n      jump\t// out\n        /* \"contracts/ERC20.sol\":295:330  uint256 public override totalSupply */\n    tag_26:\n      sload(0x03)\n      dup2\n      jump\t// out\n        /* \"contracts/ERC20.sol\":3390:3731  function transferFrom(... */\n    tag_32:\n        /* \"contracts/ERC20.sol\":3521:3525  bool */\n      0x00\n        /* \"contracts/ERC20.sol\":3569:3575  amount */\n      dup2\n        /* \"contracts/ERC20.sol\":3536:3545  allowance */\n      0x01\n        /* \"contracts/ERC20.sol\":3536:3553  allowance[sender] */\n      0x00\n        /* \"contracts/ERC20.sol\":3546:3552  sender */\n      dup7\n        /* \"contracts/ERC20.sol\":3536:3553  allowance[sender] */\n      0xffffffffffffffffffffffffffffffffffffffff\n      and\n      0xffffffffffffffffffffffffffffffffffffffff\n      and\n      dup2\n      mstore\n      0x20\n      add\n      swap1\n      dup2\n      mstore\n      0x20\n      add\n      0x00\n      keccak256\n        /* \"contracts/ERC20.sol\":3536:3565  allowance[sender][msg.sender] */\n      0x00\n        /* \"contracts/ERC20.sol\":3554:3564  msg.sender */\n      caller\n        /* \"contracts/ERC20.sol\":3536:3565  allowance[sender][msg.sender] */\n      0xffffffffffffffffffffffffffffffffffffffff\n      and\n      0xffffffffffffffffffffffffffffffffffffffff\n      and\n      dup2\n      mstore\n      0x20\n      add\n      swap1\n      dup2\n      mstore\n      0x20\n      add\n      0x00\n      keccak256\n      0x00\n        /* \"contracts/ERC20.sol\":3536:3575  allowance[sender][msg.sender] -= amount */\n      dup3\n      dup3\n      sload\n      tag_73\n      swap2\n      swap1\n      tag_74\n      jump\t// in\n    tag_73:\n      swap3\n      pop\n      pop\n      dup2\n      swap1\n      sstore\n      pop\n        /* \"contracts/ERC20.sol\":3606:3612  amount */\n      dup2\n        /* \"contracts/ERC20.sol\":3585:3594  balanceOf */\n      0x00\n        /* \"contracts/ERC20.sol\":3585:3602  balanceOf[sender] */\n      dup1\n        /* \"contracts/ERC20.sol\":3595:3601  sender */\n      dup7\n        /* \"contracts/ERC20.sol\":3585:3602  balanceOf[sender] */\n      0xffffffffffffffffffffffffffffffffffffffff\n      and\n      0xffffffffffffffffffffffffffffffffffffffff\n      and\n      dup2\n      mstore\n      0x20\n      add\n      swap1\n      dup2\n      mstore\n      0x20\n      add\n      0x00\n      keccak256\n      0x00\n        /* \"contracts/ERC20.sol\":3585:3612  balanceOf[sender] -= amount */\n      dup3\n      dup3\n      sload\n      tag_75\n      swap2\n      swap1\n      tag_74\n      jump\t// in\n    tag_75:\n      swap3\n      pop\n      pop\n      dup2\n      swap1\n      sstore\n      pop\n        /* \"contracts/ERC20.sol\":3646:3652  amount */\n      dup2\n        /* \"contracts/ERC20.sol\":3622:3631  balanceOf */\n      0x00\n        /* \"contracts/ERC20.sol\":3622:3642  balanceOf[recipient] */\n      dup1\n        /* \"contracts/ERC20.sol\":3632:3641  recipient */\n      dup6\n        /* \"contracts/ERC20.sol\":3622:3642  balanceOf[recipient] */\n      0xffffffffffffffffffffffffffffffffffffffff\n      and\n      0xffffffffffffffffffffffffffffffffffffffff\n      and\n      dup2\n      mstore\n      0x20\n      add\n      swap1\n      dup2\n      mstore\n      0x20\n      add\n      0x00\n      keccak256\n      0x00\n        /* \"contracts/ERC20.sol\":3622:3652  balanceOf[recipient] += amount */\n      dup3\n      dup3\n      sload\n      tag_76\n      swap2\n      swap1\n      tag_77\n      jump\t// in\n    tag_76:\n      swap3\n      pop\n      pop\n      dup2\n      swap1\n      sstore\n      pop\n        /* \"contracts/ERC20.sol\":3685:3694  recipient */\n      dup3\n        /* \"contracts/ERC20.sol\":3668:3703  Transfer(sender, recipient, amount) */\n      0xffffffffffffffffffffffffffffffffffffffff\n      and\n        /* \"contracts/ERC20.sol\":3677:3683  sender */\n      dup5\n        /* \"contracts/ERC20.sol\":3668:3703  Transfer(sender, recipient, amount) */\n      0xffffffffffffffffffffffffffffffffffffffff\n      and\n      0xddf252ad1be2c89b69c2b068fc378daa952ba7f163c4a11628f55a4df523b3ef\n        /* \"contracts/ERC20.sol\":3696:3702  amount */\n      dup5\n        /* \"contracts/ERC20.sol\":3668:3703  Transfer(sender, recipient, amount) */\n      mload(0x40)\n      tag_78\n      swap2\n      swap1\n      tag_28\n      jump\t// in\n    tag_78:\n      mload(0x40)\n      dup1\n      swap2\n      sub\n      swap1\n      log3\n        /* \"contracts/ERC20.sol\":3720:3724  true */\n      0x01\n        /* \"contracts/ERC20.sol\":3713:3724  return true */\n      swap1\n      pop\n        /* \"contracts/ERC20.sol\":3390:3731  function transferFrom(... */\n      swap4\n      swap3\n      pop\n      pop\n      pop\n      jump\t// out\n        /* \"contracts/ERC20.sol\":1162:1244  function decimals() public view virtual returns (uint8) {... */\n    tag_35:\n        /* \"contracts/ERC20.sol\":1211:1216  uint8 */\n      0x00\n        /* \"contracts/ERC20.sol\":1235:1237  18 */\n      0x12\n        /* \"contracts/ERC20.sol\":1228:1237  return 18 */\n      swap1\n      pop\n        /* \"contracts/ERC20.sol\":1162:1244  function decimals() public view virtual returns (uint8) {... */\n      swap1\n      jump\t// out\n        /* \"contracts/ERC20.sol\":392:432  bytes32 public override DOMAIN_SEPARATOR */\n    tag_39:\n      sload(0x06)\n      dup2\n      jump\t// out\n        /* \"contracts/ERC20.sol\":112:163  mapping (address => uint) public override balanceOf */\n    tag_45:\n      mstore(0x20, 0x00)\n      dup1\n      0x00\n      mstore\n      keccak256(0x00, 0x40)\n      0x00\n      swap2\n      pop\n      swap1\n      pop\n      sload\n      dup2\n      jump\t// out\n        /* \"contracts/ERC20.sol\":1717:3384  function permit(... */\n    tag_50:\n        /* \"contracts/ERC20.sol\":2082:2100  bytes32 permitHash */\n      0x00\n        /* \"contracts/ERC20.sol\":2166:2172  0x1901 */\n      0x1901\n        /* \"contracts/ERC20.sol\":2191:2207  DOMAIN_SEPARATOR */\n      sload(0x06)\n        /* \"contracts/ERC20.sol\":2267:2359  keccak256(\"Permit(address owner,address spender,uint256 nonce,uint256 expiry,bool allowed)\") */\n      0x5988c4908d6065961d28fc0e17ec63f7a7c9b49cdcf49cc7ead7bbb6aa67016e\n        /* \"contracts/ERC20.sol\":2381:2386  owner */\n      dup12\n        /* \"contracts/ERC20.sol\":2408:2415  spender */\n      dup12\n        /* \"contracts/ERC20.sol\":2437:2442  nonce */\n      dup12\n        /* \"contracts/ERC20.sol\":2464:2472  deadline */\n      dup12\n        /* \"contracts/ERC20.sol\":2494:2501  allowed */\n      dup12\n        /* \"contracts/ERC20.sol\":2235:2523  abi.encode(... */\n      add(0x20, mload(0x40))\n      tag_81\n      swap7\n      swap6\n      swap5\n      swap4\n      swap3\n      swap2\n      swap1\n      tag_82\n      jump\t// in\n    tag_81:\n      mload(0x40)\n      0x20\n      dup2\n      dup4\n      sub\n      sub\n      dup2\n      mstore\n      swap1\n      0x40\n      mstore\n        /* \"contracts/ERC20.sol\":2225:2524  keccak256(abi.encode(... */\n      dup1\n      mload\n      swap1\n      0x20\n      add\n      keccak256\n        /* \"contracts/ERC20.sol\":2125:2534  abi.encodePacked(... */\n      add(0x20, mload(0x40))\n      tag_83\n      swap4\n      swap3\n      swap2\n      swap1\n      tag_84\n      jump\t// in\n    tag_83:\n      mload(0x40)\n      0x20\n      dup2\n      dup4\n      sub\n      sub\n      dup2\n      mstore\n      swap1\n      0x40\n      mstore\n        /* \"contracts/ERC20.sol\":2115:2535  keccak256(abi.encodePacked(... */\n      dup1\n      mload\n      swap1\n      0x20\n      add\n      keccak256\n        /* \"contracts/ERC20.sol\":2082:2535  bytes32 permitHash =... */\n      swap1\n      pop\n        /* \"contracts/ERC20.sol\":2637:2638  0 */\n      0x00\n        /* \"contracts/ERC20.sol\":2620:2639  owner != address(0) */\n      0xffffffffffffffffffffffffffffffffffffffff\n      and\n        /* \"contracts/ERC20.sol\":2620:2625  owner */\n      dup10\n        /* \"contracts/ERC20.sol\":2620:2639  owner != address(0) */\n      0xffffffffffffffffffffffffffffffffffffffff\n      and\n      eq\n      iszero\n        /* \"contracts/ERC20.sol\":2612:2675  require(owner != address(0), \"address cannot be token address\") */\n      tag_85\n      jumpi\n      mload(0x40)\n      0x08c379a000000000000000000000000000000000000000000000000000000000\n      dup2\n      mstore\n      0x04\n      add\n      tag_86\n      swap1\n      tag_87\n      jump\t// in\n    tag_86:\n      mload(0x40)\n      dup1\n      swap2\n      sub\n      swap1\n      revert\n    tag_85:\n        /* \"contracts/ERC20.sol\":2751:2781  ecrecover(permitHash, v, r, s) */\n      0x01\n        /* \"contracts/ERC20.sol\":2761:2771  permitHash */\n      dup2\n        /* \"contracts/ERC20.sol\":2773:2774  v */\n      dup6\n        /* \"contracts/ERC20.sol\":2776:2777  r */\n      dup6\n        /* \"contracts/ERC20.sol\":2779:2780  s */\n      dup6\n        /* \"contracts/ERC20.sol\":2751:2781  ecrecover(permitHash, v, r, s) */\n      mload(0x40)\n      0x00\n      dup2\n      mstore\n      0x20\n      add\n      0x40\n      mstore\n      mload(0x40)\n      tag_88\n      swap5\n      swap4\n      swap3\n      swap2\n      swap1\n      tag_89\n      jump\t// in\n    tag_88:\n      0x20\n      mload(0x40)\n      0x20\n      dup2\n      sub\n      swap1\n      dup1\n      dup5\n      sub\n      swap1\n      dup6\n      gas\n      staticcall\n      iszero\n      dup1\n      iszero\n      tag_91\n      jumpi\n      returndatasize\n      0x00\n      dup1\n      returndatacopy\n      revert(0x00, returndatasize)\n    tag_91:\n      pop\n      pop\n      pop\n      mload(sub(mload(0x40), 0x20))\n        /* \"contracts/ERC20.sol\":2742:2781  owner == ecrecover(permitHash, v, r, s) */\n      0xffffffffffffffffffffffffffffffffffffffff\n      and\n        /* \"contracts/ERC20.sol\":2742:2747  owner */\n      dup10\n        /* \"contracts/ERC20.sol\":2742:2781  owner == ecrecover(permitHash, v, r, s) */\n      0xffffffffffffffffffffffffffffffffffffffff\n      and\n      eq\n        /* \"contracts/ERC20.sol\":2734:2805  require(owner == ecrecover(permitHash, v, r, s), \"invalid permit hash\") */\n      tag_92\n      jumpi\n      mload(0x40)\n      0x08c379a000000000000000000000000000000000000000000000000000000000\n      dup2\n      mstore\n      0x04\n      add\n      tag_93\n      swap1\n      tag_94\n      jump\t// in\n    tag_93:\n      mload(0x40)\n      dup1\n      swap2\n      sub\n      swap1\n      revert\n    tag_92:\n        /* \"contracts/ERC20.sol\":2888:2889  0 */\n      0x00\n        /* \"contracts/ERC20.sol\":2876:2884  deadline */\n      dup7\n        /* \"contracts/ERC20.sol\":2876:2889  deadline == 0 */\n      eq\n        /* \"contracts/ERC20.sol\":2876:2920  deadline == 0 || block.timestamp <= deadline */\n      dup1\n      tag_95\n      jumpi\n      pop\n        /* \"contracts/ERC20.sol\":2912:2920  deadline */\n      dup6\n        /* \"contracts/ERC20.sol\":2893:2908  block.timestamp */\n      timestamp\n        /* \"contracts/ERC20.sol\":2893:2920  block.timestamp <= deadline */\n      gt\n      iszero\n        /* \"contracts/ERC20.sol\":2876:2920  deadline == 0 || block.timestamp <= deadline */\n    tag_95:\n        /* \"contracts/ERC20.sol\":2868:2949  require(deadline == 0 || block.timestamp <= deadline, \"permit timestamp expired\") */\n      tag_96\n      jumpi\n      mload(0x40)\n      0x08c379a000000000000000000000000000000000000000000000000000000000\n      dup2\n      mstore\n      0x04\n      add\n      tag_97\n      swap1\n      tag_98\n      jump\t// in\n    tag_97:\n      mload(0x40)\n      dup1\n      swap2\n      sub\n      swap1\n      revert\n    tag_96:\n        /* \"contracts/ERC20.sol\":3047:3053  nonces */\n      0x02\n        /* \"contracts/ERC20.sol\":3047:3060  nonces[owner] */\n      0x00\n        /* \"contracts/ERC20.sol\":3054:3059  owner */\n      dup11\n        /* \"contracts/ERC20.sol\":3047:3060  nonces[owner] */\n      0xffffffffffffffffffffffffffffffffffffffff\n      and\n      0xffffffffffffffffffffffffffffffffffffffff\n      and\n      dup2\n      mstore\n      0x20\n      add\n      swap1\n      dup2\n      mstore\n      0x20\n      add\n      0x00\n      keccak256\n      0x00\n        /* \"contracts/ERC20.sol\":3047:3062  nonces[owner]++ */\n      dup2\n      sload\n      dup1\n      swap3\n      swap2\n      swap1\n      tag_99\n      swap1\n      tag_100\n      jump\t// in\n    tag_99:\n      swap2\n      swap1\n      pop\n      sstore\n        /* \"contracts/ERC20.sol\":3038:3043  nonce */\n      dup8\n        /* \"contracts/ERC20.sol\":3038:3062  nonce == nonces[owner]++ */\n      eq\n        /* \"contracts/ERC20.sol\":3030:3080  require(nonce == nonces[owner]++, \"invalid nonce\") */\n      tag_101\n      jumpi\n      mload(0x40)\n      0x08c379a000000000000000000000000000000000000000000000000000000000\n      dup2\n      mstore\n      0x04\n      add\n      tag_102\n      swap1\n      tag_103\n      jump\t// in\n    tag_102:\n      mload(0x40)\n      dup1\n      swap2\n      sub\n      swap1\n      revert\n    tag_101:\n        /* \"contracts/ERC20.sol\":3165:3182  uint maxAllowance */\n      0x00\n        /* \"contracts/ERC20.sol\":3185:3199  type(uint).max */\n      0xffffffffffffffffffffffffffffffffffffffffffffffffffffffffffffffff\n        /* \"contracts/ERC20.sol\":3165:3199  uint maxAllowance = type(uint).max */\n      swap1\n      pop\n        /* \"contracts/ERC20.sol\":3311:3323  maxAllowance */\n      dup1\n        /* \"contracts/ERC20.sol\":3283:3292  allowance */\n      0x01\n        /* \"contracts/ERC20.sol\":3283:3299  allowance[owner] */\n      0x00\n        /* \"contracts/ERC20.sol\":3293:3298  owner */\n      dup13\n        /* \"contracts/ERC20.sol\":3283:3299  allowance[owner] */\n      0xffffffffffffffffffffffffffffffffffffffff\n      and\n      0xffffffffffffffffffffffffffffffffffffffff\n      and\n      dup2\n      mstore\n      0x20\n      add\n      swap1\n      dup2\n      mstore\n      0x20\n      add\n      0x00\n      keccak256\n        /* \"contracts/ERC20.sol\":3283:3308  allowance[owner][spender] */\n      0x00\n        /* \"contracts/ERC20.sol\":3300:3307  spender */\n      dup12\n        /* \"contracts/ERC20.sol\":3283:3308  allowance[owner][spender] */\n      0xffffffffffffffffffffffffffffffffffffffff\n      and\n      0xffffffffffffffffffffffffffffffffffffffff\n      and\n      dup2\n      mstore\n      0x20\n      add\n      swap1\n      dup2\n      mstore\n      0x20\n      add\n      0x00\n      keccak256\n        /* \"contracts/ERC20.sol\":3283:3323  allowance[owner][spender] = maxAllowance */\n      dup2\n      swap1\n      sstore\n      pop\n        /* \"contracts/ERC20.sol\":3355:3362  spender */\n      dup9\n        /* \"contracts/ERC20.sol\":3339:3377  Approval(owner, spender, maxAllowance) */\n      0xffffffffffffffffffffffffffffffffffffffff\n      and\n        /* \"contracts/ERC20.sol\":3348:3353  owner */\n      dup11\n        /* \"contracts/ERC20.sol\":3339:3377  Approval(owner, spender, maxAllowance) */\n      0xffffffffffffffffffffffffffffffffffffffff\n      and\n      0x8c5be1e5ebec7d5bd14f71427d1e84f3dd0314c0f7b2291e5b200ac8c7c3b925\n        /* \"contracts/ERC20.sol\":3364:3376  maxAllowance */\n      dup4\n        /* \"contracts/ERC20.sol\":3339:3377  Approval(owner, spender, maxAllowance) */\n      mload(0x40)\n      tag_104\n      swap2\n      swap1\n      tag_28\n      jump\t// in\n    tag_104:\n      mload(0x40)\n      dup1\n      swap2\n      sub\n      swap1\n      log3\n        /* \"contracts/ERC20.sol\":1717:3384  function permit(... */\n      pop\n      pop\n      pop\n      pop\n      pop\n      pop\n      pop\n      pop\n      pop\n      pop\n      jump\t// out\n        /* \"contracts/ERC20.sol\":1063:1156  function symbol() public view virtual returns (string memory) {... */\n    tag_52:\n        /* \"contracts/ERC20.sol\":1110:1123  string memory */\n      0x60\n        /* \"contracts/ERC20.sol\":1142:1149  _symbol */\n      0x05\n        /* \"contracts/ERC20.sol\":1135:1149  return _symbol */\n      dup1\n      sload\n      tag_106\n      swap1\n      tag_65\n      jump\t// in\n    tag_106:\n      dup1\n      0x1f\n      add\n      0x20\n      dup1\n      swap2\n      div\n      mul\n      0x20\n      add\n      mload(0x40)\n      swap1\n      dup2\n      add\n      0x40\n      mstore\n      dup1\n      swap3\n      swap2\n      swap1\n      dup2\n      dup2\n      mstore\n      0x20\n      add\n      dup3\n      dup1\n      sload\n      tag_107\n      swap1\n      tag_65\n      jump\t// in\n    tag_107:\n      dup1\n      iszero\n      tag_108\n      jumpi\n      dup1\n      0x1f\n      lt\n      tag_109\n      jumpi\n      0x0100\n      dup1\n      dup4\n      sload\n      div\n      mul\n      dup4\n      mstore\n      swap2\n      0x20\n      add\n      swap2\n      jump(tag_108)\n    tag_109:\n      dup3\n      add\n      swap2\n      swap1\n      0x00\n      mstore\n      keccak256(0x00, 0x20)\n      swap1\n    tag_110:\n      dup2\n      sload\n      dup2\n      mstore\n      swap1\n      0x01\n      add\n      swap1\n      0x20\n      add\n      dup1\n      dup4\n      gt\n      tag_110\n      jumpi\n      dup3\n      swap1\n      sub\n      0x1f\n      and\n      dup3\n      add\n      swap2\n    tag_108:\n      pop\n      pop\n      pop\n      pop\n      pop\n      swap1\n      pop\n        /* \"contracts/ERC20.sol\":1063:1156  function symbol() public view virtual returns (string memory) {... */\n      swap1\n      jump\t// out\n        /* \"contracts/ERC20.sol\":1250:1497  function transfer(address recipient, uint amount) override external returns (bool) {... */\n    tag_56:\n        /* \"contracts/ERC20.sol\":1327:1331  bool */\n      0x00\n        /* \"contracts/ERC20.sol\":1368:1374  amount */\n      dup2\n        /* \"contracts/ERC20.sol\":1343:1352  balanceOf */\n      0x00\n        /* \"contracts/ERC20.sol\":1343:1364  balanceOf[msg.sender] */\n      dup1\n        /* \"contracts/ERC20.sol\":1353:1363  msg.sender */\n      caller\n        /* \"contracts/ERC20.sol\":1343:1364  balanceOf[msg.sender] */\n      0xffffffffffffffffffffffffffffffffffffffff\n      and\n      0xffffffffffffffffffffffffffffffffffffffff\n      and\n      dup2\n      mstore\n      0x20\n      add\n      swap1\n      dup2\n      mstore\n      0x20\n      add\n      0x00\n      keccak256\n      0x00\n        /* \"contracts/ERC20.sol\":1343:1374  balanceOf[msg.sender] -= amount */\n      dup3\n      dup3\n      sload\n      tag_112\n      swap2\n      swap1\n      tag_74\n      jump\t// in\n    tag_112:\n      swap3\n      pop\n      pop\n      dup2\n      swap1\n      sstore\n      pop\n        /* \"contracts/ERC20.sol\":1408:1414  amount */\n      dup2\n        /* \"contracts/ERC20.sol\":1384:1393  balanceOf */\n      0x00\n        /* \"contracts/ERC20.sol\":1384:1404  balanceOf[recipient] */\n      dup1\n        /* \"contracts/ERC20.sol\":1394:1403  recipient */\n      dup6\n        /* \"contracts/ERC20.sol\":1384:1404  balanceOf[recipient] */\n      0xffffffffffffffffffffffffffffffffffffffff\n      and\n      0xffffffffffffffffffffffffffffffffffffffff\n      and\n      dup2\n      mstore\n      0x20\n      add\n      swap1\n      dup2\n      mstore\n      0x20\n      add\n      0x00\n      keccak256\n      0x00\n        /* \"contracts/ERC20.sol\":1384:1414  balanceOf[recipient] += amount */\n      dup3\n      dup3\n      sload\n      tag_113\n      swap2\n      swap1\n      tag_77\n      jump\t// in\n    tag_113:\n      swap3\n      pop\n      pop\n      dup2\n      swap1\n      sstore\n      pop\n        /* \"contracts/ERC20.sol\":1451:1460  recipient */\n      dup3\n        /* \"contracts/ERC20.sol\":1430:1469  Transfer(msg.sender, recipient, amount) */\n      0xffffffffffffffffffffffffffffffffffffffff\n      and\n        /* \"contracts/ERC20.sol\":1439:1449  msg.sender */\n      caller\n        /* \"contracts/ERC20.sol\":1430:1469  Transfer(msg.sender, recipient, amount) */\n      0xffffffffffffffffffffffffffffffffffffffff\n      and\n      0xddf252ad1be2c89b69c2b068fc378daa952ba7f163c4a11628f55a4df523b3ef\n        /* \"contracts/ERC20.sol\":1462:1468  amount */\n      dup5\n        /* \"contracts/ERC20.sol\":1430:1469  Transfer(msg.sender, recipient, amount) */\n      mload(0x40)\n      tag_114\n      swap2\n      swap1\n      tag_28\n      jump\t// in\n    tag_114:\n      mload(0x40)\n      dup1\n      swap2\n      sub\n      swap1\n      log3\n        /* \"contracts/ERC20.sol\":1486:1490  true */\n      0x01\n        /* \"contracts/ERC20.sol\":1479:1490  return true */\n      swap1\n      pop\n        /* \"contracts/ERC20.sol\":1250:1497  function transfer(address recipient, uint amount) override external returns (bool) {... */\n      swap3\n      swap2\n      pop\n      pop\n      jump\t// out\n        /* \"contracts/ERC20.sol\":169:238  mapping (address => mapping(address=>uint)) public override allowance */\n    tag_61:\n      mstore(0x20, 0x01)\n      dup2\n      0x00\n      mstore\n      mstore(0x20, keccak256(0x00, 0x40))\n      dup1\n      0x00\n      mstore\n      keccak256(0x00, 0x40)\n      0x00\n      swap2\n      pop\n      swap2\n      pop\n      pop\n      sload\n      dup2\n      jump\t// out\n        /* \"#utility.yul\":7:146   */\n    tag_116:\n      0x00\n        /* \"#utility.yul\":91:97   */\n      dup2\n        /* \"#utility.yul\":78:98   */\n      calldataload\n        /* \"#utility.yul\":69:98   */\n      swap1\n      pop\n        /* \"#utility.yul\":107:140   */\n      tag_118\n        /* \"#utility.yul\":134:139   */\n      dup2\n        /* \"#utility.yul\":107:140   */\n      tag_119\n      jump\t// in\n    tag_118:\n        /* \"#utility.yul\":59:146   */\n      swap3\n      swap2\n      pop\n      pop\n      jump\t// out\n        /* \"#utility.yul\":152:285   */\n    tag_120:\n      0x00\n        /* \"#utility.yul\":233:239   */\n      dup2\n        /* \"#utility.yul\":220:240   */\n      calldataload\n        /* \"#utility.yul\":211:240   */\n      swap1\n      pop\n        /* \"#utility.yul\":249:279   */\n      tag_122\n        /* \"#utility.yul\":273:278   */\n      dup2\n        /* \"#utility.yul\":249:279   */\n      tag_123\n      jump\t// in\n    tag_122:\n        /* \"#utility.yul\":201:285   */\n      swap3\n      swap2\n      pop\n      pop\n      jump\t// out\n        /* \"#utility.yul\":291:430   */\n    tag_124:\n      0x00\n        /* \"#utility.yul\":375:381   */\n      dup2\n        /* \"#utility.yul\":362:382   */\n      calldataload\n        /* \"#utility.yul\":353:382   */\n      swap1\n      pop\n        /* \"#utility.yul\":391:424   */\n      tag_126\n        /* \"#utility.yul\":418:423   */\n      dup2\n        /* \"#utility.yul\":391:424   */\n      tag_127\n      jump\t// in\n    tag_126:\n        /* \"#utility.yul\":343:430   */\n      swap3\n      swap2\n      pop\n      pop\n      jump\t// out\n        /* \"#utility.yul\":436:575   */\n    tag_128:\n      0x00\n        /* \"#utility.yul\":520:526   */\n      dup2\n        /* \"#utility.yul\":507:527   */\n      calldataload\n        /* \"#utility.yul\":498:527   */\n      swap1\n      pop\n        /* \"#utility.yul\":536:569   */\n      tag_130\n        /* \"#utility.yul\":563:568   */\n      dup2\n        /* \"#utility.yul\":536:569   */\n      tag_131\n      jump\t// in\n    tag_130:\n        /* \"#utility.yul\":488:575   */\n      swap3\n      swap2\n      pop\n      pop\n      jump\t// out\n        /* \"#utility.yul\":581:716   */\n    tag_132:\n      0x00\n        /* \"#utility.yul\":663:669   */\n      dup2\n        /* \"#utility.yul\":650:670   */\n      calldataload\n        /* \"#utility.yul\":641:670   */\n      swap1\n      pop\n        /* \"#utility.yul\":679:710   */\n      tag_134\n        /* \"#utility.yul\":704:709   */\n      dup2\n        /* \"#utility.yul\":679:710   */\n      tag_135\n      jump\t// in\n    tag_134:\n        /* \"#utility.yul\":631:716   */\n      swap3\n      swap2\n      pop\n      pop\n      jump\t// out\n        /* \"#utility.yul\":722:984   */\n    tag_44:\n      0x00\n        /* \"#utility.yul\":830:832   */\n      0x20\n        /* \"#utility.yul\":818:827   */\n      dup3\n        /* \"#utility.yul\":809:816   */\n      dup5\n        /* \"#utility.yul\":805:828   */\n      sub\n        /* \"#utility.yul\":801:833   */\n      slt\n        /* \"#utility.yul\":798:800   */\n      iszero\n      tag_137\n      jumpi\n        /* \"#utility.yul\":846:847   */\n      0x00\n        /* \"#utility.yul\":843:844   */\n      dup1\n        /* \"#utility.yul\":836:848   */\n      revert\n        /* \"#utility.yul\":798:800   */\n    tag_137:\n        /* \"#utility.yul\":889:890   */\n      0x00\n        /* \"#utility.yul\":914:967   */\n      tag_138\n        /* \"#utility.yul\":959:966   */\n      dup5\n        /* \"#utility.yul\":950:956   */\n      dup3\n        /* \"#utility.yul\":939:948   */\n      dup6\n        /* \"#utility.yul\":935:957   */\n      add\n        /* \"#utility.yul\":914:967   */\n      tag_116\n      jump\t// in\n    tag_138:\n        /* \"#utility.yul\":904:967   */\n      swap2\n      pop\n        /* \"#utility.yul\":860:977   */\n      pop\n        /* \"#utility.yul\":788:984   */\n      swap3\n      swap2\n      pop\n      pop\n      jump\t// out\n        /* \"#utility.yul\":990:1397   */\n    tag_60:\n      0x00\n      dup1\n        /* \"#utility.yul\":1115:1117   */\n      0x40\n        /* \"#utility.yul\":1103:1112   */\n      dup4\n        /* \"#utility.yul\":1094:1101   */\n      dup6\n        /* \"#utility.yul\":1090:1113   */\n      sub\n        /* \"#utility.yul\":1086:1118   */\n      slt\n        /* \"#utility.yul\":1083:1085   */\n      iszero\n      tag_140\n      jumpi\n        /* \"#utility.yul\":1131:1132   */\n      0x00\n        /* \"#utility.yul\":1128:1129   */\n      dup1\n        /* \"#utility.yul\":1121:1133   */\n      revert\n        /* \"#utility.yul\":1083:1085   */\n    tag_140:\n        /* \"#utility.yul\":1174:1175   */\n      0x00\n        /* \"#utility.yul\":1199:1252   */\n      tag_141\n        /* \"#utility.yul\":1244:1251   */\n      dup6\n        /* \"#utility.yul\":1235:1241   */\n      dup3\n        /* \"#utility.yul\":1224:1233   */\n      dup7\n        /* \"#utility.yul\":1220:1242   */\n      add\n        /* \"#utility.yul\":1199:1252   */\n      tag_116\n      jump\t// in\n    tag_141:\n        /* \"#utility.yul\":1189:1252   */\n      swap3\n      pop\n        /* \"#utility.yul\":1145:1262   */\n      pop\n        /* \"#utility.yul\":1301:1303   */\n      0x20\n        /* \"#utility.yul\":1327:1380   */\n      tag_142\n        /* \"#utility.yul\":1372:1379   */\n      dup6\n        /* \"#utility.yul\":1363:1369   */\n      dup3\n        /* \"#utility.yul\":1352:1361   */\n      dup7\n        /* \"#utility.yul\":1348:1370   */\n      add\n        /* \"#utility.yul\":1327:1380   */\n      tag_116\n      jump\t// in\n    tag_142:\n        /* \"#utility.yul\":1317:1380   */\n      swap2\n      pop\n        /* \"#utility.yul\":1272:1390   */\n      pop\n        /* \"#utility.yul\":1073:1397   */\n      swap3\n      pop\n      swap3\n      swap1\n      pop\n      jump\t// out\n        /* \"#utility.yul\":1403:1955   */\n    tag_31:\n      0x00\n      dup1\n      0x00\n        /* \"#utility.yul\":1545:1547   */\n      0x60\n        /* \"#utility.yul\":1533:1542   */\n      dup5\n        /* \"#utility.yul\":1524:1531   */\n      dup7\n        /* \"#utility.yul\":1520:1543   */\n      sub\n        /* \"#utility.yul\":1516:1548   */\n      slt\n        /* \"#utility.yul\":1513:1515   */\n      iszero\n      tag_144\n      jumpi\n        /* \"#utility.yul\":1561:1562   */\n      0x00\n        /* \"#utility.yul\":1558:1559   */\n      dup1\n        /* \"#utility.yul\":1551:1563   */\n      revert\n        /* \"#utility.yul\":1513:1515   */\n    tag_144:\n        /* \"#utility.yul\":1604:1605   */\n      0x00\n        /* \"#utility.yul\":1629:1682   */\n      tag_145\n        /* \"#utility.yul\":1674:1681   */\n      dup7\n        /* \"#utility.yul\":1665:1671   */\n      dup3\n        /* \"#utility.yul\":1654:1663   */\n      dup8\n        /* \"#utility.yul\":1650:1672   */\n      add\n        /* \"#utility.yul\":1629:1682   */\n      tag_116\n      jump\t// in\n    tag_145:\n        /* \"#utility.yul\":1619:1682   */\n      swap4\n      pop\n        /* \"#utility.yul\":1575:1692   */\n      pop\n        /* \"#utility.yul\":1731:1733   */\n      0x20\n        /* \"#utility.yul\":1757:1810   */\n      tag_146\n        /* \"#utility.yul\":1802:1809   */\n      dup7\n        /* \"#utility.yul\":1793:1799   */\n      dup3\n        /* \"#utility.yul\":1782:1791   */\n      dup8\n        /* \"#utility.yul\":1778:1800   */\n      add\n        /* \"#utility.yul\":1757:1810   */\n      tag_116\n      jump\t// in\n    tag_146:\n        /* \"#utility.yul\":1747:1810   */\n      swap3\n      pop\n        /* \"#utility.yul\":1702:1820   */\n      pop\n        /* \"#utility.yul\":1859:1861   */\n      0x40\n        /* \"#utility.yul\":1885:1938   */\n      tag_147\n        /* \"#utility.yul\":1930:1937   */\n      dup7\n        /* \"#utility.yul\":1921:1927   */\n      dup3\n        /* \"#utility.yul\":1910:1919   */\n      dup8\n        /* \"#utility.yul\":1906:1928   */\n      add\n        /* \"#utility.yul\":1885:1938   */\n      tag_128\n      jump\t// in\n    tag_147:\n        /* \"#utility.yul\":1875:1938   */\n      swap2\n      pop\n        /* \"#utility.yul\":1830:1948   */\n      pop\n        /* \"#utility.yul\":1503:1955   */\n      swap3\n      pop\n      swap3\n      pop\n      swap3\n      jump\t// out\n        /* \"#utility.yul\":1961:3233   */\n    tag_49:\n      0x00\n      dup1\n      0x00\n      dup1\n      0x00\n      dup1\n      0x00\n      dup1\n        /* \"#utility.yul\":2183:2186   */\n      0x0100\n        /* \"#utility.yul\":2171:2180   */\n      dup10\n        /* \"#utility.yul\":2162:2169   */\n      dup12\n        /* \"#utility.yul\":2158:2181   */\n      sub\n        /* \"#utility.yul\":2154:2187   */\n      slt\n        /* \"#utility.yul\":2151:2153   */\n      iszero\n      tag_149\n      jumpi\n        /* \"#utility.yul\":2200:2201   */\n      0x00\n        /* \"#utility.yul\":2197:2198   */\n      dup1\n        /* \"#utility.yul\":2190:2202   */\n      revert\n        /* \"#utility.yul\":2151:2153   */\n    tag_149:\n        /* \"#utility.yul\":2243:2244   */\n      0x00\n        /* \"#utility.yul\":2268:2321   */\n      tag_150\n        /* \"#utility.yul\":2313:2320   */\n      dup12\n        /* \"#utility.yul\":2304:2310   */\n      dup3\n        /* \"#utility.yul\":2293:2302   */\n      dup13\n        /* \"#utility.yul\":2289:2311   */\n      add\n        /* \"#utility.yul\":2268:2321   */\n      tag_116\n      jump\t// in\n    tag_150:\n        /* \"#utility.yul\":2258:2321   */\n      swap9\n      pop\n        /* \"#utility.yul\":2214:2331   */\n      pop\n        /* \"#utility.yul\":2370:2372   */\n      0x20\n        /* \"#utility.yul\":2396:2449   */\n      tag_151\n        /* \"#utility.yul\":2441:2448   */\n      dup12\n        /* \"#utility.yul\":2432:2438   */\n      dup3\n        /* \"#utility.yul\":2421:2430   */\n      dup13\n        /* \"#utility.yul\":2417:2439   */\n      add\n        /* \"#utility.yul\":2396:2449   */\n      tag_116\n      jump\t// in\n    tag_151:\n        /* \"#utility.yul\":2386:2449   */\n      swap8\n      pop\n        /* \"#utility.yul\":2341:2459   */\n      pop\n        /* \"#utility.yul\":2498:2500   */\n      0x40\n        /* \"#utility.yul\":2524:2577   */\n      tag_152\n        /* \"#utility.yul\":2569:2576   */\n      dup12\n        /* \"#utility.yul\":2560:2566   */\n      dup3\n        /* \"#utility.yul\":2549:2558   */\n      dup13\n        /* \"#utility.yul\":2545:2567   */\n      add\n        /* \"#utility.yul\":2524:2577   */\n      tag_128\n      jump\t// in\n    tag_152:\n        /* \"#utility.yul\":2514:2577   */\n      swap7\n      pop\n        /* \"#utility.yul\":2469:2587   */\n      pop\n        /* \"#utility.yul\":2626:2628   */\n      0x60\n        /* \"#utility.yul\":2652:2705   */\n      tag_153\n        /* \"#utility.yul\":2697:2704   */\n      dup12\n        /* \"#utility.yul\":2688:2694   */\n      dup3\n        /* \"#utility.yul\":2677:2686   */\n      dup13\n        /* \"#utility.yul\":2673:2695   */\n      add\n        /* \"#utility.yul\":2652:2705   */\n      tag_128\n      jump\t// in\n    tag_153:\n        /* \"#utility.yul\":2642:2705   */\n      swap6\n      pop\n        /* \"#utility.yul\":2597:2715   */\n      pop\n        /* \"#utility.yul\":2754:2757   */\n      0x80\n        /* \"#utility.yul\":2781:2831   */\n      tag_154\n        /* \"#utility.yul\":2823:2830   */\n      dup12\n        /* \"#utility.yul\":2814:2820   */\n      dup3\n        /* \"#utility.yul\":2803:2812   */\n      dup13\n        /* \"#utility.yul\":2799:2821   */\n      add\n        /* \"#utility.yul\":2781:2831   */\n      tag_120\n      jump\t// in\n    tag_154:\n        /* \"#utility.yul\":2771:2831   */\n      swap5\n      pop\n        /* \"#utility.yul\":2725:2841   */\n      pop\n        /* \"#utility.yul\":2880:2883   */\n      0xa0\n        /* \"#utility.yul\":2907:2958   */\n      tag_155\n        /* \"#utility.yul\":2950:2957   */\n      dup12\n        /* \"#utility.yul\":2941:2947   */\n      dup3\n        /* \"#utility.yul\":2930:2939   */\n      dup13\n        /* \"#utility.yul\":2926:2948   */\n      add\n        /* \"#utility.yul\":2907:2958   */\n      tag_132\n      jump\t// in\n    tag_155:\n        /* \"#utility.yul\":2897:2958   */\n      swap4\n      pop\n        /* \"#utility.yul\":2851:2968   */\n      pop\n        /* \"#utility.yul\":3007:3010   */\n      0xc0\n        /* \"#utility.yul\":3034:3087   */\n      tag_156\n        /* \"#utility.yul\":3079:3086   */\n      dup12\n        /* \"#utility.yul\":3070:3076   */\n      dup3\n        /* \"#utility.yul\":3059:3068   */\n      dup13\n        /* \"#utility.yul\":3055:3077   */\n      add\n        /* \"#utility.yul\":3034:3087   */\n      tag_124\n      jump\t// in\n    tag_156:\n        /* \"#utility.yul\":3024:3087   */\n      swap3\n      pop\n        /* \"#utility.yul\":2978:3097   */\n      pop\n        /* \"#utility.yul\":3136:3139   */\n      0xe0\n        /* \"#utility.yul\":3163:3216   */\n      tag_157\n        /* \"#utility.yul\":3208:3215   */\n      dup12\n        /* \"#utility.yul\":3199:3205   */\n      dup3\n        /* \"#utility.yul\":3188:3197   */\n      dup13\n        /* \"#utility.yul\":3184:3206   */\n      add\n        /* \"#utility.yul\":3163:3216   */\n      tag_124\n      jump\t// in\n    tag_157:\n        /* \"#utility.yul\":3153:3216   */\n      swap2\n      pop\n        /* \"#utility.yul\":3107:3226   */\n      pop\n        /* \"#utility.yul\":2141:3233   */\n      swap3\n      swap6\n      swap9\n      pop\n      swap3\n      swap6\n      swap9\n      swap1\n      swap4\n      swap7\n      pop\n      jump\t// out\n        /* \"#utility.yul\":3239:3646   */\n    tag_21:\n      0x00\n      dup1\n        /* \"#utility.yul\":3364:3366   */\n      0x40\n        /* \"#utility.yul\":3352:3361   */\n      dup4\n        /* \"#utility.yul\":3343:3350   */\n      dup6\n        /* \"#utility.yul\":3339:3362   */\n      sub\n        /* \"#utility.yul\":3335:3367   */\n      slt\n        /* \"#utility.yul\":3332:3334   */\n      iszero\n      tag_159\n      jumpi\n        /* \"#utility.yul\":3380:3381   */\n      0x00\n        /* \"#utility.yul\":3377:3378   */\n      dup1\n        /* \"#utility.yul\":3370:3382   */\n      revert\n        /* \"#utility.yul\":3332:3334   */\n    tag_159:\n        /* \"#utility.yul\":3423:3424   */\n      0x00\n        /* \"#utility.yul\":3448:3501   */\n      tag_160\n        /* \"#utility.yul\":3493:3500   */\n      dup6\n        /* \"#utility.yul\":3484:3490   */\n      dup3\n        /* \"#utility.yul\":3473:3482   */\n      dup7\n        /* \"#utility.yul\":3469:3491   */\n      add\n        /* \"#utility.yul\":3448:3501   */\n      tag_116\n      jump\t// in\n    tag_160:\n        /* \"#utility.yul\":3438:3501   */\n      swap3\n      pop\n        /* \"#utility.yul\":3394:3511   */\n      pop\n        /* \"#utility.yul\":3550:3552   */\n      0x20\n        /* \"#utility.yul\":3576:3629   */\n      tag_161\n        /* \"#utility.yul\":3621:3628   */\n      dup6\n        /* \"#utility.yul\":3612:3618   */\n      dup3\n        /* \"#utility.yul\":3601:3610   */\n      dup7\n        /* \"#utility.yul\":3597:3619   */\n      add\n        /* \"#utility.yul\":3576:3629   */\n      tag_128\n      jump\t// in\n    tag_161:\n        /* \"#utility.yul\":3566:3629   */\n      swap2\n      pop\n        /* \"#utility.yul\":3521:3639   */\n      pop\n        /* \"#utility.yul\":3322:3646   */\n      swap3\n      pop\n      swap3\n      swap1\n      pop\n      jump\t// out\n        /* \"#utility.yul\":3652:3770   */\n    tag_162:\n        /* \"#utility.yul\":3739:3763   */\n      tag_164\n        /* \"#utility.yul\":3757:3762   */\n      dup2\n        /* \"#utility.yul\":3739:3763   */\n      tag_165\n      jump\t// in\n    tag_164:\n        /* \"#utility.yul\":3734:3737   */\n      dup3\n        /* \"#utility.yul\":3727:3764   */\n      mstore\n        /* \"#utility.yul\":3717:3770   */\n      pop\n      pop\n      jump\t// out\n        /* \"#utility.yul\":3776:3885   */\n    tag_166:\n        /* \"#utility.yul\":3857:3878   */\n      tag_168\n        /* \"#utility.yul\":3872:3877   */\n      dup2\n        /* \"#utility.yul\":3857:3878   */\n      tag_169\n      jump\t// in\n    tag_168:\n        /* \"#utility.yul\":3852:3855   */\n      dup3\n        /* \"#utility.yul\":3845:3879   */\n      mstore\n        /* \"#utility.yul\":3835:3885   */\n      pop\n      pop\n      jump\t// out\n        /* \"#utility.yul\":3891:4009   */\n    tag_170:\n        /* \"#utility.yul\":3978:4002   */\n      tag_172\n        /* \"#utility.yul\":3996:4001   */\n      dup2\n        /* \"#utility.yul\":3978:4002   */\n      tag_173\n      jump\t// in\n    tag_172:\n        /* \"#utility.yul\":3973:3976   */\n      dup3\n        /* \"#utility.yul\":3966:4003   */\n      mstore\n        /* \"#utility.yul\":3956:4009   */\n      pop\n      pop\n      jump\t// out\n        /* \"#utility.yul\":4015:4172   */\n    tag_174:\n        /* \"#utility.yul\":4120:4165   */\n      tag_176\n        /* \"#utility.yul\":4140:4164   */\n      tag_177\n        /* \"#utility.yul\":4158:4163   */\n      dup3\n        /* \"#utility.yul\":4140:4164   */\n      tag_173\n      jump\t// in\n    tag_177:\n        /* \"#utility.yul\":4120:4165   */\n      tag_178\n      jump\t// in\n    tag_176:\n        /* \"#utility.yul\":4115:4118   */\n      dup3\n        /* \"#utility.yul\":4108:4166   */\n      mstore\n        /* \"#utility.yul\":4098:4172   */\n      pop\n      pop\n      jump\t// out\n        /* \"#utility.yul\":4178:4542   */\n    tag_179:\n      0x00\n        /* \"#utility.yul\":4294:4333   */\n      tag_181\n        /* \"#utility.yul\":4327:4332   */\n      dup3\n        /* \"#utility.yul\":4294:4333   */\n      tag_182\n      jump\t// in\n    tag_181:\n        /* \"#utility.yul\":4349:4420   */\n      tag_183\n        /* \"#utility.yul\":4413:4419   */\n      dup2\n        /* \"#utility.yul\":4408:4411   */\n      dup6\n        /* \"#utility.yul\":4349:4420   */\n      tag_184\n      jump\t// in\n    tag_183:\n        /* \"#utility.yul\":4342:4420   */\n      swap4\n      pop\n        /* \"#utility.yul\":4429:4481   */\n      tag_185\n        /* \"#utility.yul\":4474:4480   */\n      dup2\n        /* \"#utility.yul\":4469:4472   */\n      dup6\n        /* \"#utility.yul\":4462:4466   */\n      0x20\n        /* \"#utility.yul\":4455:4460   */\n      dup7\n        /* \"#utility.yul\":4451:4467   */\n      add\n        /* \"#utility.yul\":4429:4481   */\n      tag_186\n      jump\t// in\n    tag_185:\n        /* \"#utility.yul\":4506:4535   */\n      tag_187\n        /* \"#utility.yul\":4528:4534   */\n      dup2\n        /* \"#utility.yul\":4506:4535   */\n      tag_188\n      jump\t// in\n    tag_187:\n        /* \"#utility.yul\":4501:4504   */\n      dup5\n        /* \"#utility.yul\":4497:4536   */\n      add\n        /* \"#utility.yul\":4490:4536   */\n      swap2\n      pop\n        /* \"#utility.yul\":4270:4542   */\n      pop\n      swap3\n      swap2\n      pop\n      pop\n      jump\t// out\n        /* \"#utility.yul\":4548:4870   */\n    tag_189:\n      0x00\n        /* \"#utility.yul\":4711:4778   */\n      tag_191\n        /* \"#utility.yul\":4775:4777   */\n      0x18\n        /* \"#utility.yul\":4770:4773   */\n      dup4\n        /* \"#utility.yul\":4711:4778   */\n      tag_184\n      jump\t// in\n    tag_191:\n        /* \"#utility.yul\":4704:4778   */\n      swap2\n      pop\n        /* \"#utility.yul\":4808:4834   */\n      0x7065726d69742074696d657374616d7020657870697265640000000000000000\n        /* \"#utility.yul\":4804:4805   */\n      0x00\n        /* \"#utility.yul\":4799:4802   */\n      dup4\n        /* \"#utility.yul\":4795:4806   */\n      add\n        /* \"#utility.yul\":4788:4835   */\n      mstore\n        /* \"#utility.yul\":4861:4863   */\n      0x20\n        /* \"#utility.yul\":4856:4859   */\n      dup3\n        /* \"#utility.yul\":4852:4864   */\n      add\n        /* \"#utility.yul\":4845:4864   */\n      swap1\n      pop\n        /* \"#utility.yul\":4694:4870   */\n      swap2\n      swap1\n      pop\n      jump\t// out\n        /* \"#utility.yul\":4876:5187   */\n    tag_192:\n      0x00\n        /* \"#utility.yul\":5039:5106   */\n      tag_194\n        /* \"#utility.yul\":5103:5105   */\n      0x0d\n        /* \"#utility.yul\":5098:5101   */\n      dup4\n        /* \"#utility.yul\":5039:5106   */\n      tag_184\n      jump\t// in\n    tag_194:\n        /* \"#utility.yul\":5032:5106   */\n      swap2\n      pop\n        /* \"#utility.yul\":5136:5151   */\n      0x696e76616c6964206e6f6e636500000000000000000000000000000000000000\n        /* \"#utility.yul\":5132:5133   */\n      0x00\n        /* \"#utility.yul\":5127:5130   */\n      dup4\n        /* \"#utility.yul\":5123:5134   */\n      add\n        /* \"#utility.yul\":5116:5152   */\n      mstore\n        /* \"#utility.yul\":5178:5180   */\n      0x20\n        /* \"#utility.yul\":5173:5176   */\n      dup3\n        /* \"#utility.yul\":5169:5181   */\n      add\n        /* \"#utility.yul\":5162:5181   */\n      swap1\n      pop\n        /* \"#utility.yul\":5022:5187   */\n      swap2\n      swap1\n      pop\n      jump\t// out\n        /* \"#utility.yul\":5193:5510   */\n    tag_195:\n      0x00\n        /* \"#utility.yul\":5356:5423   */\n      tag_197\n        /* \"#utility.yul\":5420:5422   */\n      0x13\n        /* \"#utility.yul\":5415:5418   */\n      dup4\n        /* \"#utility.yul\":5356:5423   */\n      tag_184\n      jump\t// in\n    tag_197:\n        /* \"#utility.yul\":5349:5423   */\n      swap2\n      pop\n        /* \"#utility.yul\":5453:5474   */\n      0x696e76616c6964207065726d6974206861736800000000000000000000000000\n        /* \"#utility.yul\":5449:5450   */\n      0x00\n        /* \"#utility.yul\":5444:5447   */\n      dup4\n        /* \"#utility.yul\":5440:5451   */\n      add\n        /* \"#utility.yul\":5433:5475   */\n      mstore\n        /* \"#utility.yul\":5501:5503   */\n      0x20\n        /* \"#utility.yul\":5496:5499   */\n      dup3\n        /* \"#utility.yul\":5492:5504   */\n      add\n        /* \"#utility.yul\":5485:5504   */\n      swap1\n      pop\n        /* \"#utility.yul\":5339:5510   */\n      swap2\n      swap1\n      pop\n      jump\t// out\n        /* \"#utility.yul\":5516:5845   */\n    tag_198:\n      0x00\n        /* \"#utility.yul\":5679:5746   */\n      tag_200\n        /* \"#utility.yul\":5743:5745   */\n      0x1f\n        /* \"#utility.yul\":5738:5741   */\n      dup4\n        /* \"#utility.yul\":5679:5746   */\n      tag_184\n      jump\t// in\n    tag_200:\n        /* \"#utility.yul\":5672:5746   */\n      swap2\n      pop\n        /* \"#utility.yul\":5776:5809   */\n      0x616464726573732063616e6e6f7420626520746f6b656e206164647265737300\n        /* \"#utility.yul\":5772:5773   */\n      0x00\n        /* \"#utility.yul\":5767:5770   */\n      dup4\n        /* \"#utility.yul\":5763:5774   */\n      add\n        /* \"#utility.yul\":5756:5810   */\n      mstore\n        /* \"#utility.yul\":5836:5838   */\n      0x20\n        /* \"#utility.yul\":5831:5834   */\n      dup3\n        /* \"#utility.yul\":5827:5839   */\n      add\n        /* \"#utility.yul\":5820:5839   */\n      swap1\n      pop\n        /* \"#utility.yul\":5662:5845   */\n      swap2\n      swap1\n      pop\n      jump\t// out\n        /* \"#utility.yul\":5851:6004   */\n    tag_201:\n        /* \"#utility.yul\":5954:5997   */\n      tag_203\n        /* \"#utility.yul\":5973:5996   */\n      tag_204\n        /* \"#utility.yul\":5990:5995   */\n      dup3\n        /* \"#utility.yul\":5973:5996   */\n      tag_205\n      jump\t// in\n    tag_204:\n        /* \"#utility.yul\":5954:5997   */\n      tag_206\n      jump\t// in\n    tag_203:\n        /* \"#utility.yul\":5949:5952   */\n      dup3\n        /* \"#utility.yul\":5942:5998   */\n      mstore\n        /* \"#utility.yul\":5932:6004   */\n      pop\n      pop\n      jump\t// out\n        /* \"#utility.yul\":6010:6128   */\n    tag_207:\n        /* \"#utility.yul\":6097:6121   */\n      tag_209\n        /* \"#utility.yul\":6115:6120   */\n      dup2\n        /* \"#utility.yul\":6097:6121   */\n      tag_210\n      jump\t// in\n    tag_209:\n        /* \"#utility.yul\":6092:6095   */\n      dup3\n        /* \"#utility.yul\":6085:6122   */\n      mstore\n        /* \"#utility.yul\":6075:6128   */\n      pop\n      pop\n      jump\t// out\n        /* \"#utility.yul\":6134:6246   */\n    tag_211:\n        /* \"#utility.yul\":6217:6239   */\n      tag_213\n        /* \"#utility.yul\":6233:6238   */\n      dup2\n        /* \"#utility.yul\":6217:6239   */\n      tag_214\n      jump\t// in\n    tag_213:\n        /* \"#utility.yul\":6212:6215   */\n      dup3\n        /* \"#utility.yul\":6205:6240   */\n      mstore\n        /* \"#utility.yul\":6195:6246   */\n      pop\n      pop\n      jump\t// out\n        /* \"#utility.yul\":6252:6785   */\n    tag_84:\n      0x00\n        /* \"#utility.yul\":6433:6506   */\n      tag_216\n        /* \"#utility.yul\":6502:6505   */\n      dup3\n        /* \"#utility.yul\":6493:6499   */\n      dup7\n        /* \"#utility.yul\":6433:6506   */\n      tag_201\n      jump\t// in\n    tag_216:\n        /* \"#utility.yul\":6531:6532   */\n      0x02\n        /* \"#utility.yul\":6526:6529   */\n      dup3\n        /* \"#utility.yul\":6522:6533   */\n      add\n        /* \"#utility.yul\":6515:6533   */\n      swap2\n      pop\n        /* \"#utility.yul\":6543:6618   */\n      tag_217\n        /* \"#utility.yul\":6614:6617   */\n      dup3\n        /* \"#utility.yul\":6605:6611   */\n      dup6\n        /* \"#utility.yul\":6543:6618   */\n      tag_174\n      jump\t// in\n    tag_217:\n        /* \"#utility.yul\":6643:6645   */\n      0x20\n        /* \"#utility.yul\":6638:6641   */\n      dup3\n        /* \"#utility.yul\":6634:6646   */\n      add\n        /* \"#utility.yul\":6627:6646   */\n      swap2\n      pop\n        /* \"#utility.yul\":6656:6731   */\n      tag_218\n        /* \"#utility.yul\":6727:6730   */\n      dup3\n        /* \"#utility.yul\":6718:6724   */\n      dup5\n        /* \"#utility.yul\":6656:6731   */\n      tag_174\n      jump\t// in\n    tag_218:\n        /* \"#utility.yul\":6756:6758   */\n      0x20\n        /* \"#utility.yul\":6751:6754   */\n      dup3\n        /* \"#utility.yul\":6747:6759   */\n      add\n        /* \"#utility.yul\":6740:6759   */\n      swap2\n      pop\n        /* \"#utility.yul\":6776:6779   */\n      dup2\n        /* \"#utility.yul\":6769:6779   */\n      swap1\n      pop\n        /* \"#utility.yul\":6422:6785   */\n      swap5\n      swap4\n      pop\n      pop\n      pop\n      pop\n      jump\t// out\n        /* \"#utility.yul\":6791:7001   */\n    tag_24:\n      0x00\n        /* \"#utility.yul\":6916:6918   */\n      0x20\n        /* \"#utility.yul\":6905:6914   */\n      dup3\n        /* \"#utility.yul\":6901:6919   */\n      add\n        /* \"#utility.yul\":6893:6919   */\n      swap1\n      pop\n        /* \"#utility.yul\":6929:6994   */\n      tag_220\n        /* \"#utility.yul\":6991:6992   */\n      0x00\n        /* \"#utility.yul\":6980:6989   */\n      dup4\n        /* \"#utility.yul\":6976:6993   */\n      add\n        /* \"#utility.yul\":6967:6973   */\n      dup5\n        /* \"#utility.yul\":6929:6994   */\n      tag_166\n      jump\t// in\n    tag_220:\n        /* \"#utility.yul\":6883:7001   */\n      swap3\n      swap2\n      pop\n      pop\n      jump\t// out\n        /* \"#utility.yul\":7007:7229   */\n    tag_41:\n      0x00\n        /* \"#utility.yul\":7138:7140   */\n      0x20\n        /* \"#utility.yul\":7127:7136   */\n      dup3\n        /* \"#utility.yul\":7123:7141   */\n      add\n        /* \"#utility.yul\":7115:7141   */\n      swap1\n      pop\n        /* \"#utility.yul\":7151:7222   */\n      tag_222\n        /* \"#utility.yul\":7219:7220   */\n      0x00\n        /* \"#utility.yul\":7208:7217   */\n      dup4\n        /* \"#utility.yul\":7204:7221   */\n      add\n        /* \"#utility.yul\":7195:7201   */\n      dup5\n        /* \"#utility.yul\":7151:7222   */\n      tag_170\n      jump\t// in\n    tag_222:\n        /* \"#utility.yul\":7105:7229   */\n      swap3\n      swap2\n      pop\n      pop\n      jump\t// out\n        /* \"#utility.yul\":7235:7998   */\n    tag_82:\n      0x00\n        /* \"#utility.yul\":7500:7503   */\n      0xc0\n        /* \"#utility.yul\":7489:7498   */\n      dup3\n        /* \"#utility.yul\":7485:7504   */\n      add\n        /* \"#utility.yul\":7477:7504   */\n      swap1\n      pop\n        /* \"#utility.yul\":7514:7585   */\n      tag_224\n        /* \"#utility.yul\":7582:7583   */\n      0x00\n        /* \"#utility.yul\":7571:7580   */\n      dup4\n        /* \"#utility.yul\":7567:7584   */\n      add\n        /* \"#utility.yul\":7558:7564   */\n      dup10\n        /* \"#utility.yul\":7514:7585   */\n      tag_170\n      jump\t// in\n    tag_224:\n        /* \"#utility.yul\":7595:7667   */\n      tag_225\n        /* \"#utility.yul\":7663:7665   */\n      0x20\n        /* \"#utility.yul\":7652:7661   */\n      dup4\n        /* \"#utility.yul\":7648:7666   */\n      add\n        /* \"#utility.yul\":7639:7645   */\n      dup9\n        /* \"#utility.yul\":7595:7667   */\n      tag_162\n      jump\t// in\n    tag_225:\n        /* \"#utility.yul\":7677:7749   */\n      tag_226\n        /* \"#utility.yul\":7745:7747   */\n      0x40\n        /* \"#utility.yul\":7734:7743   */\n      dup4\n        /* \"#utility.yul\":7730:7748   */\n      add\n        /* \"#utility.yul\":7721:7727   */\n      dup8\n        /* \"#utility.yul\":7677:7749   */\n      tag_162\n      jump\t// in\n    tag_226:\n        /* \"#utility.yul\":7759:7831   */\n      tag_227\n        /* \"#utility.yul\":7827:7829   */\n      0x60\n        /* \"#utility.yul\":7816:7825   */\n      dup4\n        /* \"#utility.yul\":7812:7830   */\n      add\n        /* \"#utility.yul\":7803:7809   */\n      dup7\n        /* \"#utility.yul\":7759:7831   */\n      tag_207\n      jump\t// in\n    tag_227:\n        /* \"#utility.yul\":7841:7914   */\n      tag_228\n        /* \"#utility.yul\":7909:7912   */\n      0x80\n        /* \"#utility.yul\":7898:7907   */\n      dup4\n        /* \"#utility.yul\":7894:7913   */\n      add\n        /* \"#utility.yul\":7885:7891   */\n      dup6\n        /* \"#utility.yul\":7841:7914   */\n      tag_207\n      jump\t// in\n    tag_228:\n        /* \"#utility.yul\":7924:7991   */\n      tag_229\n        /* \"#utility.yul\":7986:7989   */\n      0xa0\n        /* \"#utility.yul\":7975:7984   */\n      dup4\n        /* \"#utility.yul\":7971:7990   */\n      add\n        /* \"#utility.yul\":7962:7968   */\n      dup5\n        /* \"#utility.yul\":7924:7991   */\n      tag_166\n      jump\t// in\n    tag_229:\n        /* \"#utility.yul\":7467:7998   */\n      swap8\n      swap7\n      pop\n      pop\n      pop\n      pop\n      pop\n      pop\n      pop\n      jump\t// out\n        /* \"#utility.yul\":8004:8549   */\n    tag_89:\n      0x00\n        /* \"#utility.yul\":8215:8218   */\n      0x80\n        /* \"#utility.yul\":8204:8213   */\n      dup3\n        /* \"#utility.yul\":8200:8219   */\n      add\n        /* \"#utility.yul\":8192:8219   */\n      swap1\n      pop\n        /* \"#utility.yul\":8229:8300   */\n      tag_231\n        /* \"#utility.yul\":8297:8298   */\n      0x00\n        /* \"#utility.yul\":8286:8295   */\n      dup4\n        /* \"#utility.yul\":8282:8299   */\n      add\n        /* \"#utility.yul\":8273:8279   */\n      dup8\n        /* \"#utility.yul\":8229:8300   */\n      tag_170\n      jump\t// in\n    tag_231:\n        /* \"#utility.yul\":8310:8378   */\n      tag_232\n        /* \"#utility.yul\":8374:8376   */\n      0x20\n        /* \"#utility.yul\":8363:8372   */\n      dup4\n        /* \"#utility.yul\":8359:8377   */\n      add\n        /* \"#utility.yul\":8350:8356   */\n      dup7\n        /* \"#utility.yul\":8310:8378   */\n      tag_211\n      jump\t// in\n    tag_232:\n        /* \"#utility.yul\":8388:8460   */\n      tag_233\n        /* \"#utility.yul\":8456:8458   */\n      0x40\n        /* \"#utility.yul\":8445:8454   */\n      dup4\n        /* \"#utility.yul\":8441:8459   */\n      add\n        /* \"#utility.yul\":8432:8438   */\n      dup6\n        /* \"#utility.yul\":8388:8460   */\n      tag_170\n      jump\t// in\n    tag_233:\n        /* \"#utility.yul\":8470:8542   */\n      tag_234\n        /* \"#utility.yul\":8538:8540   */\n      0x60\n        /* \"#utility.yul\":8527:8536   */\n      dup4\n        /* \"#utility.yul\":8523:8541   */\n      add\n        /* \"#utility.yul\":8514:8520   */\n      dup5\n        /* \"#utility.yul\":8470:8542   */\n      tag_170\n      jump\t// in\n    tag_234:\n        /* \"#utility.yul\":8182:8549   */\n      swap6\n      swap5\n      pop\n      pop\n      pop\n      pop\n      pop\n      jump\t// out\n        /* \"#utility.yul\":8555:8868   */\n    tag_18:\n      0x00\n        /* \"#utility.yul\":8706:8708   */\n      0x20\n        /* \"#utility.yul\":8695:8704   */\n      dup3\n        /* \"#utility.yul\":8691:8709   */\n      add\n        /* \"#utility.yul\":8683:8709   */\n      swap1\n      pop\n        /* \"#utility.yul\":8755:8764   */\n      dup2\n        /* \"#utility.yul\":8749:8753   */\n      dup2\n        /* \"#utility.yul\":8745:8765   */\n      sub\n        /* \"#utility.yul\":8741:8742   */\n      0x00\n        /* \"#utility.yul\":8730:8739   */\n      dup4\n        /* \"#utility.yul\":8726:8743   */\n      add\n        /* \"#utility.yul\":8719:8766   */\n      mstore\n        /* \"#utility.yul\":8783:8861   */\n      tag_236\n        /* \"#utility.yul\":8856:8860   */\n      dup2\n        /* \"#utility.yul\":8847:8853   */\n      dup5\n        /* \"#utility.yul\":8783:8861   */\n      tag_179\n      jump\t// in\n    tag_236:\n        /* \"#utility.yul\":8775:8861   */\n      swap1\n      pop\n        /* \"#utility.yul\":8673:8868   */\n      swap3\n      swap2\n      pop\n      pop\n      jump\t// out\n        /* \"#utility.yul\":8874:9293   */\n    tag_98:\n      0x00\n        /* \"#utility.yul\":9078:9080   */\n      0x20\n        /* \"#utility.yul\":9067:9076   */\n      dup3\n        /* \"#utility.yul\":9063:9081   */\n      add\n        /* \"#utility.yul\":9055:9081   */\n      swap1\n      pop\n        /* \"#utility.yul\":9127:9136   */\n      dup2\n        /* \"#utility.yul\":9121:9125   */\n      dup2\n        /* \"#utility.yul\":9117:9137   */\n      sub\n        /* \"#utility.yul\":9113:9114   */\n      0x00\n        /* \"#utility.yul\":9102:9111   */\n      dup4\n        /* \"#utility.yul\":9098:9115   */\n      add\n        /* \"#utility.yul\":9091:9138   */\n      mstore\n        /* \"#utility.yul\":9155:9286   */\n      tag_238\n        /* \"#utility.yul\":9281:9285   */\n      dup2\n        /* \"#utility.yul\":9155:9286   */\n      tag_189\n      jump\t// in\n    tag_238:\n        /* \"#utility.yul\":9147:9286   */\n      swap1\n      pop\n        /* \"#utility.yul\":9045:9293   */\n      swap2\n      swap1\n      pop\n      jump\t// out\n        /* \"#utility.yul\":9299:9718   */\n    tag_103:\n      0x00\n        /* \"#utility.yul\":9503:9505   */\n      0x20\n        /* \"#utility.yul\":9492:9501   */\n      dup3\n        /* \"#utility.yul\":9488:9506   */\n      add\n        /* \"#utility.yul\":9480:9506   */\n      swap1\n      pop\n        /* \"#utility.yul\":9552:9561   */\n      dup2\n        /* \"#utility.yul\":9546:9550   */\n      dup2\n        /* \"#utility.yul\":9542:9562   */\n      sub\n        /* \"#utility.yul\":9538:9539   */\n      0x00\n        /* \"#utility.yul\":9527:9536   */\n      dup4\n        /* \"#utility.yul\":9523:9540   */\n      add\n        /* \"#utility.yul\":9516:9563   */\n      mstore\n        /* \"#utility.yul\":9580:9711   */\n      tag_240\n        /* \"#utility.yul\":9706:9710   */\n      dup2\n        /* \"#utility.yul\":9580:9711   */\n      tag_192\n      jump\t// in\n    tag_240:\n        /* \"#utility.yul\":9572:9711   */\n      swap1\n      pop\n        /* \"#utility.yul\":9470:9718   */\n      swap2\n      swap1\n      pop\n      jump\t// out\n        /* \"#utility.yul\":9724:10143   */\n    tag_94:\n      0x00\n        /* \"#utility.yul\":9928:9930   */\n      0x20\n        /* \"#utility.yul\":9917:9926   */\n      dup3\n        /* \"#utility.yul\":9913:9931   */\n      add\n        /* \"#utility.yul\":9905:9931   */\n      swap1\n      pop\n        /* \"#utility.yul\":9977:9986   */\n      dup2\n        /* \"#utility.yul\":9971:9975   */\n      dup2\n        /* \"#utility.yul\":9967:9987   */\n      sub\n        /* \"#utility.yul\":9963:9964   */\n      0x00\n        /* \"#utility.yul\":9952:9961   */\n      dup4\n        /* \"#utility.yul\":9948:9965   */\n      add\n        /* \"#utility.yul\":9941:9988   */\n      mstore\n        /* \"#utility.yul\":10005:10136   */\n      tag_242\n        /* \"#utility.yul\":10131:10135   */\n      dup2\n        /* \"#utility.yul\":10005:10136   */\n      tag_195\n      jump\t// in\n    tag_242:\n        /* \"#utility.yul\":9997:10136   */\n      swap1\n      pop\n        /* \"#utility.yul\":9895:10143   */\n      swap2\n      swap1\n      pop\n      jump\t// out\n        /* \"#utility.yul\":10149:10568   */\n    tag_87:\n      0x00\n        /* \"#utility.yul\":10353:10355   */\n      0x20\n        /* \"#utility.yul\":10342:10351   */\n      dup3\n        /* \"#utility.yul\":10338:10356   */\n      add\n        /* \"#utility.yul\":10330:10356   */\n      swap1\n      pop\n        /* \"#utility.yul\":10402:10411   */\n      dup2\n        /* \"#utility.yul\":10396:10400   */\n      dup2\n        /* \"#utility.yul\":10392:10412   */\n      sub\n        /* \"#utility.yul\":10388:10389   */\n      0x00\n        /* \"#utility.yul\":10377:10386   */\n      dup4\n        /* \"#utility.yul\":10373:10390   */\n      add\n        /* \"#utility.yul\":10366:10413   */\n      mstore\n        /* \"#utility.yul\":10430:10561   */\n      tag_244\n        /* \"#utility.yul\":10556:10560   */\n      dup2\n        /* \"#utility.yul\":10430:10561   */\n      tag_198\n      jump\t// in\n    tag_244:\n        /* \"#utility.yul\":10422:10561   */\n      swap1\n      pop\n        /* \"#utility.yul\":10320:10568   */\n      swap2\n      swap1\n      pop\n      jump\t// out\n        /* \"#utility.yul\":10574:10796   */\n    tag_28:\n      0x00\n        /* \"#utility.yul\":10705:10707   */\n      0x20\n        /* \"#utility.yul\":10694:10703   */\n      dup3\n        /* \"#utility.yul\":10690:10708   */\n      add\n        /* \"#utility.yul\":10682:10708   */\n      swap1\n      pop\n        /* \"#utility.yul\":10718:10789   */\n      tag_246\n        /* \"#utility.yul\":10786:10787   */\n      0x00\n        /* \"#utility.yul\":10775:10784   */\n      dup4\n        /* \"#utility.yul\":10771:10788   */\n      add\n        /* \"#utility.yul\":10762:10768   */\n      dup5\n        /* \"#utility.yul\":10718:10789   */\n      tag_207\n      jump\t// in\n    tag_246:\n        /* \"#utility.yul\":10672:10796   */\n      swap3\n      swap2\n      pop\n      pop\n      jump\t// out\n        /* \"#utility.yul\":10802:11016   */\n    tag_37:\n      0x00\n        /* \"#utility.yul\":10929:10931   */\n      0x20\n        /* \"#utility.yul\":10918:10927   */\n      dup3\n        /* \"#utility.yul\":10914:10932   */\n      add\n        /* \"#utility.yul\":10906:10932   */\n      swap1\n      pop\n        /* \"#utility.yul\":10942:11009   */\n      tag_248\n        /* \"#utility.yul\":11006:11007   */\n      0x00\n        /* \"#utility.yul\":10995:11004   */\n      dup4\n        /* \"#utility.yul\":10991:11008   */\n      add\n        /* \"#utility.yul\":10982:10988   */\n      dup5\n        /* \"#utility.yul\":10942:11009   */\n      tag_211\n      jump\t// in\n    tag_248:\n        /* \"#utility.yul\":10896:11016   */\n      swap3\n      swap2\n      pop\n      pop\n      jump\t// out\n        /* \"#utility.yul\":11022:11121   */\n    tag_182:\n      0x00\n        /* \"#utility.yul\":11108:11113   */\n      dup2\n        /* \"#utility.yul\":11102:11114   */\n      mload\n        /* \"#utility.yul\":11092:11114   */\n      swap1\n      pop\n        /* \"#utility.yul\":11081:11121   */\n      swap2\n      swap1\n      pop\n      jump\t// out\n        /* \"#utility.yul\":11127:11296   */\n    tag_184:\n      0x00\n        /* \"#utility.yul\":11245:11251   */\n      dup3\n        /* \"#utility.yul\":11240:11243   */\n      dup3\n        /* \"#utility.yul\":11233:11252   */\n      mstore\n        /* \"#utility.yul\":11285:11289   */\n      0x20\n        /* \"#utility.yul\":11280:11283   */\n      dup3\n        /* \"#utility.yul\":11276:11290   */\n      add\n        /* \"#utility.yul\":11261:11290   */\n      swap1\n      pop\n        /* \"#utility.yul\":11223:11296   */\n      swap3\n      swap2\n      pop\n      pop\n      jump\t// out\n        /* \"#utility.yul\":11302:11607   */\n    tag_77:\n      0x00\n        /* \"#utility.yul\":11361:11381   */\n      tag_252\n        /* \"#utility.yul\":11379:11380   */\n      dup3\n        /* \"#utility.yul\":11361:11381   */\n      tag_210\n      jump\t// in\n    tag_252:\n        /* \"#utility.yul\":11356:11381   */\n      swap2\n      pop\n        /* \"#utility.yul\":11395:11415   */\n      tag_253\n        /* \"#utility.yul\":11413:11414   */\n      dup4\n        /* \"#utility.yul\":11395:11415   */\n      tag_210\n      jump\t// in\n    tag_253:\n        /* \"#utility.yul\":11390:11415   */\n      swap3\n      pop\n        /* \"#utility.yul\":11549:11550   */\n      dup3\n        /* \"#utility.yul\":11481:11547   */\n      0xffffffffffffffffffffffffffffffffffffffffffffffffffffffffffffffff\n        /* \"#utility.yul\":11477:11551   */\n      sub\n        /* \"#utility.yul\":11474:11475   */\n      dup3\n        /* \"#utility.yul\":11471:11552   */\n      gt\n        /* \"#utility.yul\":11468:11470   */\n      iszero\n      tag_254\n      jumpi\n        /* \"#utility.yul\":11555:11573   */\n      tag_255\n      tag_256\n      jump\t// in\n    tag_255:\n        /* \"#utility.yul\":11468:11470   */\n    tag_254:\n        /* \"#utility.yul\":11599:11600   */\n      dup3\n        /* \"#utility.yul\":11596:11597   */\n      dup3\n        /* \"#utility.yul\":11592:11601   */\n      add\n        /* \"#utility.yul\":11585:11601   */\n      swap1\n      pop\n        /* \"#utility.yul\":11346:11607   */\n      swap3\n      swap2\n      pop\n      pop\n      jump\t// out\n        /* \"#utility.yul\":11613:11804   */\n    tag_74:\n      0x00\n        /* \"#utility.yul\":11673:11693   */\n      tag_258\n        /* \"#utility.yul\":11691:11692   */\n      dup3\n        /* \"#utility.yul\":11673:11693   */\n      tag_210\n      jump\t// in\n    tag_258:\n        /* \"#utility.yul\":11668:11693   */\n      swap2\n      pop\n        /* \"#utility.yul\":11707:11727   */\n      tag_259\n        /* \"#utility.yul\":11725:11726   */\n      dup4\n        /* \"#utility.yul\":11707:11727   */\n      tag_210\n      jump\t// in\n    tag_259:\n        /* \"#utility.yul\":11702:11727   */\n      swap3\n      pop\n        /* \"#utility.yul\":11746:11747   */\n      dup3\n        /* \"#utility.yul\":11743:11744   */\n      dup3\n        /* \"#utility.yul\":11740:11748   */\n      lt\n        /* \"#utility.yul\":11737:11739   */\n      iszero\n      tag_260\n      jumpi\n        /* \"#utility.yul\":11751:11769   */\n      tag_261\n      tag_256\n      jump\t// in\n    tag_261:\n        /* \"#utility.yul\":11737:11739   */\n    tag_260:\n        /* \"#utility.yul\":11796:11797   */\n      dup3\n        /* \"#utility.yul\":11793:11794   */\n      dup3\n        /* \"#utility.yul\":11789:11798   */\n      sub\n        /* \"#utility.yul\":11781:11798   */\n      swap1\n      pop\n        /* \"#utility.yul\":11658:11804   */\n      swap3\n      swap2\n      pop\n      pop\n      jump\t// out\n        /* \"#utility.yul\":11810:11906   */\n    tag_165:\n      0x00\n        /* \"#utility.yul\":11876:11900   */\n      tag_263\n        /* \"#utility.yul\":11894:11899   */\n      dup3\n        /* \"#utility.yul\":11876:11900   */\n      tag_264\n      jump\t// in\n    tag_263:\n        /* \"#utility.yul\":11865:11900   */\n      swap1\n      pop\n        /* \"#utility.yul\":11855:11906   */\n      swap2\n      swap1\n      pop\n      jump\t// out\n        /* \"#utility.yul\":11912:12002   */\n    tag_169:\n      0x00\n        /* \"#utility.yul\":11989:11994   */\n      dup2\n        /* \"#utility.yul\":11982:11995   */\n      iszero\n        /* \"#utility.yul\":11975:11996   */\n      iszero\n        /* \"#utility.yul\":11964:11996   */\n      swap1\n      pop\n        /* \"#utility.yul\":11954:12002   */\n      swap2\n      swap1\n      pop\n      jump\t// out\n        /* \"#utility.yul\":12008:12085   */\n    tag_173:\n      0x00\n        /* \"#utility.yul\":12074:12079   */\n      dup2\n        /* \"#utility.yul\":12063:12079   */\n      swap1\n      pop\n        /* \"#utility.yul\":12053:12085   */\n      swap2\n      swap1\n      pop\n      jump\t// out\n        /* \"#utility.yul\":12091:12180   */\n    tag_205:\n      0x00\n        /* \"#utility.yul\":12167:12173   */\n      0xffff\n        /* \"#utility.yul\":12160:12165   */\n      dup3\n        /* \"#utility.yul\":12156:12174   */\n      and\n        /* \"#utility.yul\":12145:12174   */\n      swap1\n      pop\n        /* \"#utility.yul\":12135:12180   */\n      swap2\n      swap1\n      pop\n      jump\t// out\n        /* \"#utility.yul\":12186:12312   */\n    tag_264:\n      0x00\n        /* \"#utility.yul\":12263:12305   */\n      0xffffffffffffffffffffffffffffffffffffffff\n        /* \"#utility.yul\":12256:12261   */\n      dup3\n        /* \"#utility.yul\":12252:12306   */\n      and\n        /* \"#utility.yul\":12241:12306   */\n      swap1\n      pop\n        /* \"#utility.yul\":12231:12312   */\n      swap2\n      swap1\n      pop\n      jump\t// out\n        /* \"#utility.yul\":12318:12395   */\n    tag_210:\n      0x00\n        /* \"#utility.yul\":12384:12389   */\n      dup2\n        /* \"#utility.yul\":12373:12389   */\n      swap1\n      pop\n        /* \"#utility.yul\":12363:12395   */\n      swap2\n      swap1\n      pop\n      jump\t// out\n        /* \"#utility.yul\":12401:12487   */\n    tag_214:\n      0x00\n        /* \"#utility.yul\":12476:12480   */\n      0xff\n        /* \"#utility.yul\":12469:12474   */\n      dup3\n        /* \"#utility.yul\":12465:12481   */\n      and\n        /* \"#utility.yul\":12454:12481   */\n      swap1\n      pop\n        /* \"#utility.yul\":12444:12487   */\n      swap2\n      swap1\n      pop\n      jump\t// out\n        /* \"#utility.yul\":12493:12800   */\n    tag_186:\n        /* \"#utility.yul\":12561:12562   */\n      0x00\n        /* \"#utility.yul\":12571:12684   */\n    tag_272:\n        /* \"#utility.yul\":12585:12591   */\n      dup4\n        /* \"#utility.yul\":12582:12583   */\n      dup2\n        /* \"#utility.yul\":12579:12592   */\n      lt\n        /* \"#utility.yul\":12571:12684   */\n      iszero\n      tag_274\n      jumpi\n        /* \"#utility.yul\":12670:12671   */\n      dup1\n        /* \"#utility.yul\":12665:12668   */\n      dup3\n        /* \"#utility.yul\":12661:12672   */\n      add\n        /* \"#utility.yul\":12655:12673   */\n      mload\n        /* \"#utility.yul\":12651:12652   */\n      dup2\n        /* \"#utility.yul\":12646:12649   */\n      dup5\n        /* \"#utility.yul\":12642:12653   */\n      add\n        /* \"#utility.yul\":12635:12674   */\n      mstore\n        /* \"#utility.yul\":12607:12609   */\n      0x20\n        /* \"#utility.yul\":12604:12605   */\n      dup2\n        /* \"#utility.yul\":12600:12610   */\n      add\n        /* \"#utility.yul\":12595:12610   */\n      swap1\n      pop\n        /* \"#utility.yul\":12571:12684   */\n      jump(tag_272)\n    tag_274:\n        /* \"#utility.yul\":12702:12708   */\n      dup4\n        /* \"#utility.yul\":12699:12700   */\n      dup2\n        /* \"#utility.yul\":12696:12709   */\n      gt\n        /* \"#utility.yul\":12693:12695   */\n      iszero\n      tag_275\n      jumpi\n        /* \"#utility.yul\":12782:12783   */\n      0x00\n        /* \"#utility.yul\":12773:12779   */\n      dup5\n        /* \"#utility.yul\":12768:12771   */\n      dup5\n        /* \"#utility.yul\":12764:12780   */\n      add\n        /* \"#utility.yul\":12757:12784   */\n      mstore\n        /* \"#utility.yul\":12693:12695   */\n    tag_275:\n        /* \"#utility.yul\":12542:12800   */\n      pop\n      pop\n      pop\n      pop\n      jump\t// out\n        /* \"#utility.yul\":12806:13126   */\n    tag_65:\n      0x00\n        /* \"#utility.yul\":12887:12888   */\n      0x02\n        /* \"#utility.yul\":12881:12885   */\n      dup3\n        /* \"#utility.yul\":12877:12889   */\n      div\n        /* \"#utility.yul\":12867:12889   */\n      swap1\n      pop\n        /* \"#utility.yul\":12934:12935   */\n      0x01\n        /* \"#utility.yul\":12928:12932   */\n      dup3\n        /* \"#utility.yul\":12924:12936   */\n      and\n        /* \"#utility.yul\":12955:12973   */\n      dup1\n        /* \"#utility.yul\":12945:12947   */\n      tag_277\n      jumpi\n        /* \"#utility.yul\":13011:13015   */\n      0x7f\n        /* \"#utility.yul\":13003:13009   */\n      dup3\n        /* \"#utility.yul\":12999:13016   */\n      and\n        /* \"#utility.yul\":12989:13016   */\n      swap2\n      pop\n        /* \"#utility.yul\":12945:12947   */\n    tag_277:\n        /* \"#utility.yul\":13073:13075   */\n      0x20\n        /* \"#utility.yul\":13065:13071   */\n      dup3\n        /* \"#utility.yul\":13062:13076   */\n      lt\n        /* \"#utility.yul\":13042:13060   */\n      dup2\n        /* \"#utility.yul\":13039:13077   */\n      eq\n        /* \"#utility.yul\":13036:13038   */\n      iszero\n      tag_278\n      jumpi\n        /* \"#utility.yul\":13092:13110   */\n      tag_279\n      tag_280\n      jump\t// in\n    tag_279:\n        /* \"#utility.yul\":13036:13038   */\n    tag_278:\n        /* \"#utility.yul\":12857:13126   */\n      pop\n      swap2\n      swap1\n      pop\n      jump\t// out\n        /* \"#utility.yul\":13132:13365   */\n    tag_100:\n      0x00\n        /* \"#utility.yul\":13194:13218   */\n      tag_282\n        /* \"#utility.yul\":13212:13217   */\n      dup3\n        /* \"#utility.yul\":13194:13218   */\n      tag_210\n      jump\t// in\n    tag_282:\n        /* \"#utility.yul\":13185:13218   */\n      swap2\n      pop\n        /* \"#utility.yul\":13240:13306   */\n      0xffffffffffffffffffffffffffffffffffffffffffffffffffffffffffffffff\n        /* \"#utility.yul\":13233:13238   */\n      dup3\n        /* \"#utility.yul\":13230:13307   */\n      eq\n        /* \"#utility.yul\":13227:13229   */\n      iszero\n      tag_283\n      jumpi\n        /* \"#utility.yul\":13310:13328   */\n      tag_284\n      tag_256\n      jump\t// in\n    tag_284:\n        /* \"#utility.yul\":13227:13229   */\n    tag_283:\n        /* \"#utility.yul\":13357:13358   */\n      0x01\n        /* \"#utility.yul\":13350:13355   */\n      dup3\n        /* \"#utility.yul\":13346:13359   */\n      add\n        /* \"#utility.yul\":13339:13359   */\n      swap1\n      pop\n        /* \"#utility.yul\":13175:13365   */\n      swap2\n      swap1\n      pop\n      jump\t// out\n        /* \"#utility.yul\":13371:13450   */\n    tag_178:\n      0x00\n        /* \"#utility.yul\":13439:13444   */\n      dup2\n        /* \"#utility.yul\":13428:13444   */\n      swap1\n      pop\n        /* \"#utility.yul\":13418:13450   */\n      swap2\n      swap1\n      pop\n      jump\t// out\n        /* \"#utility.yul\":13456:13550   */\n    tag_206:\n      0x00\n        /* \"#utility.yul\":13523:13544   */\n      tag_287\n        /* \"#utility.yul\":13538:13543   */\n      dup3\n        /* \"#utility.yul\":13523:13544   */\n      tag_288\n      jump\t// in\n    tag_287:\n        /* \"#utility.yul\":13512:13544   */\n      swap1\n      pop\n        /* \"#utility.yul\":13502:13550   */\n      swap2\n      swap1\n      pop\n      jump\t// out\n        /* \"#utility.yul\":13556:13736   */\n    tag_256:\n        /* \"#utility.yul\":13604:13681   */\n      0x4e487b7100000000000000000000000000000000000000000000000000000000\n        /* \"#utility.yul\":13601:13602   */\n      0x00\n        /* \"#utility.yul\":13594:13682   */\n      mstore\n        /* \"#utility.yul\":13701:13705   */\n      0x11\n        /* \"#utility.yul\":13698:13699   */\n      0x04\n        /* \"#utility.yul\":13691:13706   */\n      mstore\n        /* \"#utility.yul\":13725:13729   */\n      0x24\n        /* \"#utility.yul\":13722:13723   */\n      0x00\n        /* \"#utility.yul\":13715:13730   */\n      revert\n        /* \"#utility.yul\":13742:13922   */\n    tag_280:\n        /* \"#utility.yul\":13790:13867   */\n      0x4e487b7100000000000000000000000000000000000000000000000000000000\n        /* \"#utility.yul\":13787:13788   */\n      0x00\n        /* \"#utility.yul\":13780:13868   */\n      mstore\n        /* \"#utility.yul\":13887:13891   */\n      0x22\n        /* \"#utility.yul\":13884:13885   */\n      0x04\n        /* \"#utility.yul\":13877:13892   */\n      mstore\n        /* \"#utility.yul\":13911:13915   */\n      0x24\n        /* \"#utility.yul\":13908:13909   */\n      0x00\n        /* \"#utility.yul\":13901:13916   */\n      revert\n        /* \"#utility.yul\":13928:14030   */\n    tag_188:\n      0x00\n        /* \"#utility.yul\":14020:14022   */\n      0x1f\n        /* \"#utility.yul\":14016:14023   */\n      not\n        /* \"#utility.yul\":14011:14013   */\n      0x1f\n        /* \"#utility.yul\":14004:14009   */\n      dup4\n        /* \"#utility.yul\":14000:14014   */\n      add\n        /* \"#utility.yul\":13996:14024   */\n      and\n        /* \"#utility.yul\":13986:14024   */\n      swap1\n      pop\n        /* \"#utility.yul\":13976:14030   */\n      swap2\n      swap1\n      pop\n      jump\t// out\n        /* \"#utility.yul\":14036:14132   */\n    tag_288:\n      0x00\n        /* \"#utility.yul\":14119:14124   */\n      dup2\n        /* \"#utility.yul\":14114:14117   */\n      0xf0\n        /* \"#utility.yul\":14110:14125   */\n      shl\n        /* \"#utility.yul\":14089:14125   */\n      swap1\n      pop\n        /* \"#utility.yul\":14079:14132   */\n      swap2\n      swap1\n      pop\n      jump\t// out\n        /* \"#utility.yul\":14138:14260   */\n    tag_119:\n        /* \"#utility.yul\":14211:14235   */\n      tag_294\n        /* \"#utility.yul\":14229:14234   */\n      dup2\n        /* \"#utility.yul\":14211:14235   */\n      tag_165\n      jump\t// in\n    tag_294:\n        /* \"#utility.yul\":14204:14209   */\n      dup2\n        /* \"#utility.yul\":14201:14236   */\n      eq\n        /* \"#utility.yul\":14191:14193   */\n      tag_295\n      jumpi\n        /* \"#utility.yul\":14250:14251   */\n      0x00\n        /* \"#utility.yul\":14247:14248   */\n      dup1\n        /* \"#utility.yul\":14240:14252   */\n      revert\n        /* \"#utility.yul\":14191:14193   */\n    tag_295:\n        /* \"#utility.yul\":14181:14260   */\n      pop\n      jump\t// out\n        /* \"#utility.yul\":14266:14382   */\n    tag_123:\n        /* \"#utility.yul\":14336:14357   */\n      tag_297\n        /* \"#utility.yul\":14351:14356   */\n      dup2\n        /* \"#utility.yul\":14336:14357   */\n      tag_169\n      jump\t// in\n    tag_297:\n        /* \"#utility.yul\":14329:14334   */\n      dup2\n        /* \"#utility.yul\":14326:14358   */\n      eq\n        /* \"#utility.yul\":14316:14318   */\n      tag_298\n      jumpi\n        /* \"#utility.yul\":14372:14373   */\n      0x00\n        /* \"#utility.yul\":14369:14370   */\n      dup1\n        /* \"#utility.yul\":14362:14374   */\n      revert\n        /* \"#utility.yul\":14316:14318   */\n    tag_298:\n        /* \"#utility.yul\":14306:14382   */\n      pop\n      jump\t// out\n        /* \"#utility.yul\":14388:14510   */\n    tag_127:\n        /* \"#utility.yul\":14461:14485   */\n      tag_300\n        /* \"#utility.yul\":14479:14484   */\n      dup2\n        /* \"#utility.yul\":14461:14485   */\n      tag_173\n      jump\t// in\n    tag_300:\n        /* \"#utility.yul\":14454:14459   */\n      dup2\n        /* \"#utility.yul\":14451:14486   */\n      eq\n        /* \"#utility.yul\":14441:14443   */\n      tag_301\n      jumpi\n        /* \"#utility.yul\":14500:14501   */\n      0x00\n        /* \"#utility.yul\":14497:14498   */\n      dup1\n        /* \"#utility.yul\":14490:14502   */\n      revert\n        /* \"#utility.yul\":14441:14443   */\n    tag_301:\n        /* \"#utility.yul\":14431:14510   */\n      pop\n      jump\t// out\n        /* \"#utility.yul\":14516:14638   */\n    tag_131:\n        /* \"#utility.yul\":14589:14613   */\n      tag_303\n        /* \"#utility.yul\":14607:14612   */\n      dup2\n        /* \"#utility.yul\":14589:14613   */\n      tag_210\n      jump\t// in\n    tag_303:\n        /* \"#utility.yul\":14582:14587   */\n      dup2\n        /* \"#utility.yul\":14579:14614   */\n      eq\n        /* \"#utility.yul\":14569:14571   */\n      tag_304\n      jumpi\n        /* \"#utility.yul\":14628:14629   */\n      0x00\n        /* \"#utility.yul\":14625:14626   */\n      dup1\n        /* \"#utility.yul\":14618:14630   */\n      revert\n        /* \"#utility.yul\":14569:14571   */\n    tag_304:\n        /* \"#utility.yul\":14559:14638   */\n      pop\n      jump\t// out\n        /* \"#utility.yul\":14644:14762   */\n    tag_135:\n        /* \"#utility.yul\":14715:14737   */\n      tag_306\n        /* \"#utility.yul\":14731:14736   */\n      dup2\n        /* \"#utility.yul\":14715:14737   */\n      tag_214\n      jump\t// in\n    tag_306:\n        /* \"#utility.yul\":14708:14713   */\n      dup2\n        /* \"#utility.yul\":14705:14738   */\n      eq\n        /* \"#utility.yul\":14695:14697   */\n      tag_307\n      jumpi\n        /* \"#utility.yul\":14752:14753   */\n      0x00\n        /* \"#utility.yul\":14749:14750   */\n      dup1\n        /* \"#utility.yul\":14742:14754   */\n      revert\n        /* \"#utility.yul\":14695:14697   */\n    tag_307:\n        /* \"#utility.yul\":14685:14762   */\n      pop\n      jump\t// out\n\n    auxdata: 0xa2646970667358221220d14239fab337e72cc9a8014590ff900a47acc16ba46fc0c9283df230878891a364736f6c63430008000033\n}\n",
				"bytecode": {
					"linkReferences": {},
					"object": "60806040523480156200001157600080fd5b5060405162001945380380620019458339818101604052810190620000379190620002de565b81600490805190602001906200004f929190620001bc565b50806005908051906020019062000068929190620001bc565b506000610c4590507f8b73c3c69bb8fe3d512ecc4cf759cc79239f7b179b0ffacaa9a75d522b39400f620000a16200012260201b60201c565b805190602001206040518060400160405280600181526020017f3100000000000000000000000000000000000000000000000000000000000000815250805190602001208330604051602001620000fd95949392919062000384565b604051602081830303815290604052805190602001206006819055505050506200055a565b6060600480546200013390620004c6565b80601f01602080910402602001604051908101604052809291908181526020018280546200016190620004c6565b8015620001b25780601f106200018657610100808354040283529160200191620001b2565b820191906000526020600020905b8154815290600101906020018083116200019457829003601f168201915b5050505050905090565b828054620001ca90620004c6565b90600052602060002090601f016020900481019282620001ee57600085556200023a565b82601f106200020957805160ff19168380011785556200023a565b828001600101855582156200023a579182015b82811115620002395782518255916020019190600101906200021c565b5b5090506200024991906200024d565b5090565b5b80821115620002685760008160009055506001016200024e565b5090565b6000620002836200027d8462000415565b620003e1565b9050828152602081018484840111156200029c57600080fd5b620002a984828562000490565b509392505050565b600082601f830112620002c357600080fd5b8151620002d58482602086016200026c565b91505092915050565b60008060408385031215620002f257600080fd5b600083015167ffffffffffffffff8111156200030d57600080fd5b6200031b85828601620002b1565b925050602083015167ffffffffffffffff8111156200033957600080fd5b6200034785828601620002b1565b9150509250929050565b6200035c8162000448565b82525050565b6200036d816200045c565b82525050565b6200037e8162000486565b82525050565b600060a0820190506200039b600083018862000362565b620003aa602083018762000362565b620003b9604083018662000362565b620003c8606083018562000373565b620003d7608083018462000351565b9695505050505050565b6000604051905081810181811067ffffffffffffffff821117156200040b576200040a6200052b565b5b8060405250919050565b600067ffffffffffffffff8211156200043357620004326200052b565b5b601f19601f8301169050602081019050919050565b6000620004558262000466565b9050919050565b6000819050919050565b600073ffffffffffffffffffffffffffffffffffffffff82169050919050565b6000819050919050565b60005b83811015620004b057808201518184015260208101905062000493565b83811115620004c0576000848401525b50505050565b60006002820490506001821680620004df57607f821691505b60208210811415620004f657620004f5620004fc565b5b50919050565b7f4e487b7100000000000000000000000000000000000000000000000000000000600052602260045260246000fd5b7f4e487b7100000000000000000000000000000000000000000000000000000000600052604160045260246000fd5b6113db806200056a6000396000f3fe608060405234801561001057600080fd5b50600436106100a95760003560e01c80633644e515116100715780633644e5151461016857806370a08231146101865780638fcbaf0c146101b657806395d89b41146101d2578063a9059cbb146101f0578063dd62ed3e14610220576100a9565b806306fdde03146100ae578063095ea7b3146100cc57806318160ddd146100fc57806323b872dd1461011a578063313ce5671461014a575b600080fd5b6100b6610250565b6040516100c39190611001565b60405180910390f35b6100e660048036038101906100e19190610cfa565b6102e2565b6040516100f39190610f25565b60405180910390f35b6101046103d4565b60405161011191906110a3565b60405180910390f35b610134600480360381019061012f9190610bf9565b6103da565b6040516101419190610f25565b60405180910390f35b610152610589565b60405161015f91906110be565b60405180910390f35b610170610592565b60405161017d9190610f40565b60405180910390f35b6101a0600480360381019061019b9190610b94565b610598565b6040516101ad91906110a3565b60405180910390f35b6101d060048036038101906101cb9190610c48565b6105b0565b005b6101da610959565b6040516101e79190611001565b60405180910390f35b61020a60048036038101906102059190610cfa565b6109eb565b6040516102179190610f25565b60405180910390f35b61023a60048036038101906102359190610bbd565b610b06565b60405161024791906110a3565b60405180910390f35b60606004805461025f9061121f565b80601f016020809104026020016040519081016040528092919081815260200182805461028b9061121f565b80156102d85780601f106102ad576101008083540402835291602001916102d8565b820191906000526020600020905b8154815290600101906020018083116102bb57829003601f168201915b5050505050905090565b600081600160003373ffffffffffffffffffffffffffffffffffffffff1673ffffffffffffffffffffffffffffffffffffffff16815260200190815260200160002060008573ffffffffffffffffffffffffffffffffffffffff1673ffffffffffffffffffffffffffffffffffffffff168152602001908152602001600020819055508273ffffffffffffffffffffffffffffffffffffffff163373ffffffffffffffffffffffffffffffffffffffff167f8c5be1e5ebec7d5bd14f71427d1e84f3dd0314c0f7b2291e5b200ac8c7c3b925846040516103c291906110a3565b60405180910390a36001905092915050565b60035481565b600081600160008673ffffffffffffffffffffffffffffffffffffffff1673ffffffffffffffffffffffffffffffffffffffff16815260200190815260200160002060003373ffffffffffffffffffffffffffffffffffffffff1673ffffffffffffffffffffffffffffffffffffffff1681526020019081526020016000206000828254610468919061114b565b92505081905550816000808673ffffffffffffffffffffffffffffffffffffffff1673ffffffffffffffffffffffffffffffffffffffff16815260200190815260200160002060008282546104bd919061114b565b92505081905550816000808573ffffffffffffffffffffffffffffffffffffffff1673ffffffffffffffffffffffffffffffffffffffff168152602001908152602001600020600082825461051291906110f5565b925050819055508273ffffffffffffffffffffffffffffffffffffffff168473ffffffffffffffffffffffffffffffffffffffff167fddf252ad1be2c89b69c2b068fc378daa952ba7f163c4a11628f55a4df523b3ef8460405161057691906110a3565b60405180910390a3600190509392505050565b60006012905090565b60065481565b60006020528060005260406000206000915090505481565b60006119016006547f5988c4908d6065961d28fc0e17ec63f7a7c9b49cdcf49cc7ead7bbb6aa67016e8b8b8b8b8b6040516020016105f396959493929190610f5b565b6040516020818303038152906040528051906020012060405160200161061b93929190610ee8565b604051602081830303815290604052805190602001209050600073ffffffffffffffffffffffffffffffffffffffff168973ffffffffffffffffffffffffffffffffffffffff1614156106a3576040517f08c379a000000000000000000000000000000000000000000000000000000000815260040161069a90611083565b60405180910390fd5b600181858585604051600081526020016040526040516106c69493929190610fbc565b6020604051602081039080840390855afa1580156106e8573d6000803e3d6000fd5b5050506020604051035173ffffffffffffffffffffffffffffffffffffffff168973ffffffffffffffffffffffffffffffffffffffff161461075f576040517f08c379a000000000000000000000000000000000000000000000000000000000815260040161075690611063565b60405180910390fd5b600086148061076e5750854211155b6107ad576040517f08c379a00000000000000000000000000000000000000000000000000000000081526004016107a490611023565b60405180910390fd5b600260008a73ffffffffffffffffffffffffffffffffffffffff1673ffffffffffffffffffffffffffffffffffffffff16815260200190815260200160002060008154809291906107fd90611251565b919050558714610842576040517f08c379a000000000000000000000000000000000000000000000000000000000815260040161083990611043565b60405180910390fd5b60007fffffffffffffffffffffffffffffffffffffffffffffffffffffffffffffffff905080600160008c73ffffffffffffffffffffffffffffffffffffffff1673ffffffffffffffffffffffffffffffffffffffff16815260200190815260200160002060008b73ffffffffffffffffffffffffffffffffffffffff1673ffffffffffffffffffffffffffffffffffffffff168152602001908152602001600020819055508873ffffffffffffffffffffffffffffffffffffffff168a73ffffffffffffffffffffffffffffffffffffffff167f8c5be1e5ebec7d5bd14f71427d1e84f3dd0314c0f7b2291e5b200ac8c7c3b9258360405161094591906110a3565b60405180910390a350505050505050505050565b6060600580546109689061121f565b80601f01602080910402602001604051908101604052809291908181526020018280546109949061121f565b80156109e15780601f106109b6576101008083540402835291602001916109e1565b820191906000526020600020905b8154815290600101906020018083116109c457829003601f168201915b5050505050905090565b6000816000803373ffffffffffffffffffffffffffffffffffffffff1673ffffffffffffffffffffffffffffffffffffffff1681526020019081526020016000206000828254610a3b919061114b565b92505081905550816000808573ffffffffffffffffffffffffffffffffffffffff1673ffffffffffffffffffffffffffffffffffffffff1681526020019081526020016000206000828254610a9091906110f5565b925050819055508273ffffffffffffffffffffffffffffffffffffffff163373ffffffffffffffffffffffffffffffffffffffff167fddf252ad1be2c89b69c2b068fc378daa952ba7f163c4a11628f55a4df523b3ef84604051610af491906110a3565b60405180910390a36001905092915050565b6001602052816000526040600020602052806000526040600020600091509150505481565b600081359050610b3a81611332565b92915050565b600081359050610b4f81611349565b92915050565b600081359050610b6481611360565b92915050565b600081359050610b7981611377565b92915050565b600081359050610b8e8161138e565b92915050565b600060208284031215610ba657600080fd5b6000610bb484828501610b2b565b91505092915050565b60008060408385031215610bd057600080fd5b6000610bde85828601610b2b565b9250506020610bef85828601610b2b565b9150509250929050565b600080600060608486031215610c0e57600080fd5b6000610c1c86828701610b2b565b9350506020610c2d86828701610b2b565b9250506040610c3e86828701610b6a565b9150509250925092565b600080600080600080600080610100898b031215610c6557600080fd5b6000610c738b828c01610b2b565b9850506020610c848b828c01610b2b565b9750506040610c958b828c01610b6a565b9650506060610ca68b828c01610b6a565b9550506080610cb78b828c01610b40565b94505060a0610cc88b828c01610b7f565b93505060c0610cd98b828c01610b55565b92505060e0610cea8b828c01610b55565b9150509295985092959890939650565b60008060408385031215610d0d57600080fd5b6000610d1b85828601610b2b565b9250506020610d2c85828601610b6a565b9150509250929050565b610d3f8161117f565b82525050565b610d4e81611191565b82525050565b610d5d8161119d565b82525050565b610d74610d6f8261119d565b61129a565b82525050565b6000610d85826110d9565b610d8f81856110e4565b9350610d9f8185602086016111ec565b610da881611314565b840191505092915050565b6000610dc06018836110e4565b91507f7065726d69742074696d657374616d70206578706972656400000000000000006000830152602082019050919050565b6000610e00600d836110e4565b91507f696e76616c6964206e6f6e6365000000000000000000000000000000000000006000830152602082019050919050565b6000610e406013836110e4565b91507f696e76616c6964207065726d69742068617368000000000000000000000000006000830152602082019050919050565b6000610e80601f836110e4565b91507f616464726573732063616e6e6f7420626520746f6b656e2061646472657373006000830152602082019050919050565b610ec4610ebf826111a7565b6112a4565b82525050565b610ed3816111d5565b82525050565b610ee2816111df565b82525050565b6000610ef48286610eb3565b600282019150610f048285610d63565b602082019150610f148284610d63565b602082019150819050949350505050565b6000602082019050610f3a6000830184610d45565b92915050565b6000602082019050610f556000830184610d54565b92915050565b600060c082019050610f706000830189610d54565b610f7d6020830188610d36565b610f8a6040830187610d36565b610f976060830186610eca565b610fa46080830185610eca565b610fb160a0830184610d45565b979650505050505050565b6000608082019050610fd16000830187610d54565b610fde6020830186610ed9565b610feb6040830185610d54565b610ff86060830184610d54565b95945050505050565b6000602082019050818103600083015261101b8184610d7a565b905092915050565b6000602082019050818103600083015261103c81610db3565b9050919050565b6000602082019050818103600083015261105c81610df3565b9050919050565b6000602082019050818103600083015261107c81610e33565b9050919050565b6000602082019050818103600083015261109c81610e73565b9050919050565b60006020820190506110b86000830184610eca565b92915050565b60006020820190506110d36000830184610ed9565b92915050565b600081519050919050565b600082825260208201905092915050565b6000611100826111d5565b915061110b836111d5565b9250827fffffffffffffffffffffffffffffffffffffffffffffffffffffffffffffffff038211156111405761113f6112b6565b5b828201905092915050565b6000611156826111d5565b9150611161836111d5565b925082821015611174576111736112b6565b5b828203905092915050565b600061118a826111b5565b9050919050565b60008115159050919050565b6000819050919050565b600061ffff82169050919050565b600073ffffffffffffffffffffffffffffffffffffffff82169050919050565b6000819050919050565b600060ff82169050919050565b60005b8381101561120a5780820151818401526020810190506111ef565b83811115611219576000848401525b50505050565b6000600282049050600182168061123757607f821691505b6020821081141561124b5761124a6112e5565b5b50919050565b600061125c826111d5565b91507fffffffffffffffffffffffffffffffffffffffffffffffffffffffffffffffff82141561128f5761128e6112b6565b5b600182019050919050565b6000819050919050565b60006112af82611325565b9050919050565b7f4e487b7100000000000000000000000000000000000000000000000000000000600052601160045260246000fd5b7f4e487b7100000000000000000000000000000000000000000000000000000000600052602260045260246000fd5b6000601f19601f8301169050919050565b60008160f01b9050919050565b61133b8161117f565b811461134657600080fd5b50565b61135281611191565b811461135d57600080fd5b50565b6113698161119d565b811461137457600080fd5b50565b611380816111d5565b811461138b57600080fd5b50565b611397816111df565b81146113a257600080fd5b5056fea2646970667358221220d14239fab337e72cc9a8014590ff900a47acc16ba46fc0c9283df230878891a364736f6c63430008000033",
					"opcodes": "PUSH1 0x80 PUSH1 0x40 MSTORE CALLVALUE DUP1 ISZERO PUSH3 0x11 JUMPI PUSH1 0x0 DUP1 REVERT JUMPDEST POP PUSH1 0x40 MLOAD PUSH3 0x1945 CODESIZE SUB DUP1 PUSH3 0x1945 DUP4 CODECOPY DUP2 DUP2 ADD PUSH1 0x40 MSTORE DUP2 ADD SWAP1 PUSH3 0x37 SWAP2 SWAP1 PUSH3 0x2DE JUMP JUMPDEST DUP2 PUSH1 0x4 SWAP1 DUP1 MLOAD SWAP1 PUSH1 0x20 ADD SWAP1 PUSH3 0x4F SWAP3 SWAP2 SWAP1 PUSH3 0x1BC JUMP JUMPDEST POP DUP1 PUSH1 0x5 SWAP1 DUP1 MLOAD SWAP1 PUSH1 0x20 ADD SWAP1 PUSH3 0x68 SWAP3 SWAP2 SWAP1 PUSH3 0x1BC JUMP JUMPDEST POP PUSH1 0x0 PUSH2 0xC45 SWAP1 POP PUSH32 0x8B73C3C69BB8FE3D512ECC4CF759CC79239F7B179B0FFACAA9A75D522B39400F PUSH3 0xA1 PUSH3 0x122 PUSH1 0x20 SHL PUSH1 0x20 SHR JUMP JUMPDEST DUP1 MLOAD SWAP1 PUSH1 0x20 ADD KECCAK256 PUSH1 0x40 MLOAD DUP1 PUSH1 0x40 ADD PUSH1 0x40 MSTORE DUP1 PUSH1 0x1 DUP2 MSTORE PUSH1 0x20 ADD PUSH32 0x3100000000000000000000000000000000000000000000000000000000000000 DUP2 MSTORE POP DUP1 MLOAD SWAP1 PUSH1 0x20 ADD KECCAK256 DUP4 ADDRESS PUSH1 0x40 MLOAD PUSH1 0x20 ADD PUSH3 0xFD SWAP6 SWAP5 SWAP4 SWAP3 SWAP2 SWAP1 PUSH3 0x384 JUMP JUMPDEST PUSH1 0x40 MLOAD PUSH1 0x20 DUP2 DUP4 SUB SUB DUP2 MSTORE SWAP1 PUSH1 0x40 MSTORE DUP1 MLOAD SWAP1 PUSH1 0x20 ADD KECCAK256 PUSH1 0x6 DUP2 SWAP1 SSTORE POP POP POP POP PUSH3 0x55A JUMP JUMPDEST PUSH1 0x60 PUSH1 0x4 DUP1 SLOAD PUSH3 0x133 SWAP1 PUSH3 0x4C6 JUMP JUMPDEST DUP1 PUSH1 0x1F ADD PUSH1 0x20 DUP1 SWAP2 DIV MUL PUSH1 0x20 ADD PUSH1 0x40 MLOAD SWAP1 DUP2 ADD PUSH1 0x40 MSTORE DUP1 SWAP3 SWAP2 SWAP1 DUP2 DUP2 MSTORE PUSH1 0x20 ADD DUP3 DUP1 SLOAD PUSH3 0x161 SWAP1 PUSH3 0x4C6 JUMP JUMPDEST DUP1 ISZERO PUSH3 0x1B2 JUMPI DUP1 PUSH1 0x1F LT PUSH3 0x186 JUMPI PUSH2 0x100 DUP1 DUP4 SLOAD DIV MUL DUP4 MSTORE SWAP2 PUSH1 0x20 ADD SWAP2 PUSH3 0x1B2 JUMP JUMPDEST DUP3 ADD SWAP2 SWAP1 PUSH1 0x0 MSTORE PUSH1 0x20 PUSH1 0x0 KECCAK256 SWAP1 JUMPDEST DUP2 SLOAD DUP2 MSTORE SWAP1 PUSH1 0x1 ADD SWAP1 PUSH1 0x20 ADD DUP1 DUP4 GT PUSH3 0x194 JUMPI DUP3 SWAP1 SUB PUSH1 0x1F AND DUP3 ADD SWAP2 JUMPDEST POP POP POP POP POP SWAP1 POP SWAP1 JUMP JUMPDEST DUP3 DUP1 SLOAD PUSH3 0x1CA SWAP1 PUSH3 0x4C6 JUMP JUMPDEST SWAP1 PUSH1 0x0 MSTORE PUSH1 0x20 PUSH1 0x0 KECCAK256 SWAP1 PUSH1 0x1F ADD PUSH1 0x20 SWAP1 DIV DUP2 ADD SWAP3 DUP3 PUSH3 0x1EE JUMPI PUSH1 0x0 DUP6 SSTORE PUSH3 0x23A JUMP JUMPDEST DUP3 PUSH1 0x1F LT PUSH3 0x209 JUMPI DUP1 MLOAD PUSH1 0xFF NOT AND DUP4 DUP1 ADD OR DUP6 SSTORE PUSH3 0x23A JUMP JUMPDEST DUP3 DUP1 ADD PUSH1 0x1 ADD DUP6 SSTORE DUP3 ISZERO PUSH3 0x23A JUMPI SWAP2 DUP3 ADD JUMPDEST DUP3 DUP2 GT ISZERO PUSH3 0x239 JUMPI DUP3 MLOAD DUP3 SSTORE SWAP2 PUSH1 0x20 ADD SWAP2 SWAP1 PUSH1 0x1 ADD SWAP1 PUSH3 0x21C JUMP JUMPDEST JUMPDEST POP SWAP1 POP PUSH3 0x249 SWAP2 SWAP1 PUSH3 0x24D JUMP JUMPDEST POP SWAP1 JUMP JUMPDEST JUMPDEST DUP1 DUP3 GT ISZERO PUSH3 0x268 JUMPI PUSH1 0x0 DUP2 PUSH1 0x0 SWAP1 SSTORE POP PUSH1 0x1 ADD PUSH3 0x24E JUMP JUMPDEST POP SWAP1 JUMP JUMPDEST PUSH1 0x0 PUSH3 0x283 PUSH3 0x27D DUP5 PUSH3 0x415 JUMP JUMPDEST PUSH3 0x3E1 JUMP JUMPDEST SWAP1 POP DUP3 DUP2 MSTORE PUSH1 0x20 DUP2 ADD DUP5 DUP5 DUP5 ADD GT ISZERO PUSH3 0x29C JUMPI PUSH1 0x0 DUP1 REVERT JUMPDEST PUSH3 0x2A9 DUP5 DUP3 DUP6 PUSH3 0x490 JUMP JUMPDEST POP SWAP4 SWAP3 POP POP POP JUMP JUMPDEST PUSH1 0x0 DUP3 PUSH1 0x1F DUP4 ADD SLT PUSH3 0x2C3 JUMPI PUSH1 0x0 DUP1 REVERT JUMPDEST DUP2 MLOAD PUSH3 0x2D5 DUP5 DUP3 PUSH1 0x20 DUP7 ADD PUSH3 0x26C JUMP JUMPDEST SWAP2 POP POP SWAP3 SWAP2 POP POP JUMP JUMPDEST PUSH1 0x0 DUP1 PUSH1 0x40 DUP4 DUP6 SUB SLT ISZERO PUSH3 0x2F2 JUMPI PUSH1 0x0 DUP1 REVERT JUMPDEST PUSH1 0x0 DUP4 ADD MLOAD PUSH8 0xFFFFFFFFFFFFFFFF DUP2 GT ISZERO PUSH3 0x30D JUMPI PUSH1 0x0 DUP1 REVERT JUMPDEST PUSH3 0x31B DUP6 DUP3 DUP7 ADD PUSH3 0x2B1 JUMP JUMPDEST SWAP3 POP POP PUSH1 0x20 DUP4 ADD MLOAD PUSH8 0xFFFFFFFFFFFFFFFF DUP2 GT ISZERO PUSH3 0x339 JUMPI PUSH1 0x0 DUP1 REVERT JUMPDEST PUSH3 0x347 DUP6 DUP3 DUP7 ADD PUSH3 0x2B1 JUMP JUMPDEST SWAP2 POP POP SWAP3 POP SWAP3 SWAP1 POP JUMP JUMPDEST PUSH3 0x35C DUP2 PUSH3 0x448 JUMP JUMPDEST DUP3 MSTORE POP POP JUMP JUMPDEST PUSH3 0x36D DUP2 PUSH3 0x45C JUMP JUMPDEST DUP3 MSTORE POP POP JUMP JUMPDEST PUSH3 0x37E DUP2 PUSH3 0x486 JUMP JUMPDEST DUP3 MSTORE POP POP JUMP JUMPDEST PUSH1 0x0 PUSH1 0xA0 DUP3 ADD SWAP1 POP PUSH3 0x39B PUSH1 0x0 DUP4 ADD DUP9 PUSH3 0x362 JUMP JUMPDEST PUSH3 0x3AA PUSH1 0x20 DUP4 ADD DUP8 PUSH3 0x362 JUMP JUMPDEST PUSH3 0x3B9 PUSH1 0x40 DUP4 ADD DUP7 PUSH3 0x362 JUMP JUMPDEST PUSH3 0x3C8 PUSH1 0x60 DUP4 ADD DUP6 PUSH3 0x373 JUMP JUMPDEST PUSH3 0x3D7 PUSH1 0x80 DUP4 ADD DUP5 PUSH3 0x351 JUMP JUMPDEST SWAP7 SWAP6 POP POP POP POP POP POP JUMP JUMPDEST PUSH1 0x0 PUSH1 0x40 MLOAD SWAP1 POP DUP2 DUP2 ADD DUP2 DUP2 LT PUSH8 0xFFFFFFFFFFFFFFFF DUP3 GT OR ISZERO PUSH3 0x40B JUMPI PUSH3 0x40A PUSH3 0x52B JUMP JUMPDEST JUMPDEST DUP1 PUSH1 0x40 MSTORE POP SWAP2 SWAP1 POP JUMP JUMPDEST PUSH1 0x0 PUSH8 0xFFFFFFFFFFFFFFFF DUP3 GT ISZERO PUSH3 0x433 JUMPI PUSH3 0x432 PUSH3 0x52B JUMP JUMPDEST JUMPDEST PUSH1 0x1F NOT PUSH1 0x1F DUP4 ADD AND SWAP1 POP PUSH1 0x20 DUP2 ADD SWAP1 POP SWAP2 SWAP1 POP JUMP JUMPDEST PUSH1 0x0 PUSH3 0x455 DUP3 PUSH3 0x466 JUMP JUMPDEST SWAP1 POP SWAP2 SWAP1 POP JUMP JUMPDEST PUSH1 0x0 DUP2 SWAP1 POP SWAP2 SWAP1 POP JUMP JUMPDEST PUSH1 0x0 PUSH20 0xFFFFFFFFFFFFFFFFFFFFFFFFFFFFFFFFFFFFFFFF DUP3 AND SWAP1 POP SWAP2 SWAP1 POP JUMP JUMPDEST PUSH1 0x0 DUP2 SWAP1 POP SWAP2 SWAP1 POP JUMP JUMPDEST PUSH1 0x0 JUMPDEST DUP4 DUP2 LT ISZERO PUSH3 0x4B0 JUMPI DUP1 DUP3 ADD MLOAD DUP2 DUP5 ADD MSTORE PUSH1 0x20 DUP2 ADD SWAP1 POP PUSH3 0x493 JUMP JUMPDEST DUP4 DUP2 GT ISZERO PUSH3 0x4C0 JUMPI PUSH1 0x0 DUP5 DUP5 ADD MSTORE JUMPDEST POP POP POP POP JUMP JUMPDEST PUSH1 0x0 PUSH1 0x2 DUP3 DIV SWAP1 POP PUSH1 0x1 DUP3 AND DUP1 PUSH3 0x4DF JUMPI PUSH1 0x7F DUP3 AND SWAP2 POP JUMPDEST PUSH1 0x20 DUP3 LT DUP2 EQ ISZERO PUSH3 0x4F6 JUMPI PUSH3 0x4F5 PUSH3 0x4FC JUMP JUMPDEST JUMPDEST POP SWAP2 SWAP1 POP JUMP JUMPDEST PUSH32 0x4E487B7100000000000000000000000000000000000000000000000000000000 PUSH1 0x0 MSTORE PUSH1 0x22 PUSH1 0x4 MSTORE PUSH1 0x24 PUSH1 0x0 REVERT JUMPDEST PUSH32 0x4E487B7100000000000000000000000000000000000000000000000000000000 PUSH1 0x0 MSTORE PUSH1 0x41 PUSH1 0x4 MSTORE PUSH1 0x24 PUSH1 0x0 REVERT JUMPDEST PUSH2 0x13DB DUP1 PUSH3 0x56A PUSH1 0x0 CODECOPY PUSH1 0x0 RETURN INVALID PUSH1 0x80 PUSH1 0x40 MSTORE CALLVALUE DUP1 ISZERO PUSH2 0x10 JUMPI PUSH1 0x0 DUP1 REVERT JUMPDEST POP PUSH1 0x4 CALLDATASIZE LT PUSH2 0xA9 JUMPI PUSH1 0x0 CALLDATALOAD PUSH1 0xE0 SHR DUP1 PUSH4 0x3644E515 GT PUSH2 0x71 JUMPI DUP1 PUSH4 0x3644E515 EQ PUSH2 0x168 JUMPI DUP1 PUSH4 0x70A08231 EQ PUSH2 0x186 JUMPI DUP1 PUSH4 0x8FCBAF0C EQ PUSH2 0x1B6 JUMPI DUP1 PUSH4 0x95D89B41 EQ PUSH2 0x1D2 JUMPI DUP1 PUSH4 0xA9059CBB EQ PUSH2 0x1F0 JUMPI DUP1 PUSH4 0xDD62ED3E EQ PUSH2 0x220 JUMPI PUSH2 0xA9 JUMP JUMPDEST DUP1 PUSH4 0x6FDDE03 EQ PUSH2 0xAE JUMPI DUP1 PUSH4 0x95EA7B3 EQ PUSH2 0xCC JUMPI DUP1 PUSH4 0x18160DDD EQ PUSH2 0xFC JUMPI DUP1 PUSH4 0x23B872DD EQ PUSH2 0x11A JUMPI DUP1 PUSH4 0x313CE567 EQ PUSH2 0x14A JUMPI JUMPDEST PUSH1 0x0 DUP1 REVERT JUMPDEST PUSH2 0xB6 PUSH2 0x250 JUMP JUMPDEST PUSH1 0x40 MLOAD PUSH2 0xC3 SWAP2 SWAP1 PUSH2 0x1001 JUMP JUMPDEST PUSH1 0x40 MLOAD DUP1 SWAP2 SUB SWAP1 RETURN JUMPDEST PUSH2 0xE6 PUSH1 0x4 DUP1 CALLDATASIZE SUB DUP2 ADD SWAP1 PUSH2 0xE1 SWAP2 SWAP1 PUSH2 0xCFA JUMP JUMPDEST PUSH2 0x2E2 JUMP JUMPDEST PUSH1 0x40 MLOAD PUSH2 0xF3 SWAP2 SWAP1 PUSH2 0xF25 JUMP JUMPDEST PUSH1 0x40 MLOAD DUP1 SWAP2 SUB SWAP1 RETURN JUMPDEST PUSH2 0x104 PUSH2 0x3D4 JUMP JUMPDEST PUSH1 0x40 MLOAD PUSH2 0x111 SWAP2 SWAP1 PUSH2 0x10A3 JUMP JUMPDEST PUSH1 0x40 MLOAD DUP1 SWAP2 SUB SWAP1 RETURN JUMPDEST PUSH2 0x134 PUSH1 0x4 DUP1 CALLDATASIZE SUB DUP2 ADD SWAP1 PUSH2 0x12F SWAP2 SWAP1 PUSH2 0xBF9 JUMP JUMPDEST PUSH2 0x3DA JUMP JUMPDEST PUSH1 0x40 MLOAD PUSH2 0x141 SWAP2 SWAP1 PUSH2 0xF25 JUMP JUMPDEST PUSH1 0x40 MLOAD DUP1 SWAP2 SUB SWAP1 RETURN JUMPDEST PUSH2 0x152 PUSH2 0x589 JUMP JUMPDEST PUSH1 0x40 MLOAD PUSH2 0x15F SWAP2 SWAP1 PUSH2 0x10BE JUMP JUMPDEST PUSH1 0x40 MLOAD DUP1 SWAP2 SUB SWAP1 RETURN JUMPDEST PUSH2 0x170 PUSH2 0x592 JUMP JUMPDEST PUSH1 0x40 MLOAD PUSH2 0x17D SWAP2 SWAP1 PUSH2 0xF40 JUMP JUMPDEST PUSH1 0x40 MLOAD DUP1 SWAP2 SUB SWAP1 RETURN JUMPDEST PUSH2 0x1A0 PUSH1 0x4 DUP1 CALLDATASIZE SUB DUP2 ADD SWAP1 PUSH2 0x19B SWAP2 SWAP1 PUSH2 0xB94 JUMP JUMPDEST PUSH2 0x598 JUMP JUMPDEST PUSH1 0x40 MLOAD PUSH2 0x1AD SWAP2 SWAP1 PUSH2 0x10A3 JUMP JUMPDEST PUSH1 0x40 MLOAD DUP1 SWAP2 SUB SWAP1 RETURN JUMPDEST PUSH2 0x1D0 PUSH1 0x4 DUP1 CALLDATASIZE SUB DUP2 ADD SWAP1 PUSH2 0x1CB SWAP2 SWAP1 PUSH2 0xC48 JUMP JUMPDEST PUSH2 0x5B0 JUMP JUMPDEST STOP JUMPDEST PUSH2 0x1DA PUSH2 0x959 JUMP JUMPDEST PUSH1 0x40 MLOAD PUSH2 0x1E7 SWAP2 SWAP1 PUSH2 0x1001 JUMP JUMPDEST PUSH1 0x40 MLOAD DUP1 SWAP2 SUB SWAP1 RETURN JUMPDEST PUSH2 0x20A PUSH1 0x4 DUP1 CALLDATASIZE SUB DUP2 ADD SWAP1 PUSH2 0x205 SWAP2 SWAP1 PUSH2 0xCFA JUMP JUMPDEST PUSH2 0x9EB JUMP JUMPDEST PUSH1 0x40 MLOAD PUSH2 0x217 SWAP2 SWAP1 PUSH2 0xF25 JUMP JUMPDEST PUSH1 0x40 MLOAD DUP1 SWAP2 SUB SWAP1 RETURN JUMPDEST PUSH2 0x23A PUSH1 0x4 DUP1 CALLDATASIZE SUB DUP2 ADD SWAP1 PUSH2 0x235 SWAP2 SWAP1 PUSH2 0xBBD JUMP JUMPDEST PUSH2 0xB06 JUMP JUMPDEST PUSH1 0x40 MLOAD PUSH2 0x247 SWAP2 SWAP1 PUSH2 0x10A3 JUMP JUMPDEST PUSH1 0x40 MLOAD DUP1 SWAP2 SUB SWAP1 RETURN JUMPDEST PUSH1 0x60 PUSH1 0x4 DUP1 SLOAD PUSH2 0x25F SWAP1 PUSH2 0x121F JUMP JUMPDEST DUP1 PUSH1 0x1F ADD PUSH1 0x20 DUP1 SWAP2 DIV MUL PUSH1 0x20 ADD PUSH1 0x40 MLOAD SWAP1 DUP2 ADD PUSH1 0x40 MSTORE DUP1 SWAP3 SWAP2 SWAP1 DUP2 DUP2 MSTORE PUSH1 0x20 ADD DUP3 DUP1 SLOAD PUSH2 0x28B SWAP1 PUSH2 0x121F JUMP JUMPDEST DUP1 ISZERO PUSH2 0x2D8 JUMPI DUP1 PUSH1 0x1F LT PUSH2 0x2AD JUMPI PUSH2 0x100 DUP1 DUP4 SLOAD DIV MUL DUP4 MSTORE SWAP2 PUSH1 0x20 ADD SWAP2 PUSH2 0x2D8 JUMP JUMPDEST DUP3 ADD SWAP2 SWAP1 PUSH1 0x0 MSTORE PUSH1 0x20 PUSH1 0x0 KECCAK256 SWAP1 JUMPDEST DUP2 SLOAD DUP2 MSTORE SWAP1 PUSH1 0x1 ADD SWAP1 PUSH1 0x20 ADD DUP1 DUP4 GT PUSH2 0x2BB JUMPI DUP3 SWAP1 SUB PUSH1 0x1F AND DUP3 ADD SWAP2 JUMPDEST POP POP POP POP POP SWAP1 POP SWAP1 JUMP JUMPDEST PUSH1 0x0 DUP2 PUSH1 0x1 PUSH1 0x0 CALLER PUSH20 0xFFFFFFFFFFFFFFFFFFFFFFFFFFFFFFFFFFFFFFFF AND PUSH20 0xFFFFFFFFFFFFFFFFFFFFFFFFFFFFFFFFFFFFFFFF AND DUP2 MSTORE PUSH1 0x20 ADD SWAP1 DUP2 MSTORE PUSH1 0x20 ADD PUSH1 0x0 KECCAK256 PUSH1 0x0 DUP6 PUSH20 0xFFFFFFFFFFFFFFFFFFFFFFFFFFFFFFFFFFFFFFFF AND PUSH20 0xFFFFFFFFFFFFFFFFFFFFFFFFFFFFFFFFFFFFFFFF AND DUP2 MSTORE PUSH1 0x20 ADD SWAP1 DUP2 MSTORE PUSH1 0x20 ADD PUSH1 0x0 KECCAK256 DUP2 SWAP1 SSTORE POP DUP3 PUSH20 0xFFFFFFFFFFFFFFFFFFFFFFFFFFFFFFFFFFFFFFFF AND CALLER PUSH20 0xFFFFFFFFFFFFFFFFFFFFFFFFFFFFFFFFFFFFFFFF AND PUSH32 0x8C5BE1E5EBEC7D5BD14F71427D1E84F3DD0314C0F7B2291E5B200AC8C7C3B925 DUP5 PUSH1 0x40 MLOAD PUSH2 0x3C2 SWAP2 SWAP1 PUSH2 0x10A3 JUMP JUMPDEST PUSH1 0x40 MLOAD DUP1 SWAP2 SUB SWAP1 LOG3 PUSH1 0x1 SWAP1 POP SWAP3 SWAP2 POP POP JUMP JUMPDEST PUSH1 0x3 SLOAD DUP2 JUMP JUMPDEST PUSH1 0x0 DUP2 PUSH1 0x1 PUSH1 0x0 DUP7 PUSH20 0xFFFFFFFFFFFFFFFFFFFFFFFFFFFFFFFFFFFFFFFF AND PUSH20 0xFFFFFFFFFFFFFFFFFFFFFFFFFFFFFFFFFFFFFFFF AND DUP2 MSTORE PUSH1 0x20 ADD SWAP1 DUP2 MSTORE PUSH1 0x20 ADD PUSH1 0x0 KECCAK256 PUSH1 0x0 CALLER PUSH20 0xFFFFFFFFFFFFFFFFFFFFFFFFFFFFFFFFFFFFFFFF AND PUSH20 0xFFFFFFFFFFFFFFFFFFFFFFFFFFFFFFFFFFFFFFFF AND DUP2 MSTORE PUSH1 0x20 ADD SWAP1 DUP2 MSTORE PUSH1 0x20 ADD PUSH1 0x0 KECCAK256 PUSH1 0x0 DUP3 DUP3 SLOAD PUSH2 0x468 SWAP2 SWAP1 PUSH2 0x114B JUMP JUMPDEST SWAP3 POP POP DUP2 SWAP1 SSTORE POP DUP2 PUSH1 0x0 DUP1 DUP7 PUSH20 0xFFFFFFFFFFFFFFFFFFFFFFFFFFFFFFFFFFFFFFFF AND PUSH20 0xFFFFFFFFFFFFFFFFFFFFFFFFFFFFFFFFFFFFFFFF AND DUP2 MSTORE PUSH1 0x20 ADD SWAP1 DUP2 MSTORE PUSH1 0x20 ADD PUSH1 0x0 KECCAK256 PUSH1 0x0 DUP3 DUP3 SLOAD PUSH2 0x4BD SWAP2 SWAP1 PUSH2 0x114B JUMP JUMPDEST SWAP3 POP POP DUP2 SWAP1 SSTORE POP DUP2 PUSH1 0x0 DUP1 DUP6 PUSH20 0xFFFFFFFFFFFFFFFFFFFFFFFFFFFFFFFFFFFFFFFF AND PUSH20 0xFFFFFFFFFFFFFFFFFFFFFFFFFFFFFFFFFFFFFFFF AND DUP2 MSTORE PUSH1 0x20 ADD SWAP1 DUP2 MSTORE PUSH1 0x20 ADD PUSH1 0x0 KECCAK256 PUSH1 0x0 DUP3 DUP3 SLOAD PUSH2 0x512 SWAP2 SWAP1 PUSH2 0x10F5 JUMP JUMPDEST SWAP3 POP POP DUP2 SWAP1 SSTORE POP DUP3 PUSH20 0xFFFFFFFFFFFFFFFFFFFFFFFFFFFFFFFFFFFFFFFF AND DUP5 PUSH20 0xFFFFFFFFFFFFFFFFFFFFFFFFFFFFFFFFFFFFFFFF AND PUSH32 0xDDF252AD1BE2C89B69C2B068FC378DAA952BA7F163C4A11628F55A4DF523B3EF DUP5 PUSH1 0x40 MLOAD PUSH2 0x576 SWAP2 SWAP1 PUSH2 0x10A3 JUMP JUMPDEST PUSH1 0x40 MLOAD DUP1 SWAP2 SUB SWAP1 LOG3 PUSH1 0x1 SWAP1 POP SWAP4 SWAP3 POP POP POP JUMP JUMPDEST PUSH1 0x0 PUSH1 0x12 SWAP1 POP SWAP1 JUMP JUMPDEST PUSH1 0x6 SLOAD DUP2 JUMP JUMPDEST PUSH1 0x0 PUSH1 0x20 MSTORE DUP1 PUSH1 0x0 MSTORE PUSH1 0x40 PUSH1 0x0 KECCAK256 PUSH1 0x0 SWAP2 POP SWAP1 POP SLOAD DUP2 JUMP JUMPDEST PUSH1 0x0 PUSH2 0x1901 PUSH1 0x6 SLOAD PUSH32 0x5988C4908D6065961D28FC0E17EC63F7A7C9B49CDCF49CC7EAD7BBB6AA67016E DUP12 DUP12 DUP12 DUP12 DUP12 PUSH1 0x40 MLOAD PUSH1 0x20 ADD PUSH2 0x5F3 SWAP7 SWAP6 SWAP5 SWAP4 SWAP3 SWAP2 SWAP1 PUSH2 0xF5B JUMP JUMPDEST PUSH1 0x40 MLOAD PUSH1 0x20 DUP2 DUP4 SUB SUB DUP2 MSTORE SWAP1 PUSH1 0x40 MSTORE DUP1 MLOAD SWAP1 PUSH1 0x20 ADD KECCAK256 PUSH1 0x40 MLOAD PUSH1 0x20 ADD PUSH2 0x61B SWAP4 SWAP3 SWAP2 SWAP1 PUSH2 0xEE8 JUMP JUMPDEST PUSH1 0x40 MLOAD PUSH1 0x20 DUP2 DUP4 SUB SUB DUP2 MSTORE SWAP1 PUSH1 0x40 MSTORE DUP1 MLOAD SWAP1 PUSH1 0x20 ADD KECCAK256 SWAP1 POP PUSH1 0x0 PUSH20 0xFFFFFFFFFFFFFFFFFFFFFFFFFFFFFFFFFFFFFFFF AND DUP10 PUSH20 0xFFFFFFFFFFFFFFFFFFFFFFFFFFFFFFFFFFFFFFFF AND EQ ISZERO PUSH2 0x6A3 JUMPI PUSH1 0x40 MLOAD PUSH32 0x8C379A000000000000000000000000000000000000000000000000000000000 DUP2 MSTORE PUSH1 0x4 ADD PUSH2 0x69A SWAP1 PUSH2 0x1083 JUMP JUMPDEST PUSH1 0x40 MLOAD DUP1 SWAP2 SUB SWAP1 REVERT JUMPDEST PUSH1 0x1 DUP2 DUP6 DUP6 DUP6 PUSH1 0x40 MLOAD PUSH1 0x0 DUP2 MSTORE PUSH1 0x20 ADD PUSH1 0x40 MSTORE PUSH1 0x40 MLOAD PUSH2 0x6C6 SWAP5 SWAP4 SWAP3 SWAP2 SWAP1 PUSH2 0xFBC JUMP JUMPDEST PUSH1 0x20 PUSH1 0x40 MLOAD PUSH1 0x20 DUP2 SUB SWAP1 DUP1 DUP5 SUB SWAP1 DUP6 GAS STATICCALL ISZERO DUP1 ISZERO PUSH2 0x6E8 JUMPI RETURNDATASIZE PUSH1 0x0 DUP1 RETURNDATACOPY RETURNDATASIZE PUSH1 0x0 REVERT JUMPDEST POP POP POP PUSH1 0x20 PUSH1 0x40 MLOAD SUB MLOAD PUSH20 0xFFFFFFFFFFFFFFFFFFFFFFFFFFFFFFFFFFFFFFFF AND DUP10 PUSH20 0xFFFFFFFFFFFFFFFFFFFFFFFFFFFFFFFFFFFFFFFF AND EQ PUSH2 0x75F JUMPI PUSH1 0x40 MLOAD PUSH32 0x8C379A000000000000000000000000000000000000000000000000000000000 DUP2 MSTORE PUSH1 0x4 ADD PUSH2 0x756 SWAP1 PUSH2 0x1063 JUMP JUMPDEST PUSH1 0x40 MLOAD DUP1 SWAP2 SUB SWAP1 REVERT JUMPDEST PUSH1 0x0 DUP7 EQ DUP1 PUSH2 0x76E JUMPI POP DUP6 TIMESTAMP GT ISZERO JUMPDEST PUSH2 0x7AD JUMPI PUSH1 0x40 MLOAD PUSH32 0x8C379A000000000000000000000000000000000000000000000000000000000 DUP2 MSTORE PUSH1 0x4 ADD PUSH2 0x7A4 SWAP1 PUSH2 0x1023 JUMP JUMPDEST PUSH1 0x40 MLOAD DUP1 SWAP2 SUB SWAP1 REVERT JUMPDEST PUSH1 0x2 PUSH1 0x0 DUP11 PUSH20 0xFFFFFFFFFFFFFFFFFFFFFFFFFFFFFFFFFFFFFFFF AND PUSH20 0xFFFFFFFFFFFFFFFFFFFFFFFFFFFFFFFFFFFFFFFF AND DUP2 MSTORE PUSH1 0x20 ADD SWAP1 DUP2 MSTORE PUSH1 0x20 ADD PUSH1 0x0 KECCAK256 PUSH1 0x0 DUP2 SLOAD DUP1 SWAP3 SWAP2 SWAP1 PUSH2 0x7FD SWAP1 PUSH2 0x1251 JUMP JUMPDEST SWAP2 SWAP1 POP SSTORE DUP8 EQ PUSH2 0x842 JUMPI PUSH1 0x40 MLOAD PUSH32 0x8C379A000000000000000000000000000000000000000000000000000000000 DUP2 MSTORE PUSH1 0x4 ADD PUSH2 0x839 SWAP1 PUSH2 0x1043 JUMP JUMPDEST PUSH1 0x40 MLOAD DUP1 SWAP2 SUB SWAP1 REVERT JUMPDEST PUSH1 0x0 PUSH32 0xFFFFFFFFFFFFFFFFFFFFFFFFFFFFFFFFFFFFFFFFFFFFFFFFFFFFFFFFFFFFFFFF SWAP1 POP DUP1 PUSH1 0x1 PUSH1 0x0 DUP13 PUSH20 0xFFFFFFFFFFFFFFFFFFFFFFFFFFFFFFFFFFFFFFFF AND PUSH20 0xFFFFFFFFFFFFFFFFFFFFFFFFFFFFFFFFFFFFFFFF AND DUP2 MSTORE PUSH1 0x20 ADD SWAP1 DUP2 MSTORE PUSH1 0x20 ADD PUSH1 0x0 KECCAK256 PUSH1 0x0 DUP12 PUSH20 0xFFFFFFFFFFFFFFFFFFFFFFFFFFFFFFFFFFFFFFFF AND PUSH20 0xFFFFFFFFFFFFFFFFFFFFFFFFFFFFFFFFFFFFFFFF AND DUP2 MSTORE PUSH1 0x20 ADD SWAP1 DUP2 MSTORE PUSH1 0x20 ADD PUSH1 0x0 KECCAK256 DUP2 SWAP1 SSTORE POP DUP9 PUSH20 0xFFFFFFFFFFFFFFFFFFFFFFFFFFFFFFFFFFFFFFFF AND DUP11 PUSH20 0xFFFFFFFFFFFFFFFFFFFFFFFFFFFFFFFFFFFFFFFF AND PUSH32 0x8C5BE1E5EBEC7D5BD14F71427D1E84F3DD0314C0F7B2291E5B200AC8C7C3B925 DUP4 PUSH1 0x40 MLOAD PUSH2 0x945 SWAP2 SWAP1 PUSH2 0x10A3 JUMP JUMPDEST PUSH1 0x40 MLOAD DUP1 SWAP2 SUB SWAP1 LOG3 POP POP POP POP POP POP POP POP POP POP JUMP JUMPDEST PUSH1 0x60 PUSH1 0x5 DUP1 SLOAD PUSH2 0x968 SWAP1 PUSH2 0x121F JUMP JUMPDEST DUP1 PUSH1 0x1F ADD PUSH1 0x20 DUP1 SWAP2 DIV MUL PUSH1 0x20 ADD PUSH1 0x40 MLOAD SWAP1 DUP2 ADD PUSH1 0x40 MSTORE DUP1 SWAP3 SWAP2 SWAP1 DUP2 DUP2 MSTORE PUSH1 0x20 ADD DUP3 DUP1 SLOAD PUSH2 0x994 SWAP1 PUSH2 0x121F JUMP JUMPDEST DUP1 ISZERO PUSH2 0x9E1 JUMPI DUP1 PUSH1 0x1F LT PUSH2 0x9B6 JUMPI PUSH2 0x100 DUP1 DUP4 SLOAD DIV MUL DUP4 MSTORE SWAP2 PUSH1 0x20 ADD SWAP2 PUSH2 0x9E1 JUMP JUMPDEST DUP3 ADD SWAP2 SWAP1 PUSH1 0x0 MSTORE PUSH1 0x20 PUSH1 0x0 KECCAK256 SWAP1 JUMPDEST DUP2 SLOAD DUP2 MSTORE SWAP1 PUSH1 0x1 ADD SWAP1 PUSH1 0x20 ADD DUP1 DUP4 GT PUSH2 0x9C4 JUMPI DUP3 SWAP1 SUB PUSH1 0x1F AND DUP3 ADD SWAP2 JUMPDEST POP POP POP POP POP SWAP1 POP SWAP1 JUMP JUMPDEST PUSH1 0x0 DUP2 PUSH1 0x0 DUP1 CALLER PUSH20 0xFFFFFFFFFFFFFFFFFFFFFFFFFFFFFFFFFFFFFFFF AND PUSH20 0xFFFFFFFFFFFFFFFFFFFFFFFFFFFFFFFFFFFFFFFF AND DUP2 MSTORE PUSH1 0x20 ADD SWAP1 DUP2 MSTORE PUSH1 0x20 ADD PUSH1 0x0 KECCAK256 PUSH1 0x0 DUP3 DUP3 SLOAD PUSH2 0xA3B SWAP2 SWAP1 PUSH2 0x114B JUMP JUMPDEST SWAP3 POP POP DUP2 SWAP1 SSTORE POP DUP2 PUSH1 0x0 DUP1 DUP6 PUSH20 0xFFFFFFFFFFFFFFFFFFFFFFFFFFFFFFFFFFFFFFFF AND PUSH20 0xFFFFFFFFFFFFFFFFFFFFFFFFFFFFFFFFFFFFFFFF AND DUP2 MSTORE PUSH1 0x20 ADD SWAP1 DUP2 MSTORE PUSH1 0x20 ADD PUSH1 0x0 KECCAK256 PUSH1 0x0 DUP3 DUP3 SLOAD PUSH2 0xA90 SWAP2 SWAP1 PUSH2 0x10F5 JUMP JUMPDEST SWAP3 POP POP DUP2 SWAP1 SSTORE POP DUP3 PUSH20 0xFFFFFFFFFFFFFFFFFFFFFFFFFFFFFFFFFFFFFFFF AND CALLER PUSH20 0xFFFFFFFFFFFFFFFFFFFFFFFFFFFFFFFFFFFFFFFF AND PUSH32 0xDDF252AD1BE2C89B69C2B068FC378DAA952BA7F163C4A11628F55A4DF523B3EF DUP5 PUSH1 0x40 MLOAD PUSH2 0xAF4 SWAP2 SWAP1 PUSH2 0x10A3 JUMP JUMPDEST PUSH1 0x40 MLOAD DUP1 SWAP2 SUB SWAP1 LOG3 PUSH1 0x1 SWAP1 POP SWAP3 SWAP2 POP POP JUMP JUMPDEST PUSH1 0x1 PUSH1 0x20 MSTORE DUP2 PUSH1 0x0 MSTORE PUSH1 0x40 PUSH1 0x0 KECCAK256 PUSH1 0x20 MSTORE DUP1 PUSH1 0x0 MSTORE PUSH1 0x40 PUSH1 0x0 KECCAK256 PUSH1 0x0 SWAP2 POP SWAP2 POP POP SLOAD DUP2 JUMP JUMPDEST PUSH1 0x0 DUP2 CALLDATALOAD SWAP1 POP PUSH2 0xB3A DUP2 PUSH2 0x1332 JUMP JUMPDEST SWAP3 SWAP2 POP POP JUMP JUMPDEST PUSH1 0x0 DUP2 CALLDATALOAD SWAP1 POP PUSH2 0xB4F DUP2 PUSH2 0x1349 JUMP JUMPDEST SWAP3 SWAP2 POP POP JUMP JUMPDEST PUSH1 0x0 DUP2 CALLDATALOAD SWAP1 POP PUSH2 0xB64 DUP2 PUSH2 0x1360 JUMP JUMPDEST SWAP3 SWAP2 POP POP JUMP JUMPDEST PUSH1 0x0 DUP2 CALLDATALOAD SWAP1 POP PUSH2 0xB79 DUP2 PUSH2 0x1377 JUMP JUMPDEST SWAP3 SWAP2 POP POP JUMP JUMPDEST PUSH1 0x0 DUP2 CALLDATALOAD SWAP1 POP PUSH2 0xB8E DUP2 PUSH2 0x138E JUMP JUMPDEST SWAP3 SWAP2 POP POP JUMP JUMPDEST PUSH1 0x0 PUSH1 0x20 DUP3 DUP5 SUB SLT ISZERO PUSH2 0xBA6 JUMPI PUSH1 0x0 DUP1 REVERT JUMPDEST PUSH1 0x0 PUSH2 0xBB4 DUP5 DUP3 DUP6 ADD PUSH2 0xB2B JUMP JUMPDEST SWAP2 POP POP SWAP3 SWAP2 POP POP JUMP JUMPDEST PUSH1 0x0 DUP1 PUSH1 0x40 DUP4 DUP6 SUB SLT ISZERO PUSH2 0xBD0 JUMPI PUSH1 0x0 DUP1 REVERT JUMPDEST PUSH1 0x0 PUSH2 0xBDE DUP6 DUP3 DUP7 ADD PUSH2 0xB2B JUMP JUMPDEST SWAP3 POP POP PUSH1 0x20 PUSH2 0xBEF DUP6 DUP3 DUP7 ADD PUSH2 0xB2B JUMP JUMPDEST SWAP2 POP POP SWAP3 POP SWAP3 SWAP1 POP JUMP JUMPDEST PUSH1 0x0 DUP1 PUSH1 0x0 PUSH1 0x60 DUP5 DUP7 SUB SLT ISZERO PUSH2 0xC0E JUMPI PUSH1 0x0 DUP1 REVERT JUMPDEST PUSH1 0x0 PUSH2 0xC1C DUP7 DUP3 DUP8 ADD PUSH2 0xB2B JUMP JUMPDEST SWAP4 POP POP PUSH1 0x20 PUSH2 0xC2D DUP7 DUP3 DUP8 ADD PUSH2 0xB2B JUMP JUMPDEST SWAP3 POP POP PUSH1 0x40 PUSH2 0xC3E DUP7 DUP3 DUP8 ADD PUSH2 0xB6A JUMP JUMPDEST SWAP2 POP POP SWAP3 POP SWAP3 POP SWAP3 JUMP JUMPDEST PUSH1 0x0 DUP1 PUSH1 0x0 DUP1 PUSH1 0x0 DUP1 PUSH1 0x0 DUP1 PUSH2 0x100 DUP10 DUP12 SUB SLT ISZERO PUSH2 0xC65 JUMPI PUSH1 0x0 DUP1 REVERT JUMPDEST PUSH1 0x0 PUSH2 0xC73 DUP12 DUP3 DUP13 ADD PUSH2 0xB2B JUMP JUMPDEST SWAP9 POP POP PUSH1 0x20 PUSH2 0xC84 DUP12 DUP3 DUP13 ADD PUSH2 0xB2B JUMP JUMPDEST SWAP8 POP POP PUSH1 0x40 PUSH2 0xC95 DUP12 DUP3 DUP13 ADD PUSH2 0xB6A JUMP JUMPDEST SWAP7 POP POP PUSH1 0x60 PUSH2 0xCA6 DUP12 DUP3 DUP13 ADD PUSH2 0xB6A JUMP JUMPDEST SWAP6 POP POP PUSH1 0x80 PUSH2 0xCB7 DUP12 DUP3 DUP13 ADD PUSH2 0xB40 JUMP JUMPDEST SWAP5 POP POP PUSH1 0xA0 PUSH2 0xCC8 DUP12 DUP3 DUP13 ADD PUSH2 0xB7F JUMP JUMPDEST SWAP4 POP POP PUSH1 0xC0 PUSH2 0xCD9 DUP12 DUP3 DUP13 ADD PUSH2 0xB55 JUMP JUMPDEST SWAP3 POP POP PUSH1 0xE0 PUSH2 0xCEA DUP12 DUP3 DUP13 ADD PUSH2 0xB55 JUMP JUMPDEST SWAP2 POP POP SWAP3 SWAP6 SWAP9 POP SWAP3 SWAP6 SWAP9 SWAP1 SWAP4 SWAP7 POP JUMP JUMPDEST PUSH1 0x0 DUP1 PUSH1 0x40 DUP4 DUP6 SUB SLT ISZERO PUSH2 0xD0D JUMPI PUSH1 0x0 DUP1 REVERT JUMPDEST PUSH1 0x0 PUSH2 0xD1B DUP6 DUP3 DUP7 ADD PUSH2 0xB2B JUMP JUMPDEST SWAP3 POP POP PUSH1 0x20 PUSH2 0xD2C DUP6 DUP3 DUP7 ADD PUSH2 0xB6A JUMP JUMPDEST SWAP2 POP POP SWAP3 POP SWAP3 SWAP1 POP JUMP JUMPDEST PUSH2 0xD3F DUP2 PUSH2 0x117F JUMP JUMPDEST DUP3 MSTORE POP POP JUMP JUMPDEST PUSH2 0xD4E DUP2 PUSH2 0x1191 JUMP JUMPDEST DUP3 MSTORE POP POP JUMP JUMPDEST PUSH2 0xD5D DUP2 PUSH2 0x119D JUMP JUMPDEST DUP3 MSTORE POP POP JUMP JUMPDEST PUSH2 0xD74 PUSH2 0xD6F DUP3 PUSH2 0x119D JUMP JUMPDEST PUSH2 0x129A JUMP JUMPDEST DUP3 MSTORE POP POP JUMP JUMPDEST PUSH1 0x0 PUSH2 0xD85 DUP3 PUSH2 0x10D9 JUMP JUMPDEST PUSH2 0xD8F DUP2 DUP6 PUSH2 0x10E4 JUMP JUMPDEST SWAP4 POP PUSH2 0xD9F DUP2 DUP6 PUSH1 0x20 DUP7 ADD PUSH2 0x11EC JUMP JUMPDEST PUSH2 0xDA8 DUP2 PUSH2 0x1314 JUMP JUMPDEST DUP5 ADD SWAP2 POP POP SWAP3 SWAP2 POP POP JUMP JUMPDEST PUSH1 0x0 PUSH2 0xDC0 PUSH1 0x18 DUP4 PUSH2 0x10E4 JUMP JUMPDEST SWAP2 POP PUSH32 0x7065726D69742074696D657374616D7020657870697265640000000000000000 PUSH1 0x0 DUP4 ADD MSTORE PUSH1 0x20 DUP3 ADD SWAP1 POP SWAP2 SWAP1 POP JUMP JUMPDEST PUSH1 0x0 PUSH2 0xE00 PUSH1 0xD DUP4 PUSH2 0x10E4 JUMP JUMPDEST SWAP2 POP PUSH32 0x696E76616C6964206E6F6E636500000000000000000000000000000000000000 PUSH1 0x0 DUP4 ADD MSTORE PUSH1 0x20 DUP3 ADD SWAP1 POP SWAP2 SWAP1 POP JUMP JUMPDEST PUSH1 0x0 PUSH2 0xE40 PUSH1 0x13 DUP4 PUSH2 0x10E4 JUMP JUMPDEST SWAP2 POP PUSH32 0x696E76616C6964207065726D6974206861736800000000000000000000000000 PUSH1 0x0 DUP4 ADD MSTORE PUSH1 0x20 DUP3 ADD SWAP1 POP SWAP2 SWAP1 POP JUMP JUMPDEST PUSH1 0x0 PUSH2 0xE80 PUSH1 0x1F DUP4 PUSH2 0x10E4 JUMP JUMPDEST SWAP2 POP PUSH32 0x616464726573732063616E6E6F7420626520746F6B656E206164647265737300 PUSH1 0x0 DUP4 ADD MSTORE PUSH1 0x20 DUP3 ADD SWAP1 POP SWAP2 SWAP1 POP JUMP JUMPDEST PUSH2 0xEC4 PUSH2 0xEBF DUP3 PUSH2 0x11A7 JUMP JUMPDEST PUSH2 0x12A4 JUMP JUMPDEST DUP3 MSTORE POP POP JUMP JUMPDEST PUSH2 0xED3 DUP2 PUSH2 0x11D5 JUMP JUMPDEST DUP3 MSTORE POP POP JUMP JUMPDEST PUSH2 0xEE2 DUP2 PUSH2 0x11DF JUMP JUMPDEST DUP3 MSTORE POP POP JUMP JUMPDEST PUSH1 0x0 PUSH2 0xEF4 DUP3 DUP7 PUSH2 0xEB3 JUMP JUMPDEST PUSH1 0x2 DUP3 ADD SWAP2 POP PUSH2 0xF04 DUP3 DUP6 PUSH2 0xD63 JUMP JUMPDEST PUSH1 0x20 DUP3 ADD SWAP2 POP PUSH2 0xF14 DUP3 DUP5 PUSH2 0xD63 JUMP JUMPDEST PUSH1 0x20 DUP3 ADD SWAP2 POP DUP2 SWAP1 POP SWAP5 SWAP4 POP POP POP POP JUMP JUMPDEST PUSH1 0x0 PUSH1 0x20 DUP3 ADD SWAP1 POP PUSH2 0xF3A PUSH1 0x0 DUP4 ADD DUP5 PUSH2 0xD45 JUMP JUMPDEST SWAP3 SWAP2 POP POP JUMP JUMPDEST PUSH1 0x0 PUSH1 0x20 DUP3 ADD SWAP1 POP PUSH2 0xF55 PUSH1 0x0 DUP4 ADD DUP5 PUSH2 0xD54 JUMP JUMPDEST SWAP3 SWAP2 POP POP JUMP JUMPDEST PUSH1 0x0 PUSH1 0xC0 DUP3 ADD SWAP1 POP PUSH2 0xF70 PUSH1 0x0 DUP4 ADD DUP10 PUSH2 0xD54 JUMP JUMPDEST PUSH2 0xF7D PUSH1 0x20 DUP4 ADD DUP9 PUSH2 0xD36 JUMP JUMPDEST PUSH2 0xF8A PUSH1 0x40 DUP4 ADD DUP8 PUSH2 0xD36 JUMP JUMPDEST PUSH2 0xF97 PUSH1 0x60 DUP4 ADD DUP7 PUSH2 0xECA JUMP JUMPDEST PUSH2 0xFA4 PUSH1 0x80 DUP4 ADD DUP6 PUSH2 0xECA JUMP JUMPDEST PUSH2 0xFB1 PUSH1 0xA0 DUP4 ADD DUP5 PUSH2 0xD45 JUMP JUMPDEST SWAP8 SWAP7 POP POP POP POP POP POP POP JUMP JUMPDEST PUSH1 0x0 PUSH1 0x80 DUP3 ADD SWAP1 POP PUSH2 0xFD1 PUSH1 0x0 DUP4 ADD DUP8 PUSH2 0xD54 JUMP JUMPDEST PUSH2 0xFDE PUSH1 0x20 DUP4 ADD DUP7 PUSH2 0xED9 JUMP JUMPDEST PUSH2 0xFEB PUSH1 0x40 DUP4 ADD DUP6 PUSH2 0xD54 JUMP JUMPDEST PUSH2 0xFF8 PUSH1 0x60 DUP4 ADD DUP5 PUSH2 0xD54 JUMP JUMPDEST SWAP6 SWAP5 POP POP POP POP POP JUMP JUMPDEST PUSH1 0x0 PUSH1 0x20 DUP3 ADD SWAP1 POP DUP2 DUP2 SUB PUSH1 0x0 DUP4 ADD MSTORE PUSH2 0x101B DUP2 DUP5 PUSH2 0xD7A JUMP JUMPDEST SWAP1 POP SWAP3 SWAP2 POP POP JUMP JUMPDEST PUSH1 0x0 PUSH1 0x20 DUP3 ADD SWAP1 POP DUP2 DUP2 SUB PUSH1 0x0 DUP4 ADD MSTORE PUSH2 0x103C DUP2 PUSH2 0xDB3 JUMP JUMPDEST SWAP1 POP SWAP2 SWAP1 POP JUMP JUMPDEST PUSH1 0x0 PUSH1 0x20 DUP3 ADD SWAP1 POP DUP2 DUP2 SUB PUSH1 0x0 DUP4 ADD MSTORE PUSH2 0x105C DUP2 PUSH2 0xDF3 JUMP JUMPDEST SWAP1 POP SWAP2 SWAP1 POP JUMP JUMPDEST PUSH1 0x0 PUSH1 0x20 DUP3 ADD SWAP1 POP DUP2 DUP2 SUB PUSH1 0x0 DUP4 ADD MSTORE PUSH2 0x107C DUP2 PUSH2 0xE33 JUMP JUMPDEST SWAP1 POP SWAP2 SWAP1 POP JUMP JUMPDEST PUSH1 0x0 PUSH1 0x20 DUP3 ADD SWAP1 POP DUP2 DUP2 SUB PUSH1 0x0 DUP4 ADD MSTORE PUSH2 0x109C DUP2 PUSH2 0xE73 JUMP JUMPDEST SWAP1 POP SWAP2 SWAP1 POP JUMP JUMPDEST PUSH1 0x0 PUSH1 0x20 DUP3 ADD SWAP1 POP PUSH2 0x10B8 PUSH1 0x0 DUP4 ADD DUP5 PUSH2 0xECA JUMP JUMPDEST SWAP3 SWAP2 POP POP JUMP JUMPDEST PUSH1 0x0 PUSH1 0x20 DUP3 ADD SWAP1 POP PUSH2 0x10D3 PUSH1 0x0 DUP4 ADD DUP5 PUSH2 0xED9 JUMP JUMPDEST SWAP3 SWAP2 POP POP JUMP JUMPDEST PUSH1 0x0 DUP2 MLOAD SWAP1 POP SWAP2 SWAP1 POP JUMP JUMPDEST PUSH1 0x0 DUP3 DUP3 MSTORE PUSH1 0x20 DUP3 ADD SWAP1 POP SWAP3 SWAP2 POP POP JUMP JUMPDEST PUSH1 0x0 PUSH2 0x1100 DUP3 PUSH2 0x11D5 JUMP JUMPDEST SWAP2 POP PUSH2 0x110B DUP4 PUSH2 0x11D5 JUMP JUMPDEST SWAP3 POP DUP3 PUSH32 0xFFFFFFFFFFFFFFFFFFFFFFFFFFFFFFFFFFFFFFFFFFFFFFFFFFFFFFFFFFFFFFFF SUB DUP3 GT ISZERO PUSH2 0x1140 JUMPI PUSH2 0x113F PUSH2 0x12B6 JUMP JUMPDEST JUMPDEST DUP3 DUP3 ADD SWAP1 POP SWAP3 SWAP2 POP POP JUMP JUMPDEST PUSH1 0x0 PUSH2 0x1156 DUP3 PUSH2 0x11D5 JUMP JUMPDEST SWAP2 POP PUSH2 0x1161 DUP4 PUSH2 0x11D5 JUMP JUMPDEST SWAP3 POP DUP3 DUP3 LT ISZERO PUSH2 0x1174 JUMPI PUSH2 0x1173 PUSH2 0x12B6 JUMP JUMPDEST JUMPDEST DUP3 DUP3 SUB SWAP1 POP SWAP3 SWAP2 POP POP JUMP JUMPDEST PUSH1 0x0 PUSH2 0x118A DUP3 PUSH2 0x11B5 JUMP JUMPDEST SWAP1 POP SWAP2 SWAP1 POP JUMP JUMPDEST PUSH1 0x0 DUP2 ISZERO ISZERO SWAP1 POP SWAP2 SWAP1 POP JUMP JUMPDEST PUSH1 0x0 DUP2 SWAP1 POP SWAP2 SWAP1 POP JUMP JUMPDEST PUSH1 0x0 PUSH2 0xFFFF DUP3 AND SWAP1 POP SWAP2 SWAP1 POP JUMP JUMPDEST PUSH1 0x0 PUSH20 0xFFFFFFFFFFFFFFFFFFFFFFFFFFFFFFFFFFFFFFFF DUP3 AND SWAP1 POP SWAP2 SWAP1 POP JUMP JUMPDEST PUSH1 0x0 DUP2 SWAP1 POP SWAP2 SWAP1 POP JUMP JUMPDEST PUSH1 0x0 PUSH1 0xFF DUP3 AND SWAP1 POP SWAP2 SWAP1 POP JUMP JUMPDEST PUSH1 0x0 JUMPDEST DUP4 DUP2 LT ISZERO PUSH2 0x120A JUMPI DUP1 DUP3 ADD MLOAD DUP2 DUP5 ADD MSTORE PUSH1 0x20 DUP2 ADD SWAP1 POP PUSH2 0x11EF JUMP JUMPDEST DUP4 DUP2 GT ISZERO PUSH2 0x1219 JUMPI PUSH1 0x0 DUP5 DUP5 ADD MSTORE JUMPDEST POP POP POP POP JUMP JUMPDEST PUSH1 0x0 PUSH1 0x2 DUP3 DIV SWAP1 POP PUSH1 0x1 DUP3 AND DUP1 PUSH2 0x1237 JUMPI PUSH1 0x7F DUP3 AND SWAP2 POP JUMPDEST PUSH1 0x20 DUP3 LT DUP2 EQ ISZERO PUSH2 0x124B JUMPI PUSH2 0x124A PUSH2 0x12E5 JUMP JUMPDEST JUMPDEST POP SWAP2 SWAP1 POP JUMP JUMPDEST PUSH1 0x0 PUSH2 0x125C DUP3 PUSH2 0x11D5 JUMP JUMPDEST SWAP2 POP PUSH32 0xFFFFFFFFFFFFFFFFFFFFFFFFFFFFFFFFFFFFFFFFFFFFFFFFFFFFFFFFFFFFFFFF DUP3 EQ ISZERO PUSH2 0x128F JUMPI PUSH2 0x128E PUSH2 0x12B6 JUMP JUMPDEST JUMPDEST PUSH1 0x1 DUP3 ADD SWAP1 POP SWAP2 SWAP1 POP JUMP JUMPDEST PUSH1 0x0 DUP2 SWAP1 POP SWAP2 SWAP1 POP JUMP JUMPDEST PUSH1 0x0 PUSH2 0x12AF DUP3 PUSH2 0x1325 JUMP JUMPDEST SWAP1 POP SWAP2 SWAP1 POP JUMP JUMPDEST PUSH32 0x4E487B7100000000000000000000000000000000000000000000000000000000 PUSH1 0x0 MSTORE PUSH1 0x11 PUSH1 0x4 MSTORE PUSH1 0x24 PUSH1 0x0 REVERT JUMPDEST PUSH32 0x4E487B7100000000000000000000000000000000000000000000000000000000 PUSH1 0x0 MSTORE PUSH1 0x22 PUSH1 0x4 MSTORE PUSH1 0x24 PUSH1 0x0 REVERT JUMPDEST PUSH1 0x0 PUSH1 0x1F NOT PUSH1 0x1F DUP4 ADD AND SWAP1 POP SWAP2 SWAP1 POP JUMP JUMPDEST PUSH1 0x0 DUP2 PUSH1 0xF0 SHL SWAP1 POP SWAP2 SWAP1 POP JUMP JUMPDEST PUSH2 0x133B DUP2 PUSH2 0x117F JUMP JUMPDEST DUP2 EQ PUSH2 0x1346 JUMPI PUSH1 0x0 DUP1 REVERT JUMPDEST POP JUMP JUMPDEST PUSH2 0x1352 DUP2 PUSH2 0x1191 JUMP JUMPDEST DUP2 EQ PUSH2 0x135D JUMPI PUSH1 0x0 DUP1 REVERT JUMPDEST POP JUMP JUMPDEST PUSH2 0x1369 DUP2 PUSH2 0x119D JUMP JUMPDEST DUP2 EQ PUSH2 0x1374 JUMPI PUSH1 0x0 DUP1 REVERT JUMPDEST POP JUMP JUMPDEST PUSH2 0x1380 DUP2 PUSH2 0x11D5 JUMP JUMPDEST DUP2 EQ PUSH2 0x138B JUMPI PUSH1 0x0 DUP1 REVERT JUMPDEST POP JUMP JUMPDEST PUSH2 0x1397 DUP2 PUSH2 0x11DF JUMP JUMPDEST DUP2 EQ PUSH2 0x13A2 JUMPI PUSH1 0x0 DUP1 REVERT JUMPDEST POP JUMP INVALID LOG2 PUSH5 0x6970667358 0x22 SLT KECCAK256 0xD1 TIMESTAMP CODECOPY STATICCALL 0xB3 CALLDATACOPY 0xE7 0x2C 0xC9 0xA8 ADD GASLIMIT SWAP1 SELFDESTRUCT SWAP1 EXP SELFBALANCE 0xAC 0xC1 PUSH12 0xA46FC0C9283DF230878891A3 PUSH5 0x736F6C6343 STOP ADDMOD STOP STOP CALLER "
				},
				"gasEstimates": {
					"creation": {
						"codeDepositCost": "1016600",
						"executionCost": "infinite",
						"totalCost": "infinite"
					},
					"external": {
						"DOMAIN_SEPARATOR()": "1129",
						"allowance(address,address)": "infinite",
						"approve(address,uint256)": "infinite",
						"balanceOf(address)": "1536",
						"decimals()": "432",
						"name()": "infinite",
						"permit(address,address,uint256,uint256,bool,uint8,bytes32,bytes32)": "infinite",
						"symbol()": "infinite",
						"totalSupply()": "1174",
						"transfer(address,uint256)": "infinite",
						"transferFrom(address,address,uint256)": "infinite"
					},
					"internal": {
						"burn(address,uint256)": "infinite",
						"mint(address,uint256)": "infinite"
					}
				},
				"methodIdentifiers": {
					"DOMAIN_SEPARATOR()": "3644e515",
					"allowance(address,address)": "dd62ed3e",
					"approve(address,uint256)": "095ea7b3",
					"balanceOf(address)": "70a08231",
					"decimals()": "313ce567",
					"name()": "06fdde03",
					"permit(address,address,uint256,uint256,bool,uint8,bytes32,bytes32)": "8fcbaf0c",
					"symbol()": "95d89b41",
					"totalSupply()": "18160ddd",
					"transfer(address,uint256)": "a9059cbb",
					"transferFrom(address,address,uint256)": "23b872dd"
				}
			},
			"storageLayout": {
				"storage": [
					{
						"astId": 9,
						"contract": "contracts/ERC20.sol:ERC20",
						"label": "balanceOf",
						"offset": 0,
						"slot": "0",
						"type": "t_mapping(t_address,t_uint256)"
					},
					{
						"astId": 16,
						"contract": "contracts/ERC20.sol:ERC20",
						"label": "allowance",
						"offset": 0,
						"slot": "1",
						"type": "t_mapping(t_address,t_mapping(t_address,t_uint256))"
					},
					{
						"astId": 20,
						"contract": "contracts/ERC20.sol:ERC20",
						"label": "nonces",
						"offset": 0,
						"slot": "2",
						"type": "t_mapping(t_address,t_uint256)"
					},
					{
						"astId": 23,
						"contract": "contracts/ERC20.sol:ERC20",
						"label": "totalSupply",
						"offset": 0,
						"slot": "3",
						"type": "t_uint256"
					},
					{
						"astId": 25,
						"contract": "contracts/ERC20.sol:ERC20",
						"label": "_name",
						"offset": 0,
						"slot": "4",
						"type": "t_string_storage"
					},
					{
						"astId": 27,
						"contract": "contracts/ERC20.sol:ERC20",
						"label": "_symbol",
						"offset": 0,
						"slot": "5",
						"type": "t_string_storage"
					},
					{
						"astId": 30,
						"contract": "contracts/ERC20.sol:ERC20",
						"label": "DOMAIN_SEPARATOR",
						"offset": 0,
						"slot": "6",
						"type": "t_bytes32"
					}
				],
				"types": {
					"t_address": {
						"encoding": "inplace",
						"label": "address",
						"numberOfBytes": "20"
					},
					"t_bytes32": {
						"encoding": "inplace",
						"label": "bytes32",
						"numberOfBytes": "32"
					},
					"t_mapping(t_address,t_mapping(t_address,t_uint256))": {
						"encoding": "mapping",
						"key": "t_address",
						"label": "mapping(address => mapping(address => uint256))",
						"numberOfBytes": "32",
						"value": "t_mapping(t_address,t_uint256)"
					},
					"t_mapping(t_address,t_uint256)": {
						"encoding": "mapping",
						"key": "t_address",
						"label": "mapping(address => uint256)",
						"numberOfBytes": "32",
						"value": "t_uint256"
					},
					"t_string_storage": {
						"encoding": "bytes",
						"label": "string",
						"numberOfBytes": "32"
					},
					"t_uint256": {
						"encoding": "inplace",
						"label": "uint256",
						"numberOfBytes": "32"
					}
				}
			},
			"userdoc": {
				"events": {
					"Approval(address,address,uint256)": {
						"notice": "Emitted when the allowance of a `spender` for an `owner` is set by a call to {approve}. `value` is the new allowance."
					},
					"Transfer(address,address,uint256)": {
						"notice": "Emitted when `value` tokens are moved from one account (`from`) to another (`to`). Note that `value` may be zero."
					}
				},
				"kind": "user",
				"methods": {
					"DOMAIN_SEPARATOR()": {
						"notice": "Generates a token hash based on EIP712 standard that is passed to the permit function. Returns a btytes32 value indicating whether the operation succeeded. "
					},
					"approve(address,uint256)": {
						"notice": "Sets `amount` as the allowance of `spender` over the caller's tokens. Returns a boolean value indicating whether the operation succeeded. Emits an {Approval} event."
					},
					"transfer(address,uint256)": {
						"notice": "Moves `amount` tokens from the caller's account to `recipient`. Returns a boolean value indicating whether the operation succeeded. Emits a {Transfer} event."
					},
					"transferFrom(address,address,uint256)": {
						"notice": "Moves `amount` tokens from `sender` to `recipient` using the allowance mechanism. `amount` is then deducted from the caller's allowance. Returns a boolean value indicating whether the operation succeeded. Emits a {Transfer} event."
					}
				},
				"version": 1
			}
		}
	}
}